{
  "contractName": "BeliToken",
  "abi": [
    {
      "inputs": [],
      "stateMutability": "nonpayable",
      "type": "constructor"
    },
    {
      "anonymous": false,
      "inputs": [
        {
          "indexed": true,
          "internalType": "address",
          "name": "owner",
          "type": "address"
        },
        {
          "indexed": true,
          "internalType": "address",
          "name": "spender",
          "type": "address"
        },
        {
          "indexed": false,
          "internalType": "uint256",
          "name": "value",
          "type": "uint256"
        }
      ],
      "name": "Approval",
      "type": "event"
    },
    {
      "anonymous": false,
      "inputs": [
        {
          "indexed": true,
          "internalType": "address",
          "name": "operator",
          "type": "address"
        },
        {
          "indexed": true,
          "internalType": "address",
          "name": "newReceiver",
          "type": "address"
        }
      ],
      "name": "BeliFeeReceiverUpdated",
      "type": "event"
    },
    {
      "anonymous": false,
      "inputs": [
        {
          "indexed": true,
          "internalType": "address",
          "name": "operator",
          "type": "address"
        },
        {
          "indexed": true,
          "internalType": "address",
          "name": "newReceiver",
          "type": "address"
        }
      ],
      "name": "BeliLPFeeReceiverUpdated",
      "type": "event"
    },
    {
      "anonymous": false,
      "inputs": [
        {
          "indexed": false,
          "internalType": "uint16",
          "name": "oldFactor",
          "type": "uint16"
        },
        {
          "indexed": false,
          "internalType": "uint16",
          "name": "newFactor",
          "type": "uint16"
        }
      ],
      "name": "BeliLPStakeFactorUpdated",
      "type": "event"
    },
    {
      "anonymous": false,
      "inputs": [
        {
          "indexed": false,
          "internalType": "uint16",
          "name": "oldFactor",
          "type": "uint16"
        },
        {
          "indexed": false,
          "internalType": "uint16",
          "name": "newFactor",
          "type": "uint16"
        }
      ],
      "name": "BeliStakeFactorUpdated",
      "type": "event"
    },
    {
      "anonymous": false,
      "inputs": [
        {
          "indexed": false,
          "internalType": "uint16",
          "name": "oldRate",
          "type": "uint16"
        },
        {
          "indexed": false,
          "internalType": "uint16",
          "name": "newRate",
          "type": "uint16"
        }
      ],
      "name": "FeeRateUpdated",
      "type": "event"
    },
    {
      "anonymous": false,
      "inputs": [
        {
          "indexed": true,
          "internalType": "address",
          "name": "currentOperator",
          "type": "address"
        },
        {
          "indexed": true,
          "internalType": "address",
          "name": "newOperator",
          "type": "address"
        }
      ],
      "name": "OperatorSet",
      "type": "event"
    },
    {
      "anonymous": false,
      "inputs": [
        {
          "indexed": true,
          "internalType": "address",
          "name": "previousOwner",
          "type": "address"
        },
        {
          "indexed": true,
          "internalType": "address",
          "name": "newOwner",
          "type": "address"
        }
      ],
      "name": "OwnershipTransferred",
      "type": "event"
    },
    {
      "anonymous": false,
      "inputs": [
        {
          "indexed": true,
          "internalType": "address",
          "name": "from",
          "type": "address"
        },
        {
          "indexed": true,
          "internalType": "address",
          "name": "to",
          "type": "address"
        },
        {
          "indexed": false,
          "internalType": "uint256",
          "name": "value",
          "type": "uint256"
        }
      ],
      "name": "Transfer",
      "type": "event"
    },
    {
      "anonymous": false,
      "inputs": [
        {
          "indexed": false,
          "internalType": "uint16",
          "name": "oldLimit",
          "type": "uint16"
        },
        {
          "indexed": false,
          "internalType": "uint16",
          "name": "newLimit",
          "type": "uint16"
        }
      ],
      "name": "TransferRateLimitUpdated",
      "type": "event"
    },
    {
      "anonymous": false,
      "inputs": [
        {
          "indexed": false,
          "internalType": "uint16",
          "name": "oldFactor",
          "type": "uint16"
        },
        {
          "indexed": false,
          "internalType": "uint16",
          "name": "newFactor",
          "type": "uint16"
        }
      ],
      "name": "TreasuryFactorUpdated",
      "type": "event"
    },
    {
      "anonymous": false,
      "inputs": [
        {
          "indexed": true,
          "internalType": "address",
          "name": "operator",
          "type": "address"
        },
        {
          "indexed": true,
          "internalType": "address",
          "name": "newTreasury",
          "type": "address"
        }
      ],
      "name": "TreasuryUpdated",
      "type": "event"
    },
    {
      "anonymous": false,
      "inputs": [
        {
          "indexed": true,
          "internalType": "address",
          "name": "operator",
          "type": "address"
        },
        {
          "indexed": true,
          "internalType": "address",
          "name": "whale",
          "type": "address"
        },
        {
          "indexed": false,
          "internalType": "bool",
          "name": "value",
          "type": "bool"
        }
      ],
      "name": "WhaleWhitelistSet",
      "type": "event"
    },
    {
      "inputs": [],
      "name": "BURN_ADDRESS",
      "outputs": [
        {
          "internalType": "address",
          "name": "",
          "type": "address"
        }
      ],
      "stateMutability": "view",
      "type": "function",
      "constant": true
    },
    {
      "inputs": [],
      "name": "FEE_FIRST_UPPER_LIMIT",
      "outputs": [
        {
          "internalType": "uint16",
          "name": "",
          "type": "uint16"
        }
      ],
      "stateMutability": "view",
      "type": "function",
      "constant": true
    },
    {
      "inputs": [],
      "name": "FEE_FOURTH_UPPER_LIMIT",
      "outputs": [
        {
          "internalType": "uint16",
          "name": "",
          "type": "uint16"
        }
      ],
      "stateMutability": "view",
      "type": "function",
      "constant": true
    },
    {
      "inputs": [],
      "name": "FEE_SECOND_UPPER_LIMIT",
      "outputs": [
        {
          "internalType": "uint16",
          "name": "",
          "type": "uint16"
        }
      ],
      "stateMutability": "view",
      "type": "function",
      "constant": true
    },
    {
      "inputs": [],
      "name": "FEE_THIRD_UPPER_LIMIT",
      "outputs": [
        {
          "internalType": "uint16",
          "name": "",
          "type": "uint16"
        }
      ],
      "stateMutability": "view",
      "type": "function",
      "constant": true
    },
    {
      "inputs": [],
      "name": "PRECISION_FACTOR",
      "outputs": [
        {
          "internalType": "uint16",
          "name": "",
          "type": "uint16"
        }
      ],
      "stateMutability": "view",
      "type": "function",
      "constant": true
    },
    {
      "inputs": [],
      "name": "TRANSFER_RATE_LOWER_LIMIT",
      "outputs": [
        {
          "internalType": "uint16",
          "name": "",
          "type": "uint16"
        }
      ],
      "stateMutability": "view",
      "type": "function",
      "constant": true
    },
    {
      "inputs": [
        {
          "internalType": "address",
          "name": "owner",
          "type": "address"
        },
        {
          "internalType": "address",
          "name": "spender",
          "type": "address"
        }
      ],
      "name": "allowance",
      "outputs": [
        {
          "internalType": "uint256",
          "name": "",
          "type": "uint256"
        }
      ],
      "stateMutability": "view",
      "type": "function",
      "constant": true
    },
    {
      "inputs": [
        {
          "internalType": "address",
          "name": "spender",
          "type": "address"
        },
        {
          "internalType": "uint256",
          "name": "amount",
          "type": "uint256"
        }
      ],
      "name": "approve",
      "outputs": [
        {
          "internalType": "bool",
          "name": "",
          "type": "bool"
        }
      ],
      "stateMutability": "nonpayable",
      "type": "function"
    },
    {
      "inputs": [
        {
          "internalType": "address",
          "name": "account",
          "type": "address"
        }
      ],
      "name": "balanceOf",
      "outputs": [
        {
          "internalType": "uint256",
          "name": "",
          "type": "uint256"
        }
      ],
      "stateMutability": "view",
      "type": "function",
      "constant": true
    },
    {
      "inputs": [],
      "name": "beliFeeReceiver",
      "outputs": [
        {
          "internalType": "address",
          "name": "",
          "type": "address"
        }
      ],
      "stateMutability": "view",
      "type": "function",
      "constant": true
    },
    {
      "inputs": [],
      "name": "beliLpFeeReceiver",
      "outputs": [
        {
          "internalType": "address",
          "name": "",
          "type": "address"
        }
      ],
      "stateMutability": "view",
      "type": "function",
      "constant": true
    },
    {
      "inputs": [],
      "name": "beliStakeFactor",
      "outputs": [
        {
          "internalType": "uint16",
          "name": "",
          "type": "uint16"
        }
      ],
      "stateMutability": "view",
      "type": "function",
      "constant": true
    },
    {
      "inputs": [],
      "name": "decimals",
      "outputs": [
        {
          "internalType": "uint8",
          "name": "",
          "type": "uint8"
        }
      ],
      "stateMutability": "view",
      "type": "function",
      "constant": true
    },
    {
      "inputs": [
        {
          "internalType": "address",
          "name": "spender",
          "type": "address"
        },
        {
          "internalType": "uint256",
          "name": "subtractedValue",
          "type": "uint256"
        }
      ],
      "name": "decreaseAllowance",
      "outputs": [
        {
          "internalType": "bool",
          "name": "",
          "type": "bool"
        }
      ],
      "stateMutability": "nonpayable",
      "type": "function"
    },
    {
      "inputs": [],
      "name": "deploymentBlockNumber",
      "outputs": [
        {
          "internalType": "uint256",
          "name": "",
          "type": "uint256"
        }
      ],
      "stateMutability": "view",
      "type": "function",
      "constant": true
    },
    {
      "inputs": [],
      "name": "feeRate",
      "outputs": [
        {
          "internalType": "uint16",
          "name": "",
          "type": "uint16"
        }
      ],
      "stateMutability": "view",
      "type": "function",
      "constant": true
    },
    {
      "inputs": [
        {
          "internalType": "address",
          "name": "spender",
          "type": "address"
        },
        {
          "internalType": "uint256",
          "name": "addedValue",
          "type": "uint256"
        }
      ],
      "name": "increaseAllowance",
      "outputs": [
        {
          "internalType": "bool",
          "name": "",
          "type": "bool"
        }
      ],
      "stateMutability": "nonpayable",
      "type": "function"
    },
    {
      "inputs": [],
      "name": "lpStakeFactor",
      "outputs": [
        {
          "internalType": "uint16",
          "name": "",
          "type": "uint16"
        }
      ],
      "stateMutability": "view",
      "type": "function",
      "constant": true
    },
    {
      "inputs": [],
      "name": "name",
      "outputs": [
        {
          "internalType": "string",
          "name": "",
          "type": "string"
        }
      ],
      "stateMutability": "view",
      "type": "function",
      "constant": true
    },
    {
      "inputs": [],
      "name": "operator",
      "outputs": [
        {
          "internalType": "address",
          "name": "",
          "type": "address"
        }
      ],
      "stateMutability": "view",
      "type": "function",
      "constant": true
    },
    {
      "inputs": [],
      "name": "owner",
      "outputs": [
        {
          "internalType": "address",
          "name": "",
          "type": "address"
        }
      ],
      "stateMutability": "view",
      "type": "function",
      "constant": true
    },
    {
      "inputs": [],
      "name": "renounceOwnership",
      "outputs": [],
      "stateMutability": "nonpayable",
      "type": "function"
    },
    {
      "inputs": [],
      "name": "symbol",
      "outputs": [
        {
          "internalType": "string",
          "name": "",
          "type": "string"
        }
      ],
      "stateMutability": "view",
      "type": "function",
      "constant": true
    },
    {
      "inputs": [],
      "name": "totalSupply",
      "outputs": [
        {
          "internalType": "uint256",
          "name": "",
          "type": "uint256"
        }
      ],
      "stateMutability": "view",
      "type": "function",
      "constant": true
    },
    {
      "inputs": [
        {
          "internalType": "address",
          "name": "recipient",
          "type": "address"
        },
        {
          "internalType": "uint256",
          "name": "amount",
          "type": "uint256"
        }
      ],
      "name": "transfer",
      "outputs": [
        {
          "internalType": "bool",
          "name": "",
          "type": "bool"
        }
      ],
      "stateMutability": "nonpayable",
      "type": "function"
    },
    {
      "inputs": [
        {
          "internalType": "address",
          "name": "sender",
          "type": "address"
        },
        {
          "internalType": "address",
          "name": "recipient",
          "type": "address"
        },
        {
          "internalType": "uint256",
          "name": "amount",
          "type": "uint256"
        }
      ],
      "name": "transferFrom",
      "outputs": [
        {
          "internalType": "bool",
          "name": "",
          "type": "bool"
        }
      ],
      "stateMutability": "nonpayable",
      "type": "function"
    },
    {
      "inputs": [
        {
          "internalType": "address",
          "name": "newOwner",
          "type": "address"
        }
      ],
      "name": "transferOwnership",
      "outputs": [],
      "stateMutability": "nonpayable",
      "type": "function"
    },
    {
      "inputs": [],
      "name": "transferRateLimit",
      "outputs": [
        {
          "internalType": "uint16",
          "name": "",
          "type": "uint16"
        }
      ],
      "stateMutability": "view",
      "type": "function",
      "constant": true
    },
    {
      "inputs": [],
      "name": "treasury",
      "outputs": [
        {
          "internalType": "address",
          "name": "",
          "type": "address"
        }
      ],
      "stateMutability": "view",
      "type": "function",
      "constant": true
    },
    {
      "inputs": [],
      "name": "treasuryFactor",
      "outputs": [
        {
          "internalType": "uint16",
          "name": "",
          "type": "uint16"
        }
      ],
      "stateMutability": "view",
      "type": "function",
      "constant": true
    },
    {
      "inputs": [],
      "name": "appliedFeeRate",
      "outputs": [
        {
          "internalType": "uint16",
          "name": "",
          "type": "uint16"
        }
      ],
      "stateMutability": "view",
      "type": "function",
      "constant": true
    },
    {
      "inputs": [
        {
          "internalType": "uint16",
          "name": "_newLimit",
          "type": "uint16"
        }
      ],
      "name": "updateTransferLimit",
      "outputs": [],
      "stateMutability": "nonpayable",
      "type": "function"
    },
    {
      "inputs": [
        {
          "internalType": "uint16",
          "name": "_newRate",
          "type": "uint16"
        }
      ],
      "name": "updateFeeRate",
      "outputs": [],
      "stateMutability": "nonpayable",
      "type": "function"
    },
    {
      "inputs": [
        {
          "internalType": "uint16",
          "name": "_newRate",
          "type": "uint16"
        }
      ],
      "name": "updateTreasuryFactor",
      "outputs": [],
      "stateMutability": "nonpayable",
      "type": "function"
    },
    {
      "inputs": [
        {
          "internalType": "uint16",
          "name": "_newRate",
          "type": "uint16"
        }
      ],
      "name": "updateBeliStakeFactor",
      "outputs": [],
      "stateMutability": "nonpayable",
      "type": "function"
    },
    {
      "inputs": [
        {
          "internalType": "uint16",
          "name": "_newRate",
          "type": "uint16"
        }
      ],
      "name": "updateBeliLPStakeFactor",
      "outputs": [],
      "stateMutability": "nonpayable",
      "type": "function"
    },
    {
      "inputs": [
        {
          "internalType": "address",
          "name": "_account",
          "type": "address"
        }
      ],
      "name": "isExcludedWhale",
      "outputs": [
        {
          "internalType": "bool",
          "name": "",
          "type": "bool"
        }
      ],
      "stateMutability": "view",
      "type": "function",
      "constant": true
    },
    {
      "inputs": [
        {
          "internalType": "address",
          "name": "_account",
          "type": "address"
        },
        {
          "internalType": "bool",
          "name": "_value",
          "type": "bool"
        }
      ],
      "name": "setWhaleExclusion",
      "outputs": [],
      "stateMutability": "nonpayable",
      "type": "function"
    },
    {
      "inputs": [
        {
          "internalType": "address",
          "name": "_feeReceiver",
          "type": "address"
        }
      ],
      "name": "setBeliFeeReceiver",
      "outputs": [],
      "stateMutability": "nonpayable",
      "type": "function"
    },
    {
      "inputs": [
        {
          "internalType": "address",
          "name": "_feeReceiver",
          "type": "address"
        }
      ],
      "name": "setBeliLPFeeReceiver",
      "outputs": [],
      "stateMutability": "nonpayable",
      "type": "function"
    },
    {
      "inputs": [
        {
          "internalType": "address",
          "name": "_treasury",
          "type": "address"
        }
      ],
      "name": "setTreasury",
      "outputs": [],
      "stateMutability": "nonpayable",
      "type": "function"
    },
    {
      "inputs": [
        {
          "internalType": "address",
          "name": "_newOperator",
          "type": "address"
        }
      ],
      "name": "setOperator",
      "outputs": [],
      "stateMutability": "nonpayable",
      "type": "function"
    },
    {
      "inputs": [],
      "name": "maxTransfer",
      "outputs": [
        {
          "internalType": "uint256",
          "name": "",
          "type": "uint256"
        }
      ],
      "stateMutability": "view",
      "type": "function",
      "constant": true
    },
    {
      "inputs": [
        {
          "internalType": "address",
          "name": "_to",
          "type": "address"
        },
        {
          "internalType": "uint256",
          "name": "_amount",
          "type": "uint256"
        }
      ],
      "name": "mint",
      "outputs": [],
      "stateMutability": "nonpayable",
      "type": "function"
    }
  ],
  "bytecode": "0x60806040526009805461ffff60a01b1916601960a21b1761ffff60b01b191661027160b21b1761ffff60c01b191661027160c21b1761ffff60d01b191661027160d21b1761ffff60e01b191661027160e41b1790553480156200006157600080fd5b50604080518082018252600a8152692132b634902a37b5b2b760b11b60208083019182528351808501909452600484526342454c4960e01b908401528151919291620000b091600391620001cc565b508051620000c6906004906020840190620001cc565b50506005805460ff19166012179055506000620000e2620001c8565b60058054610100600160a81b0319166101006001600160a01b03841690810291909117909155604051919250906000907f8be0079c531659141344cd1fd0a4f28419497f9722a3daafe3b4186f6b6457e0908290a350600680546001600160a01b03191633179055306000908152600b60205260408120805460ff1990811660019081179092557f44433eeeda1d04bdae79f62169cdb2ab0a6af287fa15706d3fafdbac5fac341580548216831790559180527fdf7de25b7f1fd6d0b5205f0e18f1f35bd7b8d84cce336588d184533ce43a6f76805490921617905543600a5562000268565b3390565b828054600181600116156101000203166002900490600052602060002090601f016020900481019282601f106200020f57805160ff19168380011785556200023f565b828001600101855582156200023f579182015b828111156200023f57825182559160200191906001019062000222565b506200024d92915062000251565b5090565b5b808211156200024d576000815560010162000252565b6120f180620002786000396000f3fe608060405234801561001057600080fd5b506004361061027f5760003560e01c80638da5cb5b1161015c578063ce503ea0116100ce578063ed233ee911610087578063ed233ee91461069f578063ef4a553f146106a7578063f0f44260146106cd578063f2fde38b146106f3578063f321ee9a14610719578063fccc28131461073f5761027f565b8063ce503ea014610617578063cf0042171461061f578063d513d9cf14610627578063dd62ed3e14610648578063df7a5af914610676578063e7d33469146106975761027f565b8063a457c2d711610120578063a457c2d714610581578063a9059cbb146105ad578063a9b58872146105d9578063b3ab15fb146105e1578063c217308214610607578063ccd34cd51461060f5761027f565b80638da5cb5b146105275780638e891f9f1461052f57806395d89b4114610550578063978bbdb9146105585780639f3d8003146105605761027f565b8063570ca735116101f5578063715018a6116101b9578063715018a6146104ff57806374a6c6881461042f57806375e5289e146105075780637bf3c5dd1461050f5780637ecc9e361461051757806380c4e1b11461051f5761027f565b8063570ca735146104a05780635d8ba5a1146104a857806361d027b3146104b05780636acd7dfa146104b857806370a08231146104d95761027f565b8063313ce56711610247578063313ce567146103c157806334820e0f146103df57806339509351146104035780633c0b4bdd1461042f57806340c10f191461044e578063417815b01461047a5761027f565b806306fdde0314610284578063095ea7b31461030157806318160ddd1461034157806323b872dd1461035b57806328457eb214610391575b600080fd5b61028c610747565b6040805160208082528351818301528351919283929083019185019080838360005b838110156102c65781810151838201526020016102ae565b50505050905090810190601f1680156102f35780820380516001836020036101000a031916815260200191505b509250505060405180910390f35b61032d6004803603604081101561031757600080fd5b506001600160a01b0381351690602001356107de565b604080519115158252519081900360200190f35b6103496107fc565b60408051918252519081900360200190f35b61032d6004803603606081101561037157600080fd5b506001600160a01b03813581169160208101359091169060400135610802565b6103bf600480360360408110156103a757600080fd5b506001600160a01b0381351690602001351515610889565b005b6103c9610998565b6040805160ff9092168252519081900360200190f35b6103e76109a1565b604080516001600160a01b039092168252519081900360200190f35b61032d6004803603604081101561041957600080fd5b506001600160a01b0381351690602001356109b0565b6104376109fe565b6040805161ffff9092168252519081900360200190f35b6103bf6004803603604081101561046457600080fd5b506001600160a01b038135169060200135610a03565b6103bf6004803603602081101561049057600080fd5b50356001600160a01b0316610a85565b6103e7610b20565b610437610b2f565b6103e7610b40565b6103bf600480360360208110156104ce57600080fd5b503561ffff16610b4f565b610349600480360360208110156104ef57600080fd5b50356001600160a01b0316610cb9565b6103bf610cd4565b610437610d98565b610437610d9d565b6103e7610dae565b610437610dbd565b6103e7610dce565b6103bf6004803603602081101561054557600080fd5b503561ffff16610de2565b61028c610edc565b610437610f3d565b6103bf6004803603602081101561057657600080fd5b503561ffff16610f4e565b61032d6004803603604081101561059757600080fd5b506001600160a01b038135169060200135611051565b61032d600480360360408110156105c357600080fd5b506001600160a01b0381351690602001356110b9565b6104376110cd565b6103bf600480360360208110156105f757600080fd5b50356001600160a01b03166110de565b610437611183565b610437611188565b61043761118e565b6103496111d3565b6103bf6004803603602081101561063d57600080fd5b503561ffff166111d9565b6103496004803603604081101561065e57600080fd5b506001600160a01b03813581169160200135166112d3565b6103bf6004803603602081101561068c57600080fd5b503561ffff166112fe565b6104376113f8565b6103496113fd565b61032d600480360360208110156106bd57600080fd5b50356001600160a01b031661142e565b6103bf600480360360208110156106e357600080fd5b50356001600160a01b031661144c565b6103bf6004803603602081101561070957600080fd5b50356001600160a01b03166114e7565b6103bf6004803603602081101561072f57600080fd5b50356001600160a01b0316611607565b6103e76116a2565b60038054604080516020601f60026000196101006001881615020190951694909404938401819004810282018101909252828152606093909290918301828280156107d35780601f106107a8576101008083540402835291602001916107d3565b820191906000526020600020905b8154815290600101906020018083116107b657829003601f168201915b505050505090505b90565b60006107f26107eb6116a8565b84846116ac565b5060015b92915050565b60025490565b600061080f848484611798565b61087f8461081b6116a8565b61087a85604051806060016040528060288152602001611f9b602891396001600160a01b038a166000908152600160205260408120906108596116a8565b6001600160a01b031681526020810191909152604001600020549190611996565b6116ac565b5060019392505050565b6006546001600160a01b031633146108d25760405162461bcd60e51b81526004018080602001828103825260348152602001806120636034913960400191505060405180910390fd5b6001600160a01b03821661092d576040805162461bcd60e51b815260206004820152601b60248201527f6163636f756e742063616e6e6f74206265206164647265737320300000000000604482015290519081900360640190fd5b6001600160a01b038281166000818152600b6020908152604091829020805460ff191686151590811790915560065483519182529251939492909216927fa848e9fba0491ebcaf057f42da3771a3e2ee690435e8432b652d9d70894aaea69281900390910190a35050565b60055460ff1690565b6007546001600160a01b031681565b60006107f26109bd6116a8565b8461087a85600160006109ce6116a8565b6001600160a01b03908116825260208083019390935260409182016000908120918c168152925290205490611a2d565b603281565b610a0b6116a8565b6001600160a01b0316610a1c610dce565b6001600160a01b031614610a77576040805162461bcd60e51b815260206004820181905260248201527f4f776e61626c653a2063616c6c6572206973206e6f7420746865206f776e6572604482015290519081900360640190fd5b610a818282611a8e565b5050565b6006546001600160a01b03163314610ace5760405162461bcd60e51b81526004018080602001828103825260348152602001806120636034913960400191505060405180910390fd5b600780546001600160a01b0319166001600160a01b03838116918217909255600654604051919216907f5b595c06f652b29abffa330d8cb7e1ae271f6f0b085040474a1a5291ddfa9cb990600090a350565b6006546001600160a01b031681565b600954600160d01b900461ffff1681565b6009546001600160a01b031681565b6006546001600160a01b03163314610b985760405162461bcd60e51b81526004018080602001828103825260348152602001806120636034913960400191505060405180910390fd5b61271061ffff82161115610bf3576040805162461bcd60e51b815260206004820152601d60248201527f6e6577207472616e73666572206c696d697420697320746f6f20626967000000604482015290519081900360640190fd5b603261ffff82161015610c4d576040805162461bcd60e51b815260206004820152601f60248201527f6e6577207472616e73666572206c696d697420697320746f6f20736d616c6c00604482015290519081900360640190fd5b6009546040805161ffff600160e01b90930483168152918316602083015280517fb868cce6160bc28d0b728cc1d85d7aaf08afd3d0f51ddd133128b1f671b48b139281900390910190a16009805461ffff909216600160e01b0261ffff60e01b19909216919091179055565b6001600160a01b031660009081526020819052604090205490565b610cdc6116a8565b6001600160a01b0316610ced610dce565b6001600160a01b031614610d48576040805162461bcd60e51b815260206004820181905260248201527f4f776e61626c653a2063616c6c6572206973206e6f7420746865206f776e6572604482015290519081900360640190fd5b60055460405160009161010090046001600160a01b0316907f8be0079c531659141344cd1fd0a4f28419497f9722a3daafe3b4186f6b6457e0908390a360058054610100600160a81b0319169055565b601981565b600954600160b01b900461ffff1681565b6008546001600160a01b031681565b600954600160e01b900461ffff1681565b60055461010090046001600160a01b031690565b6006546001600160a01b03163314610e2b5760405162461bcd60e51b81526004018080602001828103825260348152602001806120636034913960400191505060405180910390fd5b6109c48161ffff161115610e705760405162461bcd60e51b815260040180806020018281038252602a815260200180611f28602a913960400191505060405180910390fd5b6009546040805161ffff600160c01b90930483168152918316602083015280517f1521f31b2d47315ba158588858c7edc3f0e23c2bf0f4d7fb6cc3280e37f52a409281900390910190a16009805461ffff909216600160c01b0261ffff60c01b19909216919091179055565b60048054604080516020601f60026000196101006001881615020190951694909404938401819004810282018101909252828152606093909290918301828280156107d35780601f106107a8576101008083540402835291602001916107d3565b600954600160a01b900461ffff1681565b6006546001600160a01b03163314610f975760405162461bcd60e51b81526004018080602001828103825260348152602001806120636034913960400191505060405180910390fd5b610f9f611b7e565b61ffff168161ffff161115610fe55760405162461bcd60e51b8152600401808060200182810382526029815260200180611eff6029913960400191505060405180910390fd5b6009546040805161ffff600160a01b90930483168152918316602083015280517fb370ef6dff48940312f4d646e41f04d3ca5e74af4301c3647ebd5a5779271e329281900390910190a16009805461ffff909216600160a01b0261ffff60a01b19909216919091179055565b60006107f261105e6116a8565b8461087a8560405180606001604052806025815260200161209760259139600160006110886116a8565b6001600160a01b03908116825260208083019390935260409182016000908120918d16815292529020549190611996565b60006107f26110c66116a8565b8484611798565b600954600160c01b900461ffff1681565b6006546001600160a01b031633146111275760405162461bcd60e51b81526004018080602001828103825260348152602001806120636034913960400191505060405180910390fd5b6006546040516001600160a01b038084169216907ffd489696792cc4c5d5b226c46f008e459c8ec9b746c49191d74bb92c19fd186790600090a3600680546001600160a01b0319166001600160a01b0392909216919091179055565b606481565b61271081565b6000611198611b7e565b60095461ffff918216600160a01b90910490911610156111c65750600954600160a01b900461ffff166107db565b6111ce611b7e565b905090565b600a5481565b6006546001600160a01b031633146112225760405162461bcd60e51b81526004018080602001828103825260348152602001806120636034913960400191505060405180910390fd5b6109c48161ffff1611156112675760405162461bcd60e51b815260040180806020018281038252602c815260200180611fee602c913960400191505060405180910390fd5b6009546040805161ffff600160b01b90930483168152918316602083015280517fc18106155e5712fd09b53513db6d656f9c8ff947b672fe47a4507df6be8d9dfd9281900390910190a16009805461ffff909216600160b01b0261ffff60b01b19909216919091179055565b6001600160a01b03918216600090815260016020908152604080832093909416825291909152205490565b6006546001600160a01b031633146113475760405162461bcd60e51b81526004018080602001828103825260348152602001806120636034913960400191505060405180910390fd5b6109c48161ffff16111561138c5760405162461bcd60e51b8152600401808060200182810382526028815260200180611f526028913960400191505060405180910390fd5b6009546040805161ffff600160d01b90930483168152918316602083015280517f8359f877dce38e3b6091d8a4b3d3ede3721ed2377500325f8c61af2c55a2722a9281900390910190a16009805461ffff909216600160d01b0261ffff60d01b19909216919091179055565b604b81565b6009546000906111ce906127109061142890600160e01b900461ffff166114226107fc565b90611bf0565b90611c49565b6001600160a01b03166000908152600b602052604090205460ff1690565b6006546001600160a01b031633146114955760405162461bcd60e51b81526004018080602001828103825260348152602001806120636034913960400191505060405180910390fd5b600980546001600160a01b0319166001600160a01b03838116918217909255600654604051919216907f4ab5be82436d353e61ca18726e984e561f5c1cc7c6d38b29d2553c790434705a90600090a350565b6114ef6116a8565b6001600160a01b0316611500610dce565b6001600160a01b03161461155b576040805162461bcd60e51b815260206004820181905260248201527f4f776e61626c653a2063616c6c6572206973206e6f7420746865206f776e6572604482015290519081900360640190fd5b6001600160a01b0381166115a05760405162461bcd60e51b8152600401808060200182810382526026815260200180611e916026913960400191505060405180910390fd5b6005546040516001600160a01b0380841692610100900416907f8be0079c531659141344cd1fd0a4f28419497f9722a3daafe3b4186f6b6457e090600090a3600580546001600160a01b0390921661010002610100600160a81b0319909216919091179055565b6006546001600160a01b031633146116505760405162461bcd60e51b81526004018080602001828103825260348152602001806120636034913960400191505060405180910390fd5b600880546001600160a01b0319166001600160a01b03838116918217909255600654604051919216907f88ab16f6279050d9e8fb02d2ec814a26cc6d1941490671140466f92f8290faf890600090a350565b61dead81565b3390565b6001600160a01b0383166116f15760405162461bcd60e51b815260040180806020018281038252602481526020018061203f6024913960400191505060405180910390fd5b6001600160a01b0382166117365760405162461bcd60e51b8152600401808060200182810382526022815260200180611eb76022913960400191505060405180910390fd5b6001600160a01b03808416600081815260016020908152604080832094871680845294825291829020859055815185815291517f8c5be1e5ebec7d5bd14f71427d1e84f3dd0314c0f7b2291e5b200ac8c7c3b9259281900390910190a3505050565b8282826117a48361142e565b1580156117b757506117b58261142e565b155b15611802576117c46113fd565b8111156118025760405162461bcd60e51b815260040180806020018281038252602b815260200180611fc3602b913960400191505060405180910390fd5b6001600160a01b03851661dead141561182557611820868686611cb0565b61198e565b60008080808061184761271061142861183c61118e565b8c9061ffff16611bf0565b6009549091506001600160a01b03161561187f5760095461187c9061271090611428908490600160d01b900461ffff16611bf0565b93505b6007546001600160a01b0316156118b4576009546118b19061271090611428908490600160c01b900461ffff16611bf0565b91505b6008546001600160a01b0316156118e9576009546118e69061271090611428908490600160b01b900461ffff16611bf0565b92505b6118ff826118f985818589611e0b565b90611e0b565b9450600061190d8a83611e0b565b90508515611922576119228c61dead88611cb0565b841561194057600954611940908d906001600160a01b031687611cb0565b831561195e5760085461195e908d906001600160a01b031686611cb0565b821561197c5760075461197c908d906001600160a01b031685611cb0565b6119878c8c83611cb0565b5050505050505b505050505050565b60008184841115611a255760405162461bcd60e51b81526004018080602001828103825283818151815260200191508051906020019080838360005b838110156119ea5781810151838201526020016119d2565b50505050905090810190601f168015611a175780820380516001836020036101000a031916815260200191505b509250505060405180910390fd5b505050900390565b600082820183811015611a87576040805162461bcd60e51b815260206004820152601b60248201527f536166654d6174683a206164646974696f6e206f766572666c6f770000000000604482015290519081900360640190fd5b9392505050565b6001600160a01b038216611ae9576040805162461bcd60e51b815260206004820152601f60248201527f45524332303a206d696e7420746f20746865207a65726f206164647265737300604482015290519081900360640190fd5b611af560008383611e68565b600254611b029082611a2d565b6002556001600160a01b038216600090815260208190526040902054611b289082611a2d565b6001600160a01b0383166000818152602081815260408083209490945583518581529351929391927fddf252ad1be2c89b69c2b068fc378daa952ba7f163c4a11628f55a4df523b3ef9281900390910190a35050565b600a5460009062a0668090611b939082611a2d565b4311611ba35760649150506107db565b611bba611bb1826002611bf0565b600a5490611a2d565b4311611bca57604b9150506107db565b611bd8611bb1826003611bf0565b4311611be85760329150506107db565b601991505090565b600082611bff575060006107f6565b82820282848281611c0c57fe5b0414611a875760405162461bcd60e51b8152600401808060200182810382526021815260200180611f7a6021913960400191505060405180910390fd5b6000808211611c9f576040805162461bcd60e51b815260206004820152601a60248201527f536166654d6174683a206469766973696f6e206279207a65726f000000000000604482015290519081900360640190fd5b818381611ca857fe5b049392505050565b6001600160a01b038316611cf55760405162461bcd60e51b815260040180806020018281038252602581526020018061201a6025913960400191505060405180910390fd5b6001600160a01b038216611d3a5760405162461bcd60e51b8152600401808060200182810382526023815260200180611e6e6023913960400191505060405180910390fd5b611d45838383611e68565b611d8281604051806060016040528060268152602001611ed9602691396001600160a01b0386166000908152602081905260409020549190611996565b6001600160a01b038085166000908152602081905260408082209390935590841681522054611db19082611a2d565b6001600160a01b038084166000818152602081815260409182902094909455805185815290519193928716927fddf252ad1be2c89b69c2b068fc378daa952ba7f163c4a11628f55a4df523b3ef92918290030190a3505050565b600082821115611e62576040805162461bcd60e51b815260206004820152601e60248201527f536166654d6174683a207375627472616374696f6e206f766572666c6f770000604482015290519081900360640190fd5b50900390565b50505056fe45524332303a207472616e7366657220746f20746865207a65726f20616464726573734f776e61626c653a206e6577206f776e657220697320746865207a65726f206164647265737345524332303a20617070726f766520746f20746865207a65726f206164647265737345524332303a207472616e7366657220616d6f756e7420657863656564732062616c616e63656665652072617465206973206c6172676572207468616e206d617820616c6c6f7765642076616c75656f6e6c79206d6178696d756d206f662032352520666f72204c50207374616b696e6720616c6c6f7765646f6e6c79206d6178696d756d206f662032352520666f7220747265617375727920616c6c6f776564536166654d6174683a206d756c7469706c69636174696f6e206f766572666c6f7745524332303a207472616e7366657220616d6f756e74206578636565647320616c6c6f77616e63655472616e7366657220616d6f756e74206578636565646564206d617820616d6f756e7420616c6c6f7765646f6e6c79206d6178696d756d206f662032352520666f722062656c69207374616b696e6720616c6c6f77656445524332303a207472616e736665722066726f6d20746865207a65726f206164647265737345524332303a20617070726f76652066726f6d20746865207a65726f2061646472657373556e617574686f72697a656421204f6e6c79206f70657261746f72206d61792061636365737320746869732066756e6374696f6e45524332303a2064656372656173656420616c6c6f77616e63652062656c6f77207a65726fa26469706673582212208eaf71018b0872287d6005d128c3638f58ec6cdc2cabddde2315555b992feeab64736f6c634300060c0033",
  "immutableReferences": {},
  "source": "// SPDX-License-Identifier: MIT\npragma solidity 0.6.12;\n\nimport \"@openzeppelin/contracts/token/ERC20/ERC20.sol\";\nimport \"@openzeppelin/contracts/token/ERC20/SafeERC20.sol\";\nimport \"@openzeppelin/contracts/math/SafeMath.sol\";\nimport \"@openzeppelin/contracts/access/Ownable.sol\";\nimport \"@openzeppelin/contracts/utils/Address.sol\";\n\ncontract BeliToken is ERC20(\"Beli Token\", \"BELI\"), Ownable {\n    using SafeMath for uint256;\n\n    address public operator;\n    address public beliLpFeeReceiver;\n    address public beliFeeReceiver;\n    address public treasury;\n    address public constant BURN_ADDRESS = 0x000000000000000000000000000000000000dEaD;\n    uint16 public feeRate = 100; // 1%, transfer tax\n    uint16 public constant FEE_FIRST_UPPER_LIMIT = 100; // 1%\n    uint16 public constant FEE_SECOND_UPPER_LIMIT = 75; // 0.75%\n    uint16 public constant FEE_THIRD_UPPER_LIMIT = 50; // 0.5%\n    uint16 public constant FEE_FOURTH_UPPER_LIMIT = 25; // 0.25%\n\n    uint16 public beliStakeFactor = 2500; // 25%, % of transfer tax to FeeReceiver\n    uint16 public lpStakeFactor = 2500; // 25%, % of transfer tax to LPFeeReceiver\n    uint16 public treasuryFactor = 2500; // 25%, % of transfer tax to treasury\n\n    // anti-whale factor\n    uint16 public transferRateLimit = 10000; // 1%\n    uint16 public constant TRANSFER_RATE_LOWER_LIMIT = 50; // 0.5%, lower limit of maximum transfer (anti-whale)\n\n    uint16 public constant PRECISION_FACTOR = 10000; // 100%\n    uint256 public deploymentBlockNumber;\n\n    mapping(address => bool) private excludedFromAntiWhale;\n\n    modifier antiWhale(address _sender, address _recipient, uint256 _amount) {\n        if (isExcludedWhale(_sender) == false && isExcludedWhale(_recipient) == false) {\n            require(_amount <= maxTransfer(), \"Transfer amount exceeded max amount allowed\");\n        }\n        _;\n    }\n\n    modifier onlyOperator() {\n        require(msg.sender == operator, \"Unauthorized! Only operator may access this function\");\n        _;\n    }\n\n    event OperatorSet(address indexed currentOperator, address indexed newOperator);\n    event WhaleWhitelistSet(address indexed operator, address indexed whale, bool value);\n    event FeeRateUpdated(uint16 oldRate, uint16 newRate);\n    event TransferRateLimitUpdated(uint16 oldLimit, uint16 newLimit);\n    event BeliFeeReceiverUpdated(address indexed operator, address indexed newReceiver);\n    event BeliLPFeeReceiverUpdated(address indexed operator, address indexed newReceiver);\n    event TreasuryUpdated(address indexed operator, address indexed newTreasury);\n    event BeliStakeFactorUpdated(uint16 oldFactor, uint16 newFactor);\n    event BeliLPStakeFactorUpdated(uint16 oldFactor, uint16 newFactor);\n    event TreasuryFactorUpdated(uint16 oldFactor, uint16 newFactor);\n\n    constructor() public {\n        operator = msg.sender;\n        excludedFromAntiWhale[address(this)] = true;\n        excludedFromAntiWhale[BURN_ADDRESS] = true;\n        excludedFromAntiWhale[address(0)] = true;\n        deploymentBlockNumber = block.number;\n    }\n\n    function feeRateUpperLimit() private view returns(uint16) {\n        uint256 blockPerYear = 10512000;\n        if (block.number <= deploymentBlockNumber.add(blockPerYear)) {\n            return FEE_FIRST_UPPER_LIMIT;\n        }\n        if (block.number <= deploymentBlockNumber.add(blockPerYear.mul(2))) {\n            return FEE_SECOND_UPPER_LIMIT;\n        }\n        if (block.number <= deploymentBlockNumber.add(blockPerYear.mul(3))) {\n            return FEE_THIRD_UPPER_LIMIT;\n        }\n        return FEE_FOURTH_UPPER_LIMIT;\n    }\n\n    function appliedFeeRate() public view returns (uint16) {\n        if (feeRate < feeRateUpperLimit()) {\n            return feeRate;\n        }\n        return feeRateUpperLimit();\n    }\n\n    function updateTransferLimit(uint16 _newLimit) external onlyOperator {\n        require(_newLimit <= PRECISION_FACTOR, \"new transfer limit is too big\");\n        require(_newLimit >= TRANSFER_RATE_LOWER_LIMIT, \"new transfer limit is too small\");\n        emit TransferRateLimitUpdated(transferRateLimit, _newLimit);\n        transferRateLimit = _newLimit;\n    }\n\n    function updateFeeRate(uint16 _newRate) external onlyOperator {\n        require(_newRate <= feeRateUpperLimit(), \"fee rate is larger than max allowed value\");\n        emit FeeRateUpdated(feeRate, _newRate);\n        feeRate = _newRate;\n    }\n\n    function updateTreasuryFactor(uint16 _newRate) external onlyOperator {\n        require(_newRate <= 2500, \"only maximum of 25% for treasury allowed\");\n        emit TreasuryFactorUpdated(treasuryFactor, _newRate);\n        treasuryFactor = _newRate;\n    }\n\n    function updateBeliStakeFactor(uint16 _newRate) external onlyOperator {\n        require(_newRate <= 2500, \"only maximum of 25% for beli staking allowed\");\n        emit BeliStakeFactorUpdated(beliStakeFactor, _newRate);\n        beliStakeFactor = _newRate;\n    }\n\n    function updateBeliLPStakeFactor(uint16 _newRate) external onlyOperator {\n        require(_newRate <= 2500, \"only maximum of 25% for LP staking allowed\");\n        emit BeliLPStakeFactorUpdated(lpStakeFactor, _newRate);\n        lpStakeFactor = _newRate;\n    }\n\n    function isExcludedWhale(address _account) public view returns(bool) {\n        return excludedFromAntiWhale[_account];\n    }\n\n    function setWhaleExclusion(address _account, bool _value) external onlyOperator {\n        require(_account != address(0), \"account cannot be address 0\");\n        excludedFromAntiWhale[_account] = _value;\n        emit WhaleWhitelistSet(operator, _account, _value);\n    }\n\n    function setBeliFeeReceiver(address _feeReceiver) external onlyOperator {\n        beliFeeReceiver = _feeReceiver;\n        emit BeliFeeReceiverUpdated(operator, _feeReceiver);\n    }\n\n    function setBeliLPFeeReceiver(address _feeReceiver) external onlyOperator {\n        beliLpFeeReceiver = _feeReceiver;\n        emit BeliLPFeeReceiverUpdated(operator, _feeReceiver);\n    }\n\n    function setTreasury(address _treasury) external onlyOperator {\n        treasury = _treasury;\n        emit TreasuryUpdated(operator, _treasury);\n    }\n\n    function setOperator(address _newOperator) external onlyOperator {\n        emit OperatorSet(operator, _newOperator);\n        operator = _newOperator;\n    }\n\n    function maxTransfer() public view returns (uint256) {\n        return totalSupply().mul(transferRateLimit).div(PRECISION_FACTOR);\n    }\n\n    function mint(address _to, uint256 _amount) public onlyOwner {\n        _mint(_to, _amount);\n    }\n\n    /**\n     * @dev\n     * setting a fee scheme upon transfer\n     * 1. A maximum of 25% goes to treasury, for future funding or a possibility of bridging\n     * 2. A maximum of 25% goes to extra reward for BELI staking to incentivize our staker\n     * 3. A maximum of 25% goes to extra reward for our LP staking\n     * 4. Finally the remainder of the specified fee will be burnt away.\n     */\n    function _transfer(address _sender, address _recipient, uint256 _amount) internal virtual override antiWhale(_sender, _recipient, _amount) {\n        if (_recipient == BURN_ADDRESS) {\n            super._transfer(_sender, _recipient, _amount);\n        } else {\n            uint256 burnAmount;\n            uint256 treasuryFee;\n            uint256 beliStakeAmount;\n            uint256 lpStakeAmount; // BELI LP\n            uint256 feeCut = _amount.mul(appliedFeeRate()).div(PRECISION_FACTOR);\n            if (treasury != address(0)) {\n                treasuryFee = feeCut.mul(treasuryFactor).div(PRECISION_FACTOR);\n            }\n            if (beliLpFeeReceiver != address(0)) {\n                lpStakeAmount = feeCut.mul(lpStakeFactor).div(PRECISION_FACTOR);\n            }\n            if (beliFeeReceiver != address(0)) {\n                beliStakeAmount = feeCut.mul(beliStakeFactor).div(PRECISION_FACTOR);\n            }\n            burnAmount = feeCut.sub(treasuryFee).sub(beliStakeAmount).sub(lpStakeAmount);\n\n            uint256 sendAmount = _amount.sub(feeCut);\n            if (burnAmount > 0) {\n                super._transfer(_sender, BURN_ADDRESS, burnAmount);\n            }\n            if (treasuryFee > 0) {\n                super._transfer(_sender, treasury, treasuryFee);\n            }\n            if (beliStakeAmount > 0) {\n                super._transfer(_sender, beliFeeReceiver, beliStakeAmount);\n            }\n            if (lpStakeAmount > 0) {\n                super._transfer(_sender, beliLpFeeReceiver, lpStakeAmount);\n            }\n            super._transfer(_sender, _recipient, sendAmount);\n        }\n    }\n}\n",
  "sourcePath": "/workspaces/beli-farm/src/contracts/BeliToken.sol",
  "compiler": {
    "name": "solc",
    "version": "0.6.12+commit.27d51765.Emscripten.clang"
  },
  "schemaVersion": "3.4.3",
  "updatedAt": "2022-03-02T01:52:05.974Z",
  "networkType": "ethereum",
  "devdoc": {
    "kind": "dev",
    "methods": {
      "allowance(address,address)": {
        "details": "See {IERC20-allowance}."
      },
      "approve(address,uint256)": {
        "details": "See {IERC20-approve}. Requirements: - `spender` cannot be the zero address."
      },
      "balanceOf(address)": {
        "details": "See {IERC20-balanceOf}."
      },
      "decimals()": {
        "details": "Returns the number of decimals used to get its user representation. For example, if `decimals` equals `2`, a balance of `505` tokens should be displayed to a user as `5,05` (`505 / 10 ** 2`). Tokens usually opt for a value of 18, imitating the relationship between Ether and Wei. This is the value {ERC20} uses, unless {_setupDecimals} is called. NOTE: This information is only used for _display_ purposes: it in no way affects any of the arithmetic of the contract, including {IERC20-balanceOf} and {IERC20-transfer}."
      },
      "decreaseAllowance(address,uint256)": {
        "details": "Atomically decreases the allowance granted to `spender` by the caller. This is an alternative to {approve} that can be used as a mitigation for problems described in {IERC20-approve}. Emits an {Approval} event indicating the updated allowance. Requirements: - `spender` cannot be the zero address. - `spender` must have allowance for the caller of at least `subtractedValue`."
      },
      "increaseAllowance(address,uint256)": {
        "details": "Atomically increases the allowance granted to `spender` by the caller. This is an alternative to {approve} that can be used as a mitigation for problems described in {IERC20-approve}. Emits an {Approval} event indicating the updated allowance. Requirements: - `spender` cannot be the zero address."
      },
      "name()": {
        "details": "Returns the name of the token."
      },
      "owner()": {
        "details": "Returns the address of the current owner."
      },
      "renounceOwnership()": {
        "details": "Leaves the contract without owner. It will not be possible to call `onlyOwner` functions anymore. Can only be called by the current owner. NOTE: Renouncing ownership will leave the contract without an owner, thereby removing any functionality that is only available to the owner."
      },
      "symbol()": {
        "details": "Returns the symbol of the token, usually a shorter version of the name."
      },
      "totalSupply()": {
        "details": "See {IERC20-totalSupply}."
      },
      "transfer(address,uint256)": {
        "details": "See {IERC20-transfer}. Requirements: - `recipient` cannot be the zero address. - the caller must have a balance of at least `amount`."
      },
      "transferFrom(address,address,uint256)": {
        "details": "See {IERC20-transferFrom}. Emits an {Approval} event indicating the updated allowance. This is not required by the EIP. See the note at the beginning of {ERC20}. Requirements: - `sender` and `recipient` cannot be the zero address. - `sender` must have a balance of at least `amount`. - the caller must have allowance for ``sender``'s tokens of at least `amount`."
      },
      "transferOwnership(address)": {
        "details": "Transfers ownership of the contract to a new account (`newOwner`). Can only be called by the current owner."
      }
    },
    "version": 1
  },
  "userdoc": {
    "kind": "user",
    "methods": {},
    "version": 1
  }
}