{
  "contractName": "VaultStakingBeli",
  "abi": [
    {
      "inputs": [
        {
          "components": [
            {
              "internalType": "string",
              "name": "name",
              "type": "string"
            },
            {
              "internalType": "string",
              "name": "symbol",
              "type": "string"
            }
          ],
          "internalType": "struct Vault.ErcConfig",
          "name": "_erc",
          "type": "tuple"
        },
        {
          "components": [
            {
              "internalType": "address[]",
              "name": "earnedToBELIPath",
              "type": "address[]"
            },
            {
              "internalType": "address[]",
              "name": "earnedToToken0Path",
              "type": "address[]"
            },
            {
              "internalType": "address[]",
              "name": "earnedToToken1Path",
              "type": "address[]"
            },
            {
              "internalType": "address[]",
              "name": "token0ToEarnedPath",
              "type": "address[]"
            },
            {
              "internalType": "address[]",
              "name": "token1ToEarnedPath",
              "type": "address[]"
            }
          ],
          "internalType": "struct Vault.ConversionPath",
          "name": "_conversionPath",
          "type": "tuple"
        },
        {
          "components": [
            {
              "internalType": "uint256",
              "name": "controllerFee",
              "type": "uint256"
            },
            {
              "internalType": "uint256",
              "name": "buyBackRate",
              "type": "uint256"
            },
            {
              "internalType": "uint256",
              "name": "entranceFee",
              "type": "uint256"
            },
            {
              "internalType": "uint256",
              "name": "withdrawFee",
              "type": "uint256"
            }
          ],
          "internalType": "struct Vault.FeeConfig",
          "name": "_fees",
          "type": "tuple"
        },
        {
          "internalType": "address[]",
          "name": "_addresses",
          "type": "address[]"
        },
        {
          "internalType": "uint256",
          "name": "_pid",
          "type": "uint256"
        },
        {
          "internalType": "bool",
          "name": "_isCAKEStaking",
          "type": "bool"
        },
        {
          "internalType": "bool",
          "name": "_isSameAssetDeposit",
          "type": "bool"
        }
      ],
      "stateMutability": "nonpayable",
      "type": "constructor"
    },
    {
      "anonymous": false,
      "inputs": [
        {
          "indexed": true,
          "internalType": "address",
          "name": "owner",
          "type": "address"
        },
        {
          "indexed": true,
          "internalType": "address",
          "name": "spender",
          "type": "address"
        },
        {
          "indexed": false,
          "internalType": "uint256",
          "name": "value",
          "type": "uint256"
        }
      ],
      "name": "Approval",
      "type": "event"
    },
    {
      "anonymous": false,
      "inputs": [
        {
          "indexed": true,
          "internalType": "address",
          "name": "previousOwner",
          "type": "address"
        },
        {
          "indexed": true,
          "internalType": "address",
          "name": "newOwner",
          "type": "address"
        }
      ],
      "name": "OwnershipTransferred",
      "type": "event"
    },
    {
      "anonymous": false,
      "inputs": [
        {
          "indexed": false,
          "internalType": "address",
          "name": "account",
          "type": "address"
        }
      ],
      "name": "Paused",
      "type": "event"
    },
    {
      "anonymous": false,
      "inputs": [
        {
          "indexed": false,
          "internalType": "address",
          "name": "buyBackAddress",
          "type": "address"
        }
      ],
      "name": "SetBuyBackAddress",
      "type": "event"
    },
    {
      "anonymous": false,
      "inputs": [
        {
          "indexed": false,
          "internalType": "address",
          "name": "govAddress",
          "type": "address"
        }
      ],
      "name": "SetGov",
      "type": "event"
    },
    {
      "anonymous": false,
      "inputs": [
        {
          "indexed": false,
          "internalType": "address",
          "name": "rewardsAddress",
          "type": "address"
        }
      ],
      "name": "SetRewardsAddress",
      "type": "event"
    },
    {
      "anonymous": false,
      "inputs": [
        {
          "indexed": false,
          "internalType": "uint256",
          "name": "entranceFeeFactor",
          "type": "uint256"
        },
        {
          "indexed": false,
          "internalType": "uint256",
          "name": "withdrawFeeFactor",
          "type": "uint256"
        },
        {
          "indexed": false,
          "internalType": "uint256",
          "name": "controllerFee",
          "type": "uint256"
        },
        {
          "indexed": false,
          "internalType": "uint256",
          "name": "buyBackRate",
          "type": "uint256"
        },
        {
          "indexed": false,
          "internalType": "uint256",
          "name": "earnToBeliRate",
          "type": "uint256"
        },
        {
          "indexed": false,
          "internalType": "uint256",
          "name": "slippageFactor",
          "type": "uint256"
        }
      ],
      "name": "SetSettings",
      "type": "event"
    },
    {
      "anonymous": false,
      "inputs": [
        {
          "indexed": false,
          "internalType": "address",
          "name": "uniRouterAddress",
          "type": "address"
        }
      ],
      "name": "SetUniRouterAddress",
      "type": "event"
    },
    {
      "anonymous": false,
      "inputs": [
        {
          "indexed": true,
          "internalType": "address",
          "name": "from",
          "type": "address"
        },
        {
          "indexed": true,
          "internalType": "address",
          "name": "to",
          "type": "address"
        },
        {
          "indexed": false,
          "internalType": "uint256",
          "name": "value",
          "type": "uint256"
        }
      ],
      "name": "Transfer",
      "type": "event"
    },
    {
      "anonymous": false,
      "inputs": [
        {
          "indexed": false,
          "internalType": "address",
          "name": "account",
          "type": "address"
        }
      ],
      "name": "Unpaused",
      "type": "event"
    },
    {
      "inputs": [],
      "name": "BELIAddress",
      "outputs": [
        {
          "internalType": "address",
          "name": "",
          "type": "address"
        }
      ],
      "stateMutability": "view",
      "type": "function",
      "constant": true
    },
    {
      "inputs": [],
      "name": "accEarnBELI",
      "outputs": [
        {
          "internalType": "uint256",
          "name": "",
          "type": "uint256"
        }
      ],
      "stateMutability": "view",
      "type": "function",
      "constant": true
    },
    {
      "inputs": [],
      "name": "accEarnBELIPerShare",
      "outputs": [
        {
          "internalType": "uint256",
          "name": "",
          "type": "uint256"
        }
      ],
      "stateMutability": "view",
      "type": "function",
      "constant": true
    },
    {
      "inputs": [],
      "name": "accWithdrawnEarnBELI",
      "outputs": [
        {
          "internalType": "uint256",
          "name": "",
          "type": "uint256"
        }
      ],
      "stateMutability": "view",
      "type": "function",
      "constant": true
    },
    {
      "inputs": [
        {
          "internalType": "address",
          "name": "owner",
          "type": "address"
        },
        {
          "internalType": "address",
          "name": "spender",
          "type": "address"
        }
      ],
      "name": "allowance",
      "outputs": [
        {
          "internalType": "uint256",
          "name": "",
          "type": "uint256"
        }
      ],
      "stateMutability": "view",
      "type": "function",
      "constant": true
    },
    {
      "inputs": [
        {
          "internalType": "address",
          "name": "spender",
          "type": "address"
        },
        {
          "internalType": "uint256",
          "name": "amount",
          "type": "uint256"
        }
      ],
      "name": "approve",
      "outputs": [
        {
          "internalType": "bool",
          "name": "",
          "type": "bool"
        }
      ],
      "stateMutability": "nonpayable",
      "type": "function"
    },
    {
      "inputs": [],
      "name": "available",
      "outputs": [
        {
          "internalType": "uint256",
          "name": "",
          "type": "uint256"
        }
      ],
      "stateMutability": "view",
      "type": "function",
      "constant": true
    },
    {
      "inputs": [
        {
          "internalType": "address",
          "name": "account",
          "type": "address"
        }
      ],
      "name": "balanceOf",
      "outputs": [
        {
          "internalType": "uint256",
          "name": "",
          "type": "uint256"
        }
      ],
      "stateMutability": "view",
      "type": "function",
      "constant": true
    },
    {
      "inputs": [],
      "name": "beliFarmAddress",
      "outputs": [
        {
          "internalType": "address",
          "name": "",
          "type": "address"
        }
      ],
      "stateMutability": "view",
      "type": "function",
      "constant": true
    },
    {
      "inputs": [
        {
          "internalType": "address",
          "name": "_userAddress",
          "type": "address"
        },
        {
          "internalType": "uint256",
          "name": "_amount",
          "type": "uint256"
        }
      ],
      "name": "burnReceiptForShare",
      "outputs": [],
      "stateMutability": "nonpayable",
      "type": "function"
    },
    {
      "inputs": [],
      "name": "buyBackAddress",
      "outputs": [
        {
          "internalType": "address",
          "name": "",
          "type": "address"
        }
      ],
      "stateMutability": "view",
      "type": "function",
      "constant": true
    },
    {
      "inputs": [],
      "name": "buyBackRate",
      "outputs": [
        {
          "internalType": "uint256",
          "name": "",
          "type": "uint256"
        }
      ],
      "stateMutability": "view",
      "type": "function",
      "constant": true
    },
    {
      "inputs": [],
      "name": "buyBackRateMax",
      "outputs": [
        {
          "internalType": "uint256",
          "name": "",
          "type": "uint256"
        }
      ],
      "stateMutability": "view",
      "type": "function",
      "constant": true
    },
    {
      "inputs": [],
      "name": "buyBackRateUL",
      "outputs": [
        {
          "internalType": "uint256",
          "name": "",
          "type": "uint256"
        }
      ],
      "stateMutability": "view",
      "type": "function",
      "constant": true
    },
    {
      "inputs": [],
      "name": "controllerFee",
      "outputs": [
        {
          "internalType": "uint256",
          "name": "",
          "type": "uint256"
        }
      ],
      "stateMutability": "view",
      "type": "function",
      "constant": true
    },
    {
      "inputs": [],
      "name": "controllerFeeMax",
      "outputs": [
        {
          "internalType": "uint256",
          "name": "",
          "type": "uint256"
        }
      ],
      "stateMutability": "view",
      "type": "function",
      "constant": true
    },
    {
      "inputs": [],
      "name": "controllerFeeUL",
      "outputs": [
        {
          "internalType": "uint256",
          "name": "",
          "type": "uint256"
        }
      ],
      "stateMutability": "view",
      "type": "function",
      "constant": true
    },
    {
      "inputs": [],
      "name": "convertDustToEarned",
      "outputs": [],
      "stateMutability": "nonpayable",
      "type": "function"
    },
    {
      "inputs": [],
      "name": "decimals",
      "outputs": [
        {
          "internalType": "uint8",
          "name": "",
          "type": "uint8"
        }
      ],
      "stateMutability": "view",
      "type": "function",
      "constant": true
    },
    {
      "inputs": [
        {
          "internalType": "address",
          "name": "spender",
          "type": "address"
        },
        {
          "internalType": "uint256",
          "name": "subtractedValue",
          "type": "uint256"
        }
      ],
      "name": "decreaseAllowance",
      "outputs": [
        {
          "internalType": "bool",
          "name": "",
          "type": "bool"
        }
      ],
      "stateMutability": "nonpayable",
      "type": "function"
    },
    {
      "inputs": [
        {
          "internalType": "address",
          "name": "_userAddress",
          "type": "address"
        },
        {
          "internalType": "uint256",
          "name": "_wantAmt",
          "type": "uint256"
        }
      ],
      "name": "deposit",
      "outputs": [
        {
          "internalType": "uint256",
          "name": "",
          "type": "uint256"
        }
      ],
      "stateMutability": "nonpayable",
      "type": "function"
    },
    {
      "inputs": [],
      "name": "earnToBeliRate",
      "outputs": [
        {
          "internalType": "uint256",
          "name": "",
          "type": "uint256"
        }
      ],
      "stateMutability": "view",
      "type": "function",
      "constant": true
    },
    {
      "inputs": [],
      "name": "earnToBeliRateMax",
      "outputs": [
        {
          "internalType": "uint256",
          "name": "",
          "type": "uint256"
        }
      ],
      "stateMutability": "view",
      "type": "function",
      "constant": true
    },
    {
      "inputs": [],
      "name": "earnToBeliUL",
      "outputs": [
        {
          "internalType": "uint256",
          "name": "",
          "type": "uint256"
        }
      ],
      "stateMutability": "view",
      "type": "function",
      "constant": true
    },
    {
      "inputs": [],
      "name": "earnedAddress",
      "outputs": [
        {
          "internalType": "address",
          "name": "",
          "type": "address"
        }
      ],
      "stateMutability": "view",
      "type": "function",
      "constant": true
    },
    {
      "inputs": [
        {
          "internalType": "uint256",
          "name": "",
          "type": "uint256"
        }
      ],
      "name": "earnedToBELIPath",
      "outputs": [
        {
          "internalType": "address",
          "name": "",
          "type": "address"
        }
      ],
      "stateMutability": "view",
      "type": "function",
      "constant": true
    },
    {
      "inputs": [
        {
          "internalType": "uint256",
          "name": "",
          "type": "uint256"
        }
      ],
      "name": "earnedToToken0Path",
      "outputs": [
        {
          "internalType": "address",
          "name": "",
          "type": "address"
        }
      ],
      "stateMutability": "view",
      "type": "function",
      "constant": true
    },
    {
      "inputs": [
        {
          "internalType": "uint256",
          "name": "",
          "type": "uint256"
        }
      ],
      "name": "earnedToToken1Path",
      "outputs": [
        {
          "internalType": "address",
          "name": "",
          "type": "address"
        }
      ],
      "stateMutability": "view",
      "type": "function",
      "constant": true
    },
    {
      "inputs": [],
      "name": "entranceFeeFactor",
      "outputs": [
        {
          "internalType": "uint256",
          "name": "",
          "type": "uint256"
        }
      ],
      "stateMutability": "view",
      "type": "function",
      "constant": true
    },
    {
      "inputs": [],
      "name": "entranceFeeFactorLL",
      "outputs": [
        {
          "internalType": "uint256",
          "name": "",
          "type": "uint256"
        }
      ],
      "stateMutability": "view",
      "type": "function",
      "constant": true
    },
    {
      "inputs": [],
      "name": "entranceFeeFactorMax",
      "outputs": [
        {
          "internalType": "uint256",
          "name": "",
          "type": "uint256"
        }
      ],
      "stateMutability": "view",
      "type": "function",
      "constant": true
    },
    {
      "inputs": [],
      "name": "farm",
      "outputs": [],
      "stateMutability": "nonpayable",
      "type": "function"
    },
    {
      "inputs": [],
      "name": "farmContractAddress",
      "outputs": [
        {
          "internalType": "address",
          "name": "",
          "type": "address"
        }
      ],
      "stateMutability": "view",
      "type": "function",
      "constant": true
    },
    {
      "inputs": [],
      "name": "getPricePerFullShare",
      "outputs": [
        {
          "internalType": "uint256",
          "name": "",
          "type": "uint256"
        }
      ],
      "stateMutability": "view",
      "type": "function",
      "constant": true
    },
    {
      "inputs": [],
      "name": "govAddress",
      "outputs": [
        {
          "internalType": "address",
          "name": "",
          "type": "address"
        }
      ],
      "stateMutability": "view",
      "type": "function",
      "constant": true
    },
    {
      "inputs": [
        {
          "internalType": "address",
          "name": "_token",
          "type": "address"
        },
        {
          "internalType": "uint256",
          "name": "_amount",
          "type": "uint256"
        },
        {
          "internalType": "address",
          "name": "_to",
          "type": "address"
        }
      ],
      "name": "inCaseTokensGetStuck",
      "outputs": [],
      "stateMutability": "nonpayable",
      "type": "function"
    },
    {
      "inputs": [
        {
          "internalType": "address",
          "name": "spender",
          "type": "address"
        },
        {
          "internalType": "uint256",
          "name": "addedValue",
          "type": "uint256"
        }
      ],
      "name": "increaseAllowance",
      "outputs": [
        {
          "internalType": "bool",
          "name": "",
          "type": "bool"
        }
      ],
      "stateMutability": "nonpayable",
      "type": "function"
    },
    {
      "inputs": [],
      "name": "isAutoComp",
      "outputs": [
        {
          "internalType": "bool",
          "name": "",
          "type": "bool"
        }
      ],
      "stateMutability": "view",
      "type": "function",
      "constant": true
    },
    {
      "inputs": [],
      "name": "isCAKEStaking",
      "outputs": [
        {
          "internalType": "bool",
          "name": "",
          "type": "bool"
        }
      ],
      "stateMutability": "view",
      "type": "function",
      "constant": true
    },
    {
      "inputs": [],
      "name": "isOlympusStaking",
      "outputs": [
        {
          "internalType": "bool",
          "name": "",
          "type": "bool"
        }
      ],
      "stateMutability": "view",
      "type": "function",
      "constant": true
    },
    {
      "inputs": [],
      "name": "isSameAssetDeposit",
      "outputs": [
        {
          "internalType": "bool",
          "name": "",
          "type": "bool"
        }
      ],
      "stateMutability": "view",
      "type": "function",
      "constant": true
    },
    {
      "inputs": [],
      "name": "lastAccEarnBELI",
      "outputs": [
        {
          "internalType": "uint256",
          "name": "",
          "type": "uint256"
        }
      ],
      "stateMutability": "view",
      "type": "function",
      "constant": true
    },
    {
      "inputs": [],
      "name": "lastEarnBlock",
      "outputs": [
        {
          "internalType": "uint256",
          "name": "",
          "type": "uint256"
        }
      ],
      "stateMutability": "view",
      "type": "function",
      "constant": true
    },
    {
      "inputs": [
        {
          "internalType": "address",
          "name": "_userAddress",
          "type": "address"
        }
      ],
      "name": "lockedUntil",
      "outputs": [
        {
          "internalType": "uint256",
          "name": "",
          "type": "uint256"
        }
      ],
      "stateMutability": "view",
      "type": "function",
      "constant": true
    },
    {
      "inputs": [
        {
          "internalType": "address",
          "name": "_userAddress",
          "type": "address"
        },
        {
          "internalType": "uint256",
          "name": "_amount",
          "type": "uint256"
        }
      ],
      "name": "mintShareToReceipt",
      "outputs": [
        {
          "internalType": "uint256",
          "name": "",
          "type": "uint256"
        }
      ],
      "stateMutability": "nonpayable",
      "type": "function"
    },
    {
      "inputs": [],
      "name": "name",
      "outputs": [
        {
          "internalType": "string",
          "name": "",
          "type": "string"
        }
      ],
      "stateMutability": "view",
      "type": "function",
      "constant": true
    },
    {
      "inputs": [],
      "name": "owner",
      "outputs": [
        {
          "internalType": "address",
          "name": "",
          "type": "address"
        }
      ],
      "stateMutability": "view",
      "type": "function",
      "constant": true
    },
    {
      "inputs": [],
      "name": "pause",
      "outputs": [],
      "stateMutability": "nonpayable",
      "type": "function"
    },
    {
      "inputs": [],
      "name": "paused",
      "outputs": [
        {
          "internalType": "bool",
          "name": "",
          "type": "bool"
        }
      ],
      "stateMutability": "view",
      "type": "function",
      "constant": true
    },
    {
      "inputs": [],
      "name": "pid",
      "outputs": [
        {
          "internalType": "uint256",
          "name": "",
          "type": "uint256"
        }
      ],
      "stateMutability": "view",
      "type": "function",
      "constant": true
    },
    {
      "inputs": [],
      "name": "renounceOwnership",
      "outputs": [],
      "stateMutability": "nonpayable",
      "type": "function"
    },
    {
      "inputs": [],
      "name": "rewardsAddress",
      "outputs": [
        {
          "internalType": "address",
          "name": "",
          "type": "address"
        }
      ],
      "stateMutability": "view",
      "type": "function",
      "constant": true
    },
    {
      "inputs": [
        {
          "internalType": "address",
          "name": "_buyBackAddress",
          "type": "address"
        }
      ],
      "name": "setBuyBackAddress",
      "outputs": [],
      "stateMutability": "nonpayable",
      "type": "function"
    },
    {
      "inputs": [
        {
          "internalType": "address",
          "name": "_govAddress",
          "type": "address"
        }
      ],
      "name": "setGov",
      "outputs": [],
      "stateMutability": "nonpayable",
      "type": "function"
    },
    {
      "inputs": [
        {
          "internalType": "address",
          "name": "_rewardsAddress",
          "type": "address"
        }
      ],
      "name": "setRewardsAddress",
      "outputs": [],
      "stateMutability": "nonpayable",
      "type": "function"
    },
    {
      "inputs": [
        {
          "internalType": "uint256",
          "name": "_entranceFeeFactor",
          "type": "uint256"
        },
        {
          "internalType": "uint256",
          "name": "_withdrawFeeFactor",
          "type": "uint256"
        },
        {
          "internalType": "uint256",
          "name": "_controllerFee",
          "type": "uint256"
        },
        {
          "internalType": "uint256",
          "name": "_buyBackRate",
          "type": "uint256"
        },
        {
          "internalType": "uint256",
          "name": "_slippageFactor",
          "type": "uint256"
        },
        {
          "internalType": "uint256",
          "name": "_earnToBeli",
          "type": "uint256"
        }
      ],
      "name": "setSettings",
      "outputs": [],
      "stateMutability": "nonpayable",
      "type": "function"
    },
    {
      "inputs": [
        {
          "internalType": "address",
          "name": "_uniRouterAddress",
          "type": "address"
        }
      ],
      "name": "setUniRouterAddress",
      "outputs": [],
      "stateMutability": "nonpayable",
      "type": "function"
    },
    {
      "inputs": [],
      "name": "sharesTotal",
      "outputs": [
        {
          "internalType": "uint256",
          "name": "",
          "type": "uint256"
        }
      ],
      "stateMutability": "view",
      "type": "function",
      "constant": true
    },
    {
      "inputs": [],
      "name": "slippageFactor",
      "outputs": [
        {
          "internalType": "uint256",
          "name": "",
          "type": "uint256"
        }
      ],
      "stateMutability": "view",
      "type": "function",
      "constant": true
    },
    {
      "inputs": [],
      "name": "slippageFactorUL",
      "outputs": [
        {
          "internalType": "uint256",
          "name": "",
          "type": "uint256"
        }
      ],
      "stateMutability": "view",
      "type": "function",
      "constant": true
    },
    {
      "inputs": [],
      "name": "symbol",
      "outputs": [
        {
          "internalType": "string",
          "name": "",
          "type": "string"
        }
      ],
      "stateMutability": "view",
      "type": "function",
      "constant": true
    },
    {
      "inputs": [],
      "name": "token0Address",
      "outputs": [
        {
          "internalType": "address",
          "name": "",
          "type": "address"
        }
      ],
      "stateMutability": "view",
      "type": "function",
      "constant": true
    },
    {
      "inputs": [
        {
          "internalType": "uint256",
          "name": "",
          "type": "uint256"
        }
      ],
      "name": "token0ToEarnedPath",
      "outputs": [
        {
          "internalType": "address",
          "name": "",
          "type": "address"
        }
      ],
      "stateMutability": "view",
      "type": "function",
      "constant": true
    },
    {
      "inputs": [],
      "name": "token1Address",
      "outputs": [
        {
          "internalType": "address",
          "name": "",
          "type": "address"
        }
      ],
      "stateMutability": "view",
      "type": "function",
      "constant": true
    },
    {
      "inputs": [
        {
          "internalType": "uint256",
          "name": "",
          "type": "uint256"
        }
      ],
      "name": "token1ToEarnedPath",
      "outputs": [
        {
          "internalType": "address",
          "name": "",
          "type": "address"
        }
      ],
      "stateMutability": "view",
      "type": "function",
      "constant": true
    },
    {
      "inputs": [],
      "name": "totalSupply",
      "outputs": [
        {
          "internalType": "uint256",
          "name": "",
          "type": "uint256"
        }
      ],
      "stateMutability": "view",
      "type": "function",
      "constant": true
    },
    {
      "inputs": [
        {
          "internalType": "address",
          "name": "recipient",
          "type": "address"
        },
        {
          "internalType": "uint256",
          "name": "amount",
          "type": "uint256"
        }
      ],
      "name": "transfer",
      "outputs": [
        {
          "internalType": "bool",
          "name": "",
          "type": "bool"
        }
      ],
      "stateMutability": "nonpayable",
      "type": "function"
    },
    {
      "inputs": [
        {
          "internalType": "address",
          "name": "_userAddress",
          "type": "address"
        },
        {
          "internalType": "uint256",
          "name": "_amount",
          "type": "uint256"
        }
      ],
      "name": "transferConvertedEarn",
      "outputs": [
        {
          "internalType": "uint256",
          "name": "",
          "type": "uint256"
        }
      ],
      "stateMutability": "nonpayable",
      "type": "function"
    },
    {
      "inputs": [
        {
          "internalType": "address",
          "name": "sender",
          "type": "address"
        },
        {
          "internalType": "address",
          "name": "recipient",
          "type": "address"
        },
        {
          "internalType": "uint256",
          "name": "amount",
          "type": "uint256"
        }
      ],
      "name": "transferFrom",
      "outputs": [
        {
          "internalType": "bool",
          "name": "",
          "type": "bool"
        }
      ],
      "stateMutability": "nonpayable",
      "type": "function"
    },
    {
      "inputs": [
        {
          "internalType": "address",
          "name": "newOwner",
          "type": "address"
        }
      ],
      "name": "transferOwnership",
      "outputs": [],
      "stateMutability": "nonpayable",
      "type": "function"
    },
    {
      "inputs": [],
      "name": "uniRouterAddress",
      "outputs": [
        {
          "internalType": "address",
          "name": "",
          "type": "address"
        }
      ],
      "stateMutability": "view",
      "type": "function",
      "constant": true
    },
    {
      "inputs": [],
      "name": "unpause",
      "outputs": [],
      "stateMutability": "nonpayable",
      "type": "function"
    },
    {
      "inputs": [],
      "name": "wantAddress",
      "outputs": [
        {
          "internalType": "address",
          "name": "",
          "type": "address"
        }
      ],
      "stateMutability": "view",
      "type": "function",
      "constant": true
    },
    {
      "inputs": [],
      "name": "wantLockedTotal",
      "outputs": [
        {
          "internalType": "uint256",
          "name": "",
          "type": "uint256"
        }
      ],
      "stateMutability": "view",
      "type": "function",
      "constant": true
    },
    {
      "inputs": [],
      "name": "wbnbAddress",
      "outputs": [
        {
          "internalType": "address",
          "name": "",
          "type": "address"
        }
      ],
      "stateMutability": "view",
      "type": "function",
      "constant": true
    },
    {
      "inputs": [
        {
          "internalType": "address",
          "name": "_userAddress",
          "type": "address"
        },
        {
          "internalType": "uint256",
          "name": "_wantAmt",
          "type": "uint256"
        }
      ],
      "name": "withdraw",
      "outputs": [
        {
          "internalType": "uint256",
          "name": "",
          "type": "uint256"
        }
      ],
      "stateMutability": "nonpayable",
      "type": "function"
    },
    {
      "inputs": [
        {
          "internalType": "address",
          "name": "_userAddress",
          "type": "address"
        },
        {
          "internalType": "uint256",
          "name": "_wantAmt",
          "type": "uint256"
        }
      ],
      "name": "withdrawEarly",
      "outputs": [
        {
          "internalType": "uint256",
          "name": "",
          "type": "uint256"
        }
      ],
      "stateMutability": "nonpayable",
      "type": "function"
    },
    {
      "inputs": [],
      "name": "withdrawFeeFactor",
      "outputs": [
        {
          "internalType": "uint256",
          "name": "",
          "type": "uint256"
        }
      ],
      "stateMutability": "view",
      "type": "function",
      "constant": true
    },
    {
      "inputs": [],
      "name": "withdrawFeeFactorLL",
      "outputs": [
        {
          "internalType": "uint256",
          "name": "",
          "type": "uint256"
        }
      ],
      "stateMutability": "view",
      "type": "function",
      "constant": true
    },
    {
      "inputs": [],
      "name": "withdrawFeeFactorMax",
      "outputs": [
        {
          "internalType": "uint256",
          "name": "",
          "type": "uint256"
        }
      ],
      "stateMutability": "view",
      "type": "function",
      "constant": true
    },
    {
      "inputs": [],
      "name": "wrapBNB",
      "outputs": [],
      "stateMutability": "nonpayable",
      "type": "function"
    },
    {
      "inputs": [],
      "name": "earn",
      "outputs": [],
      "stateMutability": "nonpayable",
      "type": "function"
    }
  ],
  "bytecode": "0x608060405260006013819055601481905560158190556113886016819055601755611f40601855601980546001600160a01b03191661dead179055612706601b55612710601c556103b6601d55601e819055601f81905560208190556021553480156200006b57600080fd5b5060405162003e9238038062003e928339810160408190526200008e9162000944565b865160208801516000620000a1620004d2565b600080546001600160a01b0319166001600160a01b03831690811782556040519293509160008051602062003e72833981519152908290a350600180556002805460ff191690558151620000fd906006906020850190620005a7565b50805162000113906007906020840190620005a7565b50506008805460ff1916601217905550835184906000906200013157fe5b6020026020010151600f60006101000a8154816001600160a01b0302191690836001600160a01b03160217905550836001815181106200016d57fe5b6020026020010151601260006101000a8154816001600160a01b0302191690836001600160a01b0316021790555083600281518110620001a957fe5b6020026020010151601060006101000a8154816001600160a01b0302191690836001600160a01b0316021790555083600381518110620001e557fe5b6020026020010151601160006101000a8154816001600160a01b0302191690836001600160a01b03160217905550836004815181106200022157fe5b6020026020010151600a60006101000a8154816001600160a01b0302191690836001600160a01b03160217905550836005815181106200025d57fe5b6020026020010151600b60006101000a8154816001600160a01b0302191690836001600160a01b03160217905550836006815181106200029957fe5b6020026020010151600c60006101000a8154816001600160a01b0302191690836001600160a01b0316021790555083600781518110620002d557fe5b6020026020010151600d60006101000a8154816001600160a01b0302191690836001600160a01b03160217905550836008815181106200031157fe5b6020908102919091010151600880546009868155600160281b600160c81b0319909116650100000000006001600160a01b03909416939093029290921761ff001916610100851515021762ff0000191662010000841515021763ff00000019169055845185919081106200038157fe5b602090810291909101810151600e80546001600160a01b0319166001600160a01b0390921691909117905586518051620003c09260229201906200062c565b506020808701518051620003d99260239201906200062c565b5060408601518051620003f5916024916020909101906200062c565b506060860151805162000411916025916020909101906200062c565b50608086015180516200042d916026916020909101906200062c565b50845160165583518490600a9081106200044357fe5b6020026020010151601a60006101000a8154816001600160a01b0302191690836001600160a01b03160217905550846020015160178190555083600b815181106200048a57fe5b6020908102919091010151601980546001600160a01b0319166001600160a01b039283161790556000601855601054620004c59116620004d6565b5050505050505062000b15565b3390565b620004e0620004d2565b6001600160a01b0316620004f362000598565b6001600160a01b031614620005255760405162461bcd60e51b81526004016200051c9062000ab9565b60405180910390fd5b6001600160a01b0381166200054e5760405162461bcd60e51b81526004016200051c9062000a73565b600080546040516001600160a01b038085169392169160008051602062003e7283398151915291a3600080546001600160a01b0319166001600160a01b0392909216919091179055565b6000546001600160a01b031690565b828054600181600116156101000203166002900490600052602060002090601f016020900481019282601f10620005ea57805160ff19168380011785556200061a565b828001600101855582156200061a579182015b828111156200061a578251825591602001919060010190620005fd565b506200062892915062000692565b5090565b82805482825590600052602060002090810192821562000684579160200282015b828111156200068457825182546001600160a01b0319166001600160a01b039091161782556020909201916001909101906200064d565b5062000628929150620006a9565b5b8082111562000628576000815560010162000693565b5b80821115620006285780546001600160a01b0319168155600101620006aa565b600082601f830112620006db578081fd5b81516001600160401b03811115620006f1578182fd5b60208082026200070382820162000aee565b838152935081840185830182870184018810156200072057600080fd5b60009250825b85811015620007595781516001600160a01b038116811462000746578485fd5b8352918401919084019060010162000726565b50505050505092915050565b805180151581146200077657600080fd5b92915050565b600082601f8301126200078d578081fd5b81516001600160401b03811115620007a3578182fd5b6020620007b9601f8301601f1916820162000aee565b92508183528481838601011115620007d057600080fd5b60005b82811015620007f0578481018201518482018301528101620007d3565b82811115620008025760008284860101525b50505092915050565b600060a082840312156200081d578081fd5b6200082960a062000aee565b82519091506001600160401b03808211156200084457600080fd5b6200085285838601620006ca565b835260208401519150808211156200086957600080fd5b6200087785838601620006ca565b602084015260408401519150808211156200089157600080fd5b6200089f85838601620006ca565b60408401526060840151915080821115620008b957600080fd5b620008c785838601620006ca565b60608401526080840151915080821115620008e157600080fd5b50620008f084828501620006ca565b60808301525092915050565b6000608082840312156200090e578081fd5b6200091a608062000aee565b90508151815260208201516020820152604082015160408201526060820151606082015292915050565b6000806000806000806000610140888a03121562000960578283fd5b87516001600160401b038082111562000977578485fd5b908901906040828c0312156200098b578485fd5b62000997604062000aee565b825182811115620009a6578687fd5b620009b48d8286016200077c565b825250602083015182811115620009c9578687fd5b620009d78d8286016200077c565b6020830152508099505060208a0151915080821115620009f5578485fd5b62000a038b838c016200080b565b975062000a148b60408c01620008fc565b965060c08a015191508082111562000a2a578485fd5b5062000a398a828b01620006ca565b94505060e0880151925062000a53896101008a0162000765565b915062000a65896101208a0162000765565b905092959891949750929550565b60208082526026908201527f4f776e61626c653a206e6577206f776e657220697320746865207a65726f206160408201526564647265737360d01b606082015260800190565b6020808252818101527f4f776e61626c653a2063616c6c6572206973206e6f7420746865206f776e6572604082015260600190565b6040518181016001600160401b038111828210171562000b0d57600080fd5b604052919050565b61334d8062000b256000396000f3fe608060405234801561001057600080fd5b50600436106104955760003560e01c8063846d9e1711610262578063c11c2e9211610151578063e5dd455a116100ce578063f106845411610092578063f106845414610813578063f2dc46481461081b578063f2fde38b14610823578063f3fef3a314610836578063f6bd477414610849578063ffbd3b1f1461085c57610495565b8063e5dd455a146107e8578063e7198474146107f0578063e7a03679146107f8578063e9e443df14610800578063ee50dc341461052557610495565b8063cfad57a211610115578063cfad57a2146107aa578063d389800f146107bd578063d5b09163146107c5578063d7cb416f146107cd578063dd62ed3e146107d557610495565b8063c11c2e9214610761578063c19cbd4814610769578063c302a4d01461077c578063c8e3d18b14610784578063cc917f4e1461079757610495565b80639fc33a9f116101df578063b3545c01116101a3578063b3545c01146104c3578063b74cd24214610736578063b77050e71461073e578063bd5f119514610751578063c0973eed1461075957610495565b80639fc33a9f146106ed578063a457c2d7146106f5578063a9059cbb14610708578063ad740f8c1461071b578063ae7d7d811461072e57610495565b80639331aace116102265780639331aace146106af57806395d89b41146106b757806396e9aff8146106bf5780639a246643146106d25780639bc289f1146106da57610495565b8063846d9e171461068457806385f02dd61461068c578063866b2018146104c35780638906758d146106945780638da5cb5b146106a757610495565b806346008a071161038957806367057b6c11610306578063715018a6116102ca578063715018a61461065457806377c7b8fc1461065c578063783478ad146106645780637ff36fbe1461066c57806383fa0ef9146106745780638456cb591461067c57610495565b806367057b6c1461052557806367206d401461061e57806368f5416214610631578063693a090b1461063957806370a082311461064157610495565b80635c975abb1161034d5780635c975abb146105e05780635da79d63146105e857806360662c42146105fb57806363fe3e3a1461060e578063655bee371461061657610495565b806346008a07146105b557806347e7ef24146105bd57806348a0d754146105d05780634d9f7bb2146105255780635bc27d4b146105d857610495565b806323b872dd1161041757806339509351116103db57806339509351146105825780633f4ba83a1461059557806342da4eb31461059d57806344a3955e146105a557806345c20fc2146105ad57610495565b806323b872dd1461053d5780632717eff3146105255780632f1ce2c514610550578063313ce5671461056357806336e9332d1461057857610495565b80630fa4e01e1161045e5780630fa4e01e146105155780631334903f1461051d5780631672d7b514610525578063178a8d071461052d57806318160ddd1461053557610495565b80627a2ae31461049a578063061c7d48146104c357806306fdde03146104d85780630772efb4146104ed578063095ea7b3146104f5575b600080fd5b6104ad6104a8366004612986565b610864565b6040516104ba9190612a57565b60405180910390f35b6104cb61088b565b6040516104ba9190613166565b6104e0610891565b6040516104ba9190612acd565b6104cb610928565b610508610503366004612866565b61092e565b6040516104ba9190612ac2565b6104cb61094c565b6104cb610952565b6104cb610958565b6104cb61095e565b6104cb610964565b61050861054b366004612826565b61096a565b6104cb61055e366004612866565b6109f2565b61056b610b68565b6040516104ba91906131ec565b610580610b71565b005b610508610590366004612866565b610ba7565b610580610bf5565b6104cb610c29565b6104cb610c2f565b610508610c35565b6104ad610c46565b6104cb6105cb366004612866565b610c55565b6104cb610eac565b6104ad610f32565b610508610f41565b6105806105f63660046127d7565b610f4a565b6104ad610609366004612986565b610fca565b6104ad610fd7565b6104ad610fe6565b61058061062c366004612890565b610ff5565b6104cb611094565b6104ad61109a565b6104cb61064f3660046127d7565b6110a9565b6105806110c4565b6104cb61114d565b6104ad61118a565b6104ad611199565b6104cb6111a8565b6105806111ae565b6105086111e0565b6104cb6111ee565b6105806106a23660046127d7565b6111f4565b6104ad611269565b6104cb611278565b6104e061127e565b6104ad6106cd366004612986565b6112df565b6105086112ec565b6104cb6106e83660046127d7565b6112fb565b6104ad611301565b610508610703366004612866565b611319565b610508610716366004612866565b611381565b6105806107293660046127d7565b611395565b6104cb61140a565b6104cb611410565b6104ad61074c366004612986565b611416565b6104cb611423565b6104ad611429565b610580611438565b6104cb610777366004612866565b61175f565b6104cb6117dd565b6104ad610792366004612986565b6117e3565b6105806107a53660046129b6565b6117f0565b6105806107b83660046127d7565b611970565b6105806119e5565b610580611a32565b6104ad611a64565b6104cb6107e33660046127f2565b611a73565b610508611a9e565b6104ad611aae565b6104ad611abd565b61058061080e366004612866565b611acc565b6104cb611b15565b6104cb611b1b565b6105806108313660046127d7565b611b21565b6104cb610844366004612866565b611be1565b6104cb610857366004612866565b611dc2565b6104cb611e2c565b6026818154811061087157fe5b6000918252602090912001546001600160a01b0316905081565b61138881565b60068054604080516020601f600260001961010060018816150201909516949094049384018190048102820181019092528281526060939092909183018282801561091d5780601f106108f25761010080835404028352916020019161091d565b820191906000526020600020905b81548152906001019060200180831161090057829003601f168201915b505050505090505b90565b60205481565b600061094261093b611e32565b8484611e36565b5060015b92915050565b60135481565b601b5481565b61271081565b60175481565b60055490565b6000610977848484611eea565b6109e784610983611e32565b6109e2856040518060600160405280602881526020016132cb602891396001600160a01b038a166000908152600460205260408120906109c1611e32565b6001600160a01b031681526020810191909152604001600020549190611fff565b611e36565b5060015b9392505050565b60006109fc611e32565b6001600160a01b0316610a0d611269565b6001600160a01b031614610a3c5760405162461bcd60e51b8152600401610a3390612f51565b60405180910390fd5b6011546040516370a0823160e01b81526000916001600160a01b0316906370a0823190610a6d903090600401612a57565b60206040518083038186803b158015610a8557600080fd5b505afa158015610a99573d6000803e3d6000fd5b505050506040513d601f19601f82011682018060405250810190610abd919061299e565b905080831115610acb578092505b60115460405163a9059cbb60e01b81526001600160a01b039091169063a9059cbb90610afd9087908790600401612aa9565b602060405180830381600087803b158015610b1757600080fd5b505af1158015610b2b573d6000803e3d6000fd5b505050506040513d601f19601f82011682018060405250810190610b4f9190612966565b50602154610b5d908461202b565b602155509092915050565b60085460ff1690565b60026001541415610b945760405162461bcd60e51b8152600401610a33906130f8565b6002600155610ba1610c27565b60018055565b6000610942610bb4611e32565b846109e28560046000610bc5611e32565b6001600160a01b03908116825260208083019390935260409182016000908120918c16815292529020549061202b565b6012546001600160a01b03163314610c1f5760405162461bcd60e51b8152600401610a3390612cf4565b610c27612050565b565b60145481565b60155481565b600854640100000000900460ff1681565b6012546001600160a01b031681565b6000610c5f611e32565b6001600160a01b0316610c70611269565b6001600160a01b031614610c965760405162461bcd60e51b8152600401610a3390612f51565b60026001541415610cb95760405162461bcd60e51b8152600401610a33906130f8565b6002600155610cc6610f41565b15610ce35760405162461bcd60e51b8152600401610a3390612e34565b600a546040516370a0823160e01b81526000916001600160a01b0316906370a0823190610d14903090600401612a57565b60206040518083038186803b158015610d2c57600080fd5b505afa158015610d40573d6000803e3d6000fd5b505050506040513d601f19601f82011682018060405250810190610d64919061299e565b600a54909150610d7f906001600160a01b03163330866120be565b600a546040516370a0823160e01b81526000916001600160a01b0316906370a0823190610db0903090600401612a57565b60206040518083038186803b158015610dc857600080fd5b505afa158015610ddc573d6000803e3d6000fd5b505050506040513d601f19601f82011682018060405250810190610e00919061299e565b9050610e0c818361211c565b601454909450849015801590610e2457506000601554115b15610e5f57610e5c612710610e56601454610e56601b54610e506015548c61214490919063ffffffff16565b90612144565b9061217e565b90505b601554610e6c908261202b565b6015556008546301000000900460ff1615610e8e57610e89610c27565b610e9f565b601454610e9b908661202b565b6014555b6001805595945050505050565b600a546040516370a0823160e01b81526000916001600160a01b0316906370a0823190610edd903090600401612a57565b60206040518083038186803b158015610ef557600080fd5b505afa158015610f09573d6000803e3d6000fd5b505050506040513d601f19601f82011682018060405250810190610f2d919061299e565b905090565b6010546001600160a01b031681565b60025460ff1690565b6012546001600160a01b03163314610f745760405162461bcd60e51b8152600401610a3390612cf4565b600e80546001600160a01b0319166001600160a01b0383161790556040517f384f1dcb79da4071839c471d7c81884a43fb946a527f3661fdee5904adc8f65790610fbf908390612a57565b60405180910390a150565b6022818154811061087157fe5b600f546001600160a01b031681565b6011546001600160a01b031681565b6012546001600160a01b0316331461101f5760405162461bcd60e51b8152600401610a3390612cf4565b600d546001600160a01b038481169116141561104d5760405162461bcd60e51b8152600401610a3390612b43565b600a546001600160a01b038481169116141561107b5760405162461bcd60e51b8152600401610a3390612b43565b61108f6001600160a01b03841682846121b0565b505050565b601c5481565b600e546001600160a01b031681565b6001600160a01b031660009081526003602052604090205490565b6110cc611e32565b6001600160a01b03166110dd611269565b6001600160a01b0316146111035760405162461bcd60e51b8152600401610a3390612f51565b600080546040516001600160a01b03909116907f8be0079c531659141344cd1fd0a4f28419497f9722a3daafe3b4186f6b6457e0908390a3600080546001600160a01b0319169055565b6000611157610964565b61116a5750670de0b6b3a7640000610925565b610f2d611175610964565b601454610e5690670de0b6b3a7640000612144565b6019546001600160a01b031681565b600b546001600160a01b031681565b601e5481565b6012546001600160a01b031633146111d85760405162461bcd60e51b8152600401610a3390612cf4565b610c276121cf565b600854610100900460ff1681565b60165481565b6012546001600160a01b0316331461121e5760405162461bcd60e51b8152600401610a3390612cf4565b601a80546001600160a01b0319166001600160a01b0383161790556040517fa69f1931be99336e049905baa11d21ed44204d7686e46b4344404d80d47c298890610fbf908390612a57565b6000546001600160a01b031690565b60215481565b60078054604080516020601f600260001961010060018816150201909516949094049384018190048102820181019092528281526060939092909183018282801561091d5780601f106108f25761010080835404028352916020019161091d565b6024818154811061087157fe5b60085462010000900460ff1681565b50600090565b6008546501000000000090046001600160a01b031681565b6000610942611326611e32565b846109e2856040518060600160405280602581526020016132f36025913960046000611350611e32565b6001600160a01b03908116825260208083019390935260409182016000908120918d16815292529020549190611fff565b600061094261138e611e32565b8484611eea565b6012546001600160a01b031633146113bf5760405162461bcd60e51b8152600401610a3390612cf4565b601980546001600160a01b0319166001600160a01b0383161790556040517f200c92aaea275302bf641e37f7a5dda63f445f08f4fc74a5cde7fd643f609e0990610fbf908390612a57565b601f5481565b6103e381565b6025818154811061087157fe5b60185481565b601a546001600160a01b031681565b611440610f41565b1561145d5760405162461bcd60e51b8152600401610a3390612e34565b6008546301000000900460ff166114865760405162461bcd60e51b8152600401610a3390612e85565b600854610100900460ff16156114ae5760405162461bcd60e51b8152600401610a339061300c565b600b546040516370a0823160e01b81526000916001600160a01b0316906370a08231906114df903090600401612a57565b60206040518083038186803b1580156114f757600080fd5b505afa15801561150b573d6000803e3d6000fd5b505050506040513d601f19601f8201168201806040525081019061152f919061299e565b600d54600b549192506001600160a01b039182169116148015906115535750600081115b1561160857600e54600b54611575916001600160a01b0391821691168361222a565b611608600e60009054906101000a90046001600160a01b031682601d5460258054806020026020016040519081016040528092919081815260200182805480156115e857602002820191906000526020600020905b81546001600160a01b031681526001909101906020018083116115ca575b5050505050306116036102584261202b90919063ffffffff16565b6122d5565b600c546040516370a0823160e01b81526000916001600160a01b0316906370a0823190611639903090600401612a57565b60206040518083038186803b15801561165157600080fd5b505afa158015611665573d6000803e3d6000fd5b505050506040513d601f19601f82011682018060405250810190611689919061299e565b600d54600c549192506001600160a01b039182169116148015906116ad5750600081115b1561175b57600e54600c546116cf916001600160a01b0391821691168361222a565b61175b600e60009054906101000a90046001600160a01b031682601d5460268054806020026020016040519081016040528092919081815260200182805480156115e8576020028201919060005260206000209081546001600160a01b031681526001909101906020018083116115ca575050505050306116036102584261202b90919063ffffffff16565b5050565b6000611769611e32565b6001600160a01b031661177a611269565b6001600160a01b0316146117a05760405162461bcd60e51b8152600401610a3390612f51565b600260015414156117c35760405162461bcd60e51b8152600401610a33906130f8565b60026001556117d28383611be1565b600180559392505050565b6126de81565b6023818154811061087157fe5b6012546001600160a01b0316331461181a5760405162461bcd60e51b8152600401610a3390612cf4565b6126de86101561183c5760405162461bcd60e51b8152600401610a3390612b90565b61271086111561185e5760405162461bcd60e51b8152600401610a3390612dfd565b601b8690556113888510156118855760405162461bcd60e51b8152600401610a3390612bfe565b6127108511156118a75760405162461bcd60e51b8152600401610a3390612bc7565b601c8590556113888411156118ce5760405162461bcd60e51b8152600401610a3390612eaa565b60168490556113888311156118f55760405162461bcd60e51b8152600401610a3390612f22565b60178390556103e382111561191c5760405162461bcd60e51b8152600401610a3390612d12565b601d82905560188190556040517fcb4ecc62ba7efb533c814d48b7dc1c8f06063d93bf32c3730c1ec47011e8747a90611960908890889088908890879089906131c4565b60405180910390a1505050505050565b6012546001600160a01b0316331461199a5760405162461bcd60e51b8152600401610a3390612cf4565b601280546001600160a01b0319166001600160a01b0383161790556040517f91a8c1cc2d4a3bb60738481947a00cbb9899c822916694cf8bb1d68172fdcd5490610fbf908390612a57565b60026001541415611a085760405162461bcd60e51b8152600401610a33906130f8565b6002600155611a15610f41565b15610ba15760405162461bcd60e51b8152600401610a3390612e34565b6012546001600160a01b03163314611a5c5760405162461bcd60e51b8152600401610a3390612cf4565b610c27612410565b600c546001600160a01b031681565b6001600160a01b03918216600090815260046020908152604080832093909416825291909152205490565b6008546301000000900460ff1681565b600d546001600160a01b031681565b600a546001600160a01b031681565b611ad4611e32565b6001600160a01b0316611ae5611269565b6001600160a01b031614611b0b5760405162461bcd60e51b8152600401610a3390612f51565b61175b8282612484565b60095481565b61251c81565b611b29611e32565b6001600160a01b0316611b3a611269565b6001600160a01b031614611b605760405162461bcd60e51b8152600401610a3390612f51565b6001600160a01b038116611b865760405162461bcd60e51b8152600401610a3390612c35565b600080546040516001600160a01b03808516939216917f8be0079c531659141344cd1fd0a4f28419497f9722a3daafe3b4186f6b6457e091a3600080546001600160a01b0319166001600160a01b0392909216919091179055565b6000611beb611e32565b6001600160a01b0316611bfc611269565b6001600160a01b031614611c225760405162461bcd60e51b8152600401610a3390612f51565b60026001541415611c455760405162461bcd60e51b8152600401610a33906130f8565b600260015581611c675760405162461bcd60e51b8152600401610a3390612e5e565b6000611c84601454610e566015548661214490919063ffffffff16565b9050601554811115611c9557506015545b601554611ca2908261211c565b601555601c546127101115611ccf57611ccc612710610e56601c548661214490919063ffffffff16565b92505b6008546301000000900460ff1615611cea57611cea83612481565b600a546040516370a0823160e01b81526000916001600160a01b0316906370a0823190611d1b903090600401612a57565b60206040518083038186803b158015611d3357600080fd5b505afa158015611d47573d6000803e3d6000fd5b505050506040513d601f19601f82011682018060405250810190611d6b919061299e565b905080841115611d79578093505b836014541015611d895760145493505b601454611d96908561211c565b601455601054600a54611db6916001600160a01b039182169116866121b0565b50600180559392505050565b6000611dcc611e32565b6001600160a01b0316611ddd611269565b6001600160a01b031614611e035760405162461bcd60e51b8152600401610a3390612f51565b6000611e20601454610e566015548661214490919063ffffffff16565b90506109eb8482612566565b601d5481565b3390565b6001600160a01b038316611e5c5760405162461bcd60e51b8152600401610a3390613033565b6001600160a01b038216611e825760405162461bcd60e51b8152600401610a3390612c7b565b6001600160a01b0380841660008181526004602090815260408083209487168084529490915290819020849055517f8c5be1e5ebec7d5bd14f71427d1e84f3dd0314c0f7b2291e5b200ac8c7c3b92590611edd908590613166565b60405180910390a3505050565b6001600160a01b038316611f105760405162461bcd60e51b8152600401610a3390612fc7565b6001600160a01b038216611f365760405162461bcd60e51b8152600401610a3390612b00565b611f4183838361108f565b611f7e816040518060600160405280602681526020016132a5602691396001600160a01b0386166000908152600360205260409020549190611fff565b6001600160a01b038085166000908152600360205260408082209390935590841681522054611fad908261202b565b6001600160a01b0380841660008181526003602052604090819020939093559151908516907fddf252ad1be2c89b69c2b068fc378daa952ba7f163c4a11628f55a4df523b3ef90611edd908590613166565b600081848411156120235760405162461bcd60e51b8152600401610a339190612acd565b505050900390565b6000828201838110156109eb5760405162461bcd60e51b8152600401610a3390612cbd565b612058610f41565b6120745760405162461bcd60e51b8152600401610a3390612b62565b6002805460ff191690557f5db9ee0a495bf2e6ff9c91a7834c1ba4fdd244a5e8aa4e537bd38aeae4b073aa6120a7611e32565b6040516120b49190612a57565b60405180910390a1565b612116846323b872dd60e01b8585856040516024016120df93929190612a85565b60408051601f198184030181529190526020810180516001600160e01b03166001600160e01b03199093169290921790915261261a565b50505050565b60008282111561213e5760405162461bcd60e51b8152600401610a3390612d49565b50900390565b60008261215357506000610946565b8282028284828161216057fe5b04146109eb5760405162461bcd60e51b8152600401610a3390612ee1565b600080821161219f5760405162461bcd60e51b8152600401610a3390612dc6565b8183816121a857fe5b049392505050565b61108f8363a9059cbb60e01b84846040516024016120df929190612aa9565b6121d7610f41565b156121f45760405162461bcd60e51b8152600401610a3390612e34565b6002805460ff191660011790557f62e78cea01bee320cd4e420270b5ea74000d11b0c9f74754ebdbfc544b05a2586120a7611e32565b60006122b482856001600160a01b031663dd62ed3e30876040518363ffffffff1660e01b815260040161225e929190612a6b565b60206040518083038186803b15801561227657600080fd5b505afa15801561228a573d6000803e3d6000fd5b505050506040513d601f19601f820116820180604052508101906122ae919061299e565b9061202b565b90506121168463095ea7b360e01b85846040516024016120df929190612aa9565b60405163d06ca61f60e01b81526060906001600160a01b0388169063d06ca61f90612306908990889060040161316f565b60006040518083038186803b15801561231e57600080fd5b505afa158015612332573d6000803e3d6000fd5b505050506040513d6000823e601f3d908101601f1916820160405261235a91908101906128d1565b90506000816123746001845161211c90919063ffffffff16565b8151811061237e57fe5b60200260200101519050876001600160a01b0316635c11d795886123b16103e8610e568b8761214490919063ffffffff16565b8888886040518663ffffffff1660e01b81526004016123d4959493929190613188565b600060405180830381600087803b1580156123ee57600080fd5b505af1158015612402573d6000803e3d6000fd5b505050505050505050505050565b47801561248157600f60009054906101000a90046001600160a01b03166001600160a01b031663d0e30db0826040518263ffffffff1660e01b81526004016000604051808303818588803b15801561246757600080fd5b505af115801561247b573d6000803e3d6000fd5b50505050505b50565b6001600160a01b0382166124aa5760405162461bcd60e51b8152600401610a3390612f86565b6124b68260008361108f565b6124f381604051806060016040528060228152602001613283602291396001600160a01b0385166000908152600360205260409020549190611fff565b6001600160a01b038316600090815260036020526040902055600554612519908261211c565b6005556040516000906001600160a01b038416907fddf252ad1be2c89b69c2b068fc378daa952ba7f163c4a11628f55a4df523b3ef9061255a908590613166565b60405180910390a35050565b6001600160a01b03821661258c5760405162461bcd60e51b8152600401610a339061312f565b6125986000838361108f565b6005546125a5908261202b565b6005556001600160a01b0382166000908152600360205260409020546125cb908261202b565b6001600160a01b0383166000818152600360205260408082209390935591519091907fddf252ad1be2c89b69c2b068fc378daa952ba7f163c4a11628f55a4df523b3ef9061255a908590613166565b606061266f826040518060400160405280602081526020017f5361666545524332303a206c6f772d6c6576656c2063616c6c206661696c6564815250856001600160a01b03166126a99092919063ffffffff16565b80519091501561108f578080602001905181019061268d9190612966565b61108f5760405162461bcd60e51b8152600401610a33906130ae565b60606126b884846000856126c0565b949350505050565b6060824710156126e25760405162461bcd60e51b8152600401610a3390612d80565b6126eb85612781565b6127075760405162461bcd60e51b8152600401610a3390613077565b60006060866001600160a01b031685876040516127249190612a3b565b60006040518083038185875af1925050503d8060008114612761576040519150601f19603f3d011682016040523d82523d6000602084013e612766565b606091505b5091509150612776828286612787565b979650505050505050565b3b151590565b606083156127965750816109eb565b8251156127a65782518084602001fd5b8160405162461bcd60e51b8152600401610a339190612acd565b80356001600160a01b038116811461094657600080fd5b6000602082840312156127e8578081fd5b6109eb83836127c0565b60008060408385031215612804578081fd5b61280e84846127c0565b915061281d84602085016127c0565b90509250929050565b60008060006060848603121561283a578081fd5b83356128458161326d565b925060208401356128558161326d565b929592945050506040919091013590565b60008060408385031215612878578182fd5b61288284846127c0565b946020939093013593505050565b6000806000606084860312156128a4578283fd5b83356128af8161326d565b92506020840135915060408401356128c68161326d565b809150509250925092565b600060208083850312156128e3578182fd5b825167ffffffffffffffff8111156128f9578283fd5b8301601f81018513612909578283fd5b805161291c61291782613221565b6131fa565b8181528381019083850185840285018601891015612938578687fd5b8694505b8385101561295a57805183526001949094019391850191850161293c565b50979650505050505050565b600060208284031215612977578081fd5b815180151581146109eb578182fd5b600060208284031215612997578081fd5b5035919050565b6000602082840312156129af578081fd5b5051919050565b60008060008060008060c087890312156129ce578182fd5b505084359660208601359650604086013595606081013595506080810135945060a0013592509050565b6000815180845260208085019450808401835b83811015612a305781516001600160a01b031687529582019590820190600101612a0b565b509495945050505050565b60008251612a4d818460208701613241565b9190910192915050565b6001600160a01b0391909116815260200190565b6001600160a01b0392831681529116602082015260400190565b6001600160a01b039384168152919092166020820152604081019190915260600190565b6001600160a01b03929092168252602082015260400190565b901515815260200190565b6000602082528251806020840152612aec816040850160208701613241565b601f01601f19169190910160400192915050565b60208082526023908201527f45524332303a207472616e7366657220746f20746865207a65726f206164647260408201526265737360e81b606082015260800190565b602080825260059082015264217361666560d81b604082015260600190565b60208082526014908201527314185d5cd8589b194e881b9bdd081c185d5cd95960621b604082015260600190565b6020808252601a908201527f5f656e7472616e6365466565466163746f7220746f6f206c6f77000000000000604082015260600190565b6020808252601b908201527f5f7769746864726177466565466163746f7220746f6f20686967680000000000604082015260600190565b6020808252601a908201527f5f7769746864726177466565466163746f7220746f6f206c6f77000000000000604082015260600190565b60208082526026908201527f4f776e61626c653a206e6577206f776e657220697320746865207a65726f206160408201526564647265737360d01b606082015260800190565b60208082526022908201527f45524332303a20617070726f766520746f20746865207a65726f206164647265604082015261737360f01b606082015260800190565b6020808252601b908201527f536166654d6174683a206164646974696f6e206f766572666c6f770000000000604082015260600190565b60208082526004908201526310b3b7bb60e11b604082015260600190565b60208082526018908201527f5f736c697070616765466163746f7220746f6f20686967680000000000000000604082015260600190565b6020808252601e908201527f536166654d6174683a207375627472616374696f6e206f766572666c6f770000604082015260600190565b60208082526026908201527f416464726573733a20696e73756666696369656e742062616c616e636520666f6040820152651c8818d85b1b60d21b606082015260800190565b6020808252601a908201527f536166654d6174683a206469766973696f6e206279207a65726f000000000000604082015260600190565b6020808252601b908201527f5f656e7472616e6365466565466163746f7220746f6f20686967680000000000604082015260600190565b60208082526010908201526f14185d5cd8589b194e881c185d5cd95960821b604082015260600190565b6020808252600d908201526c05f77616e74416d74203c3d203609c1b604082015260600190565b6020808252600b908201526a02169734175746f436f6d760ac1b604082015260600190565b60208082526017908201527f5f636f6e74726f6c6c657246656520746f6f2068696768000000000000000000604082015260600190565b60208082526021908201527f536166654d6174683a206d756c7469706c69636174696f6e206f766572666c6f6040820152607760f81b606082015260800190565b6020808252601590820152740bec4eaf284c2c6d6a4c2e8ca40e8dede40d0d2ced605b1b604082015260600190565b6020808252818101527f4f776e61626c653a2063616c6c6572206973206e6f7420746865206f776e6572604082015260600190565b60208082526021908201527f45524332303a206275726e2066726f6d20746865207a65726f206164647265736040820152607360f81b606082015260800190565b60208082526025908201527f45524332303a207472616e736665722066726f6d20746865207a65726f206164604082015264647265737360d81b606082015260800190565b6020808252600d908201526c697343414b455374616b696e6760981b604082015260600190565b60208082526024908201527f45524332303a20617070726f76652066726f6d20746865207a65726f206164646040820152637265737360e01b606082015260800190565b6020808252601d908201527f416464726573733a2063616c6c20746f206e6f6e2d636f6e7472616374000000604082015260600190565b6020808252602a908201527f5361666545524332303a204552433230206f7065726174696f6e20646964206e6040820152691bdd081cdd58d8d9595960b21b606082015260800190565b6020808252601f908201527f5265656e7472616e637947756172643a207265656e7472616e742063616c6c00604082015260600190565b6020808252601f908201527f45524332303a206d696e7420746f20746865207a65726f206164647265737300604082015260600190565b90815260200190565b6000838252604060208301526126b860408301846129f8565b600086825285602083015260a060408301526131a760a08301866129f8565b6001600160a01b0394909416606083015250608001529392505050565b958652602086019490945260408501929092526060840152608083015260a082015260c00190565b60ff91909116815260200190565b60405181810167ffffffffffffffff8111828210171561321957600080fd5b604052919050565b600067ffffffffffffffff821115613237578081fd5b5060209081020190565b60005b8381101561325c578181015183820152602001613244565b838111156121165750506000910152565b6001600160a01b038116811461248157600080fdfe45524332303a206275726e20616d6f756e7420657863656564732062616c616e636545524332303a207472616e7366657220616d6f756e7420657863656564732062616c616e636545524332303a207472616e7366657220616d6f756e74206578636565647320616c6c6f77616e636545524332303a2064656372656173656420616c6c6f77616e63652062656c6f77207a65726fa26469706673582212203fcb2fbe15e2f74ed22c62f87f01406df9b2cb0c014b75f350bbbe0a2f70667964736f6c634300060c00338be0079c531659141344cd1fd0a4f28419497f9722a3daafe3b4186f6b6457e0",
  "immutableReferences": {},
  "source": "// SPDX-License-Identifier: MIT\npragma solidity 0.6.12;\npragma experimental ABIEncoderV2;\n\nimport \"./Vault.sol\";\n\ncontract VaultStakingBeli is Vault {\n    constructor(\n        ErcConfig memory _erc,\n        ConversionPath memory _conversionPath,\n        FeeConfig memory _fees,\n        address[] memory _addresses,\n        uint256 _pid,\n        bool _isCAKEStaking,\n        bool _isSameAssetDeposit\n    ) public ERC20(_erc.name, _erc.symbol) {\n        wbnbAddress = _addresses[0];\n        govAddress = _addresses[1];\n        beliFarmAddress = _addresses[2];\n        BELIAddress = _addresses[3];\n\n        wantAddress = _addresses[4];\n        token0Address = _addresses[5];\n        token1Address = _addresses[6];\n        earnedAddress = _addresses[7];\n\n        farmContractAddress = _addresses[8];\n        pid = _pid;\n        isCAKEStaking = _isCAKEStaking;\n        isSameAssetDeposit = _isSameAssetDeposit;\n        isAutoComp = false;\n\n        uniRouterAddress = _addresses[9];\n        earnedToBELIPath = _conversionPath.earnedToBELIPath;\n        earnedToToken0Path = _conversionPath.earnedToToken0Path;\n        earnedToToken1Path = _conversionPath.earnedToToken1Path;\n        token0ToEarnedPath = _conversionPath.token0ToEarnedPath;\n        token1ToEarnedPath = _conversionPath.token1ToEarnedPath;\n\n        controllerFee = _fees.controllerFee;\n        rewardsAddress = _addresses[10];\n        buyBackRate = _fees.buyBackRate;\n        buyBackAddress = _addresses[11];\n        earnToBeliRate = 0;\n\n        transferOwnership(beliFarmAddress);\n    }\n\n    function _farm() internal override {}\n\n    function _unfarm(uint256 _wantAmt) internal override {}\n\n    function earn() public override nonReentrant whenNotPaused {}\n}",
  "sourcePath": "/workspaces/beli-farm/src/contracts/Vault_BELI.sol",
  "compiler": {
    "name": "solc",
    "version": "0.6.12+commit.27d51765.Emscripten.clang"
  },
  "schemaVersion": "3.4.3",
  "updatedAt": "2022-03-02T01:51:39.365Z",
  "networkType": "ethereum",
  "devdoc": {
    "kind": "dev",
    "methods": {
      "allowance(address,address)": {
        "details": "See {IERC20-allowance}."
      },
      "approve(address,uint256)": {
        "details": "See {IERC20-approve}. Requirements: - `spender` cannot be the zero address."
      },
      "balanceOf(address)": {
        "details": "See {IERC20-balanceOf}."
      },
      "decimals()": {
        "details": "Returns the number of decimals used to get its user representation. For example, if `decimals` equals `2`, a balance of `505` tokens should be displayed to a user as `5,05` (`505 / 10 ** 2`). Tokens usually opt for a value of 18, imitating the relationship between Ether and Wei. This is the value {ERC20} uses, unless {_setupDecimals} is called. NOTE: This information is only used for _display_ purposes: it in no way affects any of the arithmetic of the contract, including {IERC20-balanceOf} and {IERC20-transfer}."
      },
      "decreaseAllowance(address,uint256)": {
        "details": "Atomically decreases the allowance granted to `spender` by the caller. This is an alternative to {approve} that can be used as a mitigation for problems described in {IERC20-approve}. Emits an {Approval} event indicating the updated allowance. Requirements: - `spender` cannot be the zero address. - `spender` must have allowance for the caller of at least `subtractedValue`."
      },
      "increaseAllowance(address,uint256)": {
        "details": "Atomically increases the allowance granted to `spender` by the caller. This is an alternative to {approve} that can be used as a mitigation for problems described in {IERC20-approve}. Emits an {Approval} event indicating the updated allowance. Requirements: - `spender` cannot be the zero address."
      },
      "name()": {
        "details": "Returns the name of the token."
      },
      "owner()": {
        "details": "Returns the address of the current owner."
      },
      "paused()": {
        "details": "Returns true if the contract is paused, and false otherwise."
      },
      "renounceOwnership()": {
        "details": "Leaves the contract without owner. It will not be possible to call `onlyOwner` functions anymore. Can only be called by the current owner. NOTE: Renouncing ownership will leave the contract without an owner, thereby removing any functionality that is only available to the owner."
      },
      "symbol()": {
        "details": "Returns the symbol of the token, usually a shorter version of the name."
      },
      "totalSupply()": {
        "details": "See {IERC20-totalSupply}."
      },
      "transfer(address,uint256)": {
        "details": "See {IERC20-transfer}. Requirements: - `recipient` cannot be the zero address. - the caller must have a balance of at least `amount`."
      },
      "transferFrom(address,address,uint256)": {
        "details": "See {IERC20-transferFrom}. Emits an {Approval} event indicating the updated allowance. This is not required by the EIP. See the note at the beginning of {ERC20}. Requirements: - `sender` and `recipient` cannot be the zero address. - `sender` must have a balance of at least `amount`. - the caller must have allowance for ``sender``'s tokens of at least `amount`."
      },
      "transferOwnership(address)": {
        "details": "Transfers ownership of the contract to a new account (`newOwner`). Can only be called by the current owner."
      }
    },
    "version": 1
  },
  "userdoc": {
    "kind": "user",
    "methods": {},
    "version": 1
  }
}