{
  "contractName": "Locker",
  "abi": [
    {
      "inputs": [
        {
          "internalType": "address",
          "name": "_beli",
          "type": "address"
        },
        {
          "internalType": "uint256",
          "name": "_startReleaseBlock",
          "type": "uint256"
        },
        {
          "internalType": "uint256",
          "name": "_endReleaseBlock",
          "type": "uint256"
        }
      ],
      "stateMutability": "nonpayable",
      "type": "constructor"
    },
    {
      "anonymous": false,
      "inputs": [
        {
          "indexed": true,
          "internalType": "address",
          "name": "to",
          "type": "address"
        },
        {
          "indexed": false,
          "internalType": "uint256",
          "name": "requested",
          "type": "uint256"
        },
        {
          "indexed": false,
          "internalType": "uint256",
          "name": "lockedAfterTax",
          "type": "uint256"
        }
      ],
      "name": "Lock",
      "type": "event"
    },
    {
      "inputs": [],
      "name": "BELI",
      "outputs": [
        {
          "internalType": "address",
          "name": "",
          "type": "address"
        }
      ],
      "stateMutability": "view",
      "type": "function",
      "constant": true
    },
    {
      "inputs": [],
      "name": "endReleaseBlock",
      "outputs": [
        {
          "internalType": "uint256",
          "name": "",
          "type": "uint256"
        }
      ],
      "stateMutability": "view",
      "type": "function",
      "constant": true
    },
    {
      "inputs": [],
      "name": "startReleaseBlock",
      "outputs": [
        {
          "internalType": "uint256",
          "name": "",
          "type": "uint256"
        }
      ],
      "stateMutability": "view",
      "type": "function",
      "constant": true
    },
    {
      "inputs": [],
      "name": "totalLock",
      "outputs": [
        {
          "internalType": "uint256",
          "name": "",
          "type": "uint256"
        }
      ],
      "stateMutability": "view",
      "type": "function",
      "constant": true
    },
    {
      "inputs": [],
      "name": "getStartReleaseBlock",
      "outputs": [
        {
          "internalType": "uint256",
          "name": "",
          "type": "uint256"
        }
      ],
      "stateMutability": "view",
      "type": "function",
      "constant": true
    },
    {
      "inputs": [
        {
          "internalType": "address",
          "name": "_account",
          "type": "address"
        }
      ],
      "name": "lockOf",
      "outputs": [
        {
          "internalType": "uint256",
          "name": "",
          "type": "uint256"
        }
      ],
      "stateMutability": "view",
      "type": "function",
      "constant": true
    },
    {
      "inputs": [
        {
          "internalType": "address",
          "name": "_account",
          "type": "address"
        }
      ],
      "name": "released",
      "outputs": [
        {
          "internalType": "uint256",
          "name": "",
          "type": "uint256"
        }
      ],
      "stateMutability": "view",
      "type": "function",
      "constant": true
    },
    {
      "inputs": [
        {
          "internalType": "address",
          "name": "_account",
          "type": "address"
        },
        {
          "internalType": "uint256",
          "name": "_amount",
          "type": "uint256"
        }
      ],
      "name": "lock",
      "outputs": [],
      "stateMutability": "nonpayable",
      "type": "function"
    },
    {
      "inputs": [
        {
          "internalType": "address",
          "name": "_account",
          "type": "address"
        }
      ],
      "name": "canUnlockAmount",
      "outputs": [
        {
          "internalType": "uint256",
          "name": "",
          "type": "uint256"
        }
      ],
      "stateMutability": "view",
      "type": "function",
      "constant": true
    },
    {
      "inputs": [],
      "name": "unlock",
      "outputs": [],
      "stateMutability": "nonpayable",
      "type": "function"
    }
  ],
  "bytecode": "0x608060405234801561001057600080fd5b50604051610d38380380610d388339818101604052606081101561003357600080fd5b50805160208201516040909201519091908181116100825760405162461bcd60e51b8152600401808060200182810382526023815260200180610d156023913960400191505060405180910390fd5b6001600160a01b0383166100cf576040805162461bcd60e51b815260206004820152600f60248201526e696e76616c6964206164647265737360881b604482015290519081900360640190fd5b600080546001600160a01b039094166001600160a01b031990941693909317909255600155600255610c0f806101066000396000f3fe608060405234801561001057600080fd5b506004361061009e5760003560e01c80637ee41615116100665780637ee416151461013f5780639852595c14610147578063a69df4b51461016d578063b8711ef914610175578063ce4079ef146101995761009e565b8063202b1760146100a3578063282d3fdf146100db5780633a1aae3514610109578063463dd61c146101115780635a46d3b514610119575b600080fd5b6100c9600480360360208110156100b957600080fd5b50356001600160a01b03166101a1565b60408051918252519081900360200190f35b610107600480360360408110156100f157600080fd5b506001600160a01b038135169060200135610277565b005b6100c9610502565b6100c9610508565b6100c96004803603602081101561012f57600080fd5b50356001600160a01b031661050e565b6100c9610529565b6100c96004803603602081101561015d57600080fd5b50356001600160a01b031661052f565b61010761054a565b61017d61064b565b604080516001600160a01b039092168252519081900360200190f35b6100c961065a565b60006001544310156101b557506000610272565b60025443106101f3576001600160a01b0382166000908152600560209081526040808320546004909252909120546101ec91610660565b9050610272565b600061020a6001544361066090919063ffffffff16565b9050600061022560015460025461066090919063ffffffff16565b6001600160a01b03851660009081526005602090815260408083205460049092529091205491925061026d9161026790849061026190876106c2565b90610722565b90610660565b925050505b919050565b60015443106102bc576040805162461bcd60e51b815260206004820152600c60248201526b6e6f206d6f7265206c6f636b60a01b604482015290519081900360640190fd5b6001600160a01b03821661030f576040805162461bcd60e51b81526020600482015260156024820152746e6f206c6f636b20746f206164647265737328302960581b604482015290519081900360640190fd5b60008111610350576040805162461bcd60e51b81526020600482015260096024820152687a65726f206c6f636b60b81b604482015290519081900360640190fd5b60008054604080516370a0823160e01b815230600482015290516001600160a01b03909216916370a0823191602480820192602092909190829003018186803b15801561039c57600080fd5b505afa1580156103b0573d6000803e3d6000fd5b505050506040513d60208110156103c657600080fd5b50516000549091506103e3906001600160a01b0316333085610789565b60008054604080516370a0823160e01b815230600482015290516001600160a01b03909216916370a0823191602480820192602092909190829003018186803b15801561042f57600080fd5b505afa158015610443573d6000803e3d6000fd5b505050506040513d602081101561045957600080fd5b5051905060006104698284610660565b6001600160a01b03861660009081526004602052604090205490915061048f90826107e9565b6001600160a01b0386166000908152600460205260409020556003546104b590826107e9565b600355604080518581526020810183905281516001600160a01b038816927f49eaf4942f1237055eb4cfa5f31c9dfe50d5b4ade01e021f7de8be2fbbde557b928290030190a25050505050565b60035490565b60015490565b6001600160a01b031660009081526004602052604090205490565b60015481565b6001600160a01b031660009081526005602052604090205490565b600154431161058f576040805162461bcd60e51b815260206004820152600c60248201526b1cdd1a5b1b081b1bd8dad95960a21b604482015290519081900360640190fd5b33600090815260056020908152604080832054600490925290912054116105e9576040805162461bcd60e51b81526020600482015260096024820152681b9bc81b1bd8dad95960ba1b604482015290519081900360640190fd5b60006105f4336101a1565b60005490915061060e906001600160a01b03163383610843565b3360009081526005602052604090205461062890826107e9565b336000908152600560205260409020556003546106459082610660565b60035550565b6000546001600160a01b031681565b60025481565b6000828211156106b7576040805162461bcd60e51b815260206004820152601e60248201527f536166654d6174683a207375627472616374696f6e206f766572666c6f770000604482015290519081900360640190fd5b508082035b92915050565b6000826106d1575060006106bc565b828202828482816106de57fe5b041461071b5760405162461bcd60e51b8152600401808060200182810382526021815260200180610b8f6021913960400191505060405180910390fd5b9392505050565b6000808211610778576040805162461bcd60e51b815260206004820152601a60248201527f536166654d6174683a206469766973696f6e206279207a65726f000000000000604482015290519081900360640190fd5b81838161078157fe5b049392505050565b604080516001600160a01b0380861660248301528416604482015260648082018490528251808303909101815260849091019091526020810180516001600160e01b03166323b872dd60e01b1790526107e390859061089a565b50505050565b60008282018381101561071b576040805162461bcd60e51b815260206004820152601b60248201527f536166654d6174683a206164646974696f6e206f766572666c6f770000000000604482015290519081900360640190fd5b604080516001600160a01b038416602482015260448082018490528251808303909101815260649091019091526020810180516001600160e01b031663a9059cbb60e01b17905261089590849061089a565b505050565b60606108ef826040518060400160405280602081526020017f5361666545524332303a206c6f772d6c6576656c2063616c6c206661696c6564815250856001600160a01b031661094b9092919063ffffffff16565b8051909150156108955780806020019051602081101561090e57600080fd5b50516108955760405162461bcd60e51b815260040180806020018281038252602a815260200180610bb0602a913960400191505060405180910390fd5b606061095a8484600085610962565b949350505050565b6060824710156109a35760405162461bcd60e51b8152600401808060200182810382526026815260200180610b696026913960400191505060405180910390fd5b6109ac85610abe565b6109fd576040805162461bcd60e51b815260206004820152601d60248201527f416464726573733a2063616c6c20746f206e6f6e2d636f6e7472616374000000604482015290519081900360640190fd5b60006060866001600160a01b031685876040518082805190602001908083835b60208310610a3c5780518252601f199092019160209182019101610a1d565b6001836020036101000a03801982511681845116808217855250505050505090500191505060006040518083038185875af1925050503d8060008114610a9e576040519150601f19603f3d011682016040523d82523d6000602084013e610aa3565b606091505b5091509150610ab3828286610ac4565b979650505050505050565b3b151590565b60608315610ad357508161071b565b825115610ae35782518084602001fd5b8160405162461bcd60e51b81526004018080602001828103825283818151815260200191508051906020019080838360005b83811015610b2d578181015183820152602001610b15565b50505050905090810190601f168015610b5a5780820380516001836020036101000a031916815260200191505b509250505060405180910390fdfe416464726573733a20696e73756666696369656e742062616c616e636520666f722063616c6c536166654d6174683a206d756c7469706c69636174696f6e206f766572666c6f775361666545524332303a204552433230206f7065726174696f6e20646964206e6f742073756363656564a26469706673582212201508fbc597e173d868dfda9828924141a827b63982a71878271edda3bafe24a664736f6c634300060c0033656e6452656c65617365426c6f636b203c20737461727452656c65617365426c6f636b",
  "immutableReferences": {},
  "source": "// SPDX-License-Identifier: MIT\npragma solidity 0.6.12;\n\nimport \"@openzeppelin/contracts/token/ERC20/IERC20.sol\";\nimport \"@openzeppelin/contracts/token/ERC20/SafeERC20.sol\";\nimport \"@openzeppelin/contracts/math/SafeMath.sol\";\nimport \"./interfaces/ILocker.sol\";\n\ncontract Locker is ILocker {\n    using SafeMath for uint256;\n    using SafeERC20 for IERC20;\n\n    address public BELI;\n\n    uint256 public startReleaseBlock;\n    uint256 public endReleaseBlock;\n\n    uint256 private _totalLock;\n    mapping(address => uint256) private _locks;\n    mapping(address => uint256) private _released;\n\n    event Lock(address indexed to, uint256 requested, uint256 lockedAfterTax);\n\n    constructor(\n        address _beli,\n        uint256 _startReleaseBlock,\n        uint256 _endReleaseBlock\n    ) public {\n        require(_endReleaseBlock > _startReleaseBlock, \"endReleaseBlock < startReleaseBlock\");\n        require(_beli != address(0), \"invalid address\");\n        BELI = _beli;\n        startReleaseBlock = _startReleaseBlock;\n        endReleaseBlock = _endReleaseBlock;\n    }\n\n    function totalLock() external view override returns (uint256) {\n        return _totalLock;\n    }\n\n    function getStartReleaseBlock() external view override returns (uint256) {\n        return startReleaseBlock;\n    }\n\n    function lockOf(address _account) external view override returns (uint256) {\n        return _locks[_account];\n    }\n\n    function released(address _account) external view override returns (uint256) {\n        return _released[_account];\n    }\n\n    function lock(address _account, uint256 _amount) external override {\n        require(block.number < startReleaseBlock, \"no more lock\");\n        require(_account != address(0), \"no lock to address(0)\");\n        require(_amount > 0, \"zero lock\");\n\n        uint256 preBalance = IERC20(BELI).balanceOf(address(this));\n        IERC20(BELI).safeTransferFrom(msg.sender, address(this), _amount);\n        uint256 postBalance = IERC20(BELI).balanceOf(address(this));\n        uint256 lockedAmount = postBalance.sub(preBalance);\n\n        _locks[_account] = _locks[_account].add(lockedAmount);\n        _totalLock = _totalLock.add(lockedAmount);\n\n        emit Lock(_account, _amount, lockedAmount);\n    }\n\n    function canUnlockAmount(address _account) public view override returns (uint256) {\n        if (block.number < startReleaseBlock) {\n            return 0;\n        } else if (block.number >= endReleaseBlock) {\n            return _locks[_account].sub(_released[_account]);\n        } else {\n            uint256 _releasedBlock = block.number.sub(startReleaseBlock);\n            uint256 _totalVestingBlock = endReleaseBlock.sub(startReleaseBlock);\n            return _locks[_account].mul(_releasedBlock).div(_totalVestingBlock).sub(_released[_account]);\n        }\n    }\n\n    function unlock() external override {\n        require(block.number > startReleaseBlock, \"still locked\");\n        require(_locks[msg.sender] > _released[msg.sender], \"no locked\");\n\n        uint256 _amount = canUnlockAmount(msg.sender);\n\n        IERC20(BELI).safeTransfer(msg.sender, _amount);\n        _released[msg.sender] = _released[msg.sender].add(_amount);\n        _totalLock = _totalLock.sub(_amount);\n    }\n\n}",
  "sourcePath": "/workspaces/beli-farm/src/contracts/Locker.sol",
  "compiler": {
    "name": "solc",
    "version": "0.6.12+commit.27d51765.Emscripten.clang"
  },
  "schemaVersion": "3.4.3",
  "updatedAt": "2022-03-02T01:51:41.678Z",
  "networkType": "ethereum",
  "devdoc": {
    "kind": "dev",
    "methods": {},
    "version": 1
  },
  "userdoc": {
    "kind": "user",
    "methods": {},
    "version": 1
  }
}