{
  "contractName": "TimelockControllers",
  "abi": [
    {
      "inputs": [
        {
          "internalType": "address payable",
          "name": "_devWalletAddress",
          "type": "address"
        },
        {
          "internalType": "uint256",
          "name": "_minDelay",
          "type": "uint256"
        },
        {
          "internalType": "uint256",
          "name": "_minDelayReduced",
          "type": "uint256"
        }
      ],
      "stateMutability": "nonpayable",
      "type": "constructor"
    },
    {
      "anonymous": false,
      "inputs": [
        {
          "indexed": true,
          "internalType": "bytes32",
          "name": "id",
          "type": "bytes32"
        },
        {
          "indexed": true,
          "internalType": "uint256",
          "name": "index",
          "type": "uint256"
        },
        {
          "indexed": false,
          "internalType": "address",
          "name": "target",
          "type": "address"
        },
        {
          "indexed": false,
          "internalType": "uint256",
          "name": "value",
          "type": "uint256"
        },
        {
          "indexed": false,
          "internalType": "bytes",
          "name": "data",
          "type": "bytes"
        }
      ],
      "name": "CallExecuted",
      "type": "event"
    },
    {
      "anonymous": false,
      "inputs": [
        {
          "indexed": true,
          "internalType": "bytes32",
          "name": "id",
          "type": "bytes32"
        },
        {
          "indexed": true,
          "internalType": "uint256",
          "name": "index",
          "type": "uint256"
        },
        {
          "indexed": false,
          "internalType": "address",
          "name": "target",
          "type": "address"
        },
        {
          "indexed": false,
          "internalType": "uint256",
          "name": "value",
          "type": "uint256"
        },
        {
          "indexed": false,
          "internalType": "bytes",
          "name": "data",
          "type": "bytes"
        },
        {
          "indexed": false,
          "internalType": "bytes32",
          "name": "predecessor",
          "type": "bytes32"
        },
        {
          "indexed": false,
          "internalType": "uint256",
          "name": "delay",
          "type": "uint256"
        }
      ],
      "name": "CallScheduled",
      "type": "event"
    },
    {
      "anonymous": false,
      "inputs": [
        {
          "indexed": true,
          "internalType": "bytes32",
          "name": "id",
          "type": "bytes32"
        }
      ],
      "name": "Cancelled",
      "type": "event"
    },
    {
      "anonymous": false,
      "inputs": [
        {
          "indexed": false,
          "internalType": "uint256",
          "name": "oldDuration",
          "type": "uint256"
        },
        {
          "indexed": false,
          "internalType": "uint256",
          "name": "newDuration",
          "type": "uint256"
        }
      ],
      "name": "MinDelayChange",
      "type": "event"
    },
    {
      "anonymous": false,
      "inputs": [
        {
          "indexed": false,
          "internalType": "uint256",
          "name": "oldDuration",
          "type": "uint256"
        },
        {
          "indexed": false,
          "internalType": "uint256",
          "name": "newDuration",
          "type": "uint256"
        }
      ],
      "name": "MinDelayReducedChange",
      "type": "event"
    },
    {
      "anonymous": false,
      "inputs": [
        {
          "indexed": true,
          "internalType": "bytes32",
          "name": "role",
          "type": "bytes32"
        },
        {
          "indexed": true,
          "internalType": "bytes32",
          "name": "previousAdminRole",
          "type": "bytes32"
        },
        {
          "indexed": true,
          "internalType": "bytes32",
          "name": "newAdminRole",
          "type": "bytes32"
        }
      ],
      "name": "RoleAdminChanged",
      "type": "event"
    },
    {
      "anonymous": false,
      "inputs": [
        {
          "indexed": true,
          "internalType": "bytes32",
          "name": "role",
          "type": "bytes32"
        },
        {
          "indexed": true,
          "internalType": "address",
          "name": "account",
          "type": "address"
        },
        {
          "indexed": true,
          "internalType": "address",
          "name": "sender",
          "type": "address"
        }
      ],
      "name": "RoleGranted",
      "type": "event"
    },
    {
      "anonymous": false,
      "inputs": [
        {
          "indexed": true,
          "internalType": "bytes32",
          "name": "role",
          "type": "bytes32"
        },
        {
          "indexed": true,
          "internalType": "address",
          "name": "account",
          "type": "address"
        },
        {
          "indexed": true,
          "internalType": "address",
          "name": "sender",
          "type": "address"
        }
      ],
      "name": "RoleRevoked",
      "type": "event"
    },
    {
      "anonymous": false,
      "inputs": [
        {
          "indexed": false,
          "internalType": "address[]",
          "name": "beneficiaryAddresses",
          "type": "address[]"
        },
        {
          "indexed": false,
          "internalType": "uint16[]",
          "name": "beneficiaryRewardFactors",
          "type": "uint16[]"
        }
      ],
      "name": "SetBeneficiaries",
      "type": "event"
    },
    {
      "anonymous": false,
      "inputs": [
        {
          "indexed": true,
          "internalType": "bytes32",
          "name": "id",
          "type": "bytes32"
        },
        {
          "indexed": true,
          "internalType": "uint256",
          "name": "index",
          "type": "uint256"
        },
        {
          "indexed": false,
          "internalType": "address",
          "name": "farmAddress",
          "type": "address"
        },
        {
          "indexed": false,
          "internalType": "uint16",
          "name": "lockerRate",
          "type": "uint16"
        },
        {
          "indexed": false,
          "internalType": "uint16",
          "name": "referralCommissionRate",
          "type": "uint16"
        },
        {
          "indexed": false,
          "internalType": "address",
          "name": "locker",
          "type": "address"
        },
        {
          "indexed": false,
          "internalType": "address",
          "name": "referral",
          "type": "address"
        },
        {
          "indexed": false,
          "internalType": "address",
          "name": "feeReceiver",
          "type": "address"
        },
        {
          "indexed": false,
          "internalType": "address",
          "name": "feeLpReceiver",
          "type": "address"
        }
      ],
      "name": "SetFarmScheduled",
      "type": "event"
    },
    {
      "anonymous": false,
      "inputs": [
        {
          "indexed": true,
          "internalType": "bytes32",
          "name": "id",
          "type": "bytes32"
        },
        {
          "indexed": true,
          "internalType": "uint256",
          "name": "index",
          "type": "uint256"
        },
        {
          "indexed": true,
          "internalType": "address",
          "name": "farmAddress",
          "type": "address"
        },
        {
          "indexed": false,
          "internalType": "uint256",
          "name": "pid",
          "type": "uint256"
        },
        {
          "indexed": false,
          "internalType": "uint256",
          "name": "allocPoint",
          "type": "uint256"
        },
        {
          "indexed": false,
          "internalType": "uint256",
          "name": "harvestInterval",
          "type": "uint256"
        },
        {
          "indexed": false,
          "internalType": "uint256",
          "name": "harvestFeeInterval",
          "type": "uint256"
        },
        {
          "indexed": false,
          "internalType": "uint16",
          "name": "harvestFee",
          "type": "uint16"
        },
        {
          "indexed": false,
          "internalType": "bool",
          "name": "withUpdate",
          "type": "bool"
        },
        {
          "indexed": false,
          "internalType": "bytes32",
          "name": "predecessor",
          "type": "bytes32"
        },
        {
          "indexed": false,
          "internalType": "uint256",
          "name": "delay",
          "type": "uint256"
        }
      ],
      "name": "SetScheduled",
      "type": "event"
    },
    {
      "anonymous": false,
      "inputs": [
        {
          "indexed": true,
          "internalType": "bytes32",
          "name": "id",
          "type": "bytes32"
        },
        {
          "indexed": true,
          "internalType": "address",
          "name": "vaultAddress",
          "type": "address"
        },
        {
          "indexed": false,
          "internalType": "uint256",
          "name": "entranceFeeFactor",
          "type": "uint256"
        },
        {
          "indexed": false,
          "internalType": "uint256",
          "name": "withdrawFeeFactor",
          "type": "uint256"
        },
        {
          "indexed": false,
          "internalType": "uint256",
          "name": "controllerFee",
          "type": "uint256"
        },
        {
          "indexed": false,
          "internalType": "uint256",
          "name": "buyBackRate",
          "type": "uint256"
        },
        {
          "indexed": false,
          "internalType": "uint256",
          "name": "slippageFactor",
          "type": "uint256"
        },
        {
          "indexed": false,
          "internalType": "uint256",
          "name": "profitToBeli",
          "type": "uint256"
        }
      ],
      "name": "SetVaultSettingsScheduled",
      "type": "event"
    },
    {
      "inputs": [],
      "name": "DEFAULT_ADMIN_ROLE",
      "outputs": [
        {
          "internalType": "bytes32",
          "name": "",
          "type": "bytes32"
        }
      ],
      "stateMutability": "view",
      "type": "function",
      "constant": true
    },
    {
      "inputs": [],
      "name": "EXECUTOR_ROLE",
      "outputs": [
        {
          "internalType": "bytes32",
          "name": "",
          "type": "bytes32"
        }
      ],
      "stateMutability": "view",
      "type": "function",
      "constant": true
    },
    {
      "inputs": [],
      "name": "PROPOSER_ROLE",
      "outputs": [
        {
          "internalType": "bytes32",
          "name": "",
          "type": "bytes32"
        }
      ],
      "stateMutability": "view",
      "type": "function",
      "constant": true
    },
    {
      "inputs": [],
      "name": "TIMELOCK_ADMIN_ROLE",
      "outputs": [
        {
          "internalType": "bytes32",
          "name": "",
          "type": "bytes32"
        }
      ],
      "stateMutability": "view",
      "type": "function",
      "constant": true
    },
    {
      "inputs": [
        {
          "internalType": "uint256",
          "name": "",
          "type": "uint256"
        }
      ],
      "name": "beneficiaryAddresses",
      "outputs": [
        {
          "internalType": "address",
          "name": "",
          "type": "address"
        }
      ],
      "stateMutability": "view",
      "type": "function",
      "constant": true
    },
    {
      "inputs": [
        {
          "internalType": "uint256",
          "name": "",
          "type": "uint256"
        }
      ],
      "name": "beneficiaryRewardFactors",
      "outputs": [
        {
          "internalType": "uint16",
          "name": "",
          "type": "uint16"
        }
      ],
      "stateMutability": "view",
      "type": "function",
      "constant": true
    },
    {
      "inputs": [],
      "name": "devWalletAddress",
      "outputs": [
        {
          "internalType": "address payable",
          "name": "",
          "type": "address"
        }
      ],
      "stateMutability": "view",
      "type": "function",
      "constant": true
    },
    {
      "inputs": [
        {
          "internalType": "bytes32",
          "name": "role",
          "type": "bytes32"
        }
      ],
      "name": "getRoleAdmin",
      "outputs": [
        {
          "internalType": "bytes32",
          "name": "",
          "type": "bytes32"
        }
      ],
      "stateMutability": "view",
      "type": "function",
      "constant": true
    },
    {
      "inputs": [
        {
          "internalType": "bytes32",
          "name": "role",
          "type": "bytes32"
        },
        {
          "internalType": "uint256",
          "name": "index",
          "type": "uint256"
        }
      ],
      "name": "getRoleMember",
      "outputs": [
        {
          "internalType": "address",
          "name": "",
          "type": "address"
        }
      ],
      "stateMutability": "view",
      "type": "function",
      "constant": true
    },
    {
      "inputs": [
        {
          "internalType": "bytes32",
          "name": "role",
          "type": "bytes32"
        }
      ],
      "name": "getRoleMemberCount",
      "outputs": [
        {
          "internalType": "uint256",
          "name": "",
          "type": "uint256"
        }
      ],
      "stateMutability": "view",
      "type": "function",
      "constant": true
    },
    {
      "inputs": [
        {
          "internalType": "bytes32",
          "name": "role",
          "type": "bytes32"
        },
        {
          "internalType": "address",
          "name": "account",
          "type": "address"
        }
      ],
      "name": "grantRole",
      "outputs": [],
      "stateMutability": "nonpayable",
      "type": "function"
    },
    {
      "inputs": [
        {
          "internalType": "bytes32",
          "name": "role",
          "type": "bytes32"
        },
        {
          "internalType": "address",
          "name": "account",
          "type": "address"
        }
      ],
      "name": "hasRole",
      "outputs": [
        {
          "internalType": "bool",
          "name": "",
          "type": "bool"
        }
      ],
      "stateMutability": "view",
      "type": "function",
      "constant": true
    },
    {
      "inputs": [],
      "name": "minDelay",
      "outputs": [
        {
          "internalType": "uint256",
          "name": "",
          "type": "uint256"
        }
      ],
      "stateMutability": "view",
      "type": "function",
      "constant": true
    },
    {
      "inputs": [],
      "name": "minDelayReduced",
      "outputs": [
        {
          "internalType": "uint256",
          "name": "",
          "type": "uint256"
        }
      ],
      "stateMutability": "view",
      "type": "function",
      "constant": true
    },
    {
      "inputs": [
        {
          "internalType": "bytes32",
          "name": "role",
          "type": "bytes32"
        },
        {
          "internalType": "address",
          "name": "account",
          "type": "address"
        }
      ],
      "name": "renounceRole",
      "outputs": [],
      "stateMutability": "nonpayable",
      "type": "function"
    },
    {
      "inputs": [
        {
          "internalType": "bytes32",
          "name": "role",
          "type": "bytes32"
        },
        {
          "internalType": "address",
          "name": "account",
          "type": "address"
        }
      ],
      "name": "revokeRole",
      "outputs": [],
      "stateMutability": "nonpayable",
      "type": "function"
    },
    {
      "stateMutability": "payable",
      "type": "receive",
      "payable": true
    },
    {
      "inputs": [
        {
          "internalType": "bytes32",
          "name": "id",
          "type": "bytes32"
        }
      ],
      "name": "isOperationPending",
      "outputs": [
        {
          "internalType": "bool",
          "name": "pending",
          "type": "bool"
        }
      ],
      "stateMutability": "view",
      "type": "function",
      "constant": true
    },
    {
      "inputs": [
        {
          "internalType": "bytes32",
          "name": "id",
          "type": "bytes32"
        }
      ],
      "name": "isOperationReady",
      "outputs": [
        {
          "internalType": "bool",
          "name": "ready",
          "type": "bool"
        }
      ],
      "stateMutability": "view",
      "type": "function",
      "constant": true
    },
    {
      "inputs": [
        {
          "internalType": "bytes32",
          "name": "id",
          "type": "bytes32"
        }
      ],
      "name": "isOperationDone",
      "outputs": [
        {
          "internalType": "bool",
          "name": "done",
          "type": "bool"
        }
      ],
      "stateMutability": "view",
      "type": "function",
      "constant": true
    },
    {
      "inputs": [
        {
          "internalType": "bytes32",
          "name": "id",
          "type": "bytes32"
        }
      ],
      "name": "getTimestamp",
      "outputs": [
        {
          "internalType": "uint256",
          "name": "timestamp",
          "type": "uint256"
        }
      ],
      "stateMutability": "view",
      "type": "function",
      "constant": true
    },
    {
      "inputs": [
        {
          "internalType": "address",
          "name": "target",
          "type": "address"
        },
        {
          "internalType": "uint256",
          "name": "value",
          "type": "uint256"
        },
        {
          "internalType": "bytes",
          "name": "data",
          "type": "bytes"
        },
        {
          "internalType": "bytes32",
          "name": "predecessor",
          "type": "bytes32"
        },
        {
          "internalType": "bytes32",
          "name": "salt",
          "type": "bytes32"
        }
      ],
      "name": "hashOperation",
      "outputs": [
        {
          "internalType": "bytes32",
          "name": "hash",
          "type": "bytes32"
        }
      ],
      "stateMutability": "pure",
      "type": "function",
      "constant": true
    },
    {
      "inputs": [
        {
          "internalType": "address[]",
          "name": "targets",
          "type": "address[]"
        },
        {
          "internalType": "uint256[]",
          "name": "values",
          "type": "uint256[]"
        },
        {
          "internalType": "bytes[]",
          "name": "datas",
          "type": "bytes[]"
        },
        {
          "internalType": "bytes32",
          "name": "predecessor",
          "type": "bytes32"
        },
        {
          "internalType": "bytes32",
          "name": "salt",
          "type": "bytes32"
        }
      ],
      "name": "hashOperationBatch",
      "outputs": [
        {
          "internalType": "bytes32",
          "name": "hash",
          "type": "bytes32"
        }
      ],
      "stateMutability": "pure",
      "type": "function",
      "constant": true
    },
    {
      "inputs": [
        {
          "internalType": "address",
          "name": "target",
          "type": "address"
        },
        {
          "internalType": "uint256",
          "name": "value",
          "type": "uint256"
        },
        {
          "internalType": "bytes",
          "name": "data",
          "type": "bytes"
        },
        {
          "internalType": "bytes32",
          "name": "predecessor",
          "type": "bytes32"
        },
        {
          "internalType": "bytes32",
          "name": "salt",
          "type": "bytes32"
        },
        {
          "internalType": "uint256",
          "name": "delay",
          "type": "uint256"
        }
      ],
      "name": "schedule",
      "outputs": [],
      "stateMutability": "nonpayable",
      "type": "function"
    },
    {
      "inputs": [
        {
          "internalType": "address[]",
          "name": "targets",
          "type": "address[]"
        },
        {
          "internalType": "uint256[]",
          "name": "values",
          "type": "uint256[]"
        },
        {
          "internalType": "bytes[]",
          "name": "datas",
          "type": "bytes[]"
        },
        {
          "internalType": "bytes32",
          "name": "predecessor",
          "type": "bytes32"
        },
        {
          "internalType": "bytes32",
          "name": "salt",
          "type": "bytes32"
        },
        {
          "internalType": "uint256",
          "name": "delay",
          "type": "uint256"
        }
      ],
      "name": "scheduleBatch",
      "outputs": [],
      "stateMutability": "nonpayable",
      "type": "function"
    },
    {
      "inputs": [
        {
          "internalType": "bytes32",
          "name": "id",
          "type": "bytes32"
        }
      ],
      "name": "cancel",
      "outputs": [],
      "stateMutability": "nonpayable",
      "type": "function"
    },
    {
      "inputs": [
        {
          "internalType": "address",
          "name": "target",
          "type": "address"
        },
        {
          "internalType": "uint256",
          "name": "value",
          "type": "uint256"
        },
        {
          "internalType": "bytes",
          "name": "data",
          "type": "bytes"
        },
        {
          "internalType": "bytes32",
          "name": "predecessor",
          "type": "bytes32"
        },
        {
          "internalType": "bytes32",
          "name": "salt",
          "type": "bytes32"
        }
      ],
      "name": "execute",
      "outputs": [],
      "stateMutability": "payable",
      "type": "function",
      "payable": true
    },
    {
      "inputs": [
        {
          "internalType": "address[]",
          "name": "targets",
          "type": "address[]"
        },
        {
          "internalType": "uint256[]",
          "name": "values",
          "type": "uint256[]"
        },
        {
          "internalType": "bytes[]",
          "name": "datas",
          "type": "bytes[]"
        },
        {
          "internalType": "bytes32",
          "name": "predecessor",
          "type": "bytes32"
        },
        {
          "internalType": "bytes32",
          "name": "salt",
          "type": "bytes32"
        }
      ],
      "name": "executeBatch",
      "outputs": [],
      "stateMutability": "payable",
      "type": "function",
      "payable": true
    },
    {
      "inputs": [
        {
          "internalType": "uint256",
          "name": "newDelay",
          "type": "uint256"
        }
      ],
      "name": "updateMinDelay",
      "outputs": [],
      "stateMutability": "nonpayable",
      "type": "function"
    },
    {
      "inputs": [
        {
          "internalType": "uint256",
          "name": "newDelay",
          "type": "uint256"
        }
      ],
      "name": "updateMinDelayReduced",
      "outputs": [],
      "stateMutability": "nonpayable",
      "type": "function"
    },
    {
      "inputs": [
        {
          "internalType": "address payable",
          "name": "_devWalletAddress",
          "type": "address"
        }
      ],
      "name": "setDevWalletAddress",
      "outputs": [],
      "stateMutability": "nonpayable",
      "type": "function"
    },
    {
      "inputs": [
        {
          "internalType": "address",
          "name": "_farmAddress",
          "type": "address"
        },
        {
          "internalType": "uint16",
          "name": "_lockerRate",
          "type": "uint16"
        },
        {
          "internalType": "uint16",
          "name": "_referralCommissionRate",
          "type": "uint16"
        },
        {
          "internalType": "contract ILocker",
          "name": "_locker",
          "type": "address"
        },
        {
          "internalType": "contract IReferral",
          "name": "_referral",
          "type": "address"
        },
        {
          "internalType": "contract IFeeReceiver",
          "name": "_feeReceiver",
          "type": "address"
        },
        {
          "internalType": "contract IFeeReceiver",
          "name": "_feeLpReceiver",
          "type": "address"
        },
        {
          "internalType": "bytes32",
          "name": "predecessor",
          "type": "bytes32"
        },
        {
          "internalType": "bytes32",
          "name": "salt",
          "type": "bytes32"
        }
      ],
      "name": "scheduleSetFarmSettings",
      "outputs": [],
      "stateMutability": "nonpayable",
      "type": "function"
    },
    {
      "inputs": [
        {
          "internalType": "address",
          "name": "_farmAddress",
          "type": "address"
        },
        {
          "internalType": "uint16",
          "name": "_lockerRate",
          "type": "uint16"
        },
        {
          "internalType": "uint16",
          "name": "_referralCommissionRate",
          "type": "uint16"
        },
        {
          "internalType": "contract ILocker",
          "name": "_locker",
          "type": "address"
        },
        {
          "internalType": "contract IReferral",
          "name": "_referral",
          "type": "address"
        },
        {
          "internalType": "contract IFeeReceiver",
          "name": "_feeReceiver",
          "type": "address"
        },
        {
          "internalType": "contract IFeeReceiver",
          "name": "_feeLpReceiver",
          "type": "address"
        },
        {
          "internalType": "bytes32",
          "name": "predecessor",
          "type": "bytes32"
        },
        {
          "internalType": "bytes32",
          "name": "salt",
          "type": "bytes32"
        }
      ],
      "name": "executeSetFarmSettings",
      "outputs": [],
      "stateMutability": "nonpayable",
      "type": "function"
    },
    {
      "inputs": [
        {
          "internalType": "address",
          "name": "_farmAddress",
          "type": "address"
        },
        {
          "internalType": "uint256",
          "name": "_pid",
          "type": "uint256"
        },
        {
          "internalType": "uint256",
          "name": "_allocPoint",
          "type": "uint256"
        },
        {
          "internalType": "uint256",
          "name": "_harvestInterval",
          "type": "uint256"
        },
        {
          "internalType": "uint256",
          "name": "_harvestFeeInterval",
          "type": "uint256"
        },
        {
          "internalType": "uint16",
          "name": "_harvestFee",
          "type": "uint16"
        },
        {
          "internalType": "bool",
          "name": "_withUpdate",
          "type": "bool"
        },
        {
          "internalType": "bytes32",
          "name": "_predecessor",
          "type": "bytes32"
        },
        {
          "internalType": "bytes32",
          "name": "_salt",
          "type": "bytes32"
        }
      ],
      "name": "scheduleSet",
      "outputs": [],
      "stateMutability": "nonpayable",
      "type": "function"
    },
    {
      "inputs": [
        {
          "internalType": "address",
          "name": "_farmAddress",
          "type": "address"
        },
        {
          "internalType": "uint256",
          "name": "_pid",
          "type": "uint256"
        },
        {
          "internalType": "uint256",
          "name": "_allocPoint",
          "type": "uint256"
        },
        {
          "internalType": "uint256",
          "name": "_harvestInterval",
          "type": "uint256"
        },
        {
          "internalType": "uint256",
          "name": "_harvestFeeInterval",
          "type": "uint256"
        },
        {
          "internalType": "uint16",
          "name": "_harvestFee",
          "type": "uint16"
        },
        {
          "internalType": "bool",
          "name": "_withUpdate",
          "type": "bool"
        },
        {
          "internalType": "bytes32",
          "name": "_predecessor",
          "type": "bytes32"
        },
        {
          "internalType": "bytes32",
          "name": "_salt",
          "type": "bytes32"
        }
      ],
      "name": "executeSet",
      "outputs": [],
      "stateMutability": "payable",
      "type": "function",
      "payable": true
    },
    {
      "inputs": [],
      "name": "withdrawBNB",
      "outputs": [],
      "stateMutability": "payable",
      "type": "function",
      "payable": true
    },
    {
      "inputs": [
        {
          "internalType": "address",
          "name": "_tokenAddress",
          "type": "address"
        }
      ],
      "name": "withdrawBEP20",
      "outputs": [],
      "stateMutability": "payable",
      "type": "function",
      "payable": true
    },
    {
      "inputs": [
        {
          "internalType": "address",
          "name": "_farmAddress",
          "type": "address"
        },
        {
          "internalType": "address",
          "name": "_want",
          "type": "address"
        },
        {
          "internalType": "bool",
          "name": "_withUpdate",
          "type": "bool"
        },
        {
          "internalType": "address",
          "name": "_vaultAddress",
          "type": "address"
        },
        {
          "internalType": "uint256",
          "name": "_harvestInterval",
          "type": "uint256"
        },
        {
          "internalType": "uint256",
          "name": "_harvestFeeInterval",
          "type": "uint256"
        },
        {
          "internalType": "uint16",
          "name": "_harvestFee",
          "type": "uint16"
        },
        {
          "internalType": "bool",
          "name": "_isTransferFeeReward",
          "type": "bool"
        },
        {
          "internalType": "bool",
          "name": "_isLpReward",
          "type": "bool"
        }
      ],
      "name": "add",
      "outputs": [],
      "stateMutability": "nonpayable",
      "type": "function"
    },
    {
      "inputs": [
        {
          "internalType": "address",
          "name": "_vaultAddress",
          "type": "address"
        }
      ],
      "name": "earn",
      "outputs": [],
      "stateMutability": "nonpayable",
      "type": "function"
    },
    {
      "inputs": [
        {
          "internalType": "address",
          "name": "_vaultAddress",
          "type": "address"
        },
        {
          "internalType": "uint256",
          "name": "_entranceFeeFactor",
          "type": "uint256"
        },
        {
          "internalType": "uint256",
          "name": "_withdrawFeeFactor",
          "type": "uint256"
        },
        {
          "internalType": "uint256",
          "name": "_controllerFee",
          "type": "uint256"
        },
        {
          "internalType": "uint256",
          "name": "_buyBackRate",
          "type": "uint256"
        },
        {
          "internalType": "uint256",
          "name": "_slippageFactor",
          "type": "uint256"
        },
        {
          "internalType": "uint256",
          "name": "_profitToBeli",
          "type": "uint256"
        },
        {
          "internalType": "bytes32",
          "name": "_predecessor",
          "type": "bytes32"
        },
        {
          "internalType": "bytes32",
          "name": "_salt",
          "type": "bytes32"
        }
      ],
      "name": "scheduleSetVaultSettings",
      "outputs": [],
      "stateMutability": "nonpayable",
      "type": "function"
    },
    {
      "inputs": [
        {
          "internalType": "address",
          "name": "_vaultAddress",
          "type": "address"
        },
        {
          "internalType": "uint256",
          "name": "_entranceFeeFactor",
          "type": "uint256"
        },
        {
          "internalType": "uint256",
          "name": "_withdrawFeeFactor",
          "type": "uint256"
        },
        {
          "internalType": "uint256",
          "name": "_controllerFee",
          "type": "uint256"
        },
        {
          "internalType": "uint256",
          "name": "_buyBackRate",
          "type": "uint256"
        },
        {
          "internalType": "uint256",
          "name": "_slippageFactor",
          "type": "uint256"
        },
        {
          "internalType": "uint256",
          "name": "_profitToBeli",
          "type": "uint256"
        },
        {
          "internalType": "bytes32",
          "name": "_predecessor",
          "type": "bytes32"
        },
        {
          "internalType": "bytes32",
          "name": "_salt",
          "type": "bytes32"
        }
      ],
      "name": "executeSetVaultSettings",
      "outputs": [],
      "stateMutability": "payable",
      "type": "function",
      "payable": true
    },
    {
      "inputs": [
        {
          "internalType": "address",
          "name": "_vaultAddress",
          "type": "address"
        }
      ],
      "name": "farm",
      "outputs": [],
      "stateMutability": "nonpayable",
      "type": "function"
    },
    {
      "inputs": [
        {
          "internalType": "address",
          "name": "_vaultAddress",
          "type": "address"
        }
      ],
      "name": "pause",
      "outputs": [],
      "stateMutability": "nonpayable",
      "type": "function"
    },
    {
      "inputs": [
        {
          "internalType": "address",
          "name": "_vaultAddress",
          "type": "address"
        }
      ],
      "name": "unpause",
      "outputs": [],
      "stateMutability": "nonpayable",
      "type": "function"
    },
    {
      "inputs": [
        {
          "internalType": "address",
          "name": "_vaultAddress",
          "type": "address"
        },
        {
          "internalType": "uint256",
          "name": "_borrowRate",
          "type": "uint256"
        },
        {
          "internalType": "uint256",
          "name": "_borrowDepth",
          "type": "uint256"
        }
      ],
      "name": "rebalance",
      "outputs": [],
      "stateMutability": "nonpayable",
      "type": "function"
    },
    {
      "inputs": [
        {
          "internalType": "address",
          "name": "_vaultAddress",
          "type": "address"
        }
      ],
      "name": "deleverageOnce",
      "outputs": [],
      "stateMutability": "nonpayable",
      "type": "function"
    },
    {
      "inputs": [
        {
          "internalType": "address",
          "name": "_vaultAddress",
          "type": "address"
        }
      ],
      "name": "leverageOnce",
      "outputs": [],
      "stateMutability": "nonpayable",
      "type": "function"
    },
    {
      "inputs": [
        {
          "internalType": "address",
          "name": "_vaultAddress",
          "type": "address"
        }
      ],
      "name": "wrapBNB",
      "outputs": [],
      "stateMutability": "nonpayable",
      "type": "function"
    },
    {
      "inputs": [
        {
          "internalType": "address[]",
          "name": "_beneficiaryAddresses",
          "type": "address[]"
        },
        {
          "internalType": "uint16[]",
          "name": "_beneficiaryRewardFactors",
          "type": "uint16[]"
        }
      ],
      "name": "setBeneficiaries",
      "outputs": [],
      "stateMutability": "nonpayable",
      "type": "function"
    },
    {
      "inputs": [
        {
          "internalType": "address",
          "name": "_vaultAddress",
          "type": "address"
        }
      ],
      "name": "noTimeLockFunc1",
      "outputs": [],
      "stateMutability": "nonpayable",
      "type": "function"
    },
    {
      "inputs": [
        {
          "internalType": "address",
          "name": "_vaultAddress",
          "type": "address"
        }
      ],
      "name": "noTimeLockFunc2",
      "outputs": [],
      "stateMutability": "nonpayable",
      "type": "function"
    },
    {
      "inputs": [
        {
          "internalType": "address",
          "name": "_vaultAddress",
          "type": "address"
        }
      ],
      "name": "noTimeLockFunc3",
      "outputs": [],
      "stateMutability": "nonpayable",
      "type": "function"
    }
  ],
  "bytecode": "0x60806040523480156200001157600080fd5b506040516200464d3803806200464d833981016040819052620000349162000308565b60018055600580546001600160a01b0319166001600160a01b0385161790556003829055600481905562000078600080516020620045ed83398151915280620001a2565b620000a26000805160206200460d833981519152600080516020620045ed833981519152620001a2565b620000cc6000805160206200462d833981519152600080516020620045ed833981519152620001a2565b620000f0600080516020620045ed833981519152620000ea620001f4565b620001f8565b6200010b600080516020620045ed83398151915230620001f8565b60055462000133906000805160206200460d833981519152906001600160a01b0316620001f8565b6005546200015b906000805160206200462d833981519152906001600160a01b0316620001f8565b7f11c24f4ead16507c69ac467fbd5e4eed5fb5c699626d2cc6d66421df253886d56000600354604051620001919291906200034b565b60405180910390a150505062000359565b600082815260208190526040808220600201549051839285917fbd79b86ffe0ab8e8776151514217cd7cacd52c909f66475c3af44e129f0b00ff9190a460009182526020829052604090912060020155565b3390565b62000204828262000208565b5050565b6000828152602081815260409091206200022d918390620021e262000281821b17901c565b1562000204576200023d620001f4565b6001600160a01b0316816001600160a01b0316837f2f8788117e7eff1d82e926ec794901d17c78024a50270940304540a733656f0d60405160405180910390a45050565b600062000298836001600160a01b038416620002a1565b90505b92915050565b6000620002af8383620002f0565b620002e7575081546001818101845560008481526020808220909301849055845484825282860190935260409020919091556200029b565b5060006200029b565b60009081526001919091016020526040902054151590565b6000806000606084860312156200031d578283fd5b83516001600160a01b038116811462000334578384fd5b602085015160409095015190969495509392505050565b918252602082015260400190565b61428480620003696000396000f3fe6080604052600436106102e85760003560e01c8063886ce50511610190578063be6c0297116100dc578063d45c443511610095578063de2975661161006f578063de2975661461087a578063e38335e51461089a578063ea84c7e0146108ad578063fdb5fefc146108cd576102ef565b8063d45c443514610827578063d547741f14610847578063dc2cbba514610867576102ef565b8063be6c029714610772578063c297397814610792578063c4d252f5146107b2578063c63c4e9b146107d2578063ca15c873146107e7578063ce12f2b114610807576102ef565b806393cdf9b511610149578063a8833fc811610123578063a8833fc8146106f2578063a909091714610712578063aa8962a914610732578063b1c5f42714610752576102ef565b806393cdf9b51461069d578063a217fddf146106bd578063a3c88738146106d2576102ef565b8063886ce505146105f35780638a99d586146106085780638f2a0bb0146106285780638f61f4f5146106485780639010d07c1461065d57806391d148541461067d576102ef565b80631728eb0e1161024f5780634376dd9411610208578063584b153e116101e2578063584b153e1461057357806376a67a51146105935780638065657f146105b3578063879f7a34146105d3576102ef565b80634376dd941461050657806351ac19191461052657806357b001f914610553576102ef565b80631728eb0e1461045e5780631d111d131461047e578063248a9ca3146104865780632ab0f529146104a65780632f2ff15d146104c657806336568abe146104e6576102ef565b80630d3cf6fc116102a15780630d3cf6fc146103b45780630e038813146103c9578063120a0612146103de578063134008d3146103fe57806313bc9f2014610411578063148a55b81461043e576102ef565b806301d5062a146102f4578063047e40861461031657806307bd026514610329578063097bb9e0146103545780630a574f50146103815780630c16dbb9146103a1576102ef565b366102ef57005b600080fd5b34801561030057600080fd5b5061031461030f366004612d92565b6108ed565b005b610314610324366004612bb8565b6109a9565b34801561033557600080fd5b5061033e610b20565b60405161034b9190613967565b60405180910390f35b34801561036057600080fd5b5061037461036f366004613137565b610b32565b60405161034b91906132ad565b34801561038d57600080fd5b5061031461039c366004613059565b610b59565b6103146103af366004612e3b565b610c6b565b3480156103c057600080fd5b5061033e610da2565b3480156103d557600080fd5b50610374610dc6565b3480156103ea57600080fd5b506103146103f9366004612bb8565b610dd5565b61031461040c366004612d26565b610e40565b34801561041d57600080fd5b5061043161042c366004613137565b610ef1565b60405161034b919061395c565b34801561044a57600080fd5b50610314610459366004612e3b565b610f23565b34801561046a57600080fd5b50610314610479366004612e9f565b611057565b610314611183565b34801561049257600080fd5b5061033e6104a1366004613137565b6111e9565b3480156104b257600080fd5b506104316104c1366004613137565b6111fe565b3480156104d257600080fd5b506103146104e136600461314f565b611213565b3480156104f257600080fd5b5061031461050136600461314f565b61125b565b34801561051257600080fd5b50610314610521366004612c7d565b61129d565b34801561053257600080fd5b50610546610541366004613137565b6113a9565b60405161034b919061402a565b34801561055f57600080fd5b5061031461056e366004612bb8565b6113de565b34801561057f57600080fd5b5061043161058e366004613137565b61147d565b34801561059f57600080fd5b506103146105ae366004612bb8565b611492565b3480156105bf57600080fd5b5061033e6105ce366004612d26565b611515565b3480156105df57600080fd5b506103146105ee366004612bd4565b611554565b3480156105ff57600080fd5b5061033e611614565b34801561061457600080fd5b50610314610623366004613137565b61161a565b34801561063457600080fd5b50610314610643366004612fab565b611679565b34801561065457600080fd5b5061033e6117cf565b34801561066957600080fd5b5061037461067836600461317e565b6117e1565b34801561068957600080fd5b5061043161069836600461314f565b611800565b3480156106a957600080fd5b506103146106b8366004612bb8565b611818565b3480156106c957600080fd5b5061033e61189b565b3480156106de57600080fd5b506103146106ed366004612bb8565b6118a0565b3480156106fe57600080fd5b5061031461070d366004612e07565b611923565b34801561071e57600080fd5b5061031461072d366004612bb8565b6119d1565b34801561073e57600080fd5b5061031461074d366004612c7d565b611a54565b34801561075e57600080fd5b5061033e61076d366004612f06565b611b5e565b34801561077e57600080fd5b5061031461078d366004613137565b611ba3565b34801561079e57600080fd5b506103146107ad366004612bb8565b611c02565b3480156107be57600080fd5b506103146107cd366004613137565b611c85565b3480156107de57600080fd5b5061033e611d2e565b3480156107f357600080fd5b5061033e610802366004613137565b611d34565b34801561081357600080fd5b50610314610822366004612bb8565b611d4b565b34801561083357600080fd5b5061033e610842366004613137565b611dce565b34801561085357600080fd5b5061031461086236600461314f565b611de0565b610314610875366004612e9f565b611e1a565b34801561088657600080fd5b50610314610895366004612bb8565b611f05565b6103146108a8366004612f06565b611f88565b3480156108b957600080fd5b506103146108c8366004612bb8565b6120dc565b3480156108d957600080fd5b506103146108e8366004612bb8565b61215f565b60008051602061420f833981519152610908816106986121f7565b806109195750610919816000611800565b61093e5760405162461bcd60e51b815260040161093590613b1a565b60405180910390fd5b600061094e898989898989611515565b905061095a81846121fb565b6000817f4cf4410cc57040e44862ef0f45f3dd5a5e02db8eb8add648d4b0e236f1d07dca8b8b8b8b8b8a6040516109969695949392919061340a565b60405180910390a3505050505050505050565b6005546001600160a01b031633146109d35760405162461bcd60e51b815260040161093590613d39565b6040516370a0823160e01b81526000906001600160a01b038316906370a0823190610a029030906004016132ad565b60206040518083038186803b158015610a1a57600080fd5b505afa158015610a2e573d6000803e3d6000fd5b505050506040513d601f19601f82011682018060405250810190610a52919061319f565b905060005b60065460ff82161015610b1b576000610aac612710610aa660078560ff1681548110610a7f57fe5b600091825260209091206010820401548791600f166002026101000a900461ffff16612269565b906122a3565b9050610ae060068360ff1681548110610ac157fe5b6000918252602090912001546001600160a01b038681169116836122d5565b610b1260068360ff1681548110610af357fe5b6000918252602090912001546001600160a01b038681169116836123bd565b50600101610a57565b505050565b60008051602061422f83398151915281565b60068181548110610b3f57fe5b6000918252602090912001546001600160a01b0316905081565b333014610b785760405162461bcd60e51b815260040161093590613f06565b8051825114610b995760405162461bcd60e51b815260040161093590613cb2565b6000805b82518160ff161015610be057610bd6838260ff1681518110610bbb57fe5b602002602001015161ffff16836123dc90919063ffffffff16565b9150600101610b9d565b50612710811115610c035760405162461bcd60e51b815260040161093590613abd565b8251610c16906006906020860190612959565b508151610c2a9060079060208501906129be565b507f3652bfe9d2d56e37f9fcae9960029dabce80251ee65def7f168bbe6d371ff54760066007604051610c5e929190613588565b60405180910390a1505050565b60008051602061422f833981519152610c86816106986121f7565b80610c975750610c97816000611800565b610cb35760405162461bcd60e51b815260040161093590613b1a565b60026001541415610cd65760405162461bcd60e51b815260040161093590613ecf565b6002600155604051600090610cff908c908c908c908c908c908c908c908c908c90602001613447565b604051602081830303815290604052805190602001209050610d2084612401565b6040516356e427cd60e11b81526001600160a01b038c169063adc84f9a90610d56908d908d908d908d908d908d90600401614085565b600060405180830381600087803b158015610d7057600080fd5b505af1158015610d84573d6000803e3d6000fd5b50505050610d918161242e565b505060018055505050505050505050565b7f5f58e3a2316349923ce3780f8d587db2d72378aed66a8261c916544fa6846ca581565b6005546001600160a01b031681565b333014610df45760405162461bcd60e51b815260040161093590613f06565b6005546001600160a01b03163214610e1e5760405162461bcd60e51b815260040161093590613ff3565b600580546001600160a01b0319166001600160a01b0392909216919091179055565b60008051602061422f833981519152610e5b816106986121f7565b80610e6c5750610e6c816000611800565b610e885760405162461bcd60e51b815260040161093590613b1a565b60026001541415610eab5760405162461bcd60e51b815260040161093590613ecf565b60026001556000610ec0888888888888611515565b9050610ecb84612401565b610eda8160008a8a8a8a612467565b610ee38161242e565b505060018055505050505050565b6000818152600260205260408120546001108015610f1d57506000828152600260205260409020544210155b92915050565b60008051602061422f833981519152610f3e816106986121f7565b80610f4f5750610f4f816000611800565b610f6b5760405162461bcd60e51b815260040161093590613b1a565b60008a8a8a8a8a8a8a8a8a604051602001610f8e99989796959493929190613447565b60408051601f1981840301815291815281516020928301206000818152600290935291205490915015610fd35760405162461bcd60e51b815260040161093590613d64565b610fdf426004546123dc565b60026000838152602001908152602001600020819055508a6001600160a01b03166000827f54daca7f2b669e8845f222ff0dd036adfc6c6af839022b211b3aec70d6b918d18d8d8d8d8d8d8d6004546040516110429897969594939291906140b3565b60405180910390a45050505050505050505050565b60008051602061422f833981519152611072816106986121f7565b806110835750611083816000611800565b61109f5760405162461bcd60e51b815260040161093590613b1a565b60008a8a8a8a8a8a8a8a8a6040516020016110c299989796959493929190613497565b60408051601f19818403018152918152815160209283012060008181526002909352912054909150156111075760405162461bcd60e51b815260040161093590613d64565b611113426004546123dc565b60026000838152602001908152602001600020819055508a6001600160a01b0316817f9f1b2a97eb50413dcddd027f92b8245ac45398693e8420d94c863d1ff636d90d8c8c8c8c8c8c60405161116e969594939291906140ef565b60405180910390a35050505050505050505050565b6005546001600160a01b031633146111ad5760405162461bcd60e51b815260040161093590613d39565b6005546040516001600160a01b03909116904780156108fc02916000818181858888f193505050501580156111e6573d6000803e3d6000fd5b50565b60009081526020819052604090206002015490565b60009081526002602052604090205460011490565b600082815260208190526040902060020154611231906106986121f7565b61124d5760405162461bcd60e51b815260040161093590613a2b565b611257828261252f565b5050565b6112636121f7565b6001600160a01b0316816001600160a01b0316146112935760405162461bcd60e51b815260040161093590613f51565b6112578282612598565b60008051602061422f8339815191526112b8816106986121f7565b806112c957506112c9816000611800565b6112e55760405162461bcd60e51b815260040161093590613b1a565b60008a8a8a8a8a8a8a8a8a6040516020016113089998979695949392919061336a565b60408051601f198184030181529181528151602092830120600081815260029093529120549091501561134d5760405162461bcd60e51b815260040161093590613d64565b611359426004546123dc565b60008281526002602052604080822092909255905182907f66701b5c309dabe62134576cad0d51e8279e41e087542255107ce44f5203b8849061116e908f908f908f908f908f908f908f90613326565b600781815481106113b657fe5b9060005260206000209060109182820401919006600202915054906101000a900461ffff1681565b60008051602061422f8339815191526113f9816106986121f7565b8061140a575061140a816000611800565b6114265760405162461bcd60e51b815260040161093590613b1a565b816001600160a01b0316633f4ba83a6040518163ffffffff1660e01b8152600401600060405180830381600087803b15801561146157600080fd5b505af1158015611475573d6000803e3d6000fd5b505050505050565b60009081526002602052604090205460011090565b60008051602061422f8339815191526114ad816106986121f7565b806114be57506114be816000611800565b6114da5760405162461bcd60e51b815260040161093590613b1a565b816001600160a01b0316638456cb596040518163ffffffff1660e01b8152600401600060405180830381600087803b15801561146157600080fd5b60008686868686866040516020016115329695949392919061340a565b6040516020818303038152906040528051906020012090509695505050505050565b60008051602061422f83398151915261156f816106986121f7565b806115805750611580816000611800565b61159c5760405162461bcd60e51b815260040161093590613b1a565b6040516367bc7d7160e11b81526001600160a01b038b169063cf78fae2906115d6908c908c908c908c908c908c908c908c906004016132db565b600060405180830381600087803b1580156115f057600080fd5b505af1158015611604573d6000803e3d6000fd5b5050505050505050505050505050565b60045481565b3330146116395760405162461bcd60e51b815260040161093590613f06565b7f11c24f4ead16507c69ac467fbd5e4eed5fb5c699626d2cc6d66421df253886d56003548260405161166c929190614077565b60405180910390a1600355565b60008051602061420f833981519152611694816106986121f7565b806116a557506116a5816000611800565b6116c15760405162461bcd60e51b815260040161093590613b1a565b8887146116e05760405162461bcd60e51b815260040161093590613a7a565b8885146116ff5760405162461bcd60e51b815260040161093590613a7a565b60006117118b8b8b8b8b8b8b8b611b5e565b905061171d81846121fb565b60005b8a8110156117c15780827f4cf4410cc57040e44862ef0f45f3dd5a5e02db8eb8add648d4b0e236f1d07dca8e8e8581811061175757fe5b905060200201602081019061176c9190612bb8565b8d8d8681811061177857fe5b905060200201358c8c8781811061178b57fe5b905060200281019061179d9190614117565b8c8b6040516117b19695949392919061340a565b60405180910390a3600101611720565b505050505050505050505050565b60008051602061420f83398151915281565b60008281526020819052604081206117f99083612601565b9392505050565b60008281526020819052604081206117f9908361260d565b60008051602061422f833981519152611833816106986121f7565b806118445750611844816000611800565b6118605760405162461bcd60e51b815260040161093590613b1a565b816001600160a01b0316633c2b39b06040518163ffffffff1660e01b8152600401600060405180830381600087803b15801561146157600080fd5b600081565b60008051602061422f8339815191526118bb816106986121f7565b806118cc57506118cc816000611800565b6118e85760405162461bcd60e51b815260040161093590613b1a565b816001600160a01b031663d5b091636040518163ffffffff1660e01b8152600401600060405180830381600087803b15801561146157600080fd5b60008051602061422f83398151915261193e816106986121f7565b8061194f575061194f816000611800565b61196b5760405162461bcd60e51b815260040161093590613b1a565b604051631bf10f3760e31b81526001600160a01b0385169063df8879b8906119999086908690600401614077565b600060405180830381600087803b1580156119b357600080fd5b505af11580156119c7573d6000803e3d6000fd5b5050505050505050565b60008051602061422f8339815191526119ec816106986121f7565b806119fd57506119fd816000611800565b611a195760405162461bcd60e51b815260040161093590613b1a565b816001600160a01b03166336e9332d6040518163ffffffff1660e01b8152600401600060405180830381600087803b15801561146157600080fd5b60008051602061422f833981519152611a6f816106986121f7565b80611a805750611a80816000611800565b611a9c5760405162461bcd60e51b815260040161093590613b1a565b60008a8a8a8a8a8a8a8a8a604051602001611abf9998979695949392919061336a565b604051602081830303815290604052805190602001209050611ae084612401565b604051634eebf03360e11b81526001600160a01b038c1690639dd7e06690611b16908d908d908d908d908d908d90600401614039565b600060405180830381600087803b158015611b3057600080fd5b505af1158015611b44573d6000803e3d6000fd5b50505050611b518161242e565b5050505050505050505050565b60008888888888888888604051602001611b7f9897969594939291906134e1565b60405160208183030381529060405280519060200120905098975050505050505050565b333014611bc25760405162461bcd60e51b815260040161093590613f06565b7f596b3acad3954126f9cd5659152e0abf28f5e4c8ed617821eb7f7f4830b6bdda60045482604051611bf5929190614077565b60405180910390a1600455565b60008051602061422f833981519152611c1d816106986121f7565b80611c2e5750611c2e816000611800565b611c4a5760405162461bcd60e51b815260040161093590613b1a565b816001600160a01b031663f9cb81946040518163ffffffff1660e01b8152600401600060405180830381600087803b15801561146157600080fd5b60008051602061420f833981519152611ca0816106986121f7565b80611cb15750611cb1816000611800565b611ccd5760405162461bcd60e51b815260040161093590613b1a565b611cd68261147d565b611cf25760405162461bcd60e51b815260040161093590613e34565b6000828152600260205260408082208290555183917fbaa1eb22f2a492ba1a5fea61b8df4d27c6c8b5f3971e63bb58fa14ff72eedb7091a25050565b60035481565b6000818152602081905260408120610f1d90612622565b60008051602061422f833981519152611d66816106986121f7565b80611d775750611d77816000611800565b611d935760405162461bcd60e51b815260040161093590613b1a565b816001600160a01b0316637c3f1e8c6040518163ffffffff1660e01b8152600401600060405180830381600087803b15801561146157600080fd5b60009081526002602052604090205490565b600082815260208190526040902060020154611dfe906106986121f7565b6112935760405162461bcd60e51b815260040161093590613c1c565b60008051602061422f833981519152611e35816106986121f7565b80611e465750611e46816000611800565b611e625760405162461bcd60e51b815260040161093590613b1a565b60026001541415611e855760405162461bcd60e51b815260040161093590613ecf565b6002600155604051600090611eae908c908c908c908c908c908c908c908c908c90602001613497565b604051602081830303815290604052805190602001209050611ecf84612401565b604051636648bfa760e11b81526001600160a01b038c169063cc917f4e90610d56908d908d908d908d908d908d906004016140ef565b60008051602061422f833981519152611f20816106986121f7565b80611f315750611f31816000611800565b611f4d5760405162461bcd60e51b815260040161093590613b1a565b816001600160a01b031663a086c9966040518163ffffffff1660e01b8152600401600060405180830381600087803b15801561146157600080fd5b60008051602061422f833981519152611fa3816106986121f7565b80611fb45750611fb4816000611800565b611fd05760405162461bcd60e51b815260040161093590613b1a565b60026001541415611ff35760405162461bcd60e51b815260040161093590613ecf565b60026001558786146120175760405162461bcd60e51b815260040161093590613a7a565b8784146120365760405162461bcd60e51b815260040161093590613a7a565b60006120488a8a8a8a8a8a8a8a611b5e565b905061205384612401565b60005b898110156120c2576120ba82828d8d8581811061206f57fe5b90506020020160208101906120849190612bb8565b8c8c8681811061209057fe5b905060200201358b8b878181106120a357fe5b90506020028101906120b59190614117565b612467565b600101612056565b506120cc8161242e565b5050600180555050505050505050565b60008051602061422f8339815191526120f7816106986121f7565b806121085750612108816000611800565b6121245760405162461bcd60e51b815260040161093590613b1a565b816001600160a01b031663c93d9cc76040518163ffffffff1660e01b8152600401600060405180830381600087803b15801561146157600080fd5b60008051602061422f83398151915261217a816106986121f7565b8061218b575061218b816000611800565b6121a75760405162461bcd60e51b815260040161093590613b1a565b816001600160a01b031663d389800f6040518163ffffffff1660e01b8152600401600060405180830381600087803b15801561146157600080fd5b60006117f9836001600160a01b03841661262d565b3390565b600082815260026020526040902054156122275760405162461bcd60e51b815260040161093590613d64565b6003548110156122495760405162461bcd60e51b815260040161093590613c6c565b61225342826123dc565b6000928352600260205260409092209190915550565b60008261227857506000610f1d565b8282028284828161228557fe5b04146117f95760405162461bcd60e51b815260040161093590613cf8565b60008082116122c45760405162461bcd60e51b815260040161093590613be5565b8183816122cd57fe5b049392505050565b600061235f82856001600160a01b031663dd62ed3e30876040518363ffffffff1660e01b81526004016123099291906132c1565b60206040518083038186803b15801561232157600080fd5b505afa158015612335573d6000803e3d6000fd5b505050506040513d601f19601f82011682018060405250810190612359919061319f565b906123dc565b90506123b78463095ea7b360e01b85846040516024016123809291906133bf565b60408051601f198184030181529190526020810180516001600160e01b03166001600160e01b031990931692909217909152612677565b50505050565b610b1b8363a9059cbb60e01b84846040516024016123809291906133bf565b6000828201838110156117f95760405162461bcd60e51b815260040161093590613b68565b8015806124125750612412816111fe565b6111e65760405162461bcd60e51b8152600401610935906139e5565b61243781610ef1565b6124535760405162461bcd60e51b815260040161093590613db3565b600090815260026020526040902060019055565b6000846001600160a01b0316848484604051612484929190613281565b60006040518083038185875af1925050503d80600081146124c1576040519150601f19603f3d011682016040523d82523d6000602084013e6124c6565b606091505b50509050806124e75760405162461bcd60e51b815260040161093590613fa0565b85877fc2617efa69bab66782fa219543714338489c4e9e178271560a91b82c3f612b588787878760405161251e94939291906133d8565b60405180910390a350505050505050565b600082815260208190526040902061254790826121e2565b15611257576125546121f7565b6001600160a01b0316816001600160a01b0316837f2f8788117e7eff1d82e926ec794901d17c78024a50270940304540a733656f0d60405160405180910390a45050565b60008281526020819052604090206125b09082612706565b15611257576125bd6121f7565b6001600160a01b0316816001600160a01b0316837ff6391f5c32d9c69d2a47ea670b442974b53935d1edc7fd64eb21e047a839171b60405160405180910390a45050565b60006117f9838361271b565b60006117f9836001600160a01b038416612760565b6000610f1d82612778565b60006126398383612760565b61266f57508154600181810184556000848152602080822090930184905584548482528286019093526040902091909155610f1d565b506000610f1d565b60606126cc826040518060400160405280602081526020017f5361666545524332303a206c6f772d6c6576656c2063616c6c206661696c6564815250856001600160a01b031661277c9092919063ffffffff16565b805190915015610b1b57808060200190518101906126ea919061311b565b610b1b5760405162461bcd60e51b815260040161093590613e85565b60006117f9836001600160a01b038416612793565b8154600090821061273e5760405162461bcd60e51b8152600401610935906139a3565b82600001828154811061274d57fe5b9060005260206000200154905092915050565b60009081526001919091016020526040902054151590565b5490565b606061278b8484600085612859565b949350505050565b6000818152600183016020526040812054801561284f57835460001980830191908101906000908790839081106127c657fe5b90600052602060002001549050808760000184815481106127e357fe5b60009182526020808320909101929092558281526001898101909252604090209084019055865487908061281357fe5b60019003818190600052602060002001600090559055866001016000878152602001908152602001600020600090556001945050505050610f1d565b6000915050610f1d565b60608247101561287b5760405162461bcd60e51b815260040161093590613b9f565b6128848561291a565b6128a05760405162461bcd60e51b815260040161093590613dfd565b60006060866001600160a01b031685876040516128bd9190613291565b60006040518083038185875af1925050503d80600081146128fa576040519150601f19603f3d011682016040523d82523d6000602084013e6128ff565b606091505b509150915061290f828286612920565b979650505050505050565b3b151590565b6060831561292f5750816117f9565b82511561293f5782518084602001fd5b8160405162461bcd60e51b81526004016109359190613970565b8280548282559060005260206000209081019282156129ae579160200282015b828111156129ae57825182546001600160a01b0319166001600160a01b03909116178255602090920191600190910190612979565b506129ba929150612a63565b5090565b82805482825590600052602060002090600f01601090048101928215612a575791602002820160005b83821115612a2757835183826101000a81548161ffff021916908361ffff16021790555092602001926002016020816001010492830192600103026129e7565b8015612a555782816101000a81549061ffff0219169055600201602081600101049283019260010302612a27565b505b506129ba929150612a82565b5b808211156129ba5780546001600160a01b0319168155600101612a64565b5b808211156129ba57805461ffff19168155600101612a83565b8035610f1d816141db565b60008083601f840112612ab8578182fd5b50813567ffffffffffffffff811115612acf578182fd5b6020830191508360208083028501011115612ae957600080fd5b9250929050565b600082601f830112612b00578081fd5b8135612b13612b0e82614183565b61415c565b818152915060208083019084810181840286018201871015612b3457600080fd5b60005b84811015612b5b57612b498883612ba6565b84529282019290820190600101612b37565b505050505092915050565b60008083601f840112612b77578182fd5b50813567ffffffffffffffff811115612b8e578182fd5b602083019150836020828501011115612ae957600080fd5b803561ffff81168114610f1d57600080fd5b600060208284031215612bc9578081fd5b81356117f9816141db565b60008060008060008060008060006101208a8c031215612bf2578485fd5b8935612bfd816141db565b985060208a0135612c0d816141db565b975060408a0135612c1d816141f0565b965060608a0135612c2d816141db565b955060808a0135945060a08a0135935060c08a0135612c4b816141fe565b925060e08a0135612c5b816141f0565b91506101008a0135612c6c816141f0565b809150509295985092959850929598565b60008060008060008060008060006101208a8c031215612c9b578485fd5b8935612ca6816141db565b985060208a0135612cb6816141fe565b975060408a0135612cc6816141fe565b965060608a0135612cd6816141db565b955060808a0135612ce6816141db565b945060a08a0135612cf6816141db565b935060c08a0135612d06816141db565b8093505060e08a013591506101008a013590509295985092959850929598565b60008060008060008060a08789031215612d3e578182fd5b8635612d49816141db565b955060208701359450604087013567ffffffffffffffff811115612d6b578283fd5b612d7789828a01612b66565b979a9699509760608101359660809091013595509350505050565b600080600080600080600060c0888a031215612dac578081fd5b8735612db7816141db565b965060208801359550604088013567ffffffffffffffff811115612dd9578182fd5b612de58a828b01612b66565b989b979a50986060810135976080820135975060a09091013595509350505050565b600080600060608486031215612e1b578081fd5b8335612e26816141db565b95602085013595506040909401359392505050565b60008060008060008060008060006101208a8c031215612e59578283fd5b8935612e64816141db565b985060208a0135975060408a0135965060608a0135955060808a01359450612e8f8b60a08c01612ba6565b935060c08a0135612d06816141f0565b60008060008060008060008060006101208a8c031215612ebd578283fd5b8935612ec8816141db565b9b60208b01359b5060408b01359a60608101359a506080810135995060a0810135985060c0810135975060e081013596506101000135945092505050565b60008060008060008060008060a0898b031215612f21578182fd5b883567ffffffffffffffff80821115612f38578384fd5b612f448c838d01612aa7565b909a50985060208b0135915080821115612f5c578384fd5b612f688c838d01612aa7565b909850965060408b0135915080821115612f80578384fd5b50612f8d8b828c01612aa7565b999c989b509699959896976060870135966080013595509350505050565b600080600080600080600080600060c08a8c031215612fc8578283fd5b893567ffffffffffffffff80821115612fdf578485fd5b612feb8d838e01612aa7565b909b50995060208c0135915080821115613003578485fd5b61300f8d838e01612aa7565b909950975060408c0135915080821115613027578485fd5b506130348c828d01612aa7565b9a9d999c50979a969997986060880135976080810135975060a0013595509350505050565b6000806040838503121561306b578182fd5b823567ffffffffffffffff80821115613082578384fd5b818501915085601f830112613095578384fd5b81356130a3612b0e82614183565b80828252602080830192508086018a8283870289010111156130c3578889fd5b8896505b848710156130ed576130d98b82612a9c565b8452600196909601959281019281016130c7565b509096508701359350505080821115613104578283fd5b5061311185828601612af0565b9150509250929050565b60006020828403121561312c578081fd5b81516117f9816141f0565b600060208284031215613148578081fd5b5035919050565b60008060408385031215613161578182fd5b823591506020830135613173816141db565b809150509250929050565b60008060408385031215613190578182fd5b50508035926020909101359150565b6000602082840312156131b0578081fd5b5051919050565b6001600160a01b03169052565b818352602080840193600091908185020181018584845b878110156132425782840389528135601e198836030181126131fb578687fd5b8701803567ffffffffffffffff811115613213578788fd5b803603891315613221578788fd5b61322e868289850161324f565b9a87019a95505050908401906001016131db565b5091979650505050505050565b60008284528282602086013780602084860101526020601f19601f85011685010190509392505050565b61ffff169052565b6000828483379101908152919050565b600082516132a38184602087016141af565b9190910192915050565b6001600160a01b0391909116815260200190565b6001600160a01b0392831681529116602082015260400190565b6001600160a01b03988916815296151560208801529490961660408601526060850192909252608084015261ffff1660a083015291151560c082015290151560e08201526101000190565b6001600160a01b03978816815261ffff9687166020820152949095166040850152918516606084015284166080830152831660a0820152911660c082015260e00190565b6001600160a01b03998a16815261ffff988916602082015296909716604087015293871660608601529186166080850152851660a084015290931660c082015260e08101929092526101008201526101200190565b6001600160a01b03929092168252602082015260400190565b600060018060a01b03861682528460208301526060604083015261340060608301848661324f565b9695505050505050565b600060018060a01b038816825286602083015260a0604083015261343260a08301868861324f565b60608301949094525060800152949350505050565b6001600160a01b03999099168952602089019790975260408801959095526060870193909352608086019190915261ffff1660a0850152151560c084015260e08301526101008201526101200190565b6001600160a01b03999099168952602089019790975260408801959095526060870193909352608086019190915260a085015260c084015260e08301526101008201526101200190565b60a0808252810188905260008960c08301825b8b8110156135245760208335613509816141db565b6001600160a01b0316835292830192909101906001016134f4565b5083810360208501528881526001600160fb1b03891115613543578283fd5b602089029150818a6020830137016020818101838152848303909101604085015261356f81888a6131c4565b6060850196909652505050608001529695505050505050565b600060408083018184528086548083526060925082860191508785526020808620865b838110156135d95781546135c99086906001600160a01b03166131b7565b93820193600191820191016135ab565b50508683038188015282915087546135f18185613967565b92506135fc896141a3565b9350865b81600f8201101561374757845461ffff61361c86828416613279565b61362d858701828460101c16613279565b61363d8987018284881c16613279565b61364e888701828460301c16613279565b608061366081880183858d1c16613279565b60a0613673818901848660501c16613279565b60c0613685818a0185878e1c16613279565b60e0613698818b01868860701c16613279565b6136aa6101008b018688871c16613279565b6136bd6101208b01868860901c16613279565b6136cf6101408b018688861c16613279565b6136e26101608b01868860b01c16613279565b6136f46101808b018688851c16613279565b6137076101a08b01868860d01c16613279565b6137196101c08b018688841c16613279565b505050505061372f6101e086018260f01c613279565b50600194909401936102009390930192601001613600565b93549381811015613768576137608461ffff8716613279565b928201926001015b81811015613789576137818461ffff8760101c16613279565b928201926001015b818110156137a9576137a18461ffff87861c16613279565b928201926001015b818110156137ca576137c28461ffff8760301c16613279565b928201926001015b818110156137ea576137e28461ffff878a1c16613279565b928201926001015b8181101561380b576138038461ffff8760501c16613279565b928201926001015b8181101561382b576138238461ffff87891c16613279565b928201926001015b8181101561384c576138448461ffff8760701c16613279565b928201926001015b8181101561386d576138658461ffff8760801c16613279565b928201926001015b8181101561388e576138868461ffff8760901c16613279565b928201926001015b818110156138af576138a78461ffff8760a01c16613279565b928201926001015b818110156138d0576138c88461ffff8760b01c16613279565b928201926001015b818110156138f1576138e98461ffff8760c01c16613279565b928201926001015b818110156139125761390a8461ffff8760d01c16613279565b928201926001015b818110156139335761392b8461ffff8760e01c16613279565b928201926001015b8181101561394d57613948848660f01c613279565b928201925b50919998505050505050505050565b901515815260200190565b90815260200190565b600060208252825180602084015261398f8160408501602087016141af565b601f01601f19169190910160400192915050565b60208082526022908201527f456e756d657261626c655365743a20696e646578206f7574206f6620626f756e604082015261647360f01b606082015260800190565b60208082526026908201527f54696d656c6f636b436f6e74726f6c6c65723a206d697373696e6720646570656040820152656e64656e637960d01b606082015260800190565b6020808252602f908201527f416363657373436f6e74726f6c3a2073656e646572206d75737420626520616e60408201526e0818591b5a5b881d1bc819dc985b9d608a1b606082015260800190565b60208082526023908201527f54696d656c6f636b436f6e74726f6c6c65723a206c656e677468206d69736d616040820152620e8c6d60eb1b606082015260800190565b60208082526037908201527f54696d656c6f636b436f6e74726f6c6c65723a20726577617264466163746f7260408201527f73546f74616c206d757374206265206d61782031303030000000000000000000606082015260800190565b6020808252602e908201527f54696d656c6f636b436f6e74726f6c6c65723a2073656e64657220726571756960408201526d3932b9903832b936b4b9b9b4b7b760911b606082015260800190565b6020808252601b908201527f536166654d6174683a206164646974696f6e206f766572666c6f770000000000604082015260600190565b60208082526026908201527f416464726573733a20696e73756666696369656e742062616c616e636520666f6040820152651c8818d85b1b60d21b606082015260800190565b6020808252601a908201527f536166654d6174683a206469766973696f6e206279207a65726f000000000000604082015260600190565b60208082526030908201527f416363657373436f6e74726f6c3a2073656e646572206d75737420626520616e60408201526f2061646d696e20746f207265766f6b6560801b606082015260800190565b60208082526026908201527f54696d656c6f636b436f6e74726f6c6c65723a20696e73756666696369656e746040820152652064656c617960d01b606082015260800190565b60208082526026908201527f54696d656c6f636b436f6e74726f6c6c65723a206172726179732064696666206040820152650d8cadccee8d60d31b606082015260800190565b60208082526021908201527f536166654d6174683a206d756c7469706c69636174696f6e206f766572666c6f6040820152607760f81b606082015260800190565b6020808252601190820152702164657657616c6c65744164647265737360781b604082015260600190565b6020808252602f908201527f54696d656c6f636b436f6e74726f6c6c65723a206f7065726174696f6e20616c60408201526e1c9958591e481cd8da19591d5b1959608a1b606082015260800190565b6020808252602a908201527f54696d656c6f636b436f6e74726f6c6c65723a206f7065726174696f6e206973604082015269206e6f7420726561647960b01b606082015260800190565b6020808252601d908201527f416464726573733a2063616c6c20746f206e6f6e2d636f6e7472616374000000604082015260600190565b60208082526031908201527f54696d656c6f636b436f6e74726f6c6c65723a206f7065726174696f6e2063616040820152701b9b9bdd0818994818d85b98d95b1b1959607a1b606082015260800190565b6020808252602a908201527f5361666545524332303a204552433230206f7065726174696f6e20646964206e6040820152691bdd081cdd58d8d9595960b21b606082015260800190565b6020808252601f908201527f5265656e7472616e637947756172643a207265656e7472616e742063616c6c00604082015260600190565b6020808252602b908201527f54696d656c6f636b436f6e74726f6c6c65723a2063616c6c6572206d7573742060408201526a62652074696d656c6f636b60a81b606082015260800190565b6020808252602f908201527f416363657373436f6e74726f6c3a2063616e206f6e6c792072656e6f756e636560408201526e103937b632b9903337b91039b2b63360891b606082015260800190565b60208082526033908201527f54696d656c6f636b436f6e74726f6c6c65723a20756e6465726c79696e6720746040820152721c985b9cd858dd1a5bdb881c995d995c9d1959606a1b606082015260800190565b6020808252601d908201527f74782e6f726967696e20213d2064657657616c6c657441646472657373000000604082015260600190565b61ffff91909116815260200190565b61ffff96871681529490951660208501526001600160a01b03928316604085015290821660608401528116608083015290911660a082015260c00190565b918252602082015260400190565b95865260208601949094526040850192909252606084015261ffff166080830152151560a082015260c00190565b97885260208801969096526040870194909452606086019290925261ffff166080850152151560a084015260c083015260e08201526101000190565b958652602086019490945260408501929092526060840152608083015260a082015260c00190565b6000808335601e1984360301811261412d578283fd5b83018035915067ffffffffffffffff821115614147578283fd5b602001915036819003821315612ae957600080fd5b60405181810167ffffffffffffffff8111828210171561417b57600080fd5b604052919050565b600067ffffffffffffffff821115614199578081fd5b5060209081020190565b60009081526020902090565b60005b838110156141ca5781810151838201526020016141b2565b838111156123b75750506000910152565b6001600160a01b03811681146111e657600080fd5b80151581146111e657600080fd5b61ffff811681146111e657600080fdfeb09aa5aeb3702cfd50b6b62bc4532604938f21248a27a1d5ca736082b6819cc1d8aa0f3194971a2a116679f7c2090f6939c8d4e01a2a8d7e41d55e5351469e63a2646970667358221220a9368de131ce5b8b298f7deec115ad4bf7e698b816e8a1788dc1c98f36f595ea64736f6c634300060c00335f58e3a2316349923ce3780f8d587db2d72378aed66a8261c916544fa6846ca5b09aa5aeb3702cfd50b6b62bc4532604938f21248a27a1d5ca736082b6819cc1d8aa0f3194971a2a116679f7c2090f6939c8d4e01a2a8d7e41d55e5351469e63",
  "immutableReferences": {},
  "source": "// SPDX-License-Identifier: MIT\npragma solidity 0.6.12;\n\npragma experimental ABIEncoderV2;\n\nimport \"./interfaces/IVault.sol\";\nimport \"./interfaces/IFarm.sol\";\nimport \"./interfaces/ILocker.sol\";\nimport \"./interfaces/IFeeReceiver.sol\";\nimport \"@openzeppelin/contracts/token/ERC20/IERC20.sol\";\nimport \"@openzeppelin/contracts/token/ERC20/SafeERC20.sol\";\nimport \"@openzeppelin/contracts/math/SafeMath.sol\";\nimport \"@openzeppelin/contracts/utils/ReentrancyGuard.sol\";\nimport \"@openzeppelin/contracts/access/AccessControl.sol\";\n\n/**\n * @dev Contract module which acts as a timelocked controller. When set as the\n * owner of an `Ownable` smart contract, it enforces a timelock on all\n * `onlyOwner` maintenance operations. This gives time for users of the\n * controlled contract to exit before a potentially dangerous maintenance\n * operation is applied.\n *\n * By default, this contract is self administered, meaning administration tasks\n * have to go through the timelock process. The proposer (resp executor) role\n * is in charge of proposing (resp executing) operations. A common use case is\n * to position this {TimelockController} as the owner of a smart contract, with\n * a multisig or a DAO as the sole proposer.\n *\n * _Available since v3.3._\n */\ncontract TimelockControllers is AccessControl, ReentrancyGuard {\n    using SafeERC20 for IERC20;\n    using SafeMath for uint256;\n\n    bytes32 public constant TIMELOCK_ADMIN_ROLE =\n        keccak256(\"TIMELOCK_ADMIN_ROLE\");\n    bytes32 public constant PROPOSER_ROLE = keccak256(\"PROPOSER_ROLE\");\n    bytes32 public constant EXECUTOR_ROLE = keccak256(\"EXECUTOR_ROLE\");\n    uint256 internal constant _DONE_TIMESTAMP = uint256(1);\n\n    mapping(bytes32 => uint256) private _timestamps;\n    uint256 public minDelay; // in seconds\n    uint256 public minDelayReduced; // in seconds\n\n    address payable public devWalletAddress;\n\n    address[] public beneficiaryAddresses;\n    uint16[] public beneficiaryRewardFactors;\n\n    /**\n     * @dev Emitted when a call is scheduled as part of operation `id`.\n     */\n    event CallScheduled(\n        bytes32 indexed id,\n        uint256 indexed index,\n        address target,\n        uint256 value,\n        bytes data,\n        bytes32 predecessor,\n        uint256 delay\n    );\n\n    event SetFarmScheduled(\n        bytes32 indexed id,\n        uint256 indexed index,\n        address farmAddress,\n        uint16 lockerRate,\n        uint16 referralCommissionRate,\n        address locker,\n        address referral,\n        address feeReceiver,\n        address feeLpReceiver\n    );\n\n    event SetVaultSettingsScheduled(\n        bytes32 indexed id,\n        address indexed vaultAddress,\n        uint256 entranceFeeFactor,\n        uint256 withdrawFeeFactor,\n        uint256 controllerFee,\n        uint256 buyBackRate,\n        uint256 slippageFactor,\n        uint256 profitToBeli\n    );\n\n    /**\n     * @dev Emitted when a call is scheduled as part of operation `id`.\n     */\n    event SetScheduled(\n        bytes32 indexed id,\n        uint256 indexed index,\n        address indexed farmAddress,\n        uint256 pid,\n        uint256 allocPoint,\n        uint256 harvestInterval,\n        uint256 harvestFeeInterval,\n        uint16 harvestFee,\n        bool withUpdate,\n        bytes32 predecessor,\n        uint256 delay\n    );\n\n    /**\n     * @dev Emitted when a call is performed as part of operation `id`.\n     */\n    event CallExecuted(\n        bytes32 indexed id,\n        uint256 indexed index,\n        address target,\n        uint256 value,\n        bytes data\n    );\n\n    /**\n     * @dev Emitted when operation `id` is cancelled.\n     */\n    event Cancelled(bytes32 indexed id);\n\n    /**\n     * @dev Emitted when the minimum delay for future operations is modified.\n     */\n    event MinDelayChange(uint256 oldDuration, uint256 newDuration);\n\n    event MinDelayReducedChange(uint256 oldDuration, uint256 newDuration);\n\n    event SetBeneficiaries(\n        address[] beneficiaryAddresses,\n        uint16[] beneficiaryRewardFactors\n    );\n\n    /**\n     * @dev Initializes the contract with a given `minDelay`.\n     */\n    constructor(\n        address payable _devWalletAddress,\n        uint256 _minDelay,\n        uint256 _minDelayReduced\n    ) public {\n        devWalletAddress = _devWalletAddress;\n        minDelay = _minDelay;\n        minDelayReduced = _minDelayReduced;\n\n        _setRoleAdmin(TIMELOCK_ADMIN_ROLE, TIMELOCK_ADMIN_ROLE);\n        _setRoleAdmin(PROPOSER_ROLE, TIMELOCK_ADMIN_ROLE);\n        _setRoleAdmin(EXECUTOR_ROLE, TIMELOCK_ADMIN_ROLE);\n\n        // deployer + self administration\n        _setupRole(TIMELOCK_ADMIN_ROLE, _msgSender());\n        _setupRole(TIMELOCK_ADMIN_ROLE, address(this));\n\n        // register proposers\n        _setupRole(PROPOSER_ROLE, devWalletAddress);\n\n        // register executors\n        _setupRole(EXECUTOR_ROLE, devWalletAddress);\n\n        emit MinDelayChange(0, minDelay);\n    }\n\n    /**\n     * @dev Modifier to make a function callable only by a certain role. In\n     * addition to checking the sender's role, `address(0)` 's role is also\n     * considered. Granting a role to `address(0)` is equivalent to enabling\n     * this role for everyone.\n     */\n    modifier onlyRole(bytes32 role) {\n        require(\n            hasRole(role, _msgSender()) || hasRole(role, address(0)),\n            \"TimelockController: sender requires permission\"\n        );\n        _;\n    }\n\n    /**\n     * @dev Contract might receive/hold ETH as part of the maintenance process.\n     */\n    receive() external payable {}\n\n    /**\n     * @dev Returns whether an operation is pending or not.\n     */\n    function isOperationPending(bytes32 id) public view returns (bool pending) {\n        return _timestamps[id] > _DONE_TIMESTAMP;\n    }\n\n    /**\n     * @dev Returns whether an operation is ready or not.\n     */\n    function isOperationReady(bytes32 id) public view returns (bool ready) {\n        // solhint-disable-next-line not-rely-on-time\n        return\n            _timestamps[id] > _DONE_TIMESTAMP &&\n            _timestamps[id] <= block.timestamp;\n    }\n\n    /**\n     * @dev Returns whether an operation is done or not.\n     */\n    function isOperationDone(bytes32 id) public view returns (bool done) {\n        return _timestamps[id] == _DONE_TIMESTAMP;\n    }\n\n    /**\n     * @dev Returns the timestamp at with an operation becomes ready (0 for\n     * unset operations, 1 for done operations).\n     */\n    function getTimestamp(bytes32 id) public view returns (uint256 timestamp) {\n        return _timestamps[id];\n    }\n\n    /**\n     * @dev Returns the identifier of an operation containing a single\n     * transaction.\n     */\n    function hashOperation(\n        address target,\n        uint256 value,\n        bytes calldata data,\n        bytes32 predecessor,\n        bytes32 salt\n    ) public pure returns (bytes32 hash) {\n        return keccak256(abi.encode(target, value, data, predecessor, salt));\n    }\n\n    /**\n     * @dev Returns the identifier of an operation containing a batch of\n     * transactions.\n     */\n    function hashOperationBatch(\n        address[] calldata targets,\n        uint256[] calldata values,\n        bytes[] calldata datas,\n        bytes32 predecessor,\n        bytes32 salt\n    ) public pure returns (bytes32 hash) {\n        return keccak256(abi.encode(targets, values, datas, predecessor, salt));\n    }\n\n    /**\n     * @dev Schedule an operation containing a single transaction.\n     *\n     * Emits a {CallScheduled} event.\n     *\n     * Requirements:\n     *\n     * - the caller must have the 'proposer' role.\n     */\n    function schedule(\n        address target,\n        uint256 value,\n        bytes calldata data,\n        bytes32 predecessor,\n        bytes32 salt,\n        uint256 delay\n    ) public virtual onlyRole(PROPOSER_ROLE) {\n        bytes32 id = hashOperation(target, value, data, predecessor, salt);\n        _schedule(id, delay);\n        emit CallScheduled(id, 0, target, value, data, predecessor, delay);\n    }\n\n    /**\n     * @dev Schedule an operation containing a batch of transactions.\n     *\n     * Emits one {CallScheduled} event per transaction in the batch.\n     *\n     * Requirements:\n     *\n     * - the caller must have the 'proposer' role.\n     */\n    function scheduleBatch(\n        address[] calldata targets,\n        uint256[] calldata values,\n        bytes[] calldata datas,\n        bytes32 predecessor,\n        bytes32 salt,\n        uint256 delay\n    ) public virtual onlyRole(PROPOSER_ROLE) {\n        require(\n            targets.length == values.length,\n            \"TimelockController: length mismatch\"\n        );\n        require(\n            targets.length == datas.length,\n            \"TimelockController: length mismatch\"\n        );\n\n        bytes32 id =\n            hashOperationBatch(targets, values, datas, predecessor, salt);\n        _schedule(id, delay);\n        for (uint256 i = 0; i < targets.length; ++i) {\n            emit CallScheduled(\n                id,\n                i,\n                targets[i],\n                values[i],\n                datas[i],\n                predecessor,\n                delay\n            );\n        }\n    }\n\n    /**\n     * @dev Schedule an operation that is to becomes valid after a given delay.\n     */\n    function _schedule(bytes32 id, uint256 delay) private {\n        require(\n            _timestamps[id] == 0,\n            \"TimelockController: operation already scheduled\"\n        );\n        require(delay >= minDelay, \"TimelockController: insufficient delay\");\n        // solhint-disable-next-line not-rely-on-time\n        _timestamps[id] = SafeMath.add(block.timestamp, delay);\n    }\n\n    /**\n     * @dev Cancel an operation.\n     *\n     * Requirements:\n     *\n     * - the caller must have the 'proposer' role.\n     */\n    function cancel(bytes32 id) public virtual onlyRole(PROPOSER_ROLE) {\n        require(\n            isOperationPending(id),\n            \"TimelockController: operation cannot be cancelled\"\n        );\n        delete _timestamps[id];\n\n        emit Cancelled(id);\n    }\n\n    /**\n     * @dev Execute an (ready) operation containing a single transaction.\n     *\n     * Emits a {CallExecuted} event.\n     *\n     * Requirements:\n     *\n     * - the caller must have the 'executor' role.\n     */\n    function execute(\n        address target,\n        uint256 value,\n        bytes calldata data,\n        bytes32 predecessor,\n        bytes32 salt\n    ) public payable virtual onlyRole(EXECUTOR_ROLE) nonReentrant {\n        bytes32 id = hashOperation(target, value, data, predecessor, salt);\n        _beforeCall(predecessor);\n        _call(id, 0, target, value, data);\n        _afterCall(id);\n    }\n\n    /**\n     * @dev Execute an (ready) operation containing a batch of transactions.\n     *\n     * Emits one {CallExecuted} event per transaction in the batch.\n     *\n     * Requirements:\n     *\n     * - the caller must have the 'executor' role.\n     */\n    function executeBatch(\n        address[] calldata targets,\n        uint256[] calldata values,\n        bytes[] calldata datas,\n        bytes32 predecessor,\n        bytes32 salt\n    ) public payable virtual onlyRole(EXECUTOR_ROLE) nonReentrant {\n        require(\n            targets.length == values.length,\n            \"TimelockController: length mismatch\"\n        );\n        require(\n            targets.length == datas.length,\n            \"TimelockController: length mismatch\"\n        );\n\n        bytes32 id =\n            hashOperationBatch(targets, values, datas, predecessor, salt);\n        _beforeCall(predecessor);\n        for (uint256 i = 0; i < targets.length; ++i) {\n            _call(id, i, targets[i], values[i], datas[i]);\n        }\n        _afterCall(id);\n    }\n\n    /**\n     * @dev Checks before execution of an operation's calls.\n     */\n    function _beforeCall(bytes32 predecessor) private view {\n        require(\n            predecessor == bytes32(0) || isOperationDone(predecessor),\n            \"TimelockController: missing dependency\"\n        );\n    }\n\n    /**\n     * @dev Checks after execution of an operation's calls.\n     */\n    function _afterCall(bytes32 id) private {\n        require(\n            isOperationReady(id),\n            \"TimelockController: operation is not ready\"\n        );\n        _timestamps[id] = _DONE_TIMESTAMP;\n    }\n\n    /**\n     * @dev Execute an operation's call.\n     *\n     * Emits a {CallExecuted} event.\n     */\n    function _call(\n        bytes32 id,\n        uint256 index,\n        address target,\n        uint256 value,\n        bytes calldata data\n    ) private {\n        // solhint-disable-next-line avoid-low-level-calls\n        (bool success, ) = target.call{value: value}(data);\n        require(success, \"TimelockController: underlying transaction reverted\");\n\n        emit CallExecuted(id, index, target, value, data);\n    }\n\n    /**\n     * @dev Changes the minimum timelock duration for future operations.\n     *\n     * Emits a {MinDelayChange} event.\n     *\n     * Requirements:\n     *\n     * - the caller must be the timelock itself. This can only be achieved by scheduling and later executing\n     * an operation where the timelock is the target and the data is the ABI-encoded call to this function.\n     */\n    function updateMinDelay(uint256 newDelay) external virtual {\n        require(\n            msg.sender == address(this),\n            \"TimelockController: caller must be timelock\"\n        );\n        emit MinDelayChange(minDelay, newDelay);\n        minDelay = newDelay;\n    }\n\n    function updateMinDelayReduced(uint256 newDelay) external virtual {\n        require(\n            msg.sender == address(this),\n            \"TimelockController: caller must be timelock\"\n        );\n        emit MinDelayReducedChange(minDelayReduced, newDelay);\n        minDelayReduced = newDelay;\n    }\n\n    function setDevWalletAddress(address payable _devWalletAddress) public {\n        require(\n            msg.sender == address(this),\n            \"TimelockController: caller must be timelock\"\n        );\n        require(tx.origin == devWalletAddress, \"tx.origin != devWalletAddress\");\n        devWalletAddress = _devWalletAddress;\n    }\n\n    function scheduleSetFarmSettings(\n        address _farmAddress,\n        uint16 _lockerRate,\n        uint16 _referralCommissionRate,\n        ILocker _locker,\n        IReferral _referral,\n        IFeeReceiver _feeReceiver,\n        IFeeReceiver _feeLpReceiver,\n        bytes32 predecessor,\n        bytes32 salt\n    ) public onlyRole(EXECUTOR_ROLE) {\n        bytes32 id =\n            keccak256(\n                abi.encode(\n                    _farmAddress,\n                    _lockerRate,\n                    _referralCommissionRate,\n                    _locker,\n                    _referral,\n                    _feeReceiver,\n                    _feeLpReceiver,\n                    predecessor,\n                    salt\n                )\n            );\n        require(\n            _timestamps[id] == 0,\n            \"TimelockController: operation already scheduled\"\n        );\n\n        _timestamps[id] = SafeMath.add(block.timestamp, minDelayReduced);\n        emit SetFarmScheduled(\n            id,\n            0,\n            _farmAddress,\n            _lockerRate,\n            _referralCommissionRate,\n            address(_locker),\n            address(_referral),\n            address(_feeReceiver),\n            address(_feeLpReceiver)\n        );\n    }\n\n    function executeSetFarmSettings(\n        address _farmAddress,\n        uint16 _lockerRate,\n        uint16 _referralCommissionRate,\n        ILocker _locker,\n        IReferral _referral,\n        IFeeReceiver _feeReceiver,\n        IFeeReceiver _feeLpReceiver,\n        bytes32 predecessor,\n        bytes32 salt\n    ) public onlyRole(EXECUTOR_ROLE) {\n        bytes32 id =\n            keccak256(\n                abi.encode(\n                    _farmAddress,\n                    _lockerRate,\n                    _referralCommissionRate,\n                    _locker,\n                    _referral,\n                    _feeReceiver,\n                    _feeLpReceiver,\n                    predecessor,\n                    salt\n                )\n            );\n        _beforeCall(predecessor);\n        IFarm(_farmAddress).setFarmSettings(\n            _lockerRate,\n            _referralCommissionRate,\n            _locker,\n            _referral,\n            _feeReceiver,\n            _feeLpReceiver\n        );\n        _afterCall(id);\n    }\n\n    /**\n     * @dev Reduced timelock functions\n     */\n    function scheduleSet(\n        address _farmAddress,\n        uint256 _pid,\n        uint256 _allocPoint,\n        uint256 _harvestInterval,\n        uint256 _harvestFeeInterval,\n        uint16 _harvestFee,\n        bool _withUpdate,\n        bytes32 _predecessor,\n        bytes32 _salt\n    ) public onlyRole(EXECUTOR_ROLE) {\n        bytes32 id =\n            keccak256(\n                abi.encode(\n                    _farmAddress,\n                    _pid,\n                    _allocPoint,\n                    _harvestInterval,\n                    _harvestFeeInterval,\n                    _harvestFee,\n                    _withUpdate,\n                    _predecessor,\n                    _salt\n                )\n            );\n\n        require(\n            _timestamps[id] == 0,\n            \"TimelockController: operation already scheduled\"\n        );\n\n        _timestamps[id] = SafeMath.add(block.timestamp, minDelayReduced);\n        emit SetScheduled(\n            id,\n            0,\n            _farmAddress,\n            _pid,\n            _allocPoint,\n            _harvestInterval,\n            _harvestFeeInterval,\n            _harvestFee,\n            _withUpdate,\n            _predecessor,\n            minDelayReduced\n        );\n    }\n\n    function executeSet(\n        address _farmAddress,\n        uint256 _pid,\n        uint256 _allocPoint,\n        uint256 _harvestInterval,\n        uint256 _harvestFeeInterval,\n        uint16 _harvestFee,\n        bool _withUpdate,\n        bytes32 _predecessor,\n        bytes32 _salt\n    ) public payable virtual onlyRole(EXECUTOR_ROLE) nonReentrant {\n        bytes32 id =\n            keccak256(\n                abi.encode(\n                    _farmAddress,\n                    _pid,\n                    _allocPoint,\n                    _harvestInterval,\n                    _harvestFeeInterval,\n                    _harvestFee,\n                    _withUpdate,\n                    _predecessor,\n                    _salt\n                )\n            );\n\n        _beforeCall(_predecessor);\n        IFarm(_farmAddress).set(_pid, _allocPoint, _harvestInterval, _harvestFeeInterval, _harvestFee, _withUpdate);\n        _afterCall(id);\n    }\n\n    /**\n     * @dev No timelock functions\n     */\n    function withdrawBNB() public payable {\n        require(msg.sender == devWalletAddress, \"!devWalletAddress\");\n        devWalletAddress.transfer(address(this).balance);\n    }\n\n    function withdrawBEP20(address _tokenAddress) public payable {\n        require(msg.sender == devWalletAddress, \"!devWalletAddress\");\n        uint256 tokenBal = IERC20(_tokenAddress).balanceOf(address(this));\n        for (uint8 j = 0; j < beneficiaryAddresses.length; j++) {\n            uint256 trfAmount = tokenBal.mul(beneficiaryRewardFactors[j]).div(10000);\n            IERC20(_tokenAddress).safeIncreaseAllowance(beneficiaryAddresses[j], trfAmount);\n            IERC20(_tokenAddress).safeTransfer(beneficiaryAddresses[j], trfAmount);\n        }\n    }\n\n    function add(\n        address _farmAddress,\n        address _want,\n        bool _withUpdate,\n        address _vaultAddress,\n        uint256 _harvestInterval,\n        uint256 _harvestFeeInterval,\n        uint16 _harvestFee,\n        bool _isTransferFeeReward,\n        bool _isLpReward\n    ) public onlyRole(EXECUTOR_ROLE) {\n        IFarm(_farmAddress).add(\n            _want,\n            _withUpdate,\n            _vaultAddress,\n            _harvestInterval,\n            _harvestFeeInterval,\n            _harvestFee,\n            _isTransferFeeReward,\n            _isLpReward\n        );\n    }\n\n    function earn(address _vaultAddress) public onlyRole(EXECUTOR_ROLE) {\n        IVault(_vaultAddress).earn();\n    }\n\n    function scheduleSetVaultSettings(\n        address _vaultAddress,\n        uint256 _entranceFeeFactor,\n        uint256 _withdrawFeeFactor,\n        uint256 _controllerFee,\n        uint256 _buyBackRate,\n        uint256 _slippageFactor,\n        uint256 _profitToBeli,\n        bytes32 _predecessor,\n        bytes32 _salt\n    ) public onlyRole(EXECUTOR_ROLE) {\n        bytes32 id =\n            keccak256(\n                abi.encode(\n                    _vaultAddress,\n                    _entranceFeeFactor,\n                    _withdrawFeeFactor,\n                    _controllerFee,\n                    _buyBackRate,\n                    _slippageFactor,\n                    _profitToBeli,\n                    _predecessor,\n                    _salt\n                )\n            );\n\n        require(\n            _timestamps[id] == 0,\n            \"TimelockController: operation already scheduled\"\n        );\n\n        _timestamps[id] = SafeMath.add(block.timestamp, minDelayReduced);\n        emit SetVaultSettingsScheduled(\n            id,\n            _vaultAddress,\n            _entranceFeeFactor,\n            _withdrawFeeFactor,\n            _controllerFee,\n            _buyBackRate,\n            _slippageFactor,\n            _profitToBeli\n        );\n    }\n\n    function executeSetVaultSettings(\n        address _vaultAddress,\n        uint256 _entranceFeeFactor,\n        uint256 _withdrawFeeFactor,\n        uint256 _controllerFee,\n        uint256 _buyBackRate,\n        uint256 _slippageFactor,\n        uint256 _profitToBeli,\n        bytes32 _predecessor,\n        bytes32 _salt\n    ) public payable virtual onlyRole(EXECUTOR_ROLE) nonReentrant {\n        bytes32 id =\n            keccak256(\n                abi.encode(\n                    _vaultAddress,\n                    _entranceFeeFactor,\n                    _withdrawFeeFactor,\n                    _controllerFee,\n                    _buyBackRate,\n                    _slippageFactor,\n                    _profitToBeli,\n                    _predecessor,\n                    _salt\n                )\n            );\n        _beforeCall(_predecessor);\n        IVault(_vaultAddress).setSettings(\n            _entranceFeeFactor,\n            _withdrawFeeFactor,\n            _controllerFee,\n            _buyBackRate,\n            _slippageFactor,\n            _profitToBeli\n        );\n        _afterCall(id);\n    }\n\n    function farm(address _vaultAddress) public onlyRole(EXECUTOR_ROLE) {\n        IVault(_vaultAddress).farm();\n    }\n\n    function pause(address _vaultAddress) public onlyRole(EXECUTOR_ROLE) {\n        IVault(_vaultAddress).pause();\n    }\n\n    function unpause(address _vaultAddress) public onlyRole(EXECUTOR_ROLE) {\n        IVault(_vaultAddress).unpause();\n    }\n\n    function rebalance(\n        address _vaultAddress,\n        uint256 _borrowRate,\n        uint256 _borrowDepth\n    ) public onlyRole(EXECUTOR_ROLE) {\n        IVault(_vaultAddress).rebalance(_borrowRate, _borrowDepth);\n    }\n\n    function deleverageOnce(address _vaultAddress)\n        public\n        onlyRole(EXECUTOR_ROLE)\n    {\n        IVault(_vaultAddress).deleverageOnce();\n    }\n\n    function leverageOnce(address _vaultAddress)\n        public\n        onlyRole(EXECUTOR_ROLE)\n    {\n        IVault(_vaultAddress).leverageOnce();\n    }\n\n    function wrapBNB(address _vaultAddress) public onlyRole(EXECUTOR_ROLE) {\n        IVault(_vaultAddress).wrapBNB();\n    }\n\n    function setBeneficiaries(\n        address[] memory _beneficiaryAddresses,\n        uint16[] memory _beneficiaryRewardFactors\n    ) external virtual {\n        require(\n            msg.sender == address(this),\n            \"TimelockController: caller must be timelock\"\n        );\n\n        require(\n            _beneficiaryAddresses.length == _beneficiaryRewardFactors.length,\n            \"TimelockController: arrays diff length\"\n        );\n\n        uint256 rewardFactorsTotal = 0;\n        for (uint8 i = 0; i < _beneficiaryRewardFactors.length; i++) {\n            rewardFactorsTotal = rewardFactorsTotal.add(_beneficiaryRewardFactors[i]);\n        }\n\n        require(\n            rewardFactorsTotal <= 10000,\n            \"TimelockController: rewardFactorsTotal must be max 1000\"\n        );\n\n        beneficiaryAddresses = _beneficiaryAddresses;\n        beneficiaryRewardFactors = _beneficiaryRewardFactors;\n\n        emit SetBeneficiaries(beneficiaryAddresses, beneficiaryRewardFactors);\n    }\n\n    // In case new vaults require functions without a timelock as well, hoping to avoid having multiple timelock contracts\n    function noTimeLockFunc1(address _vaultAddress)\n        public\n        onlyRole(EXECUTOR_ROLE)\n    {\n        IVault(_vaultAddress).noTimeLockFunc1();\n    }\n\n    function noTimeLockFunc2(address _vaultAddress)\n        public\n        onlyRole(EXECUTOR_ROLE)\n    {\n        IVault(_vaultAddress).noTimeLockFunc2();\n    }\n\n    function noTimeLockFunc3(address _vaultAddress)\n        public\n        onlyRole(EXECUTOR_ROLE)\n    {\n        IVault(_vaultAddress).noTimeLockFunc3();\n    }\n}\n",
  "sourcePath": "/workspaces/beli-farm/src/contracts/TimelockControllers.sol",
  "compiler": {
    "name": "solc",
    "version": "0.6.12+commit.27d51765.Emscripten.clang"
  },
  "schemaVersion": "3.4.3",
  "updatedAt": "2022-03-02T01:52:06.020Z",
  "networkType": "ethereum",
  "devdoc": {
    "details": "Contract module which acts as a timelocked controller. When set as the owner of an `Ownable` smart contract, it enforces a timelock on all `onlyOwner` maintenance operations. This gives time for users of the controlled contract to exit before a potentially dangerous maintenance operation is applied. By default, this contract is self administered, meaning administration tasks have to go through the timelock process. The proposer (resp executor) role is in charge of proposing (resp executing) operations. A common use case is to position this {TimelockController} as the owner of a smart contract, with a multisig or a DAO as the sole proposer. _Available since v3.3._",
    "events": {
      "CallExecuted(bytes32,uint256,address,uint256,bytes)": {
        "details": "Emitted when a call is performed as part of operation `id`."
      },
      "CallScheduled(bytes32,uint256,address,uint256,bytes,bytes32,uint256)": {
        "details": "Emitted when a call is scheduled as part of operation `id`."
      },
      "Cancelled(bytes32)": {
        "details": "Emitted when operation `id` is cancelled."
      },
      "MinDelayChange(uint256,uint256)": {
        "details": "Emitted when the minimum delay for future operations is modified."
      },
      "SetScheduled(bytes32,uint256,address,uint256,uint256,uint256,uint256,uint16,bool,bytes32,uint256)": {
        "details": "Emitted when a call is scheduled as part of operation `id`."
      }
    },
    "kind": "dev",
    "methods": {
      "cancel(bytes32)": {
        "details": "Cancel an operation. Requirements: - the caller must have the 'proposer' role."
      },
      "constructor": {
        "details": "Initializes the contract with a given `minDelay`."
      },
      "execute(address,uint256,bytes,bytes32,bytes32)": {
        "details": "Execute an (ready) operation containing a single transaction. Emits a {CallExecuted} event. Requirements: - the caller must have the 'executor' role."
      },
      "executeBatch(address[],uint256[],bytes[],bytes32,bytes32)": {
        "details": "Execute an (ready) operation containing a batch of transactions. Emits one {CallExecuted} event per transaction in the batch. Requirements: - the caller must have the 'executor' role."
      },
      "getRoleAdmin(bytes32)": {
        "details": "Returns the admin role that controls `role`. See {grantRole} and {revokeRole}. To change a role's admin, use {_setRoleAdmin}."
      },
      "getRoleMember(bytes32,uint256)": {
        "details": "Returns one of the accounts that have `role`. `index` must be a value between 0 and {getRoleMemberCount}, non-inclusive. Role bearers are not sorted in any particular way, and their ordering may change at any point. WARNING: When using {getRoleMember} and {getRoleMemberCount}, make sure you perform all queries on the same block. See the following https://forum.openzeppelin.com/t/iterating-over-elements-on-enumerableset-in-openzeppelin-contracts/2296[forum post] for more information."
      },
      "getRoleMemberCount(bytes32)": {
        "details": "Returns the number of accounts that have `role`. Can be used together with {getRoleMember} to enumerate all bearers of a role."
      },
      "getTimestamp(bytes32)": {
        "details": "Returns the timestamp at with an operation becomes ready (0 for unset operations, 1 for done operations)."
      },
      "grantRole(bytes32,address)": {
        "details": "Grants `role` to `account`. If `account` had not been already granted `role`, emits a {RoleGranted} event. Requirements: - the caller must have ``role``'s admin role."
      },
      "hasRole(bytes32,address)": {
        "details": "Returns `true` if `account` has been granted `role`."
      },
      "hashOperation(address,uint256,bytes,bytes32,bytes32)": {
        "details": "Returns the identifier of an operation containing a single transaction."
      },
      "hashOperationBatch(address[],uint256[],bytes[],bytes32,bytes32)": {
        "details": "Returns the identifier of an operation containing a batch of transactions."
      },
      "isOperationDone(bytes32)": {
        "details": "Returns whether an operation is done or not."
      },
      "isOperationPending(bytes32)": {
        "details": "Returns whether an operation is pending or not."
      },
      "isOperationReady(bytes32)": {
        "details": "Returns whether an operation is ready or not."
      },
      "renounceRole(bytes32,address)": {
        "details": "Revokes `role` from the calling account. Roles are often managed via {grantRole} and {revokeRole}: this function's purpose is to provide a mechanism for accounts to lose their privileges if they are compromised (such as when a trusted device is misplaced). If the calling account had been granted `role`, emits a {RoleRevoked} event. Requirements: - the caller must be `account`."
      },
      "revokeRole(bytes32,address)": {
        "details": "Revokes `role` from `account`. If `account` had been granted `role`, emits a {RoleRevoked} event. Requirements: - the caller must have ``role``'s admin role."
      },
      "schedule(address,uint256,bytes,bytes32,bytes32,uint256)": {
        "details": "Schedule an operation containing a single transaction. Emits a {CallScheduled} event. Requirements: - the caller must have the 'proposer' role."
      },
      "scheduleBatch(address[],uint256[],bytes[],bytes32,bytes32,uint256)": {
        "details": "Schedule an operation containing a batch of transactions. Emits one {CallScheduled} event per transaction in the batch. Requirements: - the caller must have the 'proposer' role."
      },
      "scheduleSet(address,uint256,uint256,uint256,uint256,uint16,bool,bytes32,bytes32)": {
        "details": "Reduced timelock functions"
      },
      "updateMinDelay(uint256)": {
        "details": "Changes the minimum timelock duration for future operations. Emits a {MinDelayChange} event. Requirements: - the caller must be the timelock itself. This can only be achieved by scheduling and later executing an operation where the timelock is the target and the data is the ABI-encoded call to this function."
      },
      "withdrawBNB()": {
        "details": "No timelock functions"
      }
    },
    "version": 1
  },
  "userdoc": {
    "kind": "user",
    "methods": {},
    "version": 1
  }
}