{
  "contractName": "FWeth",
  "abi": [
    {
      "anonymous": false,
      "inputs": [
        {
          "indexed": true,
          "internalType": "address",
          "name": "owner",
          "type": "address"
        },
        {
          "indexed": true,
          "internalType": "address",
          "name": "spender",
          "type": "address"
        },
        {
          "indexed": false,
          "internalType": "uint256",
          "name": "value",
          "type": "uint256"
        }
      ],
      "name": "Approval",
      "type": "event"
    },
    {
      "anonymous": false,
      "inputs": [
        {
          "indexed": true,
          "internalType": "address",
          "name": "previousOwner",
          "type": "address"
        },
        {
          "indexed": true,
          "internalType": "address",
          "name": "newOwner",
          "type": "address"
        }
      ],
      "name": "OwnershipTransferred",
      "type": "event"
    },
    {
      "anonymous": false,
      "inputs": [
        {
          "indexed": true,
          "internalType": "address",
          "name": "from",
          "type": "address"
        },
        {
          "indexed": true,
          "internalType": "address",
          "name": "to",
          "type": "address"
        },
        {
          "indexed": false,
          "internalType": "uint256",
          "name": "value",
          "type": "uint256"
        }
      ],
      "name": "Transfer",
      "type": "event"
    },
    {
      "anonymous": false,
      "inputs": [
        {
          "indexed": true,
          "internalType": "address",
          "name": "src",
          "type": "address"
        },
        {
          "indexed": false,
          "internalType": "uint256",
          "name": "wad",
          "type": "uint256"
        }
      ],
      "name": "Withdrawal",
      "type": "event"
    },
    {
      "inputs": [
        {
          "internalType": "address",
          "name": "owner",
          "type": "address"
        },
        {
          "internalType": "address",
          "name": "spender",
          "type": "address"
        }
      ],
      "name": "allowance",
      "outputs": [
        {
          "internalType": "uint256",
          "name": "",
          "type": "uint256"
        }
      ],
      "stateMutability": "view",
      "type": "function",
      "constant": true
    },
    {
      "inputs": [
        {
          "internalType": "address",
          "name": "spender",
          "type": "address"
        },
        {
          "internalType": "uint256",
          "name": "amount",
          "type": "uint256"
        }
      ],
      "name": "approve",
      "outputs": [
        {
          "internalType": "bool",
          "name": "",
          "type": "bool"
        }
      ],
      "stateMutability": "nonpayable",
      "type": "function"
    },
    {
      "inputs": [
        {
          "internalType": "address",
          "name": "account",
          "type": "address"
        }
      ],
      "name": "balanceOf",
      "outputs": [
        {
          "internalType": "uint256",
          "name": "",
          "type": "uint256"
        }
      ],
      "stateMutability": "view",
      "type": "function",
      "constant": true
    },
    {
      "inputs": [],
      "name": "decimals",
      "outputs": [
        {
          "internalType": "uint8",
          "name": "",
          "type": "uint8"
        }
      ],
      "stateMutability": "view",
      "type": "function",
      "constant": true
    },
    {
      "inputs": [
        {
          "internalType": "address",
          "name": "spender",
          "type": "address"
        },
        {
          "internalType": "uint256",
          "name": "subtractedValue",
          "type": "uint256"
        }
      ],
      "name": "decreaseAllowance",
      "outputs": [
        {
          "internalType": "bool",
          "name": "",
          "type": "bool"
        }
      ],
      "stateMutability": "nonpayable",
      "type": "function"
    },
    {
      "inputs": [
        {
          "internalType": "address",
          "name": "spender",
          "type": "address"
        },
        {
          "internalType": "uint256",
          "name": "addedValue",
          "type": "uint256"
        }
      ],
      "name": "increaseAllowance",
      "outputs": [
        {
          "internalType": "bool",
          "name": "",
          "type": "bool"
        }
      ],
      "stateMutability": "nonpayable",
      "type": "function"
    },
    {
      "inputs": [],
      "name": "name",
      "outputs": [
        {
          "internalType": "string",
          "name": "",
          "type": "string"
        }
      ],
      "stateMutability": "view",
      "type": "function",
      "constant": true
    },
    {
      "inputs": [],
      "name": "owner",
      "outputs": [
        {
          "internalType": "address",
          "name": "",
          "type": "address"
        }
      ],
      "stateMutability": "view",
      "type": "function",
      "constant": true
    },
    {
      "inputs": [],
      "name": "renounceOwnership",
      "outputs": [],
      "stateMutability": "nonpayable",
      "type": "function"
    },
    {
      "inputs": [],
      "name": "symbol",
      "outputs": [
        {
          "internalType": "string",
          "name": "",
          "type": "string"
        }
      ],
      "stateMutability": "view",
      "type": "function",
      "constant": true
    },
    {
      "inputs": [],
      "name": "totalSupply",
      "outputs": [
        {
          "internalType": "uint256",
          "name": "",
          "type": "uint256"
        }
      ],
      "stateMutability": "view",
      "type": "function",
      "constant": true
    },
    {
      "inputs": [
        {
          "internalType": "address",
          "name": "recipient",
          "type": "address"
        },
        {
          "internalType": "uint256",
          "name": "amount",
          "type": "uint256"
        }
      ],
      "name": "transfer",
      "outputs": [
        {
          "internalType": "bool",
          "name": "",
          "type": "bool"
        }
      ],
      "stateMutability": "nonpayable",
      "type": "function"
    },
    {
      "inputs": [
        {
          "internalType": "address",
          "name": "sender",
          "type": "address"
        },
        {
          "internalType": "address",
          "name": "recipient",
          "type": "address"
        },
        {
          "internalType": "uint256",
          "name": "amount",
          "type": "uint256"
        }
      ],
      "name": "transferFrom",
      "outputs": [
        {
          "internalType": "bool",
          "name": "",
          "type": "bool"
        }
      ],
      "stateMutability": "nonpayable",
      "type": "function"
    },
    {
      "inputs": [
        {
          "internalType": "address",
          "name": "newOwner",
          "type": "address"
        }
      ],
      "name": "transferOwnership",
      "outputs": [],
      "stateMutability": "nonpayable",
      "type": "function"
    },
    {
      "inputs": [],
      "name": "deposit",
      "outputs": [],
      "stateMutability": "payable",
      "type": "function",
      "payable": true
    },
    {
      "inputs": [
        {
          "internalType": "uint256",
          "name": "wad",
          "type": "uint256"
        }
      ],
      "name": "withdraw",
      "outputs": [],
      "stateMutability": "nonpayable",
      "type": "function"
    }
  ],
  "bytecode": "0x60806040523480156200001157600080fd5b50604080518082018252601081526f08cc2d6ca40aee4c2e0e0cac8408aa8960831b6020808301918252835180850190945260048452630ae8aa8960e31b9084015281519192916200006691600391620000f8565b5080516200007c906004906020840190620000f8565b50506005805460ff1916601217905550600062000098620000f4565b60058054610100600160a81b0319166101006001600160a01b03841690810291909117909155604051919250906000907f8be0079c531659141344cd1fd0a4f28419497f9722a3daafe3b4186f6b6457e0908290a35062000194565b3390565b828054600181600116156101000203166002900490600052602060002090601f016020900481019282601f106200013b57805160ff19168380011785556200016b565b828001600101855582156200016b579182015b828111156200016b5782518255916020019190600101906200014e565b50620001799291506200017d565b5090565b5b808211156200017957600081556001016200017e565b61109f80620001a46000396000f3fe6080604052600436106100f35760003560e01c8063715018a61161008a578063a9059cbb11610059578063a9059cbb14610390578063d0e30db0146103c9578063dd62ed3e146103d1578063f2fde38b1461040c576100f3565b8063715018a6146102fc5780638da5cb5b1461031157806395d89b4114610342578063a457c2d714610357576100f3565b80632e1a7d4d116100c65780632e1a7d4d14610239578063313ce56714610265578063395093511461029057806370a08231146102c9576100f3565b806306fdde03146100f8578063095ea7b31461018257806318160ddd146101cf57806323b872dd146101f6575b600080fd5b34801561010457600080fd5b5061010d61043f565b6040805160208082528351818301528351919283929083019185019080838360005b8381101561014757818101518382015260200161012f565b50505050905090810190601f1680156101745780820380516001836020036101000a031916815260200191505b509250505060405180910390f35b34801561018e57600080fd5b506101bb600480360360408110156101a557600080fd5b506001600160a01b0381351690602001356104d5565b604080519115158252519081900360200190f35b3480156101db57600080fd5b506101e46104f2565b60408051918252519081900360200190f35b34801561020257600080fd5b506101bb6004803603606081101561021957600080fd5b506001600160a01b038135811691602081013590911690604001356104f8565b34801561024557600080fd5b506102636004803603602081101561025c57600080fd5b503561057f565b005b34801561027157600080fd5b5061027a6105f0565b6040805160ff9092168252519081900360200190f35b34801561029c57600080fd5b506101bb600480360360408110156102b357600080fd5b506001600160a01b0381351690602001356105f9565b3480156102d557600080fd5b506101e4600480360360208110156102ec57600080fd5b50356001600160a01b0316610647565b34801561030857600080fd5b50610263610662565b34801561031d57600080fd5b50610326610726565b604080516001600160a01b039092168252519081900360200190f35b34801561034e57600080fd5b5061010d61073a565b34801561036357600080fd5b506101bb6004803603604081101561037a57600080fd5b506001600160a01b03813516906020013561079b565b34801561039c57600080fd5b506101bb600480360360408110156103b357600080fd5b506001600160a01b038135169060200135610803565b610263610817565b3480156103dd57600080fd5b506101e4600480360360408110156103f457600080fd5b506001600160a01b0381358116916020013516610823565b34801561041857600080fd5b506102636004803603602081101561042f57600080fd5b50356001600160a01b031661084e565b60038054604080516020601f60026000196101006001881615020190951694909404938401819004810282018101909252828152606093909290918301828280156104cb5780601f106104a0576101008083540402835291602001916104cb565b820191906000526020600020905b8154815290600101906020018083116104ae57829003601f168201915b5050505050905090565b60006104e96104e261096e565b8484610972565b50600192915050565b60025490565b6000610505848484610a5e565b6105758461051161096e565b61057085604051806060016040528060288152602001610fb3602891396001600160a01b038a1660009081526001602052604081209061054f61096e565b6001600160a01b031681526020810191909152604001600020549190610bb9565b610972565b5060019392505050565b6105893382610c50565b604051339082156108fc029083906000818181858888f193505050501580156105b6573d6000803e3d6000fd5b5060408051828152905133917f7fcf532c15f0a6db0bd6d0e038bea71d30d808c7d98cb3bf7268a95bf5081b65919081900360200190a250565b60055460ff1690565b60006104e961060661096e565b84610570856001600061061761096e565b6001600160a01b03908116825260208083019390935260409182016000908120918c168152925290205490610d4c565b6001600160a01b031660009081526020819052604090205490565b61066a61096e565b6001600160a01b031661067b610726565b6001600160a01b0316146106d6576040805162461bcd60e51b815260206004820181905260248201527f4f776e61626c653a2063616c6c6572206973206e6f7420746865206f776e6572604482015290519081900360640190fd5b60055460405160009161010090046001600160a01b0316907f8be0079c531659141344cd1fd0a4f28419497f9722a3daafe3b4186f6b6457e0908390a360058054610100600160a81b0319169055565b60055461010090046001600160a01b031690565b60048054604080516020601f60026000196101006001881615020190951694909404938401819004810282018101909252828152606093909290918301828280156104cb5780601f106104a0576101008083540402835291602001916104cb565b60006104e96107a861096e565b846105708560405180606001604052806025815260200161104560259139600160006107d261096e565b6001600160a01b03908116825260208083019390935260409182016000908120918d16815292529020549190610bb9565b60006104e961081061096e565b8484610a5e565b6108213334610dad565b565b6001600160a01b03918216600090815260016020908152604080832093909416825291909152205490565b61085661096e565b6001600160a01b0316610867610726565b6001600160a01b0316146108c2576040805162461bcd60e51b815260206004820181905260248201527f4f776e61626c653a2063616c6c6572206973206e6f7420746865206f776e6572604482015290519081900360640190fd5b6001600160a01b0381166109075760405162461bcd60e51b8152600401808060200182810382526026815260200180610f456026913960400191505060405180910390fd5b6005546040516001600160a01b0380841692610100900416907f8be0079c531659141344cd1fd0a4f28419497f9722a3daafe3b4186f6b6457e090600090a3600580546001600160a01b0390921661010002610100600160a81b0319909216919091179055565b3390565b6001600160a01b0383166109b75760405162461bcd60e51b81526004018080602001828103825260248152602001806110216024913960400191505060405180910390fd5b6001600160a01b0382166109fc5760405162461bcd60e51b8152600401808060200182810382526022815260200180610f6b6022913960400191505060405180910390fd5b6001600160a01b03808416600081815260016020908152604080832094871680845294825291829020859055815185815291517f8c5be1e5ebec7d5bd14f71427d1e84f3dd0314c0f7b2291e5b200ac8c7c3b9259281900390910190a3505050565b6001600160a01b038316610aa35760405162461bcd60e51b8152600401808060200182810382526025815260200180610ffc6025913960400191505060405180910390fd5b6001600160a01b038216610ae85760405162461bcd60e51b8152600401808060200182810382526023815260200180610f006023913960400191505060405180910390fd5b610af3838383610e9d565b610b3081604051806060016040528060268152602001610f8d602691396001600160a01b0386166000908152602081905260409020549190610bb9565b6001600160a01b038085166000908152602081905260408082209390935590841681522054610b5f9082610d4c565b6001600160a01b038084166000818152602081815260409182902094909455805185815290519193928716927fddf252ad1be2c89b69c2b068fc378daa952ba7f163c4a11628f55a4df523b3ef92918290030190a3505050565b60008184841115610c485760405162461bcd60e51b81526004018080602001828103825283818151815260200191508051906020019080838360005b83811015610c0d578181015183820152602001610bf5565b50505050905090810190601f168015610c3a5780820380516001836020036101000a031916815260200191505b509250505060405180910390fd5b505050900390565b6001600160a01b038216610c955760405162461bcd60e51b8152600401808060200182810382526021815260200180610fdb6021913960400191505060405180910390fd5b610ca182600083610e9d565b610cde81604051806060016040528060228152602001610f23602291396001600160a01b0385166000908152602081905260409020549190610bb9565b6001600160a01b038316600090815260208190526040902055600254610d049082610ea2565b6002556040805182815290516000916001600160a01b038516917fddf252ad1be2c89b69c2b068fc378daa952ba7f163c4a11628f55a4df523b3ef9181900360200190a35050565b600082820183811015610da6576040805162461bcd60e51b815260206004820152601b60248201527f536166654d6174683a206164646974696f6e206f766572666c6f770000000000604482015290519081900360640190fd5b9392505050565b6001600160a01b038216610e08576040805162461bcd60e51b815260206004820152601f60248201527f45524332303a206d696e7420746f20746865207a65726f206164647265737300604482015290519081900360640190fd5b610e1460008383610e9d565b600254610e219082610d4c565b6002556001600160a01b038216600090815260208190526040902054610e479082610d4c565b6001600160a01b0383166000818152602081815260408083209490945583518581529351929391927fddf252ad1be2c89b69c2b068fc378daa952ba7f163c4a11628f55a4df523b3ef9281900390910190a35050565b505050565b600082821115610ef9576040805162461bcd60e51b815260206004820152601e60248201527f536166654d6174683a207375627472616374696f6e206f766572666c6f770000604482015290519081900360640190fd5b5090039056fe45524332303a207472616e7366657220746f20746865207a65726f206164647265737345524332303a206275726e20616d6f756e7420657863656564732062616c616e63654f776e61626c653a206e6577206f776e657220697320746865207a65726f206164647265737345524332303a20617070726f766520746f20746865207a65726f206164647265737345524332303a207472616e7366657220616d6f756e7420657863656564732062616c616e636545524332303a207472616e7366657220616d6f756e74206578636565647320616c6c6f77616e636545524332303a206275726e2066726f6d20746865207a65726f206164647265737345524332303a207472616e736665722066726f6d20746865207a65726f206164647265737345524332303a20617070726f76652066726f6d20746865207a65726f206164647265737345524332303a2064656372656173656420616c6c6f77616e63652062656c6f77207a65726fa2646970667358221220c42f48035a9edef8fb187bf1f780cce8c6c35ed94f20a47ce7c8f1d85bcd1ca564736f6c634300060c0033",
  "immutableReferences": {},
  "source": "pragma solidity 0.6.12;\n\nimport \"@openzeppelin/contracts/token/ERC20/ERC20.sol\";\nimport \"@openzeppelin/contracts/token/ERC20/SafeERC20.sol\";\nimport \"@openzeppelin/contracts/access/Ownable.sol\";\nimport \"@openzeppelin/contracts/utils/Address.sol\";\n\ncontract FWeth is ERC20(\"Fake Wrapped ETH\", \"WETH\"), Ownable {\n\n    event  Withdrawal(address indexed src, uint wad);\n\n    function deposit() public payable {\n        _mint(msg.sender, msg.value);\n    }\n\n    function withdraw(uint wad) public {\n        _burn(msg.sender, wad);\n        msg.sender.transfer(wad);\n        emit Withdrawal(msg.sender, wad);\n    }\n}",
  "sourcePath": "/workspaces/beli-farm/src/contracts/FWeth.sol",
  "compiler": {
    "name": "solc",
    "version": "0.6.12+commit.27d51765.Emscripten.clang"
  },
  "schemaVersion": "3.4.3",
  "updatedAt": "2022-03-02T01:35:30.860Z",
  "networkType": "ethereum",
  "devdoc": {
    "kind": "dev",
    "methods": {
      "allowance(address,address)": {
        "details": "See {IERC20-allowance}."
      },
      "approve(address,uint256)": {
        "details": "See {IERC20-approve}. Requirements: - `spender` cannot be the zero address."
      },
      "balanceOf(address)": {
        "details": "See {IERC20-balanceOf}."
      },
      "decimals()": {
        "details": "Returns the number of decimals used to get its user representation. For example, if `decimals` equals `2`, a balance of `505` tokens should be displayed to a user as `5,05` (`505 / 10 ** 2`). Tokens usually opt for a value of 18, imitating the relationship between Ether and Wei. This is the value {ERC20} uses, unless {_setupDecimals} is called. NOTE: This information is only used for _display_ purposes: it in no way affects any of the arithmetic of the contract, including {IERC20-balanceOf} and {IERC20-transfer}."
      },
      "decreaseAllowance(address,uint256)": {
        "details": "Atomically decreases the allowance granted to `spender` by the caller. This is an alternative to {approve} that can be used as a mitigation for problems described in {IERC20-approve}. Emits an {Approval} event indicating the updated allowance. Requirements: - `spender` cannot be the zero address. - `spender` must have allowance for the caller of at least `subtractedValue`."
      },
      "increaseAllowance(address,uint256)": {
        "details": "Atomically increases the allowance granted to `spender` by the caller. This is an alternative to {approve} that can be used as a mitigation for problems described in {IERC20-approve}. Emits an {Approval} event indicating the updated allowance. Requirements: - `spender` cannot be the zero address."
      },
      "name()": {
        "details": "Returns the name of the token."
      },
      "owner()": {
        "details": "Returns the address of the current owner."
      },
      "renounceOwnership()": {
        "details": "Leaves the contract without owner. It will not be possible to call `onlyOwner` functions anymore. Can only be called by the current owner. NOTE: Renouncing ownership will leave the contract without an owner, thereby removing any functionality that is only available to the owner."
      },
      "symbol()": {
        "details": "Returns the symbol of the token, usually a shorter version of the name."
      },
      "totalSupply()": {
        "details": "See {IERC20-totalSupply}."
      },
      "transfer(address,uint256)": {
        "details": "See {IERC20-transfer}. Requirements: - `recipient` cannot be the zero address. - the caller must have a balance of at least `amount`."
      },
      "transferFrom(address,address,uint256)": {
        "details": "See {IERC20-transferFrom}. Emits an {Approval} event indicating the updated allowance. This is not required by the EIP. See the note at the beginning of {ERC20}. Requirements: - `sender` and `recipient` cannot be the zero address. - `sender` must have a balance of at least `amount`. - the caller must have allowance for ``sender``'s tokens of at least `amount`."
      },
      "transferOwnership(address)": {
        "details": "Transfers ownership of the contract to a new account (`newOwner`). Can only be called by the current owner."
      }
    },
    "version": 1
  },
  "userdoc": {
    "kind": "user",
    "methods": {},
    "version": 1
  }
}