{
  "contractName": "VaultPancakeswap",
  "abi": [
    {
      "inputs": [
        {
          "components": [
            {
              "internalType": "string",
              "name": "name",
              "type": "string"
            },
            {
              "internalType": "string",
              "name": "symbol",
              "type": "string"
            }
          ],
          "internalType": "struct Vault.ErcConfig",
          "name": "_erc",
          "type": "tuple"
        },
        {
          "internalType": "address[]",
          "name": "_addresses",
          "type": "address[]"
        },
        {
          "internalType": "uint256",
          "name": "_pid",
          "type": "uint256"
        },
        {
          "internalType": "bool",
          "name": "_isCAKEStaking",
          "type": "bool"
        },
        {
          "internalType": "bool",
          "name": "_isSameAssetDeposit",
          "type": "bool"
        },
        {
          "internalType": "bool",
          "name": "_isAutoComp",
          "type": "bool"
        },
        {
          "components": [
            {
              "internalType": "address[]",
              "name": "earnedToBELIPath",
              "type": "address[]"
            },
            {
              "internalType": "address[]",
              "name": "earnedToToken0Path",
              "type": "address[]"
            },
            {
              "internalType": "address[]",
              "name": "earnedToToken1Path",
              "type": "address[]"
            },
            {
              "internalType": "address[]",
              "name": "token0ToEarnedPath",
              "type": "address[]"
            },
            {
              "internalType": "address[]",
              "name": "token1ToEarnedPath",
              "type": "address[]"
            }
          ],
          "internalType": "struct Vault.ConversionPath",
          "name": "_conversionPath",
          "type": "tuple"
        },
        {
          "components": [
            {
              "internalType": "uint256",
              "name": "controllerFee",
              "type": "uint256"
            },
            {
              "internalType": "uint256",
              "name": "buyBackRate",
              "type": "uint256"
            },
            {
              "internalType": "uint256",
              "name": "entranceFee",
              "type": "uint256"
            },
            {
              "internalType": "uint256",
              "name": "withdrawFee",
              "type": "uint256"
            }
          ],
          "internalType": "struct Vault.FeeConfig",
          "name": "_fees",
          "type": "tuple"
        }
      ],
      "stateMutability": "nonpayable",
      "type": "constructor"
    },
    {
      "anonymous": false,
      "inputs": [
        {
          "indexed": true,
          "internalType": "address",
          "name": "owner",
          "type": "address"
        },
        {
          "indexed": true,
          "internalType": "address",
          "name": "spender",
          "type": "address"
        },
        {
          "indexed": false,
          "internalType": "uint256",
          "name": "value",
          "type": "uint256"
        }
      ],
      "name": "Approval",
      "type": "event"
    },
    {
      "anonymous": false,
      "inputs": [
        {
          "indexed": true,
          "internalType": "address",
          "name": "previousOwner",
          "type": "address"
        },
        {
          "indexed": true,
          "internalType": "address",
          "name": "newOwner",
          "type": "address"
        }
      ],
      "name": "OwnershipTransferred",
      "type": "event"
    },
    {
      "anonymous": false,
      "inputs": [
        {
          "indexed": false,
          "internalType": "address",
          "name": "account",
          "type": "address"
        }
      ],
      "name": "Paused",
      "type": "event"
    },
    {
      "anonymous": false,
      "inputs": [
        {
          "indexed": false,
          "internalType": "address",
          "name": "buyBackAddress",
          "type": "address"
        }
      ],
      "name": "SetBuyBackAddress",
      "type": "event"
    },
    {
      "anonymous": false,
      "inputs": [
        {
          "indexed": false,
          "internalType": "address",
          "name": "govAddress",
          "type": "address"
        }
      ],
      "name": "SetGov",
      "type": "event"
    },
    {
      "anonymous": false,
      "inputs": [
        {
          "indexed": false,
          "internalType": "address",
          "name": "rewardsAddress",
          "type": "address"
        }
      ],
      "name": "SetRewardsAddress",
      "type": "event"
    },
    {
      "anonymous": false,
      "inputs": [
        {
          "indexed": false,
          "internalType": "uint256",
          "name": "entranceFeeFactor",
          "type": "uint256"
        },
        {
          "indexed": false,
          "internalType": "uint256",
          "name": "withdrawFeeFactor",
          "type": "uint256"
        },
        {
          "indexed": false,
          "internalType": "uint256",
          "name": "controllerFee",
          "type": "uint256"
        },
        {
          "indexed": false,
          "internalType": "uint256",
          "name": "buyBackRate",
          "type": "uint256"
        },
        {
          "indexed": false,
          "internalType": "uint256",
          "name": "earnToBeliRate",
          "type": "uint256"
        },
        {
          "indexed": false,
          "internalType": "uint256",
          "name": "slippageFactor",
          "type": "uint256"
        }
      ],
      "name": "SetSettings",
      "type": "event"
    },
    {
      "anonymous": false,
      "inputs": [
        {
          "indexed": false,
          "internalType": "address",
          "name": "uniRouterAddress",
          "type": "address"
        }
      ],
      "name": "SetUniRouterAddress",
      "type": "event"
    },
    {
      "anonymous": false,
      "inputs": [
        {
          "indexed": true,
          "internalType": "address",
          "name": "from",
          "type": "address"
        },
        {
          "indexed": true,
          "internalType": "address",
          "name": "to",
          "type": "address"
        },
        {
          "indexed": false,
          "internalType": "uint256",
          "name": "value",
          "type": "uint256"
        }
      ],
      "name": "Transfer",
      "type": "event"
    },
    {
      "anonymous": false,
      "inputs": [
        {
          "indexed": false,
          "internalType": "address",
          "name": "account",
          "type": "address"
        }
      ],
      "name": "Unpaused",
      "type": "event"
    },
    {
      "inputs": [],
      "name": "BELIAddress",
      "outputs": [
        {
          "internalType": "address",
          "name": "",
          "type": "address"
        }
      ],
      "stateMutability": "view",
      "type": "function",
      "constant": true
    },
    {
      "inputs": [],
      "name": "accEarnBELI",
      "outputs": [
        {
          "internalType": "uint256",
          "name": "",
          "type": "uint256"
        }
      ],
      "stateMutability": "view",
      "type": "function",
      "constant": true
    },
    {
      "inputs": [],
      "name": "accEarnBELIPerShare",
      "outputs": [
        {
          "internalType": "uint256",
          "name": "",
          "type": "uint256"
        }
      ],
      "stateMutability": "view",
      "type": "function",
      "constant": true
    },
    {
      "inputs": [],
      "name": "accWithdrawnEarnBELI",
      "outputs": [
        {
          "internalType": "uint256",
          "name": "",
          "type": "uint256"
        }
      ],
      "stateMutability": "view",
      "type": "function",
      "constant": true
    },
    {
      "inputs": [
        {
          "internalType": "address",
          "name": "owner",
          "type": "address"
        },
        {
          "internalType": "address",
          "name": "spender",
          "type": "address"
        }
      ],
      "name": "allowance",
      "outputs": [
        {
          "internalType": "uint256",
          "name": "",
          "type": "uint256"
        }
      ],
      "stateMutability": "view",
      "type": "function",
      "constant": true
    },
    {
      "inputs": [
        {
          "internalType": "address",
          "name": "spender",
          "type": "address"
        },
        {
          "internalType": "uint256",
          "name": "amount",
          "type": "uint256"
        }
      ],
      "name": "approve",
      "outputs": [
        {
          "internalType": "bool",
          "name": "",
          "type": "bool"
        }
      ],
      "stateMutability": "nonpayable",
      "type": "function"
    },
    {
      "inputs": [],
      "name": "available",
      "outputs": [
        {
          "internalType": "uint256",
          "name": "",
          "type": "uint256"
        }
      ],
      "stateMutability": "view",
      "type": "function",
      "constant": true
    },
    {
      "inputs": [
        {
          "internalType": "address",
          "name": "account",
          "type": "address"
        }
      ],
      "name": "balanceOf",
      "outputs": [
        {
          "internalType": "uint256",
          "name": "",
          "type": "uint256"
        }
      ],
      "stateMutability": "view",
      "type": "function",
      "constant": true
    },
    {
      "inputs": [],
      "name": "beliFarmAddress",
      "outputs": [
        {
          "internalType": "address",
          "name": "",
          "type": "address"
        }
      ],
      "stateMutability": "view",
      "type": "function",
      "constant": true
    },
    {
      "inputs": [
        {
          "internalType": "address",
          "name": "_userAddress",
          "type": "address"
        },
        {
          "internalType": "uint256",
          "name": "_amount",
          "type": "uint256"
        }
      ],
      "name": "burnReceiptForShare",
      "outputs": [],
      "stateMutability": "nonpayable",
      "type": "function"
    },
    {
      "inputs": [],
      "name": "buyBackAddress",
      "outputs": [
        {
          "internalType": "address",
          "name": "",
          "type": "address"
        }
      ],
      "stateMutability": "view",
      "type": "function",
      "constant": true
    },
    {
      "inputs": [],
      "name": "buyBackRate",
      "outputs": [
        {
          "internalType": "uint256",
          "name": "",
          "type": "uint256"
        }
      ],
      "stateMutability": "view",
      "type": "function",
      "constant": true
    },
    {
      "inputs": [],
      "name": "buyBackRateMax",
      "outputs": [
        {
          "internalType": "uint256",
          "name": "",
          "type": "uint256"
        }
      ],
      "stateMutability": "view",
      "type": "function",
      "constant": true
    },
    {
      "inputs": [],
      "name": "buyBackRateUL",
      "outputs": [
        {
          "internalType": "uint256",
          "name": "",
          "type": "uint256"
        }
      ],
      "stateMutability": "view",
      "type": "function",
      "constant": true
    },
    {
      "inputs": [],
      "name": "controllerFee",
      "outputs": [
        {
          "internalType": "uint256",
          "name": "",
          "type": "uint256"
        }
      ],
      "stateMutability": "view",
      "type": "function",
      "constant": true
    },
    {
      "inputs": [],
      "name": "controllerFeeMax",
      "outputs": [
        {
          "internalType": "uint256",
          "name": "",
          "type": "uint256"
        }
      ],
      "stateMutability": "view",
      "type": "function",
      "constant": true
    },
    {
      "inputs": [],
      "name": "controllerFeeUL",
      "outputs": [
        {
          "internalType": "uint256",
          "name": "",
          "type": "uint256"
        }
      ],
      "stateMutability": "view",
      "type": "function",
      "constant": true
    },
    {
      "inputs": [],
      "name": "convertDustToEarned",
      "outputs": [],
      "stateMutability": "nonpayable",
      "type": "function"
    },
    {
      "inputs": [],
      "name": "decimals",
      "outputs": [
        {
          "internalType": "uint8",
          "name": "",
          "type": "uint8"
        }
      ],
      "stateMutability": "view",
      "type": "function",
      "constant": true
    },
    {
      "inputs": [
        {
          "internalType": "address",
          "name": "spender",
          "type": "address"
        },
        {
          "internalType": "uint256",
          "name": "subtractedValue",
          "type": "uint256"
        }
      ],
      "name": "decreaseAllowance",
      "outputs": [
        {
          "internalType": "bool",
          "name": "",
          "type": "bool"
        }
      ],
      "stateMutability": "nonpayable",
      "type": "function"
    },
    {
      "inputs": [
        {
          "internalType": "address",
          "name": "_userAddress",
          "type": "address"
        },
        {
          "internalType": "uint256",
          "name": "_wantAmt",
          "type": "uint256"
        }
      ],
      "name": "deposit",
      "outputs": [
        {
          "internalType": "uint256",
          "name": "",
          "type": "uint256"
        }
      ],
      "stateMutability": "nonpayable",
      "type": "function"
    },
    {
      "inputs": [],
      "name": "earn",
      "outputs": [],
      "stateMutability": "nonpayable",
      "type": "function"
    },
    {
      "inputs": [],
      "name": "earnToBeliRate",
      "outputs": [
        {
          "internalType": "uint256",
          "name": "",
          "type": "uint256"
        }
      ],
      "stateMutability": "view",
      "type": "function",
      "constant": true
    },
    {
      "inputs": [],
      "name": "earnToBeliRateMax",
      "outputs": [
        {
          "internalType": "uint256",
          "name": "",
          "type": "uint256"
        }
      ],
      "stateMutability": "view",
      "type": "function",
      "constant": true
    },
    {
      "inputs": [],
      "name": "earnToBeliUL",
      "outputs": [
        {
          "internalType": "uint256",
          "name": "",
          "type": "uint256"
        }
      ],
      "stateMutability": "view",
      "type": "function",
      "constant": true
    },
    {
      "inputs": [],
      "name": "earnedAddress",
      "outputs": [
        {
          "internalType": "address",
          "name": "",
          "type": "address"
        }
      ],
      "stateMutability": "view",
      "type": "function",
      "constant": true
    },
    {
      "inputs": [
        {
          "internalType": "uint256",
          "name": "",
          "type": "uint256"
        }
      ],
      "name": "earnedToBELIPath",
      "outputs": [
        {
          "internalType": "address",
          "name": "",
          "type": "address"
        }
      ],
      "stateMutability": "view",
      "type": "function",
      "constant": true
    },
    {
      "inputs": [
        {
          "internalType": "uint256",
          "name": "",
          "type": "uint256"
        }
      ],
      "name": "earnedToToken0Path",
      "outputs": [
        {
          "internalType": "address",
          "name": "",
          "type": "address"
        }
      ],
      "stateMutability": "view",
      "type": "function",
      "constant": true
    },
    {
      "inputs": [
        {
          "internalType": "uint256",
          "name": "",
          "type": "uint256"
        }
      ],
      "name": "earnedToToken1Path",
      "outputs": [
        {
          "internalType": "address",
          "name": "",
          "type": "address"
        }
      ],
      "stateMutability": "view",
      "type": "function",
      "constant": true
    },
    {
      "inputs": [],
      "name": "entranceFeeFactor",
      "outputs": [
        {
          "internalType": "uint256",
          "name": "",
          "type": "uint256"
        }
      ],
      "stateMutability": "view",
      "type": "function",
      "constant": true
    },
    {
      "inputs": [],
      "name": "entranceFeeFactorLL",
      "outputs": [
        {
          "internalType": "uint256",
          "name": "",
          "type": "uint256"
        }
      ],
      "stateMutability": "view",
      "type": "function",
      "constant": true
    },
    {
      "inputs": [],
      "name": "entranceFeeFactorMax",
      "outputs": [
        {
          "internalType": "uint256",
          "name": "",
          "type": "uint256"
        }
      ],
      "stateMutability": "view",
      "type": "function",
      "constant": true
    },
    {
      "inputs": [],
      "name": "farm",
      "outputs": [],
      "stateMutability": "nonpayable",
      "type": "function"
    },
    {
      "inputs": [],
      "name": "farmContractAddress",
      "outputs": [
        {
          "internalType": "address",
          "name": "",
          "type": "address"
        }
      ],
      "stateMutability": "view",
      "type": "function",
      "constant": true
    },
    {
      "inputs": [],
      "name": "getPricePerFullShare",
      "outputs": [
        {
          "internalType": "uint256",
          "name": "",
          "type": "uint256"
        }
      ],
      "stateMutability": "view",
      "type": "function",
      "constant": true
    },
    {
      "inputs": [],
      "name": "govAddress",
      "outputs": [
        {
          "internalType": "address",
          "name": "",
          "type": "address"
        }
      ],
      "stateMutability": "view",
      "type": "function",
      "constant": true
    },
    {
      "inputs": [
        {
          "internalType": "address",
          "name": "_token",
          "type": "address"
        },
        {
          "internalType": "uint256",
          "name": "_amount",
          "type": "uint256"
        },
        {
          "internalType": "address",
          "name": "_to",
          "type": "address"
        }
      ],
      "name": "inCaseTokensGetStuck",
      "outputs": [],
      "stateMutability": "nonpayable",
      "type": "function"
    },
    {
      "inputs": [
        {
          "internalType": "address",
          "name": "spender",
          "type": "address"
        },
        {
          "internalType": "uint256",
          "name": "addedValue",
          "type": "uint256"
        }
      ],
      "name": "increaseAllowance",
      "outputs": [
        {
          "internalType": "bool",
          "name": "",
          "type": "bool"
        }
      ],
      "stateMutability": "nonpayable",
      "type": "function"
    },
    {
      "inputs": [],
      "name": "isAutoComp",
      "outputs": [
        {
          "internalType": "bool",
          "name": "",
          "type": "bool"
        }
      ],
      "stateMutability": "view",
      "type": "function",
      "constant": true
    },
    {
      "inputs": [],
      "name": "isCAKEStaking",
      "outputs": [
        {
          "internalType": "bool",
          "name": "",
          "type": "bool"
        }
      ],
      "stateMutability": "view",
      "type": "function",
      "constant": true
    },
    {
      "inputs": [],
      "name": "isOlympusStaking",
      "outputs": [
        {
          "internalType": "bool",
          "name": "",
          "type": "bool"
        }
      ],
      "stateMutability": "view",
      "type": "function",
      "constant": true
    },
    {
      "inputs": [],
      "name": "isSameAssetDeposit",
      "outputs": [
        {
          "internalType": "bool",
          "name": "",
          "type": "bool"
        }
      ],
      "stateMutability": "view",
      "type": "function",
      "constant": true
    },
    {
      "inputs": [],
      "name": "lastAccEarnBELI",
      "outputs": [
        {
          "internalType": "uint256",
          "name": "",
          "type": "uint256"
        }
      ],
      "stateMutability": "view",
      "type": "function",
      "constant": true
    },
    {
      "inputs": [],
      "name": "lastEarnBlock",
      "outputs": [
        {
          "internalType": "uint256",
          "name": "",
          "type": "uint256"
        }
      ],
      "stateMutability": "view",
      "type": "function",
      "constant": true
    },
    {
      "inputs": [
        {
          "internalType": "address",
          "name": "_userAddress",
          "type": "address"
        }
      ],
      "name": "lockedUntil",
      "outputs": [
        {
          "internalType": "uint256",
          "name": "",
          "type": "uint256"
        }
      ],
      "stateMutability": "view",
      "type": "function",
      "constant": true
    },
    {
      "inputs": [
        {
          "internalType": "address",
          "name": "_userAddress",
          "type": "address"
        },
        {
          "internalType": "uint256",
          "name": "_amount",
          "type": "uint256"
        }
      ],
      "name": "mintShareToReceipt",
      "outputs": [
        {
          "internalType": "uint256",
          "name": "",
          "type": "uint256"
        }
      ],
      "stateMutability": "nonpayable",
      "type": "function"
    },
    {
      "inputs": [],
      "name": "name",
      "outputs": [
        {
          "internalType": "string",
          "name": "",
          "type": "string"
        }
      ],
      "stateMutability": "view",
      "type": "function",
      "constant": true
    },
    {
      "inputs": [],
      "name": "owner",
      "outputs": [
        {
          "internalType": "address",
          "name": "",
          "type": "address"
        }
      ],
      "stateMutability": "view",
      "type": "function",
      "constant": true
    },
    {
      "inputs": [],
      "name": "pause",
      "outputs": [],
      "stateMutability": "nonpayable",
      "type": "function"
    },
    {
      "inputs": [],
      "name": "paused",
      "outputs": [
        {
          "internalType": "bool",
          "name": "",
          "type": "bool"
        }
      ],
      "stateMutability": "view",
      "type": "function",
      "constant": true
    },
    {
      "inputs": [],
      "name": "pid",
      "outputs": [
        {
          "internalType": "uint256",
          "name": "",
          "type": "uint256"
        }
      ],
      "stateMutability": "view",
      "type": "function",
      "constant": true
    },
    {
      "inputs": [],
      "name": "renounceOwnership",
      "outputs": [],
      "stateMutability": "nonpayable",
      "type": "function"
    },
    {
      "inputs": [],
      "name": "rewardsAddress",
      "outputs": [
        {
          "internalType": "address",
          "name": "",
          "type": "address"
        }
      ],
      "stateMutability": "view",
      "type": "function",
      "constant": true
    },
    {
      "inputs": [
        {
          "internalType": "address",
          "name": "_buyBackAddress",
          "type": "address"
        }
      ],
      "name": "setBuyBackAddress",
      "outputs": [],
      "stateMutability": "nonpayable",
      "type": "function"
    },
    {
      "inputs": [
        {
          "internalType": "address",
          "name": "_govAddress",
          "type": "address"
        }
      ],
      "name": "setGov",
      "outputs": [],
      "stateMutability": "nonpayable",
      "type": "function"
    },
    {
      "inputs": [
        {
          "internalType": "address",
          "name": "_rewardsAddress",
          "type": "address"
        }
      ],
      "name": "setRewardsAddress",
      "outputs": [],
      "stateMutability": "nonpayable",
      "type": "function"
    },
    {
      "inputs": [
        {
          "internalType": "uint256",
          "name": "_entranceFeeFactor",
          "type": "uint256"
        },
        {
          "internalType": "uint256",
          "name": "_withdrawFeeFactor",
          "type": "uint256"
        },
        {
          "internalType": "uint256",
          "name": "_controllerFee",
          "type": "uint256"
        },
        {
          "internalType": "uint256",
          "name": "_buyBackRate",
          "type": "uint256"
        },
        {
          "internalType": "uint256",
          "name": "_slippageFactor",
          "type": "uint256"
        },
        {
          "internalType": "uint256",
          "name": "_earnToBeli",
          "type": "uint256"
        }
      ],
      "name": "setSettings",
      "outputs": [],
      "stateMutability": "nonpayable",
      "type": "function"
    },
    {
      "inputs": [
        {
          "internalType": "address",
          "name": "_uniRouterAddress",
          "type": "address"
        }
      ],
      "name": "setUniRouterAddress",
      "outputs": [],
      "stateMutability": "nonpayable",
      "type": "function"
    },
    {
      "inputs": [],
      "name": "sharesTotal",
      "outputs": [
        {
          "internalType": "uint256",
          "name": "",
          "type": "uint256"
        }
      ],
      "stateMutability": "view",
      "type": "function",
      "constant": true
    },
    {
      "inputs": [],
      "name": "slippageFactor",
      "outputs": [
        {
          "internalType": "uint256",
          "name": "",
          "type": "uint256"
        }
      ],
      "stateMutability": "view",
      "type": "function",
      "constant": true
    },
    {
      "inputs": [],
      "name": "slippageFactorUL",
      "outputs": [
        {
          "internalType": "uint256",
          "name": "",
          "type": "uint256"
        }
      ],
      "stateMutability": "view",
      "type": "function",
      "constant": true
    },
    {
      "inputs": [],
      "name": "symbol",
      "outputs": [
        {
          "internalType": "string",
          "name": "",
          "type": "string"
        }
      ],
      "stateMutability": "view",
      "type": "function",
      "constant": true
    },
    {
      "inputs": [],
      "name": "token0Address",
      "outputs": [
        {
          "internalType": "address",
          "name": "",
          "type": "address"
        }
      ],
      "stateMutability": "view",
      "type": "function",
      "constant": true
    },
    {
      "inputs": [
        {
          "internalType": "uint256",
          "name": "",
          "type": "uint256"
        }
      ],
      "name": "token0ToEarnedPath",
      "outputs": [
        {
          "internalType": "address",
          "name": "",
          "type": "address"
        }
      ],
      "stateMutability": "view",
      "type": "function",
      "constant": true
    },
    {
      "inputs": [],
      "name": "token1Address",
      "outputs": [
        {
          "internalType": "address",
          "name": "",
          "type": "address"
        }
      ],
      "stateMutability": "view",
      "type": "function",
      "constant": true
    },
    {
      "inputs": [
        {
          "internalType": "uint256",
          "name": "",
          "type": "uint256"
        }
      ],
      "name": "token1ToEarnedPath",
      "outputs": [
        {
          "internalType": "address",
          "name": "",
          "type": "address"
        }
      ],
      "stateMutability": "view",
      "type": "function",
      "constant": true
    },
    {
      "inputs": [],
      "name": "totalSupply",
      "outputs": [
        {
          "internalType": "uint256",
          "name": "",
          "type": "uint256"
        }
      ],
      "stateMutability": "view",
      "type": "function",
      "constant": true
    },
    {
      "inputs": [
        {
          "internalType": "address",
          "name": "recipient",
          "type": "address"
        },
        {
          "internalType": "uint256",
          "name": "amount",
          "type": "uint256"
        }
      ],
      "name": "transfer",
      "outputs": [
        {
          "internalType": "bool",
          "name": "",
          "type": "bool"
        }
      ],
      "stateMutability": "nonpayable",
      "type": "function"
    },
    {
      "inputs": [
        {
          "internalType": "address",
          "name": "_userAddress",
          "type": "address"
        },
        {
          "internalType": "uint256",
          "name": "_amount",
          "type": "uint256"
        }
      ],
      "name": "transferConvertedEarn",
      "outputs": [
        {
          "internalType": "uint256",
          "name": "",
          "type": "uint256"
        }
      ],
      "stateMutability": "nonpayable",
      "type": "function"
    },
    {
      "inputs": [
        {
          "internalType": "address",
          "name": "sender",
          "type": "address"
        },
        {
          "internalType": "address",
          "name": "recipient",
          "type": "address"
        },
        {
          "internalType": "uint256",
          "name": "amount",
          "type": "uint256"
        }
      ],
      "name": "transferFrom",
      "outputs": [
        {
          "internalType": "bool",
          "name": "",
          "type": "bool"
        }
      ],
      "stateMutability": "nonpayable",
      "type": "function"
    },
    {
      "inputs": [
        {
          "internalType": "address",
          "name": "newOwner",
          "type": "address"
        }
      ],
      "name": "transferOwnership",
      "outputs": [],
      "stateMutability": "nonpayable",
      "type": "function"
    },
    {
      "inputs": [],
      "name": "uniRouterAddress",
      "outputs": [
        {
          "internalType": "address",
          "name": "",
          "type": "address"
        }
      ],
      "stateMutability": "view",
      "type": "function",
      "constant": true
    },
    {
      "inputs": [],
      "name": "unpause",
      "outputs": [],
      "stateMutability": "nonpayable",
      "type": "function"
    },
    {
      "inputs": [],
      "name": "wantAddress",
      "outputs": [
        {
          "internalType": "address",
          "name": "",
          "type": "address"
        }
      ],
      "stateMutability": "view",
      "type": "function",
      "constant": true
    },
    {
      "inputs": [],
      "name": "wantLockedTotal",
      "outputs": [
        {
          "internalType": "uint256",
          "name": "",
          "type": "uint256"
        }
      ],
      "stateMutability": "view",
      "type": "function",
      "constant": true
    },
    {
      "inputs": [],
      "name": "wbnbAddress",
      "outputs": [
        {
          "internalType": "address",
          "name": "",
          "type": "address"
        }
      ],
      "stateMutability": "view",
      "type": "function",
      "constant": true
    },
    {
      "inputs": [
        {
          "internalType": "address",
          "name": "_userAddress",
          "type": "address"
        },
        {
          "internalType": "uint256",
          "name": "_wantAmt",
          "type": "uint256"
        }
      ],
      "name": "withdraw",
      "outputs": [
        {
          "internalType": "uint256",
          "name": "",
          "type": "uint256"
        }
      ],
      "stateMutability": "nonpayable",
      "type": "function"
    },
    {
      "inputs": [
        {
          "internalType": "address",
          "name": "_userAddress",
          "type": "address"
        },
        {
          "internalType": "uint256",
          "name": "_wantAmt",
          "type": "uint256"
        }
      ],
      "name": "withdrawEarly",
      "outputs": [
        {
          "internalType": "uint256",
          "name": "",
          "type": "uint256"
        }
      ],
      "stateMutability": "nonpayable",
      "type": "function"
    },
    {
      "inputs": [],
      "name": "withdrawFeeFactor",
      "outputs": [
        {
          "internalType": "uint256",
          "name": "",
          "type": "uint256"
        }
      ],
      "stateMutability": "view",
      "type": "function",
      "constant": true
    },
    {
      "inputs": [],
      "name": "withdrawFeeFactorLL",
      "outputs": [
        {
          "internalType": "uint256",
          "name": "",
          "type": "uint256"
        }
      ],
      "stateMutability": "view",
      "type": "function",
      "constant": true
    },
    {
      "inputs": [],
      "name": "withdrawFeeFactorMax",
      "outputs": [
        {
          "internalType": "uint256",
          "name": "",
          "type": "uint256"
        }
      ],
      "stateMutability": "view",
      "type": "function",
      "constant": true
    },
    {
      "inputs": [],
      "name": "wrapBNB",
      "outputs": [],
      "stateMutability": "nonpayable",
      "type": "function"
    }
  ],
  "bytecode": "0x608060405260006013819055601481905560158190556113886016819055601755611f40601855601980546001600160a01b03191661dead179055612706601b55612710601c556103b6601d55601e819055601f81905560208190556021553480156200006b57600080fd5b5060405162004b4738038062004b478339810160408190526200008e91620009d3565b875160208901516000620000a1620004e8565b600080546001600160a01b0319166001600160a01b03831690811782556040519293509160008051602062004b27833981519152908290a350600180556002805460ff191690558151620000fd906006906020850190620005bd565b50805162000113906007906020840190620005bd565b50506008805460ff1916601217905550865187906000906200013157fe5b6020026020010151600f60006101000a8154816001600160a01b0302191690836001600160a01b03160217905550866001815181106200016d57fe5b6020026020010151601260006101000a8154816001600160a01b0302191690836001600160a01b0316021790555086600281518110620001a957fe5b6020026020010151601060006101000a8154816001600160a01b0302191690836001600160a01b0316021790555086600381518110620001e557fe5b6020026020010151601160006101000a8154816001600160a01b0302191690836001600160a01b03160217905550866004815181106200022157fe5b6020026020010151600a60006101000a8154816001600160a01b0302191690836001600160a01b03160217905550866005815181106200025d57fe5b6020026020010151600b60006101000a8154816001600160a01b0302191690836001600160a01b03160217905550866006815181106200029957fe5b6020026020010151600c60006101000a8154816001600160a01b0302191690836001600160a01b0316021790555086600781518110620002d557fe5b6020026020010151600d60006101000a8154816001600160a01b0302191690836001600160a01b03160217905550866008815181106200031157fe5b6020908102919091010151600880546009898155600160281b600160c81b0319909116650100000000006001600160a01b03909416939093029290921761ff001916610100881515021762ff0000191662010000871515021763ff0000001916630100000086151502179055875188919081106200038b57fe5b602090810291909101810151600e80546001600160a01b0319166001600160a01b0390921691909117905582518051620003ca92602292019062000642565b506020808301518051620003e392602392019062000642565b5060408201518051620003ff9160249160209091019062000642565b50606082015180516200041b9160259160209091019062000642565b5060808201518051620004379160269160209091019062000642565b50805160165586518790600a9081106200044d57fe5b6020026020010151601a60006101000a8154816001600160a01b0302191690836001600160a01b03160217905550806020015160178190555086600b815181106200049457fe5b6020908102919091010151601980546001600160a01b0319166001600160a01b039283161790556040820151601b556060820151601c55601054620004da9116620004ec565b505050505050505062000b5b565b3390565b620004f6620004e8565b6001600160a01b031662000509620005ae565b6001600160a01b0316146200053b5760405162461bcd60e51b8152600401620005329062000aff565b60405180910390fd5b6001600160a01b038116620005645760405162461bcd60e51b8152600401620005329062000ab9565b600080546040516001600160a01b038085169392169160008051602062004b2783398151915291a3600080546001600160a01b0319166001600160a01b0392909216919091179055565b6000546001600160a01b031690565b828054600181600116156101000203166002900490600052602060002090601f016020900481019282601f106200060057805160ff191683800117855562000630565b8280016001018555821562000630579182015b828111156200063057825182559160200191906001019062000613565b506200063e929150620006a8565b5090565b8280548282559060005260206000209081019282156200069a579160200282015b828111156200069a57825182546001600160a01b0319166001600160a01b0390911617825560209092019160019091019062000663565b506200063e929150620006bf565b5b808211156200063e5760008155600101620006a9565b5b808211156200063e5780546001600160a01b0319168155600101620006c0565b600082601f830112620006f1578081fd5b81516001600160401b0381111562000707578182fd5b60208082026200071982820162000b34565b838152935081840185830182870184018810156200073657600080fd5b60009250825b858110156200076f5781516001600160a01b03811681146200075c578485fd5b835291840191908401906001016200073c565b50505050505092915050565b805180151581146200078c57600080fd5b92915050565b600082601f830112620007a3578081fd5b81516001600160401b03811115620007b9578182fd5b6020620007cf601f8301601f1916820162000b34565b92508183528481838601011115620007e657600080fd5b60005b8281101562000806578481018201518482018301528101620007e9565b82811115620008185760008284860101525b50505092915050565b600060a0828403121562000833578081fd5b6200083f60a062000b34565b82519091506001600160401b03808211156200085a57600080fd5b6200086885838601620006e0565b835260208401519150808211156200087f57600080fd5b6200088d85838601620006e0565b60208401526040840151915080821115620008a757600080fd5b620008b585838601620006e0565b60408401526060840151915080821115620008cf57600080fd5b620008dd85838601620006e0565b60608401526080840151915080821115620008f757600080fd5b506200090684828501620006e0565b60808301525092915050565b60006040828403121562000924578081fd5b62000930604062000b34565b82519091506001600160401b03808211156200094b57600080fd5b620009598583860162000792565b835260208401519150808211156200097057600080fd5b506200097f8482850162000792565b60208301525092915050565b6000608082840312156200099d578081fd5b620009a9608062000b34565b90508151815260208201516020820152604082015160408201526060820151606082015292915050565b600080600080600080600080610160898b031215620009f0578384fd5b88516001600160401b038082111562000a07578586fd5b62000a158c838d0162000912565b995060208b015191508082111562000a2b578586fd5b62000a398c838d01620006e0565b985060408b0151975062000a518c60608d016200077b565b965062000a628c60808d016200077b565b955062000a738c60a08d016200077b565b945060c08b015191508082111562000a89578384fd5b5062000a988b828c0162000821565b92505062000aaa8a60e08b016200098b565b90509295985092959890939650565b60208082526026908201527f4f776e61626c653a206e6577206f776e657220697320746865207a65726f206160408201526564647265737360d01b606082015260800190565b6020808252818101527f4f776e61626c653a2063616c6c6572206973206e6f7420746865206f776e6572604082015260600190565b6040518181016001600160401b038111828210171562000b5357600080fd5b604052919050565b613fbc8062000b6b6000396000f3fe608060405234801561001057600080fd5b50600436106104955760003560e01c8063846d9e1711610262578063c11c2e9211610151578063e5dd455a116100ce578063f106845411610092578063f106845414610813578063f2dc46481461081b578063f2fde38b14610823578063f3fef3a314610836578063f6bd477414610849578063ffbd3b1f1461085c57610495565b8063e5dd455a146107e8578063e7198474146107f0578063e7a03679146107f8578063e9e443df14610800578063ee50dc341461052557610495565b8063cfad57a211610115578063cfad57a2146107aa578063d389800f146107bd578063d5b09163146107c5578063d7cb416f146107cd578063dd62ed3e146107d557610495565b8063c11c2e9214610761578063c19cbd4814610769578063c302a4d01461077c578063c8e3d18b14610784578063cc917f4e1461079757610495565b80639fc33a9f116101df578063b3545c01116101a3578063b3545c01146104c3578063b74cd24214610736578063b77050e71461073e578063bd5f119514610751578063c0973eed1461075957610495565b80639fc33a9f146106ed578063a457c2d7146106f5578063a9059cbb14610708578063ad740f8c1461071b578063ae7d7d811461072e57610495565b80639331aace116102265780639331aace146106af57806395d89b41146106b757806396e9aff8146106bf5780639a246643146106d25780639bc289f1146106da57610495565b8063846d9e171461068457806385f02dd61461068c578063866b2018146104c35780638906758d146106945780638da5cb5b146106a757610495565b806346008a071161038957806367057b6c11610306578063715018a6116102ca578063715018a61461065457806377c7b8fc1461065c578063783478ad146106645780637ff36fbe1461066c57806383fa0ef9146106745780638456cb591461067c57610495565b806367057b6c1461052557806367206d401461061e57806368f5416214610631578063693a090b1461063957806370a082311461064157610495565b80635c975abb1161034d5780635c975abb146105e05780635da79d63146105e857806360662c42146105fb57806363fe3e3a1461060e578063655bee371461061657610495565b806346008a07146105b557806347e7ef24146105bd57806348a0d754146105d05780634d9f7bb2146105255780635bc27d4b146105d857610495565b806323b872dd1161041757806339509351116103db57806339509351146105825780633f4ba83a1461059557806342da4eb31461059d57806344a3955e146105a557806345c20fc2146105ad57610495565b806323b872dd1461053d5780632717eff3146105255780632f1ce2c514610550578063313ce5671461056357806336e9332d1461057857610495565b80630fa4e01e1161045e5780630fa4e01e146105155780631334903f1461051d5780631672d7b514610525578063178a8d071461052d57806318160ddd1461053557610495565b80627a2ae31461049a578063061c7d48146104c357806306fdde03146104d85780630772efb4146104ed578063095ea7b3146104f5575b600080fd5b6104ad6104a836600461351b565b610864565b6040516104ba9190613619565b60405180910390f35b6104cb61088b565b6040516104ba9190613dc7565b6104e0610891565b6040516104ba91906136d8565b6104cb610928565b6105086105033660046133fb565b61092e565b6040516104ba91906136cd565b6104cb61094c565b6104cb610952565b6104cb610958565b6104cb61095e565b6104cb610964565b61050861054b3660046133bb565b61096a565b6104cb61055e3660046133fb565b6109f2565b61056b610b68565b6040516104ba9190613e5b565b610580610b71565b005b6105086105903660046133fb565b610ba7565b610580610bf5565b6104cb610c29565b6104cb610c2f565b610508610c35565b6104ad610c46565b6104cb6105cb3660046133fb565b610c55565b6104cb610eac565b6104ad610f32565b610508610f41565b6105806105f636600461336c565b610f4a565b6104ad61060936600461351b565b610fca565b6104ad610fd7565b6104ad610fe6565b61058061062c366004613425565b610ff5565b6104cb611094565b6104ad61109a565b6104cb61064f36600461336c565b6110a9565b6105806110c8565b6104cb611151565b6104ad61118e565b6104ad61119d565b6104cb6111ac565b6105806111b2565b6105086111e4565b6104cb6111f2565b6105806106a236600461336c565b6111f8565b6104ad61126d565b6104cb61127c565b6104e0611282565b6104ad6106cd36600461351b565b6112e3565b6105086112f0565b6104cb6106e836600461336c565b6112ff565b6104ad611305565b6105086107033660046133fb565b61131b565b6105086107163660046133fb565b611383565b61058061072936600461336c565b611397565b6104cb61140c565b6104cb611412565b6104ad61074c36600461351b565b611418565b6104cb611425565b6104ad61142b565b61058061143a565b6104cb6107773660046133fb565b611761565b6104cb6117df565b6104ad61079236600461351b565b6117e5565b6105806107a5366004613578565b6117f2565b6105806107b836600461336c565b611972565b6105806119e7565b610580611f31565b6104ad611f63565b6104cb6107e3366004613387565b611f72565b610508611f9d565b6104ad611fad565b6104ad611fbc565b61058061080e3660046133fb565b611fcb565b6104cb612014565b6104cb61201a565b61058061083136600461336c565b612020565b6104cb6108443660046133fb565b6120e0565b6104cb6108573660046133fb565b6122c1565b6104cb61232b565b6026818154811061087157fe5b6000918252602090912001546001600160a01b0316905081565b61138881565b60068054604080516020601f600260001961010060018816150201909516949094049384018190048102820181019092528281526060939092909183018282801561091d5780601f106108f25761010080835404028352916020019161091d565b820191906000526020600020905b81548152906001019060200180831161090057829003601f168201915b505050505090505b90565b60205481565b600061094261093b612331565b8484612335565b5060015b92915050565b60135481565b601b5481565b61271081565b60175481565b60055490565b60006109778484846123e9565b6109e784610983612331565b6109e285604051806060016040528060288152602001613f3a602891396001600160a01b038a166000908152600460205260408120906109c1612331565b6001600160a01b0316815260208101919091526040016000205491906124fe565b612335565b5060015b9392505050565b60006109fc612331565b6001600160a01b0316610a0d61126d565b6001600160a01b031614610a3c5760405162461bcd60e51b8152600401610a3390613b5c565b60405180910390fd5b6011546040516370a0823160e01b81526000916001600160a01b0316906370a0823190610a6d903090600401613619565b60206040518083038186803b158015610a8557600080fd5b505afa158015610a99573d6000803e3d6000fd5b505050506040513d601f19601f82011682018060405250810190610abd9190613533565b905080831115610acb578092505b60115460405163a9059cbb60e01b81526001600160a01b039091169063a9059cbb90610afd90879087906004016136b4565b602060405180830381600087803b158015610b1757600080fd5b505af1158015610b2b573d6000803e3d6000fd5b505050506040513d601f19601f82011682018060405250810190610b4f91906134fb565b50602154610b5d908461252a565b602155509092915050565b60085460ff1690565b60026001541415610b945760405162461bcd60e51b8152600401610a3390613d03565b6002600155610ba161254f565b60018055565b6000610942610bb4612331565b846109e28560046000610bc5612331565b6001600160a01b03908116825260208083019390935260409182016000908120918c16815292529020549061252a565b6012546001600160a01b03163314610c1f5760405162461bcd60e51b8152600401610a33906138ff565b610c2761263d565b565b60145481565b60155481565b600854640100000000900460ff1681565b6012546001600160a01b031681565b6000610c5f612331565b6001600160a01b0316610c7061126d565b6001600160a01b031614610c965760405162461bcd60e51b8152600401610a3390613b5c565b60026001541415610cb95760405162461bcd60e51b8152600401610a3390613d03565b6002600155610cc6610f41565b15610ce35760405162461bcd60e51b8152600401610a3390613a3f565b600a546040516370a0823160e01b81526000916001600160a01b0316906370a0823190610d14903090600401613619565b60206040518083038186803b158015610d2c57600080fd5b505afa158015610d40573d6000803e3d6000fd5b505050506040513d601f19601f82011682018060405250810190610d649190613533565b600a54909150610d7f906001600160a01b03163330866126ab565b600a546040516370a0823160e01b81526000916001600160a01b0316906370a0823190610db0903090600401613619565b60206040518083038186803b158015610dc857600080fd5b505afa158015610ddc573d6000803e3d6000fd5b505050506040513d601f19601f82011682018060405250810190610e009190613533565b9050610e0c8183612709565b601454909450849015801590610e2457506000601554115b15610e5f57610e5c612710610e56601454610e56601b54610e506015548c61273190919063ffffffff16565b90612731565b9061276b565b90505b601554610e6c908261252a565b6015556008546301000000900460ff1615610e8e57610e8961254f565b610e9f565b601454610e9b908661252a565b6014555b6001805595945050505050565b600a546040516370a0823160e01b81526000916001600160a01b0316906370a0823190610edd903090600401613619565b60206040518083038186803b158015610ef557600080fd5b505afa158015610f09573d6000803e3d6000fd5b505050506040513d601f19601f82011682018060405250810190610f2d9190613533565b905090565b6010546001600160a01b031681565b60025460ff1690565b6012546001600160a01b03163314610f745760405162461bcd60e51b8152600401610a33906138ff565b600e80546001600160a01b0319166001600160a01b0383161790556040517f384f1dcb79da4071839c471d7c81884a43fb946a527f3661fdee5904adc8f65790610fbf908390613619565b60405180910390a150565b6022818154811061087157fe5b600f546001600160a01b031681565b6011546001600160a01b031681565b6012546001600160a01b0316331461101f5760405162461bcd60e51b8152600401610a33906138ff565b600d546001600160a01b038481169116141561104d5760405162461bcd60e51b8152600401610a339061374e565b600a546001600160a01b038481169116141561107b5760405162461bcd60e51b8152600401610a339061374e565b61108f6001600160a01b038416828461279d565b505050565b601c5481565b600e546001600160a01b031681565b6001600160a01b0381166000908152600360205260409020545b919050565b6110d0612331565b6001600160a01b03166110e161126d565b6001600160a01b0316146111075760405162461bcd60e51b8152600401610a3390613b5c565b600080546040516001600160a01b03909116907f8be0079c531659141344cd1fd0a4f28419497f9722a3daafe3b4186f6b6457e0908390a3600080546001600160a01b0319169055565b600061115b610964565b61116e5750670de0b6b3a7640000610925565b610f2d611179610964565b601454610e5690670de0b6b3a7640000612731565b6019546001600160a01b031681565b600b546001600160a01b031681565b601e5481565b6012546001600160a01b031633146111dc5760405162461bcd60e51b8152600401610a33906138ff565b610c276127bc565b600854610100900460ff1681565b60165481565b6012546001600160a01b031633146112225760405162461bcd60e51b8152600401610a33906138ff565b601a80546001600160a01b0319166001600160a01b0383161790556040517fa69f1931be99336e049905baa11d21ed44204d7686e46b4344404d80d47c298890610fbf908390613619565b6000546001600160a01b031690565b60215481565b60078054604080516020601f600260001961010060018816150201909516949094049384018190048102820181019092528281526060939092909183018282801561091d5780601f106108f25761010080835404028352916020019161091d565b6024818154811061087157fe5b60085462010000900460ff1681565b50600090565b600854600160281b90046001600160a01b031681565b6000610942611328612331565b846109e285604051806060016040528060258152602001613f626025913960046000611352612331565b6001600160a01b03908116825260208083019390935260409182016000908120918d168152925290205491906124fe565b6000610942611390612331565b84846123e9565b6012546001600160a01b031633146113c15760405162461bcd60e51b8152600401610a33906138ff565b601980546001600160a01b0319166001600160a01b0383161790556040517f200c92aaea275302bf641e37f7a5dda63f445f08f4fc74a5cde7fd643f609e0990610fbf908390613619565b601f5481565b6103e381565b6025818154811061087157fe5b60185481565b601a546001600160a01b031681565b611442610f41565b1561145f5760405162461bcd60e51b8152600401610a3390613a3f565b6008546301000000900460ff166114885760405162461bcd60e51b8152600401610a3390613a90565b600854610100900460ff16156114b05760405162461bcd60e51b8152600401610a3390613c17565b600b546040516370a0823160e01b81526000916001600160a01b0316906370a08231906114e1903090600401613619565b60206040518083038186803b1580156114f957600080fd5b505afa15801561150d573d6000803e3d6000fd5b505050506040513d601f19601f820116820180604052508101906115319190613533565b600d54600b549192506001600160a01b039182169116148015906115555750600081115b1561160a57600e54600b54611577916001600160a01b03918216911683612817565b61160a600e60009054906101000a90046001600160a01b031682601d5460258054806020026020016040519081016040528092919081815260200182805480156115ea57602002820191906000526020600020905b81546001600160a01b031681526001909101906020018083116115cc575b5050505050306116056102584261252a90919063ffffffff16565b6128c2565b600c546040516370a0823160e01b81526000916001600160a01b0316906370a082319061163b903090600401613619565b60206040518083038186803b15801561165357600080fd5b505afa158015611667573d6000803e3d6000fd5b505050506040513d601f19601f8201168201806040525081019061168b9190613533565b600d54600c549192506001600160a01b039182169116148015906116af5750600081115b1561175d57600e54600c546116d1916001600160a01b03918216911683612817565b61175d600e60009054906101000a90046001600160a01b031682601d5460268054806020026020016040519081016040528092919081815260200182805480156115ea576020028201919060005260206000209081546001600160a01b031681526001909101906020018083116115cc575050505050306116056102584261252a90919063ffffffff16565b5050565b600061176b612331565b6001600160a01b031661177c61126d565b6001600160a01b0316146117a25760405162461bcd60e51b8152600401610a3390613b5c565b600260015414156117c55760405162461bcd60e51b8152600401610a3390613d03565b60026001556117d483836120e0565b600180559392505050565b6126de81565b6023818154811061087157fe5b6012546001600160a01b0316331461181c5760405162461bcd60e51b8152600401610a33906138ff565b6126de86101561183e5760405162461bcd60e51b8152600401610a339061379b565b6127108611156118605760405162461bcd60e51b8152600401610a3390613a08565b601b8690556113888510156118875760405162461bcd60e51b8152600401610a3390613809565b6127108511156118a95760405162461bcd60e51b8152600401610a33906137d2565b601c8590556113888411156118d05760405162461bcd60e51b8152600401610a3390613ab5565b60168490556113888311156118f75760405162461bcd60e51b8152600401610a3390613b2d565b60178390556103e382111561191e5760405162461bcd60e51b8152600401610a339061391d565b601d82905560188190556040517fcb4ecc62ba7efb533c814d48b7dc1c8f06063d93bf32c3730c1ec47011e8747a9061196290889088908890889087908990613e33565b60405180910390a1505050505050565b6012546001600160a01b0316331461199c5760405162461bcd60e51b8152600401610a33906138ff565b601280546001600160a01b0319166001600160a01b0383161790556040517f91a8c1cc2d4a3bb60738481947a00cbb9899c822916694cf8bb1d68172fdcd5490610fbf908390613619565b60026001541415611a0a5760405162461bcd60e51b8152600401610a3390613d03565b6002600155611a17610f41565b15611a345760405162461bcd60e51b8152600401610a3390613a3f565b6008546301000000900460ff16611a5d5760405162461bcd60e51b8152600401610a3390613a90565b6012546001600160a01b03163314611a875760405162461bcd60e51b8152600401610a33906138ff565b611a9160006129fd565b600f54600d546001600160a01b0390811691161415611ab257611ab2612ae8565b600d546040516370a0823160e01b81526000916001600160a01b0316906370a0823190611ae3903090600401613619565b60206040518083038186803b158015611afb57600080fd5b505afa158015611b0f573d6000803e3d6000fd5b505050506040513d601f19601f82011682018060405250810190611b339190613533565b9050611b3e81612b5b565b9050611b4981612bba565b60185490915015611b6057611b5d81612ce1565b90505b600854610100900460ff1680611b7e575060085462010000900460ff165b15611b955743601355611b8f61254f565b50610ba1565b600e54600d54611bb3916001600160a01b0391821691166000612ed7565b600e54600d54611bd0916001600160a01b03918216911683612817565b600b54600d546001600160a01b03908116911614611c7557600e54611c75906001600160a01b0316611c0383600261276b565b601d5460238054806020026020016040519081016040528092919081815260200182805480156115ea576020028201919060005260206000209081546001600160a01b031681526001909101906020018083116115cc575050505050306116056102584261252a90919063ffffffff16565b600c54600d546001600160a01b03908116911614611d1a57600e54611d1a906001600160a01b0316611ca883600261276b565b601d5460248054806020026020016040519081016040528092919081815260200182805480156115ea576020028201919060005260206000209081546001600160a01b031681526001909101906020018083116115cc575050505050306116056102584261252a90919063ffffffff16565b600b546040516370a0823160e01b81526000916001600160a01b0316906370a0823190611d4b903090600401613619565b60206040518083038186803b158015611d6357600080fd5b505afa158015611d77573d6000803e3d6000fd5b505050506040513d601f19601f82011682018060405250810190611d9b9190613533565b600c546040516370a0823160e01b81529192506000916001600160a01b03909116906370a0823190611dd1903090600401613619565b60206040518083038186803b158015611de957600080fd5b505afa158015611dfd573d6000803e3d6000fd5b505050506040513d601f19601f82011682018060405250810190611e219190613533565b9050600082118015611e335750600081115b15611f1c57600e54600b54611e55916001600160a01b03918216911684612817565b600e54600c54611e72916001600160a01b03918216911683612817565b600e54600b54600c546001600160a01b039283169263e8e337009281169116858560008030611ea34261025861252a565b6040518963ffffffff1660e01b8152600401611ec698979695949392919061366b565b606060405180830381600087803b158015611ee057600080fd5b505af1158015611ef4573d6000803e3d6000fd5b505050506040513d601f19601f82011682018060405250810190611f18919061354b565b5050505b43601355611f2861254f565b50505060018055565b6012546001600160a01b03163314611f5b5760405162461bcd60e51b8152600401610a33906138ff565b610c27612ae8565b600c546001600160a01b031681565b6001600160a01b03918216600090815260046020908152604080832093909416825291909152205490565b6008546301000000900460ff1681565b600d546001600160a01b031681565b600a546001600160a01b031681565b611fd3612331565b6001600160a01b0316611fe461126d565b6001600160a01b03161461200a5760405162461bcd60e51b8152600401610a3390613b5c565b61175d8282612f9a565b60095481565b61251c81565b612028612331565b6001600160a01b031661203961126d565b6001600160a01b03161461205f5760405162461bcd60e51b8152600401610a3390613b5c565b6001600160a01b0381166120855760405162461bcd60e51b8152600401610a3390613840565b600080546040516001600160a01b03808516939216917f8be0079c531659141344cd1fd0a4f28419497f9722a3daafe3b4186f6b6457e091a3600080546001600160a01b0319166001600160a01b0392909216919091179055565b60006120ea612331565b6001600160a01b03166120fb61126d565b6001600160a01b0316146121215760405162461bcd60e51b8152600401610a3390613b5c565b600260015414156121445760405162461bcd60e51b8152600401610a3390613d03565b6002600155816121665760405162461bcd60e51b8152600401610a3390613a69565b6000612183601454610e566015548661273190919063ffffffff16565b905060155481111561219457506015545b6015546121a19082612709565b601555601c5461271011156121ce576121cb612710610e56601c548661273190919063ffffffff16565b92505b6008546301000000900460ff16156121e9576121e9836129fd565b600a546040516370a0823160e01b81526000916001600160a01b0316906370a082319061221a903090600401613619565b60206040518083038186803b15801561223257600080fd5b505afa158015612246573d6000803e3d6000fd5b505050506040513d601f19601f8201168201806040525081019061226a9190613533565b905080841115612278578093505b8360145410156122885760145493505b6014546122959085612709565b601455601054600a546122b5916001600160a01b0391821691168661279d565b50600180559392505050565b60006122cb612331565b6001600160a01b03166122dc61126d565b6001600160a01b0316146123025760405162461bcd60e51b8152600401610a3390613b5c565b600061231f601454610e566015548661273190919063ffffffff16565b90506109eb848261307c565b601d5481565b3390565b6001600160a01b03831661235b5760405162461bcd60e51b8152600401610a3390613c3e565b6001600160a01b0382166123815760405162461bcd60e51b8152600401610a3390613886565b6001600160a01b0380841660008181526004602090815260408083209487168084529490915290819020849055517f8c5be1e5ebec7d5bd14f71427d1e84f3dd0314c0f7b2291e5b200ac8c7c3b925906123dc908590613dc7565b60405180910390a3505050565b6001600160a01b03831661240f5760405162461bcd60e51b8152600401610a3390613bd2565b6001600160a01b0382166124355760405162461bcd60e51b8152600401610a339061370b565b61244083838361108f565b61247d81604051806060016040528060268152602001613f14602691396001600160a01b03861660009081526003602052604090205491906124fe565b6001600160a01b0380851660009081526003602052604080822093909355908416815220546124ac908261252a565b6001600160a01b0380841660008181526003602052604090819020939093559151908516907fddf252ad1be2c89b69c2b068fc378daa952ba7f163c4a11628f55a4df523b3ef906123dc908590613dc7565b600081848411156125225760405162461bcd60e51b8152600401610a3391906136d8565b505050900390565b6000828201838110156109eb5760405162461bcd60e51b8152600401610a33906138c8565b6008546301000000900460ff166125785760405162461bcd60e51b8152600401610a3390613a90565b600a546040516370a0823160e01b81526000916001600160a01b0316906370a08231906125a9903090600401613619565b60206040518083038186803b1580156125c157600080fd5b505afa1580156125d5573d6000803e3d6000fd5b505050506040513d601f19601f820116820180604052508101906125f99190613533565b601454909150612609908261252a565b601455600854600a54612631916001600160a01b0391821691600160281b9091041683612817565b61263a81613130565b50565b612645610f41565b6126615760405162461bcd60e51b8152600401610a339061376d565b6002805460ff191690557f5db9ee0a495bf2e6ff9c91a7834c1ba4fdd244a5e8aa4e537bd38aeae4b073aa612694612331565b6040516126a19190613619565b60405180910390a1565b612703846323b872dd60e01b8585856040516024016126cc93929190613647565b60408051601f198184030181529190526020810180516001600160e01b03166001600160e01b0319909316929092179091526131af565b50505050565b60008282111561272b5760405162461bcd60e51b8152600401610a3390613954565b50900390565b60008261274057506000610946565b8282028284828161274d57fe5b04146109eb5760405162461bcd60e51b8152600401610a3390613aec565b600080821161278c5760405162461bcd60e51b8152600401610a33906139d1565b81838161279557fe5b049392505050565b61108f8363a9059cbb60e01b84846040516024016126cc9291906136b4565b6127c4610f41565b156127e15760405162461bcd60e51b8152600401610a3390613a3f565b6002805460ff191660011790557f62e78cea01bee320cd4e420270b5ea74000d11b0c9f74754ebdbfc544b05a258612694612331565b60006128a182856001600160a01b031663dd62ed3e30876040518363ffffffff1660e01b815260040161284b92919061362d565b60206040518083038186803b15801561286357600080fd5b505afa158015612877573d6000803e3d6000fd5b505050506040513d601f19601f8201168201806040525081019061289b9190613533565b9061252a565b90506127038463095ea7b360e01b85846040516024016126cc9291906136b4565b60405163d06ca61f60e01b81526060906001600160a01b0388169063d06ca61f906128f39089908890600401613dd0565b60006040518083038186803b15801561290b57600080fd5b505afa15801561291f573d6000803e3d6000fd5b505050506040513d6000823e601f3d908101601f191682016040526129479190810190613466565b90506000816129616001845161270990919063ffffffff16565b8151811061296b57fe5b60200260200101519050876001600160a01b0316635c11d7958861299e6103e8610e568b8761273190919063ffffffff16565b8888886040518663ffffffff1660e01b81526004016129c1959493929190613df7565b600060405180830381600087803b1580156129db57600080fd5b505af11580156129ef573d6000803e3d6000fd5b505050505050505050505050565b600854610100900460ff1615612a7a57600854604051631058d28160e01b8152600160281b9091046001600160a01b031690631058d28190612a43908490600401613dc7565b600060405180830381600087803b158015612a5d57600080fd5b505af1158015612a71573d6000803e3d6000fd5b5050505061263a565b600854600954604051630441a3e760e41b8152600160281b9092046001600160a01b03169163441a3e7091612ab3918590600401613de9565b600060405180830381600087803b158015612acd57600080fd5b505af1158015612ae1573d6000803e3d6000fd5b5050505050565b47801561263a57600f60009054906101000a90046001600160a01b03166001600160a01b031663d0e30db0826040518263ffffffff1660e01b81526004016000604051808303818588803b158015612b3f57600080fd5b505af1158015612b53573d6000803e3d6000fd5b505050505050565b60008115612bb65760165415612bb6576000612b88612710610e566016548661273190919063ffffffff16565b601a54600d54919250612ba8916001600160a01b0390811691168361279d565b612bb28382612709565b9250505b5090565b60008060175411612bcc5750806110c3565b6000612be9612710610e566017548661273190919063ffffffff16565b601154600d549192506001600160a01b0391821691161415612c2757601954600d54612c22916001600160a01b0391821691168361279d565b612cd7565b600e54600d54612c44916001600160a01b03918216911683612817565b612cd7600e60009054906101000a90046001600160a01b031682601d546022805480602002602001604051908101604052809291908181526020018280548015612cb757602002820191906000526020600020905b81546001600160a01b03168152600190910190602001808311612c99575b50506019546001600160a01b03169250611605915042905061025861252a565b6109eb8382612709565b600080612cff612710610e566018548661273190919063ffffffff16565b600e54600d54919250612d20916001600160a01b0390811691166000612ed7565b600e54600d54612d3d916001600160a01b03918216911683612817565b612dc9600e60009054906101000a90046001600160a01b031682601d5460228054806020026020016040519081016040528092919081815260200182805480156115ea576020028201919060005260206000209081546001600160a01b031681526001909101906020018083116115cc575050505050306116056102584261252a90919063ffffffff16565b6011546040516370a0823160e01b81526000916001600160a01b0316906370a0823190612dfa903090600401613619565b60206040518083038186803b158015612e1257600080fd5b505afa158015612e26573d6000803e3d6000fd5b505050506040513d601f19601f82011682018060405250810190612e4a9190613533565b90506000612e636021548361252a90919063ffffffff16565b9050602054811115612e755760208190555b6000612e8e601f5460205461270990919063ffffffff16565b9050612eba612eb1601554610e5664e8d4a510008561273190919063ffffffff16565b601e549061252a565b601e55602054601f55612ecd8685612709565b9695505050505050565b801580612f5f5750604051636eb1769f60e11b81526001600160a01b0384169063dd62ed3e90612f0d903090869060040161362d565b60206040518083038186803b158015612f2557600080fd5b505afa158015612f39573d6000803e3d6000fd5b505050506040513d601f19601f82011682018060405250810190612f5d9190613533565b155b612f7b5760405162461bcd60e51b8152600401610a3390613d3a565b61108f8363095ea7b360e01b84846040516024016126cc9291906136b4565b6001600160a01b038216612fc05760405162461bcd60e51b8152600401610a3390613b91565b612fcc8260008361108f565b61300981604051806060016040528060228152602001613ef2602291396001600160a01b03851660009081526003602052604090205491906124fe565b6001600160a01b03831660009081526003602052604090205560055461302f9082612709565b6005556040516000906001600160a01b038416907fddf252ad1be2c89b69c2b068fc378daa952ba7f163c4a11628f55a4df523b3ef90613070908590613dc7565b60405180910390a35050565b6001600160a01b0382166130a25760405162461bcd60e51b8152600401610a3390613d90565b6130ae6000838361108f565b6005546130bb908261252a565b6005556001600160a01b0382166000908152600360205260409020546130e1908261252a565b6001600160a01b0383166000818152600360205260408082209390935591519091907fddf252ad1be2c89b69c2b068fc378daa952ba7f163c4a11628f55a4df523b3ef90613070908590613dc7565b600854610100900460ff1615613176576008546040516341441d3b60e01b8152600160281b9091046001600160a01b0316906341441d3b90612a43908490600401613dc7565b600854600954604051631c57762b60e31b8152600160281b9092046001600160a01b03169163e2bbb15891612ab3918590600401613de9565b6060613204826040518060400160405280602081526020017f5361666545524332303a206c6f772d6c6576656c2063616c6c206661696c6564815250856001600160a01b031661323e9092919063ffffffff16565b80519091501561108f578080602001905181019061322291906134fb565b61108f5760405162461bcd60e51b8152600401610a3390613cb9565b606061324d8484600085613255565b949350505050565b6060824710156132775760405162461bcd60e51b8152600401610a339061398b565b61328085613316565b61329c5760405162461bcd60e51b8152600401610a3390613c82565b60006060866001600160a01b031685876040516132b991906135fd565b60006040518083038185875af1925050503d80600081146132f6576040519150601f19603f3d011682016040523d82523d6000602084013e6132fb565b606091505b509150915061330b82828661331c565b979650505050505050565b3b151590565b6060831561332b5750816109eb565b82511561333b5782518084602001fd5b8160405162461bcd60e51b8152600401610a3391906136d8565b80356001600160a01b038116811461094657600080fd5b60006020828403121561337d578081fd5b6109eb8383613355565b60008060408385031215613399578081fd5b6133a38484613355565b91506133b28460208501613355565b90509250929050565b6000806000606084860312156133cf578081fd5b83356133da81613edc565b925060208401356133ea81613edc565b929592945050506040919091013590565b6000806040838503121561340d578182fd5b6134178484613355565b946020939093013593505050565b600080600060608486031215613439578283fd5b833561344481613edc565b925060208401359150604084013561345b81613edc565b809150509250925092565b60006020808385031215613478578182fd5b825167ffffffffffffffff81111561348e578283fd5b8301601f8101851361349e578283fd5b80516134b16134ac82613e90565b613e69565b81815283810190838501858402850186018910156134cd578687fd5b8694505b838510156134ef5780518352600194909401939185019185016134d1565b50979650505050505050565b60006020828403121561350c578081fd5b815180151581146109eb578182fd5b60006020828403121561352c578081fd5b5035919050565b600060208284031215613544578081fd5b5051919050565b60008060006060848603121561355f578283fd5b8351925060208401519150604084015190509250925092565b60008060008060008060c08789031215613590578182fd5b505084359660208601359650604086013595606081013595506080810135945060a0013592509050565b6000815180845260208085019450808401835b838110156135f25781516001600160a01b0316875295820195908201906001016135cd565b509495945050505050565b6000825161360f818460208701613eb0565b9190910192915050565b6001600160a01b0391909116815260200190565b6001600160a01b0392831681529116602082015260400190565b6001600160a01b039384168152919092166020820152604081019190915260600190565b6001600160a01b039889168152968816602088015260408701959095526060860193909352608085019190915260a084015290921660c082015260e08101919091526101000190565b6001600160a01b03929092168252602082015260400190565b901515815260200190565b60006020825282518060208401526136f7816040850160208701613eb0565b601f01601f19169190910160400192915050565b60208082526023908201527f45524332303a207472616e7366657220746f20746865207a65726f206164647260408201526265737360e81b606082015260800190565b602080825260059082015264217361666560d81b604082015260600190565b60208082526014908201527314185d5cd8589b194e881b9bdd081c185d5cd95960621b604082015260600190565b6020808252601a908201527f5f656e7472616e6365466565466163746f7220746f6f206c6f77000000000000604082015260600190565b6020808252601b908201527f5f7769746864726177466565466163746f7220746f6f20686967680000000000604082015260600190565b6020808252601a908201527f5f7769746864726177466565466163746f7220746f6f206c6f77000000000000604082015260600190565b60208082526026908201527f4f776e61626c653a206e6577206f776e657220697320746865207a65726f206160408201526564647265737360d01b606082015260800190565b60208082526022908201527f45524332303a20617070726f766520746f20746865207a65726f206164647265604082015261737360f01b606082015260800190565b6020808252601b908201527f536166654d6174683a206164646974696f6e206f766572666c6f770000000000604082015260600190565b60208082526004908201526310b3b7bb60e11b604082015260600190565b60208082526018908201527f5f736c697070616765466163746f7220746f6f20686967680000000000000000604082015260600190565b6020808252601e908201527f536166654d6174683a207375627472616374696f6e206f766572666c6f770000604082015260600190565b60208082526026908201527f416464726573733a20696e73756666696369656e742062616c616e636520666f6040820152651c8818d85b1b60d21b606082015260800190565b6020808252601a908201527f536166654d6174683a206469766973696f6e206279207a65726f000000000000604082015260600190565b6020808252601b908201527f5f656e7472616e6365466565466163746f7220746f6f20686967680000000000604082015260600190565b60208082526010908201526f14185d5cd8589b194e881c185d5cd95960821b604082015260600190565b6020808252600d908201526c05f77616e74416d74203c3d203609c1b604082015260600190565b6020808252600b908201526a02169734175746f436f6d760ac1b604082015260600190565b60208082526017908201527f5f636f6e74726f6c6c657246656520746f6f2068696768000000000000000000604082015260600190565b60208082526021908201527f536166654d6174683a206d756c7469706c69636174696f6e206f766572666c6f6040820152607760f81b606082015260800190565b6020808252601590820152740bec4eaf284c2c6d6a4c2e8ca40e8dede40d0d2ced605b1b604082015260600190565b6020808252818101527f4f776e61626c653a2063616c6c6572206973206e6f7420746865206f776e6572604082015260600190565b60208082526021908201527f45524332303a206275726e2066726f6d20746865207a65726f206164647265736040820152607360f81b606082015260800190565b60208082526025908201527f45524332303a207472616e736665722066726f6d20746865207a65726f206164604082015264647265737360d81b606082015260800190565b6020808252600d908201526c697343414b455374616b696e6760981b604082015260600190565b60208082526024908201527f45524332303a20617070726f76652066726f6d20746865207a65726f206164646040820152637265737360e01b606082015260800190565b6020808252601d908201527f416464726573733a2063616c6c20746f206e6f6e2d636f6e7472616374000000604082015260600190565b6020808252602a908201527f5361666545524332303a204552433230206f7065726174696f6e20646964206e6040820152691bdd081cdd58d8d9595960b21b606082015260800190565b6020808252601f908201527f5265656e7472616e637947756172643a207265656e7472616e742063616c6c00604082015260600190565b60208082526036908201527f5361666545524332303a20617070726f76652066726f6d206e6f6e2d7a65726f60408201527520746f206e6f6e2d7a65726f20616c6c6f77616e636560501b606082015260800190565b6020808252601f908201527f45524332303a206d696e7420746f20746865207a65726f206164647265737300604082015260600190565b90815260200190565b60008382526040602083015261324d60408301846135ba565b918252602082015260400190565b600086825285602083015260a06040830152613e1660a08301866135ba565b6001600160a01b0394909416606083015250608001529392505050565b958652602086019490945260408501929092526060840152608083015260a082015260c00190565b60ff91909116815260200190565b60405181810167ffffffffffffffff81118282101715613e8857600080fd5b604052919050565b600067ffffffffffffffff821115613ea6578081fd5b5060209081020190565b60005b83811015613ecb578181015183820152602001613eb3565b838111156127035750506000910152565b6001600160a01b038116811461263a57600080fdfe45524332303a206275726e20616d6f756e7420657863656564732062616c616e636545524332303a207472616e7366657220616d6f756e7420657863656564732062616c616e636545524332303a207472616e7366657220616d6f756e74206578636565647320616c6c6f77616e636545524332303a2064656372656173656420616c6c6f77616e63652062656c6f77207a65726fa264697066735822122066828ce965fe5b5b0c9708cdcbb5c2bbfb04254fa7225245a55cf867a3c8143464736f6c634300060c00338be0079c531659141344cd1fd0a4f28419497f9722a3daafe3b4186f6b6457e0",
  "immutableReferences": {},
  "source": "// SPDX-License-Identifier: MIT\npragma solidity 0.6.12;\npragma experimental ABIEncoderV2;\n\nimport \"./Vault.sol\";\n\ncontract VaultPancakeswap is Vault {\n    constructor(\n        ErcConfig memory _erc,\n        address[] memory _addresses,\n        uint256 _pid,\n        bool _isCAKEStaking,\n        bool _isSameAssetDeposit,\n        bool _isAutoComp,\n        ConversionPath memory _conversionPath,\n        FeeConfig memory _fees\n    ) public ERC20(_erc.name, _erc.symbol) {\n        wbnbAddress = _addresses[0];\n        govAddress = _addresses[1];\n        beliFarmAddress = _addresses[2];\n        BELIAddress = _addresses[3];\n\n        wantAddress = _addresses[4];\n        token0Address = _addresses[5];\n        token1Address = _addresses[6];\n        earnedAddress = _addresses[7];\n\n        farmContractAddress = _addresses[8];\n        pid = _pid;\n        isCAKEStaking = _isCAKEStaking;\n        isSameAssetDeposit = _isSameAssetDeposit;\n        isAutoComp = _isAutoComp;\n\n        uniRouterAddress = _addresses[9];\n        earnedToBELIPath = _conversionPath.earnedToBELIPath;\n        earnedToToken0Path = _conversionPath.earnedToToken0Path;\n        earnedToToken1Path = _conversionPath.earnedToToken1Path;\n        token0ToEarnedPath = _conversionPath.token0ToEarnedPath;\n        token1ToEarnedPath = _conversionPath.token1ToEarnedPath;\n\n        controllerFee = _fees.controllerFee;\n        rewardsAddress = _addresses[10];\n        buyBackRate = _fees.buyBackRate;\n        buyBackAddress = _addresses[11];\n        entranceFeeFactor = _fees.entranceFee;\n        withdrawFeeFactor = _fees.withdrawFee;\n\n        transferOwnership(beliFarmAddress);\n    }\n}\n",
  "sourcePath": "/workspaces/beli-farm/src/contracts/Vault_Pancakeswap.sol",
  "compiler": {
    "name": "solc",
    "version": "0.6.12+commit.27d51765.Emscripten.clang"
  },
  "schemaVersion": "3.4.3",
  "updatedAt": "2022-03-02T01:52:06.045Z",
  "networkType": "ethereum",
  "devdoc": {
    "kind": "dev",
    "methods": {
      "allowance(address,address)": {
        "details": "See {IERC20-allowance}."
      },
      "approve(address,uint256)": {
        "details": "See {IERC20-approve}. Requirements: - `spender` cannot be the zero address."
      },
      "balanceOf(address)": {
        "details": "See {IERC20-balanceOf}."
      },
      "decimals()": {
        "details": "Returns the number of decimals used to get its user representation. For example, if `decimals` equals `2`, a balance of `505` tokens should be displayed to a user as `5,05` (`505 / 10 ** 2`). Tokens usually opt for a value of 18, imitating the relationship between Ether and Wei. This is the value {ERC20} uses, unless {_setupDecimals} is called. NOTE: This information is only used for _display_ purposes: it in no way affects any of the arithmetic of the contract, including {IERC20-balanceOf} and {IERC20-transfer}."
      },
      "decreaseAllowance(address,uint256)": {
        "details": "Atomically decreases the allowance granted to `spender` by the caller. This is an alternative to {approve} that can be used as a mitigation for problems described in {IERC20-approve}. Emits an {Approval} event indicating the updated allowance. Requirements: - `spender` cannot be the zero address. - `spender` must have allowance for the caller of at least `subtractedValue`."
      },
      "increaseAllowance(address,uint256)": {
        "details": "Atomically increases the allowance granted to `spender` by the caller. This is an alternative to {approve} that can be used as a mitigation for problems described in {IERC20-approve}. Emits an {Approval} event indicating the updated allowance. Requirements: - `spender` cannot be the zero address."
      },
      "name()": {
        "details": "Returns the name of the token."
      },
      "owner()": {
        "details": "Returns the address of the current owner."
      },
      "paused()": {
        "details": "Returns true if the contract is paused, and false otherwise."
      },
      "renounceOwnership()": {
        "details": "Leaves the contract without owner. It will not be possible to call `onlyOwner` functions anymore. Can only be called by the current owner. NOTE: Renouncing ownership will leave the contract without an owner, thereby removing any functionality that is only available to the owner."
      },
      "symbol()": {
        "details": "Returns the symbol of the token, usually a shorter version of the name."
      },
      "totalSupply()": {
        "details": "See {IERC20-totalSupply}."
      },
      "transfer(address,uint256)": {
        "details": "See {IERC20-transfer}. Requirements: - `recipient` cannot be the zero address. - the caller must have a balance of at least `amount`."
      },
      "transferFrom(address,address,uint256)": {
        "details": "See {IERC20-transferFrom}. Emits an {Approval} event indicating the updated allowance. This is not required by the EIP. See the note at the beginning of {ERC20}. Requirements: - `sender` and `recipient` cannot be the zero address. - `sender` must have a balance of at least `amount`. - the caller must have allowance for ``sender``'s tokens of at least `amount`."
      },
      "transferOwnership(address)": {
        "details": "Transfers ownership of the contract to a new account (`newOwner`). Can only be called by the current owner."
      }
    },
    "version": 1
  },
  "userdoc": {
    "kind": "user",
    "methods": {},
    "version": 1
  }
}