{
  "contractName": "TokenLocker",
  "abi": [
    {
      "anonymous": false,
      "inputs": [
        {
          "indexed": true,
          "internalType": "uint256",
          "name": "id",
          "type": "uint256"
        },
        {
          "indexed": false,
          "internalType": "uint256",
          "name": "extendedDuration",
          "type": "uint256"
        }
      ],
      "name": "LockExtended",
      "type": "event"
    },
    {
      "anonymous": false,
      "inputs": [
        {
          "indexed": true,
          "internalType": "uint256",
          "name": "id",
          "type": "uint256"
        },
        {
          "indexed": true,
          "internalType": "address",
          "name": "tokenAddress",
          "type": "address"
        },
        {
          "indexed": true,
          "internalType": "address",
          "name": "withdrawalAddress",
          "type": "address"
        },
        {
          "indexed": false,
          "internalType": "uint256",
          "name": "amount",
          "type": "uint256"
        }
      ],
      "name": "LockInitiated",
      "type": "event"
    },
    {
      "anonymous": false,
      "inputs": [
        {
          "indexed": true,
          "internalType": "uint256",
          "name": "id",
          "type": "uint256"
        },
        {
          "indexed": false,
          "internalType": "address",
          "name": "withdrawalAddress",
          "type": "address"
        },
        {
          "indexed": false,
          "internalType": "uint256",
          "name": "amount",
          "type": "uint256"
        }
      ],
      "name": "Withdrawal",
      "type": "event"
    },
    {
      "inputs": [],
      "name": "depositId",
      "outputs": [
        {
          "internalType": "uint256",
          "name": "",
          "type": "uint256"
        }
      ],
      "stateMutability": "view",
      "type": "function",
      "constant": true
    },
    {
      "inputs": [
        {
          "internalType": "address",
          "name": "",
          "type": "address"
        },
        {
          "internalType": "uint256",
          "name": "",
          "type": "uint256"
        }
      ],
      "name": "depositsByWithdrawalAddress",
      "outputs": [
        {
          "internalType": "uint256",
          "name": "",
          "type": "uint256"
        }
      ],
      "stateMutability": "view",
      "type": "function",
      "constant": true
    },
    {
      "inputs": [
        {
          "internalType": "uint256",
          "name": "",
          "type": "uint256"
        }
      ],
      "name": "lockedToken",
      "outputs": [
        {
          "internalType": "address",
          "name": "tokenAddress",
          "type": "address"
        },
        {
          "internalType": "address",
          "name": "withdrawalAddress",
          "type": "address"
        },
        {
          "internalType": "uint256",
          "name": "tokenAmount",
          "type": "uint256"
        },
        {
          "internalType": "uint256",
          "name": "unlockTime",
          "type": "uint256"
        },
        {
          "internalType": "uint256",
          "name": "lastWithdrawTime",
          "type": "uint256"
        },
        {
          "internalType": "uint256",
          "name": "withdrawnAmount",
          "type": "uint256"
        }
      ],
      "stateMutability": "view",
      "type": "function",
      "constant": true
    },
    {
      "inputs": [
        {
          "internalType": "address",
          "name": "",
          "type": "address"
        },
        {
          "internalType": "address",
          "name": "",
          "type": "address"
        }
      ],
      "name": "walletTokenBalance",
      "outputs": [
        {
          "internalType": "uint256",
          "name": "",
          "type": "uint256"
        }
      ],
      "stateMutability": "view",
      "type": "function",
      "constant": true
    },
    {
      "inputs": [
        {
          "internalType": "address",
          "name": "_tokenAddress",
          "type": "address"
        },
        {
          "internalType": "address",
          "name": "_withdrawalAddress",
          "type": "address"
        },
        {
          "internalType": "uint256",
          "name": "_amount",
          "type": "uint256"
        },
        {
          "internalType": "uint256",
          "name": "_unlockTime",
          "type": "uint256"
        }
      ],
      "name": "lockTokens",
      "outputs": [
        {
          "internalType": "uint256",
          "name": "_id",
          "type": "uint256"
        }
      ],
      "stateMutability": "nonpayable",
      "type": "function"
    },
    {
      "inputs": [
        {
          "internalType": "uint256",
          "name": "_id",
          "type": "uint256"
        },
        {
          "internalType": "uint256",
          "name": "_additionalTime",
          "type": "uint256"
        }
      ],
      "name": "extendLockDuration",
      "outputs": [],
      "stateMutability": "nonpayable",
      "type": "function"
    },
    {
      "inputs": [
        {
          "internalType": "uint256",
          "name": "_id",
          "type": "uint256"
        }
      ],
      "name": "tokenAvailableToWithdraw",
      "outputs": [
        {
          "internalType": "uint256",
          "name": "",
          "type": "uint256"
        }
      ],
      "stateMutability": "view",
      "type": "function",
      "constant": true
    },
    {
      "inputs": [
        {
          "internalType": "uint256",
          "name": "_id",
          "type": "uint256"
        }
      ],
      "name": "withdrawTokens",
      "outputs": [],
      "stateMutability": "nonpayable",
      "type": "function"
    },
    {
      "inputs": [
        {
          "internalType": "address",
          "name": "_tokenAddress",
          "type": "address"
        }
      ],
      "name": "totalTokenBalance",
      "outputs": [
        {
          "internalType": "uint256",
          "name": "",
          "type": "uint256"
        }
      ],
      "stateMutability": "view",
      "type": "function",
      "constant": true
    }
  ],
  "bytecode": "0x608060405234801561001057600080fd5b50611370806100206000396000f3fe608060405234801561001057600080fd5b50600436106100935760003560e01c80637d533c1e116100665780637d533c1e146101355780639852099c14610171578063b9e7df1c14610179578063bb941cff146101a7578063f54659921461020357610093565b806302dd747c14610098578063315a095d146100c7578063530680d8146100e657806376704de014610112575b600080fd5b6100b5600480360360208110156100ae57600080fd5b5035610229565b60408051918252519081900360200190f35b6100e4600480360360208110156100dd57600080fd5b5035610377565b005b6100b5600480360360408110156100fc57600080fd5b506001600160a01b0381351690602001356106fa565b6100e46004803603604081101561012857600080fd5b5080359060200135610728565b6100b56004803603608081101561014b57600080fd5b506001600160a01b03813581169160208101359091169060408101359060600135610843565b6100b5610ca3565b6100b56004803603604081101561018f57600080fd5b506001600160a01b0381358116916020013516610ca9565b6101c4600480360360208110156101bd57600080fd5b5035610cc6565b604080516001600160a01b039788168152959096166020860152848601939093526060840191909152608083015260a082015290519081900360c00190f35b6100b56004803603602081101561021957600080fd5b50356001600160a01b0316610d0a565b6000818152600260205260408120600381015442101561024d576000915050610372565b600481015462278d00906102fe576000610274836003015442610d8b90919063ffffffff16565b9050600061028d60016102878486610ded565b90610e54565b9050600c81116102e05760006102bb600c6102b5876002015485610eb590919063ffffffff16565b90610ded565b90506102d4856005015482610d8b90919063ffffffff16565b95505050505050610372565b600584015460028501546102f391610d8b565b945050505050610372565b6000610317836004015442610d8b90919063ffffffff16565b905060006103258284610ded565b9050600c81116102e057600061034d600c6102b5876002015485610eb590919063ffffffff16565b90508061036257600095505050505050610372565b60058501546102d4908290610d8b565b919050565b6000818152600260205260409020600301544210156103d2576040805162461bcd60e51b81526020600482015260126024820152711d1bdad95b881cdd1a5b1b081b1bd8dad95960721b604482015290519081900360640190fd5b6000818152600260205260409020600101546001600160a01b03163314610440576040805162461bcd60e51b815260206004820152601d60248201527f63616e6e6f74207769746864726177206f74686572732720746f6b656e000000604482015290519081900360640190fd5b6000818152600260205260408120546001600160a01b03169061046283610229565b9050600081116104b9576040805162461bcd60e51b815260206004820152601760248201527f6e6f7420616c6c6f77656420746f207769746864726177000000000000000000604482015290519081900360640190fd5b6001600160a01b03821660009081526003602090815260408083203384529091529020546104e79082610d8b565b6001600160a01b03831660009081526003602090815260408083203384528252808320939093558582526002905220600501546105249082610e54565b600084815260026020819052604090912060058101839055426004820155015461054d91610d8b565b6106985760008381526002602090815260408083206001908101546001600160a01b031680855292528220545b80831015610694576001600160a01b03821660009081526001602052604090208054879190859081106105a957fe5b906000526020600020015414156106895760008681526002602090815260408083206001908101546001600160a01b031684529091528120805460001984019081106105f157fe5b60009182526020808320909101548983526002825260408084206001908101546001600160a01b031685529092529120805491925082918690811061063257fe5b60009182526020808320909101929092558881526002825260408082206001908101546001600160a01b031683529092522080548061066d57fe5b6001900381819060005260206000200160009055905550610694565b60019092019161057a565b5050505b6000838152600260205260409020546106bb906001600160a01b03163383610f0e565b6040805133815260208101839052815185927f37e8063b72a944a76de602f32b82fd8c2a1c6f99564c727ffaf913c7762cd420928290030190a2505050565b6001602052816000526040600020818154811061071357fe5b90600052602060002001600091509150505481565b600081116107675760405162461bcd60e51b81526004018080602001828103825260248152602001806112ed6024913960400191505060405180910390fd5b6000828152600260205260409020600101546001600160a01b031633146107bf5760405162461bcd60e51b81526004018080602001828103825260228152602001806112cb6022913960400191505060405180910390fd5b600082815260026020526040902060030154421061080e5760405162461bcd60e51b815260040180806020018281038252602981526020018061125a6029913960400191505060405180910390fd5b60008281526002602052604090206003015461082a9082610e54565b6000928352600260205260409092206003019190915550565b6000808311610899576040805162461bcd60e51b815260206004820152601d60248201527f616d6f756e74206d757374206265206d6f7265207468616e207a65726f000000604482015290519081900360640190fd5b4282116108d75760405162461bcd60e51b81526004018080602001828103825260278152602001806112836027913960400191505060405180910390fd5b6000856001600160a01b03166370a08231306040518263ffffffff1660e01b815260040180826001600160a01b0316815260200191505060206040518083038186803b15801561092657600080fd5b505afa15801561093a573d6000803e3d6000fd5b505050506040513d602081101561095057600080fd5b8101908080519060200190929190505050905060008081546001019190508190559150856002600084815260200190815260200160002060000160006101000a8154816001600160a01b0302191690836001600160a01b03160217905550846002600084815260200190815260200160002060010160006101000a8154816001600160a01b0302191690836001600160a01b03160217905550826002600084815260200190815260200160002060030181905550600060026000848152602001908152602001600020600401819055506000600260008481526020019081526020016000206005018190555060016000866001600160a01b03166001600160a01b03168152602001908152602001600020829080600181540180825580915050600190039060005260206000200160009091909190915055856001600160a01b03166323b872dd3330876040518463ffffffff1660e01b815260040180846001600160a01b03168152602001836001600160a01b031681526020018281526020019350505050602060405180830381600087803b158015610af057600080fd5b505af1158015610b04573d6000803e3d6000fd5b505050506040513d6020811015610b1a57600080fd5b5050604080516370a0823160e01b815230600482015290516000916001600160a01b038916916370a0823191602480820192602092909190829003018186803b158015610b6657600080fd5b505afa158015610b7a573d6000803e3d6000fd5b505050506040513d6020811015610b9057600080fd5b50519050818111610be8576040805162461bcd60e51b815260206004820152601860248201527f7472616e73666572206d61792068617665206661696c65640000000000000000604482015290519081900360640190fd5b6000610bf48284610d8b565b60008581526002602081815260408084209092018490556001600160a01b03808d16845260038252828420908c1684529052902054909150610c369082610e54565b6001600160a01b03808a166000818152600360209081526040808320948d168084529482529182902094909455805185815290519293919288927f8ed997398a10e53b04a950e6af85289a975740265e38f2b02e8d54595fc6ee02928290030190a4505050949350505050565b60005481565b600360209081526000928352604080842090915290825290205481565b60026020819052600091825260409091208054600182015492820154600383015460048401546005909401546001600160a01b039384169590931693919290919086565b6000816001600160a01b03166370a08231306040518263ffffffff1660e01b815260040180826001600160a01b0316815260200191505060206040518083038186803b158015610d5957600080fd5b505afa158015610d6d573d6000803e3d6000fd5b505050506040513d6020811015610d8357600080fd5b505192915050565b600082821115610de2576040805162461bcd60e51b815260206004820152601e60248201527f536166654d6174683a207375627472616374696f6e206f766572666c6f770000604482015290519081900360640190fd5b508082035b92915050565b6000808211610e43576040805162461bcd60e51b815260206004820152601a60248201527f536166654d6174683a206469766973696f6e206279207a65726f000000000000604482015290519081900360640190fd5b818381610e4c57fe5b049392505050565b600082820183811015610eae576040805162461bcd60e51b815260206004820152601b60248201527f536166654d6174683a206164646974696f6e206f766572666c6f770000000000604482015290519081900360640190fd5b9392505050565b600082610ec457506000610de7565b82820282848281610ed157fe5b0414610eae5760405162461bcd60e51b81526004018080602001828103825260218152602001806112aa6021913960400191505060405180910390fd5b604080516001600160a01b038416602482015260448082018490528251808303909101815260649091019091526020810180516001600160e01b031663a9059cbb60e01b179052610f60908490610f65565b505050565b6060610fba826040518060400160405280602081526020017f5361666545524332303a206c6f772d6c6576656c2063616c6c206661696c6564815250856001600160a01b03166110169092919063ffffffff16565b805190915015610f6057808060200190516020811015610fd957600080fd5b5051610f605760405162461bcd60e51b815260040180806020018281038252602a815260200180611311602a913960400191505060405180910390fd5b6060611025848460008561102d565b949350505050565b60608247101561106e5760405162461bcd60e51b81526004018080602001828103825260268152602001806112346026913960400191505060405180910390fd5b61107785611189565b6110c8576040805162461bcd60e51b815260206004820152601d60248201527f416464726573733a2063616c6c20746f206e6f6e2d636f6e7472616374000000604482015290519081900360640190fd5b60006060866001600160a01b031685876040518082805190602001908083835b602083106111075780518252601f1990920191602091820191016110e8565b6001836020036101000a03801982511681845116808217855250505050505090500191505060006040518083038185875af1925050503d8060008114611169576040519150601f19603f3d011682016040523d82523d6000602084013e61116e565b606091505b509150915061117e82828661118f565b979650505050505050565b3b151590565b6060831561119e575081610eae565b8251156111ae5782518084602001fd5b8160405162461bcd60e51b81526004018080602001828103825283818151815260200191508051906020019080838360005b838110156111f85781810151838201526020016111e0565b50505050905090810190601f1680156112255780820380516001836020036101000a031916815260200191505b509250505060405180910390fdfe416464726573733a20696e73756666696369656e742062616c616e636520666f722063616c6c6d75737420626520657874656e646564206f6e6c79206265666f72652072656c656173652074696d65756e6c6f636b2074696d65206d75737420626520616865616420696e2074686520667574757265536166654d6174683a206d756c7469706c69636174696f6e206f766572666c6f776f6e6c79207769746864726177616c20616464726573732063616e20657874656e6461646474696f6e616c54696d65206d757374206265206d6f7265207468616e207a65726f5361666545524332303a204552433230206f7065726174696f6e20646964206e6f742073756363656564a2646970667358221220adf8c7969b565cce008c500772eb2fc378e2e70fd0a58568be4447585c77133864736f6c634300060c0033",
  "immutableReferences": {},
  "source": "// SPDX-License-Identifier: MIT\npragma solidity 0.6.12;\n\nimport \"@openzeppelin/contracts/token/ERC20/IERC20.sol\";\nimport \"@openzeppelin/contracts/token/ERC20/SafeERC20.sol\";\nimport \"@openzeppelin/contracts/math/SafeMath.sol\";\n\ncontract TokenLocker {\n    using SafeMath for uint256;\n    using SafeERC20 for IERC20;\n\n    struct LockedInfo {\n        address tokenAddress;\n        address withdrawalAddress;\n        uint256 tokenAmount; // token amount initially locked\n        uint256 unlockTime; // block.timestamp specified for the release time\n        uint256 lastWithdrawTime;\n        uint256 withdrawnAmount; // accumulative amount of token withdrawn\n    }\n\n    uint256 public depositId;\n    mapping (address => uint256[]) public depositsByWithdrawalAddress;\n    mapping (uint256 => LockedInfo) public lockedToken;\n    mapping (address => mapping(address => uint256)) public walletTokenBalance; // token -> withdrawalAddress -> amount\n\n    event LockInitiated(uint256 indexed id, address indexed tokenAddress, address indexed withdrawalAddress, uint256 amount);\n    event Withdrawal(uint256 indexed id, address withdrawalAddress, uint256 amount);\n    event LockExtended(uint256 indexed id, uint256 extendedDuration);\n\n    /**\n     * @dev lock tokens\n    */\n    function lockTokens(\n        address _tokenAddress,\n        address _withdrawalAddress,\n        uint256 _amount,\n        uint256 _unlockTime\n    ) public returns (uint256 _id) {\n        require(_amount > 0, \"amount must be more than zero\");\n        require(_unlockTime > block.timestamp, \"unlock time must be ahead in the future\");\n\n        uint256 preBalance = IERC20(_tokenAddress).balanceOf(address(this));\n\n        _id = ++depositId;\n        lockedToken[_id].tokenAddress = _tokenAddress;\n        lockedToken[_id].withdrawalAddress = _withdrawalAddress;\n        lockedToken[_id].unlockTime = _unlockTime;\n        lockedToken[_id].lastWithdrawTime = 0;\n        lockedToken[_id].withdrawnAmount = 0;\n\n        depositsByWithdrawalAddress[_withdrawalAddress].push(_id);\n\n        // transfer tokens into contract\n        IERC20(_tokenAddress).transferFrom(msg.sender, address(this), _amount);\n        uint256 postBalance = IERC20(_tokenAddress).balanceOf(address(this));\n\n        // handling if the token has burn on transfer mechanism\n        require(postBalance > preBalance, \"transfer may have failed\");\n        uint256 addedAmount = postBalance.sub(preBalance);\n        lockedToken[_id].tokenAmount = addedAmount;\n        //update balance in address\n        walletTokenBalance[_tokenAddress][_withdrawalAddress] = walletTokenBalance[_tokenAddress][_withdrawalAddress].add(addedAmount);\n        emit LockInitiated(_id, _tokenAddress, _withdrawalAddress, addedAmount);\n    }\n\n    /**\n     * @dev set the unlock time _additionalTime in the future relative to the stored unlockTime\n     */\n    function extendLockDuration(uint256 _id, uint256 _additionalTime) public {\n        require(_additionalTime > 0, \"addtionalTime must be more than zero\");\n        require(msg.sender == lockedToken[_id].withdrawalAddress, \"only withdrawal address can extend\");\n        require(lockedToken[_id].unlockTime > block.timestamp, \"must be extended only before release time\");\n\n        // set new unlock time\n        lockedToken[_id].unlockTime = lockedToken[_id].unlockTime.add(_additionalTime);\n    }\n\n    /**\n     * @dev view the amount of token can be withdrawn from the specified id\n     * everyone can see and verify the amount\n     */\n    function tokenAvailableToWithdraw(uint256 _id) public view returns (uint256) {\n        LockedInfo storage lockedInfo = lockedToken[_id];\n        if (lockedInfo.unlockTime > block.timestamp) {\n            return 0;\n        }\n        uint256 oneMonthSec = 30 * 24 * 60 * 60;\n\n        // if never withdraw\n        if (lockedInfo.lastWithdrawTime == 0) {\n            uint256 timeDiff = uint256(block.timestamp).sub(uint256(lockedInfo.unlockTime));\n            uint256 timeVar = timeDiff.div(oneMonthSec).add(1);\n            if (timeVar <= 12) {\n                // only allow monthly distribution after unlocked up until 12 months\n                uint256 fractionAmount = timeVar.mul(lockedInfo.tokenAmount).div(12);\n                return fractionAmount.sub(lockedInfo.withdrawnAmount);\n            } else {\n                return lockedInfo.tokenAmount.sub(lockedInfo.withdrawnAmount);\n            }\n        } else {\n            uint256 timeDiff = uint256(block.timestamp).sub(uint256(lockedInfo.lastWithdrawTime));\n            uint256 timeVar = timeDiff.div(oneMonthSec);\n            if (timeVar <= 12) {\n                uint256 fractionAmount = timeVar.mul(lockedInfo.tokenAmount).div(12);\n                if (fractionAmount == 0) {\n                    return 0;\n                }\n                return fractionAmount.sub(lockedInfo.withdrawnAmount);\n            } else {\n                return lockedInfo.tokenAmount.sub(lockedInfo.withdrawnAmount);\n            }\n        }\n    }\n\n    /**\n     * @dev withdraw tokens\n    */\n    function withdrawTokens(uint256 _id) public {\n        require(block.timestamp >= lockedToken[_id].unlockTime, \"token still locked\");\n        require(msg.sender == lockedToken[_id].withdrawalAddress, \"cannot withdraw others' token\");\n\n        address tokenAddress = lockedToken[_id].tokenAddress;\n        uint256 withdrawAmount = tokenAvailableToWithdraw(_id);\n\n        require(withdrawAmount > 0, \"not allowed to withdraw\");\n\n        // update balance in address\n        walletTokenBalance[tokenAddress][msg.sender] = walletTokenBalance[tokenAddress][msg.sender].sub(withdrawAmount);\n        lockedToken[_id].withdrawnAmount = lockedToken[_id].withdrawnAmount.add(withdrawAmount);\n        lockedToken[_id].lastWithdrawTime = block.timestamp;\n\n        // remove this id from this address only when all have been withdrawn\n        if (lockedToken[_id].tokenAmount.sub(lockedToken[_id].withdrawnAmount) == 0 ) {\n            uint256 j;\n            address withdrawalAddress = lockedToken[_id].withdrawalAddress;\n            uint256 arrLength = depositsByWithdrawalAddress[withdrawalAddress].length;\n            for (j = 0; j < arrLength; j++) {\n                if (depositsByWithdrawalAddress[withdrawalAddress][j] == _id) {\n                    uint256 nextId = depositsByWithdrawalAddress[lockedToken[_id].withdrawalAddress][arrLength - 1];\n                    depositsByWithdrawalAddress[lockedToken[_id].withdrawalAddress][j] = nextId;\n                    depositsByWithdrawalAddress[lockedToken[_id].withdrawalAddress].pop();\n                    break;\n                }\n            }\n        }\n\n        // transfer tokens to wallet address\n        IERC20(lockedToken[_id].tokenAddress).safeTransfer(msg.sender, withdrawAmount);\n        emit Withdrawal(_id, msg.sender, withdrawAmount);\n    }\n\n    function totalTokenBalance(address _tokenAddress) public view returns (uint256) {\n       return IERC20(_tokenAddress).balanceOf(address(this));\n    }\n}",
  "sourcePath": "/workspaces/beli-farm/src/contracts/LiquidityLocker.sol",
  "compiler": {
    "name": "solc",
    "version": "0.6.12+commit.27d51765.Emscripten.clang"
  },
  "schemaVersion": "3.4.3",
  "updatedAt": "2022-03-02T01:51:43.393Z",
  "networkType": "ethereum",
  "devdoc": {
    "kind": "dev",
    "methods": {
      "extendLockDuration(uint256,uint256)": {
        "details": "set the unlock time _additionalTime in the future relative to the stored unlockTime"
      },
      "lockTokens(address,address,uint256,uint256)": {
        "details": "lock tokens"
      },
      "tokenAvailableToWithdraw(uint256)": {
        "details": "view the amount of token can be withdrawn from the specified id everyone can see and verify the amount"
      },
      "withdrawTokens(uint256)": {
        "details": "withdraw tokens"
      }
    },
    "version": 1
  },
  "userdoc": {
    "kind": "user",
    "methods": {},
    "version": 1
  }
}