{
  "contractName": "TimelockTreasury",
  "abi": [
    {
      "inputs": [
        {
          "internalType": "address",
          "name": "_wbnbAddress",
          "type": "address"
        },
        {
          "internalType": "address payable",
          "name": "_devWalletAddress",
          "type": "address"
        },
        {
          "internalType": "uint256",
          "name": "_minDelay",
          "type": "uint256"
        },
        {
          "internalType": "uint256",
          "name": "_minDelayReduced",
          "type": "uint256"
        }
      ],
      "stateMutability": "nonpayable",
      "type": "constructor"
    },
    {
      "anonymous": false,
      "inputs": [
        {
          "indexed": false,
          "internalType": "address",
          "name": "beneficiaryAddress",
          "type": "address"
        }
      ],
      "name": "BeneficiaryRemoved",
      "type": "event"
    },
    {
      "anonymous": false,
      "inputs": [
        {
          "indexed": true,
          "internalType": "bytes32",
          "name": "id",
          "type": "bytes32"
        },
        {
          "indexed": true,
          "internalType": "uint256",
          "name": "index",
          "type": "uint256"
        },
        {
          "indexed": false,
          "internalType": "address",
          "name": "target",
          "type": "address"
        },
        {
          "indexed": false,
          "internalType": "uint256",
          "name": "value",
          "type": "uint256"
        },
        {
          "indexed": false,
          "internalType": "bytes",
          "name": "data",
          "type": "bytes"
        }
      ],
      "name": "CallExecuted",
      "type": "event"
    },
    {
      "anonymous": false,
      "inputs": [
        {
          "indexed": true,
          "internalType": "bytes32",
          "name": "id",
          "type": "bytes32"
        },
        {
          "indexed": true,
          "internalType": "uint256",
          "name": "index",
          "type": "uint256"
        },
        {
          "indexed": false,
          "internalType": "address",
          "name": "target",
          "type": "address"
        },
        {
          "indexed": false,
          "internalType": "uint256",
          "name": "value",
          "type": "uint256"
        },
        {
          "indexed": false,
          "internalType": "bytes",
          "name": "data",
          "type": "bytes"
        },
        {
          "indexed": false,
          "internalType": "bytes32",
          "name": "predecessor",
          "type": "bytes32"
        },
        {
          "indexed": false,
          "internalType": "uint256",
          "name": "delay",
          "type": "uint256"
        }
      ],
      "name": "CallScheduled",
      "type": "event"
    },
    {
      "anonymous": false,
      "inputs": [
        {
          "indexed": true,
          "internalType": "bytes32",
          "name": "id",
          "type": "bytes32"
        }
      ],
      "name": "Cancelled",
      "type": "event"
    },
    {
      "anonymous": false,
      "inputs": [
        {
          "indexed": false,
          "internalType": "contract IERC20",
          "name": "token",
          "type": "address"
        },
        {
          "indexed": false,
          "internalType": "uint256",
          "name": "amount",
          "type": "uint256"
        },
        {
          "indexed": false,
          "internalType": "address",
          "name": "to",
          "type": "address"
        }
      ],
      "name": "DistributeReserve",
      "type": "event"
    },
    {
      "anonymous": false,
      "inputs": [
        {
          "indexed": false,
          "internalType": "uint256",
          "name": "amount",
          "type": "uint256"
        }
      ],
      "name": "DistributeRewards",
      "type": "event"
    },
    {
      "anonymous": false,
      "inputs": [
        {
          "indexed": false,
          "internalType": "uint256",
          "name": "oldDuration",
          "type": "uint256"
        },
        {
          "indexed": false,
          "internalType": "uint256",
          "name": "newDuration",
          "type": "uint256"
        }
      ],
      "name": "MinDelayChange",
      "type": "event"
    },
    {
      "anonymous": false,
      "inputs": [
        {
          "indexed": false,
          "internalType": "uint256",
          "name": "oldDuration",
          "type": "uint256"
        },
        {
          "indexed": false,
          "internalType": "uint256",
          "name": "newDuration",
          "type": "uint256"
        }
      ],
      "name": "MinDelayReducedChange",
      "type": "event"
    },
    {
      "anonymous": false,
      "inputs": [
        {
          "indexed": false,
          "internalType": "contract IERC20",
          "name": "token",
          "type": "address"
        }
      ],
      "name": "ReserveTokenAdded",
      "type": "event"
    },
    {
      "anonymous": false,
      "inputs": [
        {
          "indexed": false,
          "internalType": "contract IERC20",
          "name": "token",
          "type": "address"
        }
      ],
      "name": "ReserveTokenRemoved",
      "type": "event"
    },
    {
      "anonymous": false,
      "inputs": [
        {
          "indexed": true,
          "internalType": "bytes32",
          "name": "role",
          "type": "bytes32"
        },
        {
          "indexed": true,
          "internalType": "bytes32",
          "name": "previousAdminRole",
          "type": "bytes32"
        },
        {
          "indexed": true,
          "internalType": "bytes32",
          "name": "newAdminRole",
          "type": "bytes32"
        }
      ],
      "name": "RoleAdminChanged",
      "type": "event"
    },
    {
      "anonymous": false,
      "inputs": [
        {
          "indexed": true,
          "internalType": "bytes32",
          "name": "role",
          "type": "bytes32"
        },
        {
          "indexed": true,
          "internalType": "address",
          "name": "account",
          "type": "address"
        },
        {
          "indexed": true,
          "internalType": "address",
          "name": "sender",
          "type": "address"
        }
      ],
      "name": "RoleGranted",
      "type": "event"
    },
    {
      "anonymous": false,
      "inputs": [
        {
          "indexed": true,
          "internalType": "bytes32",
          "name": "role",
          "type": "bytes32"
        },
        {
          "indexed": true,
          "internalType": "address",
          "name": "account",
          "type": "address"
        },
        {
          "indexed": true,
          "internalType": "address",
          "name": "sender",
          "type": "address"
        }
      ],
      "name": "RoleRevoked",
      "type": "event"
    },
    {
      "anonymous": false,
      "inputs": [
        {
          "indexed": false,
          "internalType": "address[]",
          "name": "beneficiaryAddresses",
          "type": "address[]"
        },
        {
          "indexed": false,
          "internalType": "uint16[]",
          "name": "beneficiaryRewardFactors",
          "type": "uint16[]"
        }
      ],
      "name": "SetBeneficiaries",
      "type": "event"
    },
    {
      "anonymous": false,
      "inputs": [
        {
          "indexed": true,
          "internalType": "bytes32",
          "name": "id",
          "type": "bytes32"
        },
        {
          "indexed": true,
          "internalType": "uint256",
          "name": "index",
          "type": "uint256"
        },
        {
          "indexed": true,
          "internalType": "address",
          "name": "farmAddress",
          "type": "address"
        },
        {
          "indexed": false,
          "internalType": "uint256",
          "name": "pid",
          "type": "uint256"
        },
        {
          "indexed": false,
          "internalType": "uint256",
          "name": "allocPoint",
          "type": "uint256"
        },
        {
          "indexed": false,
          "internalType": "uint256",
          "name": "harvestInterval",
          "type": "uint256"
        },
        {
          "indexed": false,
          "internalType": "uint256",
          "name": "harvestFeeInterval",
          "type": "uint256"
        },
        {
          "indexed": false,
          "internalType": "uint16",
          "name": "harvestFee",
          "type": "uint16"
        },
        {
          "indexed": false,
          "internalType": "bool",
          "name": "withUpdate",
          "type": "bool"
        },
        {
          "indexed": false,
          "internalType": "bytes32",
          "name": "predecessor",
          "type": "bytes32"
        },
        {
          "indexed": false,
          "internalType": "uint256",
          "name": "delay",
          "type": "uint256"
        }
      ],
      "name": "SetScheduled",
      "type": "event"
    },
    {
      "anonymous": false,
      "inputs": [
        {
          "components": [
            {
              "internalType": "address",
              "name": "router",
              "type": "address"
            },
            {
              "internalType": "address[]",
              "name": "path",
              "type": "address[]"
            },
            {
              "internalType": "uint256",
              "name": "slippage",
              "type": "uint256"
            }
          ],
          "indexed": false,
          "internalType": "struct TimelockTreasury.Swap[]",
          "name": "swaps",
          "type": "tuple[]"
        },
        {
          "indexed": false,
          "internalType": "uint256[]",
          "name": "_amounts",
          "type": "uint256[]"
        }
      ],
      "name": "SwapToReserves",
      "type": "event"
    },
    {
      "inputs": [],
      "name": "DEFAULT_ADMIN_ROLE",
      "outputs": [
        {
          "internalType": "bytes32",
          "name": "",
          "type": "bytes32"
        }
      ],
      "stateMutability": "view",
      "type": "function",
      "constant": true
    },
    {
      "inputs": [],
      "name": "EXECUTOR_ROLE",
      "outputs": [
        {
          "internalType": "bytes32",
          "name": "",
          "type": "bytes32"
        }
      ],
      "stateMutability": "view",
      "type": "function",
      "constant": true
    },
    {
      "inputs": [],
      "name": "PROPOSER_ROLE",
      "outputs": [
        {
          "internalType": "bytes32",
          "name": "",
          "type": "bytes32"
        }
      ],
      "stateMutability": "view",
      "type": "function",
      "constant": true
    },
    {
      "inputs": [],
      "name": "TIMELOCK_ADMIN_ROLE",
      "outputs": [
        {
          "internalType": "bytes32",
          "name": "",
          "type": "bytes32"
        }
      ],
      "stateMutability": "view",
      "type": "function",
      "constant": true
    },
    {
      "inputs": [
        {
          "internalType": "uint256",
          "name": "",
          "type": "uint256"
        }
      ],
      "name": "beneficiaryAddresses",
      "outputs": [
        {
          "internalType": "address",
          "name": "",
          "type": "address"
        }
      ],
      "stateMutability": "view",
      "type": "function",
      "constant": true
    },
    {
      "inputs": [
        {
          "internalType": "uint256",
          "name": "",
          "type": "uint256"
        }
      ],
      "name": "beneficiaryRewardFactors",
      "outputs": [
        {
          "internalType": "uint16",
          "name": "",
          "type": "uint16"
        }
      ],
      "stateMutability": "view",
      "type": "function",
      "constant": true
    },
    {
      "inputs": [],
      "name": "devWalletAddress",
      "outputs": [
        {
          "internalType": "address payable",
          "name": "",
          "type": "address"
        }
      ],
      "stateMutability": "view",
      "type": "function",
      "constant": true
    },
    {
      "inputs": [
        {
          "internalType": "bytes32",
          "name": "role",
          "type": "bytes32"
        }
      ],
      "name": "getRoleAdmin",
      "outputs": [
        {
          "internalType": "bytes32",
          "name": "",
          "type": "bytes32"
        }
      ],
      "stateMutability": "view",
      "type": "function",
      "constant": true
    },
    {
      "inputs": [
        {
          "internalType": "bytes32",
          "name": "role",
          "type": "bytes32"
        },
        {
          "internalType": "uint256",
          "name": "index",
          "type": "uint256"
        }
      ],
      "name": "getRoleMember",
      "outputs": [
        {
          "internalType": "address",
          "name": "",
          "type": "address"
        }
      ],
      "stateMutability": "view",
      "type": "function",
      "constant": true
    },
    {
      "inputs": [
        {
          "internalType": "bytes32",
          "name": "role",
          "type": "bytes32"
        }
      ],
      "name": "getRoleMemberCount",
      "outputs": [
        {
          "internalType": "uint256",
          "name": "",
          "type": "uint256"
        }
      ],
      "stateMutability": "view",
      "type": "function",
      "constant": true
    },
    {
      "inputs": [
        {
          "internalType": "bytes32",
          "name": "role",
          "type": "bytes32"
        },
        {
          "internalType": "address",
          "name": "account",
          "type": "address"
        }
      ],
      "name": "grantRole",
      "outputs": [],
      "stateMutability": "nonpayable",
      "type": "function"
    },
    {
      "inputs": [
        {
          "internalType": "bytes32",
          "name": "role",
          "type": "bytes32"
        },
        {
          "internalType": "address",
          "name": "account",
          "type": "address"
        }
      ],
      "name": "hasRole",
      "outputs": [
        {
          "internalType": "bool",
          "name": "",
          "type": "bool"
        }
      ],
      "stateMutability": "view",
      "type": "function",
      "constant": true
    },
    {
      "inputs": [],
      "name": "minDelay",
      "outputs": [
        {
          "internalType": "uint256",
          "name": "",
          "type": "uint256"
        }
      ],
      "stateMutability": "view",
      "type": "function",
      "constant": true
    },
    {
      "inputs": [],
      "name": "minDelayReduced",
      "outputs": [
        {
          "internalType": "uint256",
          "name": "",
          "type": "uint256"
        }
      ],
      "stateMutability": "view",
      "type": "function",
      "constant": true
    },
    {
      "inputs": [
        {
          "internalType": "bytes32",
          "name": "role",
          "type": "bytes32"
        },
        {
          "internalType": "address",
          "name": "account",
          "type": "address"
        }
      ],
      "name": "renounceRole",
      "outputs": [],
      "stateMutability": "nonpayable",
      "type": "function"
    },
    {
      "inputs": [
        {
          "internalType": "uint256",
          "name": "",
          "type": "uint256"
        }
      ],
      "name": "reserveTokens",
      "outputs": [
        {
          "internalType": "contract IERC20",
          "name": "",
          "type": "address"
        }
      ],
      "stateMutability": "view",
      "type": "function",
      "constant": true
    },
    {
      "inputs": [
        {
          "internalType": "bytes32",
          "name": "role",
          "type": "bytes32"
        },
        {
          "internalType": "address",
          "name": "account",
          "type": "address"
        }
      ],
      "name": "revokeRole",
      "outputs": [],
      "stateMutability": "nonpayable",
      "type": "function"
    },
    {
      "inputs": [],
      "name": "wbnbAddress",
      "outputs": [
        {
          "internalType": "address",
          "name": "",
          "type": "address"
        }
      ],
      "stateMutability": "view",
      "type": "function",
      "constant": true
    },
    {
      "stateMutability": "payable",
      "type": "receive",
      "payable": true
    },
    {
      "inputs": [
        {
          "internalType": "bytes32",
          "name": "id",
          "type": "bytes32"
        }
      ],
      "name": "isOperationPending",
      "outputs": [
        {
          "internalType": "bool",
          "name": "pending",
          "type": "bool"
        }
      ],
      "stateMutability": "view",
      "type": "function",
      "constant": true
    },
    {
      "inputs": [
        {
          "internalType": "bytes32",
          "name": "id",
          "type": "bytes32"
        }
      ],
      "name": "isOperationReady",
      "outputs": [
        {
          "internalType": "bool",
          "name": "ready",
          "type": "bool"
        }
      ],
      "stateMutability": "view",
      "type": "function",
      "constant": true
    },
    {
      "inputs": [
        {
          "internalType": "bytes32",
          "name": "id",
          "type": "bytes32"
        }
      ],
      "name": "isOperationDone",
      "outputs": [
        {
          "internalType": "bool",
          "name": "done",
          "type": "bool"
        }
      ],
      "stateMutability": "view",
      "type": "function",
      "constant": true
    },
    {
      "inputs": [
        {
          "internalType": "bytes32",
          "name": "id",
          "type": "bytes32"
        }
      ],
      "name": "getTimestamp",
      "outputs": [
        {
          "internalType": "uint256",
          "name": "timestamp",
          "type": "uint256"
        }
      ],
      "stateMutability": "view",
      "type": "function",
      "constant": true
    },
    {
      "inputs": [],
      "name": "getMinDelay",
      "outputs": [
        {
          "internalType": "uint256",
          "name": "duration",
          "type": "uint256"
        }
      ],
      "stateMutability": "view",
      "type": "function",
      "constant": true
    },
    {
      "inputs": [
        {
          "internalType": "address",
          "name": "target",
          "type": "address"
        },
        {
          "internalType": "uint256",
          "name": "value",
          "type": "uint256"
        },
        {
          "internalType": "bytes",
          "name": "data",
          "type": "bytes"
        },
        {
          "internalType": "bytes32",
          "name": "predecessor",
          "type": "bytes32"
        },
        {
          "internalType": "bytes32",
          "name": "salt",
          "type": "bytes32"
        }
      ],
      "name": "hashOperation",
      "outputs": [
        {
          "internalType": "bytes32",
          "name": "hash",
          "type": "bytes32"
        }
      ],
      "stateMutability": "pure",
      "type": "function",
      "constant": true
    },
    {
      "inputs": [
        {
          "internalType": "address[]",
          "name": "targets",
          "type": "address[]"
        },
        {
          "internalType": "uint256[]",
          "name": "values",
          "type": "uint256[]"
        },
        {
          "internalType": "bytes[]",
          "name": "datas",
          "type": "bytes[]"
        },
        {
          "internalType": "bytes32",
          "name": "predecessor",
          "type": "bytes32"
        },
        {
          "internalType": "bytes32",
          "name": "salt",
          "type": "bytes32"
        }
      ],
      "name": "hashOperationBatch",
      "outputs": [
        {
          "internalType": "bytes32",
          "name": "hash",
          "type": "bytes32"
        }
      ],
      "stateMutability": "pure",
      "type": "function",
      "constant": true
    },
    {
      "inputs": [
        {
          "internalType": "address",
          "name": "target",
          "type": "address"
        },
        {
          "internalType": "uint256",
          "name": "value",
          "type": "uint256"
        },
        {
          "internalType": "bytes",
          "name": "data",
          "type": "bytes"
        },
        {
          "internalType": "bytes32",
          "name": "predecessor",
          "type": "bytes32"
        },
        {
          "internalType": "bytes32",
          "name": "salt",
          "type": "bytes32"
        },
        {
          "internalType": "uint256",
          "name": "delay",
          "type": "uint256"
        }
      ],
      "name": "schedule",
      "outputs": [],
      "stateMutability": "nonpayable",
      "type": "function"
    },
    {
      "inputs": [
        {
          "internalType": "address[]",
          "name": "targets",
          "type": "address[]"
        },
        {
          "internalType": "uint256[]",
          "name": "values",
          "type": "uint256[]"
        },
        {
          "internalType": "bytes[]",
          "name": "datas",
          "type": "bytes[]"
        },
        {
          "internalType": "bytes32",
          "name": "predecessor",
          "type": "bytes32"
        },
        {
          "internalType": "bytes32",
          "name": "salt",
          "type": "bytes32"
        },
        {
          "internalType": "uint256",
          "name": "delay",
          "type": "uint256"
        }
      ],
      "name": "scheduleBatch",
      "outputs": [],
      "stateMutability": "nonpayable",
      "type": "function"
    },
    {
      "inputs": [
        {
          "internalType": "bytes32",
          "name": "id",
          "type": "bytes32"
        }
      ],
      "name": "cancel",
      "outputs": [],
      "stateMutability": "nonpayable",
      "type": "function"
    },
    {
      "inputs": [
        {
          "internalType": "address",
          "name": "target",
          "type": "address"
        },
        {
          "internalType": "uint256",
          "name": "value",
          "type": "uint256"
        },
        {
          "internalType": "bytes",
          "name": "data",
          "type": "bytes"
        },
        {
          "internalType": "bytes32",
          "name": "predecessor",
          "type": "bytes32"
        },
        {
          "internalType": "bytes32",
          "name": "salt",
          "type": "bytes32"
        }
      ],
      "name": "execute",
      "outputs": [],
      "stateMutability": "payable",
      "type": "function",
      "payable": true
    },
    {
      "inputs": [
        {
          "internalType": "address[]",
          "name": "targets",
          "type": "address[]"
        },
        {
          "internalType": "uint256[]",
          "name": "values",
          "type": "uint256[]"
        },
        {
          "internalType": "bytes[]",
          "name": "datas",
          "type": "bytes[]"
        },
        {
          "internalType": "bytes32",
          "name": "predecessor",
          "type": "bytes32"
        },
        {
          "internalType": "bytes32",
          "name": "salt",
          "type": "bytes32"
        }
      ],
      "name": "executeBatch",
      "outputs": [],
      "stateMutability": "payable",
      "type": "function",
      "payable": true
    },
    {
      "inputs": [
        {
          "internalType": "uint256",
          "name": "newDelay",
          "type": "uint256"
        }
      ],
      "name": "updateMinDelay",
      "outputs": [],
      "stateMutability": "nonpayable",
      "type": "function"
    },
    {
      "inputs": [
        {
          "internalType": "uint256",
          "name": "newDelay",
          "type": "uint256"
        }
      ],
      "name": "updateMinDelayReduced",
      "outputs": [],
      "stateMutability": "nonpayable",
      "type": "function"
    },
    {
      "inputs": [
        {
          "internalType": "address payable",
          "name": "_devWalletAddress",
          "type": "address"
        }
      ],
      "name": "setDevWalletAddress",
      "outputs": [],
      "stateMutability": "nonpayable",
      "type": "function"
    },
    {
      "inputs": [
        {
          "components": [
            {
              "internalType": "address",
              "name": "router",
              "type": "address"
            },
            {
              "internalType": "address[]",
              "name": "path",
              "type": "address[]"
            },
            {
              "internalType": "uint256",
              "name": "slippage",
              "type": "uint256"
            }
          ],
          "internalType": "struct TimelockTreasury.Swap[]",
          "name": "_swaps",
          "type": "tuple[]"
        },
        {
          "internalType": "uint256[]",
          "name": "_amounts",
          "type": "uint256[]"
        }
      ],
      "name": "convertTokensToReserve",
      "outputs": [],
      "stateMutability": "nonpayable",
      "type": "function"
    },
    {
      "inputs": [
        {
          "components": [
            {
              "internalType": "address",
              "name": "router",
              "type": "address"
            },
            {
              "internalType": "address[]",
              "name": "path",
              "type": "address[]"
            },
            {
              "internalType": "uint256",
              "name": "slippage",
              "type": "uint256"
            }
          ],
          "internalType": "struct TimelockTreasury.Swap[]",
          "name": "_swaps",
          "type": "tuple[]"
        }
      ],
      "name": "convertTokensToWBNB",
      "outputs": [],
      "stateMutability": "nonpayable",
      "type": "function"
    },
    {
      "inputs": [
        {
          "internalType": "uint256",
          "name": "_amount",
          "type": "uint256"
        },
        {
          "internalType": "contract IERC20",
          "name": "_reserve",
          "type": "address"
        },
        {
          "internalType": "address",
          "name": "_beneficiary",
          "type": "address"
        }
      ],
      "name": "distributeReservesTo",
      "outputs": [],
      "stateMutability": "nonpayable",
      "type": "function"
    },
    {
      "inputs": [],
      "name": "distributeRewards",
      "outputs": [],
      "stateMutability": "nonpayable",
      "type": "function"
    },
    {
      "inputs": [
        {
          "internalType": "address",
          "name": "_beneficiary",
          "type": "address"
        }
      ],
      "name": "removeBeneficiary",
      "outputs": [],
      "stateMutability": "nonpayable",
      "type": "function"
    },
    {
      "inputs": [
        {
          "internalType": "contract IERC20",
          "name": "_reserve",
          "type": "address"
        }
      ],
      "name": "addReserveToken",
      "outputs": [],
      "stateMutability": "nonpayable",
      "type": "function"
    },
    {
      "inputs": [
        {
          "internalType": "contract IERC20",
          "name": "_reserve",
          "type": "address"
        }
      ],
      "name": "removeReserveToken",
      "outputs": [],
      "stateMutability": "nonpayable",
      "type": "function"
    },
    {
      "inputs": [
        {
          "internalType": "address[]",
          "name": "_beneficiaryAddresses",
          "type": "address[]"
        },
        {
          "internalType": "uint16[]",
          "name": "_beneficiaryRewardFactors",
          "type": "uint16[]"
        }
      ],
      "name": "setBeneficiaries",
      "outputs": [],
      "stateMutability": "nonpayable",
      "type": "function"
    }
  ],
  "bytecode": "0x60806040523480156200001157600080fd5b506040516200487e3803806200487e83398101604081905262000034916200031e565b60018055600580546001600160a01b038087166001600160a01b0319928316179092556006805492861692909116919091179055600382905560048190556200008d6000805160206200481e83398151915280620001b8565b620000b76000805160206200483e8339815191526000805160206200481e833981519152620001b8565b620000e16000805160206200485e8339815191526000805160206200481e833981519152620001b8565b620001056000805160206200481e833981519152620000ff6200020a565b6200020e565b620001206000805160206200481e833981519152306200020e565b60065462000148906000805160206200483e833981519152906001600160a01b03166200020e565b60065462000170906000805160206200485e833981519152906001600160a01b03166200020e565b7f11c24f4ead16507c69ac467fbd5e4eed5fb5c699626d2cc6d66421df253886d56000600354604051620001a69291906200036a565b60405180910390a15050505062000391565b600082815260208190526040808220600201549051839285917fbd79b86ffe0ab8e8776151514217cd7cacd52c909f66475c3af44e129f0b00ff9190a460009182526020829052604090912060020155565b3390565b6200021a82826200021e565b5050565b6000828152602081815260409091206200024391839062001b8862000297821b17901c565b156200021a57620002536200020a565b6001600160a01b0316816001600160a01b0316837f2f8788117e7eff1d82e926ec794901d17c78024a50270940304540a733656f0d60405160405180910390a45050565b6000620002ae836001600160a01b038416620002b7565b90505b92915050565b6000620002c5838362000306565b620002fd57508154600181810184556000848152602080822090930184905584548482528286019093526040902091909155620002b1565b506000620002b1565b60009081526001919091016020526040902054151590565b6000806000806080858703121562000334578384fd5b8451620003418162000378565b6020860151909450620003548162000378565b6040860151606090960151949790965092505050565b918252602082015260400190565b6001600160a01b03811681146200038e57600080fd5b50565b61447d80620003a16000396000f3fe60806040526004361061024a5760003560e01c80638065657f11610139578063be6c0297116100b6578063d45c44351161007a578063d45c443514610685578063d547741f146106a5578063e38335e5146106c5578063e8889ead146106d8578063e9f6c4a0146106f8578063f27a0c921461071857610251565b8063be6c0297146105f0578063c4d252f514610610578063c63c4e9b14610630578063ca15c87314610645578063d031370b1461066557610251565b80638f61f4f5116100fd5780638f61f4f5146105665780639010d07c1461057b57806391d148541461059b578063a217fddf146105bb578063b1c5f427146105d057610251565b80638065657f146104d15780638762dad9146104f1578063886ce505146105115780638a99d586146105265780638f2a0bb01461054657610251565b8063248a9ca3116101c757806351ac19191161018b57806351ac19191461043a578063584b153e1461046757806359633a1c1461048757806363fe3e3a146104a75780636f4a2cd0146104bc57610251565b8063248a9ca31461039a5780632ab0f529146103ba5780632f2ff15d146103da57806336568abe146103fa5780634a4777a31461041a57610251565b80630e0388131161020e5780630e03881314610305578063120a06121461031a578063134008d31461033a57806313bc9f201461034d57806319eb78451461037a57610251565b806301d5062a1461025657806307bd026514610278578063097bb9e0146102a35780630a574f50146102d05780630d3cf6fc146102f057610251565b3661025157005b600080fd5b34801561026257600080fd5b50610276610271366004612c62565b61072d565b005b34801561028457600080fd5b5061028d6107e9565b60405161029a919061388c565b60405180910390f35b3480156102af57600080fd5b506102c36102be366004613070565b6107fb565b60405161029a91906132ac565b3480156102dc57600080fd5b506102766102eb366004612e27565b610822565b3480156102fc57600080fd5b5061028d610934565b34801561031157600080fd5b506102c3610958565b34801561032657600080fd5b50610276610335366004612bdb565b610967565b610276610348366004612bf7565b6109d2565b34801561035957600080fd5b5061036d610368366004613070565b610a84565b60405161029a9190613881565b34801561038657600080fd5b50610276610395366004612bdb565b610ab6565b3480156103a657600080fd5b5061028d6103b5366004613070565b610c30565b3480156103c657600080fd5b5061036d6103d5366004613070565b610c45565b3480156103e657600080fd5b506102766103f5366004613088565b610c5a565b34801561040657600080fd5b50610276610415366004613088565b610ca2565b34801561042657600080fd5b50610276610435366004612ee7565b610ce4565b34801561044657600080fd5b5061045a610455366004613070565b610d81565b60405161029a91906142bc565b34801561047357600080fd5b5061036d610482366004613070565b610db6565b34801561049357600080fd5b506102766104a2366004612bdb565b610dcb565b3480156104b357600080fd5b506102c3610ff5565b3480156104c857600080fd5b50610276611004565b3480156104dd57600080fd5b5061028d6104ec366004612bf7565b6111f4565b3480156104fd57600080fd5b5061027661050c366004612bdb565b611233565b34801561051d57600080fd5b5061028d61134f565b34801561053257600080fd5b50610276610541366004613070565b611355565b34801561055257600080fd5b50610276610561366004612d7a565b6113b4565b34801561057257600080fd5b5061028d61150a565b34801561058757600080fd5b506102c36105963660046130b7565b61151c565b3480156105a757600080fd5b5061036d6105b6366004613088565b61153b565b3480156105c757600080fd5b5061028d611553565b3480156105dc57600080fd5b5061028d6105eb366004612cd6565b611558565b3480156105fc57600080fd5b5061027661060b366004613070565b61159d565b34801561061c57600080fd5b5061027661062b366004613070565b6115fc565b34801561063c57600080fd5b5061028d6116a5565b34801561065157600080fd5b5061028d610660366004613070565b6116ab565b34801561067157600080fd5b506102c3610680366004613070565b6116c2565b34801561069157600080fd5b5061028d6106a0366004613070565b6116cf565b3480156106b157600080fd5b506102766106c0366004613088565b6116e1565b6102766106d3366004612cd6565b61171b565b3480156106e457600080fd5b506102766106f3366004612f19565b611870565b34801561070457600080fd5b506102766107133660046130f0565b611930565b34801561072457600080fd5b5061028d611b82565b600080516020614408833981519152610748816105b6611b9d565b80610759575061075981600061153b565b61077e5760405162461bcd60e51b815260040161077590613a5e565b60405180910390fd5b600061078e8989898989896111f4565b905061079a8184611ba1565b6000817f4cf4410cc57040e44862ef0f45f3dd5a5e02db8eb8add648d4b0e236f1d07dca8b8b8b8b8b8a6040516107d696959493929190613325565b60405180910390a3505050505050505050565b60008051602061442883398151915281565b6007818154811061080857fe5b6000918252602090912001546001600160a01b0316905081565b3330146108415760405162461bcd60e51b815260040161077590614198565b80518251146108625760405162461bcd60e51b815260040161077590613cb0565b6000805b82518160ff1610156108a95761089f838260ff168151811061088457fe5b602002602001015161ffff1683611c0f90919063ffffffff16565b9150600101610866565b506127108111156108cc5760405162461bcd60e51b815260040161077590613e36565b82516108df9060079060208601906128a4565b5081516108f3906008906020850190612909565b507f3652bfe9d2d56e37f9fcae9960029dabce80251ee65def7f168bbe6d371ff54760076008604051610927929190613409565b60405180910390a1505050565b7f5f58e3a2316349923ce3780f8d587db2d72378aed66a8261c916544fa6846ca581565b6006546001600160a01b031681565b3330146109865760405162461bcd60e51b815260040161077590614198565b6006546001600160a01b031632146109b05760405162461bcd60e51b815260040161077590614285565b600680546001600160a01b0319166001600160a01b0392909216919091179055565b6000805160206144288339815191526109ed816105b6611b9d565b806109fe57506109fe81600061153b565b610a1a5760405162461bcd60e51b815260040161077590613a5e565b60026001541415610a3d5760405162461bcd60e51b81526004016107759061410b565b60026001556000610a528888888888886111f4565b9050610a5e8185611c34565b610a6d8160008a8a8a8a611c86565b610a7681611d4e565b505060018055505050505050565b6000818152600260205260408120546001108015610ab057506000828152600260205260409020544210155b92915050565b333014610ad55760405162461bcd60e51b815260040161077590614198565b6009546000908190815b818160ff161015610b3357846001600160a01b031660098260ff1681548110610b0457fe5b6000918252602090912001546001600160a01b03161415610b2b5780925060019350610b33565b600101610adf565b5082610b515760405162461bcd60e51b8152600401610775906138eb565b60006009610b60836001611d87565b81548110610b6a57fe5b600091825260209091200154600980546001600160a01b039092169250829160ff8616908110610b9657fe5b9060005260206000200160006101000a8154816001600160a01b0302191690836001600160a01b031602179055506009805480610bcf57fe5b600082815260209020810160001990810180546001600160a01b03191690550190556040517f413fb108af65f1a0ab76c4598c831eb7800c030dfb5589c3bb325273e9aa12ba90610c219087906132ac565b60405180910390a15050505050565b60009081526020819052604090206002015490565b60009081526002602052604090205460011490565b600082815260208190526040902060020154610c78906105b6611b9d565b610c945760405162461bcd60e51b8152600401610775906139cc565b610c9e8282611daf565b5050565b610caa611b9d565b6001600160a01b0316816001600160a01b031614610cda5760405162461bcd60e51b8152600401610775906141e3565b610c9e8282611e18565b600080516020614428833981519152610cff816105b6611b9d565b80610d105750610d1081600061153b565b610d2c5760405162461bcd60e51b815260040161077590613a5e565b60005b82518160ff161015610d7c57610d436129ae565b838260ff1681518110610d5257fe5b60200260200101519050610d73816000015182602001518360400151611e81565b50600101610d2f565b505050565b60088181548110610d8e57fe5b9060005260206000209060109182820401919006600202915054906101000a900461ffff1681565b60009081526002602052604090205460011090565b333014610dea5760405162461bcd60e51b815260040161077590614198565b6007546000908190815b818160ff161015610e4857846001600160a01b031660078260ff1681548110610e1957fe5b6000918252602090912001546001600160a01b03161415610e405780925060019350610e48565b600101610df4565b5082610e665760405162461bcd60e51b8152600401610775906140de565b60006007610e75836001611d87565b81548110610e7f57fe5b60009182526020822001546001600160a01b031691506008610ea2846001611d87565b81548110610eac57fe5b90600052602060002090601091828204019190066002029054906101000a900461ffff1690508160078560ff1681548110610ee357fe5b9060005260206000200160006101000a8154816001600160a01b0302191690836001600160a01b031602179055508060088560ff1681548110610f2257fe5b90600052602060002090601091828204019190066002026101000a81548161ffff021916908361ffff1602179055506007805480610f5c57fe5b600082815260209020810160001990810180546001600160a01b03191690550190556008805480610f8957fe5b600082815260209020601060001990920191820401805461ffff6002600f8516026101000a021916905590556040517f72977dad29432f655f11c2f0e72ef5124bb9ade7a512fb7a43a9f504df22342890610fe59088906132ac565b60405180910390a1505050505050565b6005546001600160a01b031681565b3330146110235760405162461bcd60e51b815260040161077590614198565b6005546040516370a0823160e01b81526000916001600160a01b0316906370a08231906110549030906004016132ac565b60206040518083038186803b15801561106c57600080fd5b505afa158015611080573d6000803e3d6000fd5b505050506040513d601f19601f820116820180604052508101906110a491906130d8565b905060005b60075460ff821610156111b957600554600780546001600160a01b039092169163a9059cbb919060ff85169081106110dd57fe5b9060005260206000200160009054906101000a90046001600160a01b031661114161271061113b60088760ff168154811061111457fe5b600091825260209091206010820401548991600f166002026101000a900461ffff16612014565b9061204e565b6040518363ffffffff1660e01b815260040161115e9291906132da565b602060405180830381600087803b15801561117857600080fd5b505af115801561118c573d6000803e3d6000fd5b505050506040513d601f19601f820116820180604052508101906111b09190613050565b506001016110a9565b507fb9d196a585c1a894f648393ec7d52cc59ff6d94191579d073ba32b0a74d7f7a6816040516111e9919061388c565b60405180910390a150565b600086868686868660405160200161121196959493929190613325565b6040516020818303038152906040528051906020012090509695505050505050565b3330146112525760405162461bcd60e51b815260040161077590614198565b6000805b60095460ff821610156112a957826001600160a01b031660098260ff168154811061127d57fe5b6000918252602090912001546001600160a01b031614156112a157600191506112a9565b600101611256565b5080156112c85760405162461bcd60e51b815260040161077590613d41565b600980546001810182556000919091527f6e1540171b6c0c960b71a7020d9f60077f6af931a8bbf590da0223dacf75c7af0180546001600160a01b0319166001600160a01b0384161790556040517fdd710997abacdf4e5052b0f85f257d182157d5488113ce7e50fcddd9409e4f83906113439084906132ac565b60405180910390a15050565b60045481565b3330146113745760405162461bcd60e51b815260040161077590614198565b7f11c24f4ead16507c69ac467fbd5e4eed5fb5c699626d2cc6d66421df253886d5600354826040516113a79291906142e4565b60405180910390a1600355565b6000805160206144088339815191526113cf816105b6611b9d565b806113e057506113e081600061153b565b6113fc5760405162461bcd60e51b815260040161077590613a5e565b88871461141b5760405162461bcd60e51b815260040161077590613a1b565b88851461143a5760405162461bcd60e51b815260040161077590613a1b565b600061144c8b8b8b8b8b8b8b8b611558565b90506114588184611ba1565b60005b8a8110156114fc5780827f4cf4410cc57040e44862ef0f45f3dd5a5e02db8eb8add648d4b0e236f1d07dca8e8e8581811061149257fe5b90506020020160208101906114a79190612bdb565b8d8d868181106114b357fe5b905060200201358c8c878181106114c657fe5b90506020028101906114d8919061432e565b8c8b6040516114ec96959493929190613325565b60405180910390a360010161145b565b505050505050505050505050565b60008051602061440883398151915281565b60008281526020819052604081206115349083612080565b9392505050565b6000828152602081905260408120611534908361208c565b600081565b60008888888888888888604051602001611579989796959493929190613362565b60405160208183030381529060405280519060200120905098975050505050505050565b3330146115bc5760405162461bcd60e51b815260040161077590614198565b7f596b3acad3954126f9cd5659152e0abf28f5e4c8ed617821eb7f7f4830b6bdda600454826040516115ef9291906142e4565b60405180910390a1600455565b600080516020614408833981519152611617816105b6611b9d565b80611628575061162881600061153b565b6116445760405162461bcd60e51b815260040161077590613a5e565b61164d82610db6565b6116695760405162461bcd60e51b815260040161077590614043565b6000828152600260205260408082208290555183917fbaa1eb22f2a492ba1a5fea61b8df4d27c6c8b5f3971e63bb58fa14ff72eedb7091a25050565b60035481565b6000818152602081905260408120610ab0906120a1565b6009818154811061080857fe5b60009081526002602052604090205490565b6000828152602081905260409020600201546116ff906105b6611b9d565b610cda5760405162461bcd60e51b815260040161077590613beb565b600080516020614428833981519152611736816105b6611b9d565b80611747575061174781600061153b565b6117635760405162461bcd60e51b815260040161077590613a5e565b600260015414156117865760405162461bcd60e51b81526004016107759061410b565b60026001558786146117aa5760405162461bcd60e51b815260040161077590613a1b565b8784146117c95760405162461bcd60e51b815260040161077590613a1b565b60006117db8a8a8a8a8a8a8a8a611558565b90506117e78185611c34565b60005b898110156118565761184e82828d8d8581811061180357fe5b90506020020160208101906118189190612bdb565b8c8c8681811061182457fe5b905060200201358b8b8781811061183757fe5b9050602002810190611849919061432e565b611c86565b6001016117ea565b5061186081611d4e565b5050600180555050505050505050565b80518251146118915760405162461bcd60e51b815260040161077590613fc7565b60005b82518160ff1610156118fe576118a86129ae565b838260ff16815181106118b757fe5b602002602001015190506000838360ff16815181106118d257fe5b602002602001015190506118f4826000015182846020015185604001516120ac565b5050600101611894565b507f1e52462d78c9b660960f4b7e6e8c69bd543dbec79dcde838aed76e72732f113382826040516113439291906137dd565b33301461194f5760405162461bcd60e51b815260040161077590614198565b6000805b60075460ff821610156119a05760078160ff168154811061197057fe5b6000918252602090912001546001600160a01b038481169116141561199857600191506119a0565b600101611953565b50806119be5760405162461bcd60e51b815260040161077590613dff565b6000805b60095460ff82161015611a0f5760098160ff16815481106119df57fe5b6000918252602090912001546001600160a01b0386811691161415611a075760019150611a0f565b6001016119c2565b5080611a2d5760405162461bcd60e51b815260040161077590613f23565b6040516370a0823160e01b81526000906001600160a01b038616906370a0823190611a5c9030906004016132ac565b60206040518083038186803b158015611a7457600080fd5b505afa158015611a88573d6000803e3d6000fd5b505050506040513d601f19601f82011682018060405250810190611aac91906130d8565b905080861115611ace5760405162461bcd60e51b815260040161077590613ae3565b60405163a9059cbb60e01b81526001600160a01b0386169063a9059cbb90611afc9087908a906004016132da565b602060405180830381600087803b158015611b1657600080fd5b505af1158015611b2a573d6000803e3d6000fd5b505050506040513d601f19601f82011682018060405250810190611b4e9190613050565b507f18322020180f064eea16647f61b4f356b2280b748ed56a491c6d89f56079560f858786604051610fe593929190613895565b60035490565b6000611534836001600160a01b0384166122a0565b3390565b60008281526002602052604090205415611bcd5760405162461bcd60e51b815260040161077590613ed4565b600354811015611bef5760405162461bcd60e51b815260040161077590613c6a565b611bf94282611c0f565b6000928352600260205260409092209190915550565b6000828201838110156115345760405162461bcd60e51b815260040161077590613aac565b611c3d82610a84565b611c595760405162461bcd60e51b815260040161077590613f7d565b801580611c6a5750611c6a81610c45565b610c9e5760405162461bcd60e51b815260040161077590613986565b6000846001600160a01b0316848484604051611ca3929190613280565b60006040518083038185875af1925050503d8060008114611ce0576040519150601f19603f3d011682016040523d82523d6000602084013e611ce5565b606091505b5050905080611d065760405162461bcd60e51b815260040161077590614232565b85877fc2617efa69bab66782fa219543714338489c4e9e178271560a91b82c3f612b5887878787604051611d3d94939291906132f3565b60405180910390a350505050505050565b611d5781610a84565b611d735760405162461bcd60e51b815260040161077590613f7d565b600090815260026020526040902060019055565b600082821115611da95760405162461bcd60e51b815260040161077590613b0b565b50900390565b6000828152602081905260409020611dc79082611b88565b15610c9e57611dd4611b9d565b6001600160a01b0316816001600160a01b0316837f2f8788117e7eff1d82e926ec794901d17c78024a50270940304540a733656f0d60405160405180910390a45050565b6000828152602081905260409020611e3090826122ea565b15610c9e57611e3d611b9d565b6001600160a01b0316816001600160a01b0316837ff6391f5c32d9c69d2a47ea670b442974b53935d1edc7fd64eb21e047a839171b60405160405180910390a45050565b600082600081518110611e9057fe5b60200260200101519050600083611eb260018651611d8790919063ffffffff16565b81518110611ebc57fe5b60200260200101519050600484511115611ee85760405162461bcd60e51b815260040161077590613f4e565b6005546001600160a01b0383811691161415611f165760405162461bcd60e51b81526004016107759061391a565b6005546001600160a01b03828116911614611f435760405162461bcd60e51b815260040161077590613b42565b6040516370a0823160e01b81526000906001600160a01b038416906370a0823190611f729030906004016132ac565b60206040518083038186803b158015611f8a57600080fd5b505afa158015611f9e573d6000803e3d6000fd5b505050506040513d601f19601f82011682018060405250810190611fc291906130d8565b9050801561200c57611fdf6001600160a01b0384168760006122ff565b611ff36001600160a01b03841687836123f9565b61200c868286883061200742610258611c0f565b6124aa565b505050505050565b60008261202357506000610ab0565b8282028284828161203057fe5b04146115345760405162461bcd60e51b815260040161077590613dbe565b600080821161206f5760405162461bcd60e51b815260040161077590613bb4565b81838161207857fe5b049392505050565b600061153483836125d7565b6000611534836001600160a01b03841661261c565b6000610ab082612634565b6000826000815181106120bb57fe5b602002602001015190506000836120dd60018651611d8790919063ffffffff16565b815181106120e757fe5b60200260200101519050816001600160a01b0316816001600160a01b031614156121235760405162461bcd60e51b815260040161077590613cf6565b6000805b60095460ff8216101561217a57826001600160a01b031660098260ff168154811061214e57fe5b6000918252602090912001546001600160a01b03161415612172576001915061217a565b600101612127565b50806121985760405162461bcd60e51b815260040161077590613e93565b6040516370a0823160e01b81526000906001600160a01b038516906370a08231906121c79030906004016132ac565b60206040518083038186803b1580156121df57600080fd5b505afa1580156121f3573d6000803e3d6000fd5b505050506040513d601f19601f8201168201806040525081019061221791906130d8565b9050808711156122395760405162461bcd60e51b815260040161077590613c3b565b600087116122595760405162461bcd60e51b815260040161077590613d87565b61226e6001600160a01b0385168960006122ff565b6122826001600160a01b03851689896123f9565b612296888887893061200742610258611c0f565b5050505050505050565b60006122ac838361261c565b6122e257508154600181810184556000848152602080822090930184905584548482528286019093526040902091909155610ab0565b506000610ab0565b6000611534836001600160a01b038416612638565b8015806123875750604051636eb1769f60e11b81526001600160a01b0384169063dd62ed3e9061233590309086906004016132c0565b60206040518083038186803b15801561234d57600080fd5b505afa158015612361573d6000803e3d6000fd5b505050506040513d601f19601f8201168201806040525081019061238591906130d8565b155b6123a35760405162461bcd60e51b815260040161077590614142565b610d7c8363095ea7b360e01b84846040516024016123c29291906132da565b60408051601f198184030181529190526020810180516001600160e01b03166001600160e01b0319909316929092179091526126fe565b600061248382856001600160a01b031663dd62ed3e30876040518363ffffffff1660e01b815260040161242d9291906132c0565b60206040518083038186803b15801561244557600080fd5b505afa158015612459573d6000803e3d6000fd5b505050506040513d601f19601f8201168201806040525081019061247d91906130d8565b90611c0f565b90506124a48463095ea7b360e01b85846040516024016123c29291906132da565b50505050565b60405163d06ca61f60e01b81526060906001600160a01b0388169063d06ca61f906124db90899088906004016142cb565b60006040518083038186803b1580156124f357600080fd5b505afa158015612507573d6000803e3d6000fd5b505050506040513d6000823e601f3d908101601f1916820160405261252f9190810190612fc1565b905060008161254960018451611d8790919063ffffffff16565b8151811061255357fe5b60200260200101519050876001600160a01b0316635c11d795886125866103e861113b8b8761201490919063ffffffff16565b8888886040518663ffffffff1660e01b81526004016125a99594939291906142f2565b600060405180830381600087803b1580156125c357600080fd5b505af11580156114fc573d6000803e3d6000fd5b815460009082106125fa5760405162461bcd60e51b815260040161077590613944565b82600001828154811061260957fe5b9060005260206000200154905092915050565b60009081526001919091016020526040902054151590565b5490565b600081815260018301602052604081205480156126f4578354600019808301919081019060009087908390811061266b57fe5b906000526020600020015490508087600001848154811061268857fe5b6000918252602080832090910192909255828152600189810190925260409020908401905586548790806126b857fe5b60019003818190600052602060002001600090559055866001016000878152602001908152602001600020600090556001945050505050610ab0565b6000915050610ab0565b6060612753826040518060400160405280602081526020017f5361666545524332303a206c6f772d6c6576656c2063616c6c206661696c6564815250856001600160a01b031661278d9092919063ffffffff16565b805190915015610d7c57808060200190518101906127719190613050565b610d7c5760405162461bcd60e51b815260040161077590614094565b606061279c84846000856127a4565b949350505050565b6060824710156127c65760405162461bcd60e51b815260040161077590613b6e565b6127cf85612865565b6127eb5760405162461bcd60e51b81526004016107759061400c565b60006060866001600160a01b031685876040516128089190613290565b60006040518083038185875af1925050503d8060008114612845576040519150601f19603f3d011682016040523d82523d6000602084013e61284a565b606091505b509150915061285a82828661286b565b979650505050505050565b3b151590565b6060831561287a575081611534565b82511561288a5782518084602001fd5b8160405162461bcd60e51b815260040161077591906138b8565b8280548282559060005260206000209081019282156128f9579160200282015b828111156128f957825182546001600160a01b0319166001600160a01b039091161782556020909201916001909101906128c4565b506129059291506129d8565b5090565b82805482825590600052602060002090600f016010900481019282156129a25791602002820160005b8382111561297257835183826101000a81548161ffff021916908361ffff1602179055509260200192600201602081600101049283019260010302612932565b80156129a05782816101000a81549061ffff0219169055600201602081600101049283019260010302612972565b505b506129059291506129f7565b604051806060016040528060006001600160a01b0316815260200160608152602001600081525090565b5b808211156129055780546001600160a01b03191681556001016129d9565b5b8082111561290557805461ffff191681556001016129f8565b8035610ab0816143ef565b60008083601f840112612a2d578182fd5b5081356001600160401b03811115612a43578182fd5b6020830191508360208083028501011115612a5d57600080fd5b9250929050565b600082601f830112612a74578081fd5b8135612a87612a8282614398565b614372565b818152915060208083019084810181840286018201871015612aa857600080fd5b60005b84811015612ad0578135612abe816143ef565b84529282019290820190600101612aab565b505050505092915050565b600082601f830112612aeb578081fd5b8135612af9612a8282614398565b818152915060208083019084810160005b84811015612ad05781358701606080601f19838c03011215612b2b57600080fd5b612b3481614372565b612b408b878501612a11565b81526040808401356001600160401b03811115612b5c57600080fd5b612b6a8d8983880101612a64565b888401525091909201359082015284529282019290820190600101612b0a565b60008083601f840112612b9b578182fd5b5081356001600160401b03811115612bb1578182fd5b602083019150836020828501011115612a5d57600080fd5b803561ffff81168114610ab057600080fd5b600060208284031215612bec578081fd5b8135611534816143ef565b60008060008060008060a08789031215612c0f578182fd5b8635612c1a816143ef565b95506020870135945060408701356001600160401b03811115612c3b578283fd5b612c4789828a01612b8a565b979a9699509760608101359660809091013595509350505050565b600080600080600080600060c0888a031215612c7c578081fd5b8735612c87816143ef565b96506020880135955060408801356001600160401b03811115612ca8578182fd5b612cb48a828b01612b8a565b989b979a50986060810135976080820135975060a09091013595509350505050565b60008060008060008060008060a0898b031215612cf1578182fd5b88356001600160401b0380821115612d07578384fd5b612d138c838d01612a1c565b909a50985060208b0135915080821115612d2b578384fd5b612d378c838d01612a1c565b909850965060408b0135915080821115612d4f578384fd5b50612d5c8b828c01612a1c565b999c989b509699959896976060870135966080013595509350505050565b600080600080600080600080600060c08a8c031215612d97578283fd5b89356001600160401b0380821115612dad578485fd5b612db98d838e01612a1c565b909b50995060208c0135915080821115612dd1578485fd5b612ddd8d838e01612a1c565b909950975060408c0135915080821115612df5578485fd5b50612e028c828d01612a1c565b9a9d999c50979a969997986060880135976080810135975060a0013595509350505050565b60008060408385031215612e39578182fd5b82356001600160401b0380821115612e4f578384fd5b612e5b86838701612a64565b9350602091508185013581811115612e71578384fd5b85019050601f81018613612e83578283fd5b8035612e91612a8282614398565b81815283810190838501858402850186018a1015612ead578687fd5b8694505b83851015612ed757612ec38a82612bc9565b835260019490940193918501918501612eb1565b5080955050505050509250929050565b600060208284031215612ef8578081fd5b81356001600160401b03811115612f0d578182fd5b61279c84828501612adb565b60008060408385031215612f2b578182fd5b82356001600160401b0380821115612f41578384fd5b612f4d86838701612adb565b9350602091508185013581811115612f63578384fd5b85019050601f81018613612f75578283fd5b8035612f83612a8282614398565b81815283810190838501858402850186018a1015612f9f578687fd5b8694505b83851015612ed7578035835260019490940193918501918501612fa3565b60006020808385031215612fd3578182fd5b82516001600160401b03811115612fe8578283fd5b8301601f81018513612ff8578283fd5b8051613006612a8282614398565b8181528381019083850185840285018601891015613022578687fd5b8694505b83851015613044578051835260019490940193918501918501613026565b50979650505050505050565b600060208284031215613061578081fd5b81518015158114611534578182fd5b600060208284031215613081578081fd5b5035919050565b6000806040838503121561309a578182fd5b8235915060208301356130ac816143ef565b809150509250929050565b600080604083850312156130c9578182fd5b50508035926020909101359150565b6000602082840312156130e9578081fd5b5051919050565b600080600060608486031215613104578081fd5b833592506020840135613116816143ef565b91506040840135613126816143ef565b809150509250925092565b600060018060a01b0382511683526020820151606060208501526131586060850182613181565b604093840151949093019390935250919050565b815260200190565b6001600160a01b03169052565b6000815180845260208085019450808401835b838110156131b95781516001600160a01b031687529582019590820190600101613194565b509495945050505050565b818352602080840193600091908185020181018584845b878110156132415782840389528135601e198836030181126131fb578687fd5b870180356001600160401b03811115613212578788fd5b803603891315613220578788fd5b61322d868289850161324e565b9a87019a95505050908401906001016131db565b5091979650505050505050565b60008284528282602086013780602084860101526020601f19601f85011685010190509392505050565b61ffff169052565b6000828483379101908152919050565b600082516132a28184602087016143c3565b9190910192915050565b6001600160a01b0391909116815260200190565b6001600160a01b0392831681529116602082015260400190565b6001600160a01b03929092168252602082015260400190565b600060018060a01b03861682528460208301526060604083015261331b60608301848661324e565b9695505050505050565b600060018060a01b038816825286602083015260a0604083015261334d60a08301868861324e565b60608301949094525060800152949350505050565b60a0808252810188905260008960c08301825b8b8110156133a5576020833561338a816143ef565b6001600160a01b031683529283019290910190600101613375565b5083810360208501528881526001600160fb1b038911156133c4578283fd5b602089029150818a602083013701602081810183815284830390910160408501526133f081888a6131c4565b6060850196909652505050608001529695505050505050565b600060408083018184528086548083526060925082860191508785526020808620865b8381101561345a57815461344a9086906001600160a01b0316613174565b938201936001918201910161342c565b5050868303818801528291508754613472818561388c565b925061347d896143b7565b9350865b81600f820110156135c857845461ffff61349d86828416613278565b6134ae858701828460101c16613278565b6134be8987018284881c16613278565b6134cf888701828460301c16613278565b60806134e181880183858d1c16613278565b60a06134f4818901848660501c16613278565b60c0613506818a0185878e1c16613278565b60e0613519818b01868860701c16613278565b61352b6101008b018688871c16613278565b61353e6101208b01868860901c16613278565b6135506101408b018688861c16613278565b6135636101608b01868860b01c16613278565b6135756101808b018688851c16613278565b6135886101a08b01868860d01c16613278565b61359a6101c08b018688841c16613278565b50505050506135b06101e086018260f01c613278565b50600194909401936102009390930192601001613481565b935493818110156135e9576135e18461ffff8716613278565b928201926001015b8181101561360a576136028461ffff8760101c16613278565b928201926001015b8181101561362a576136228461ffff87861c16613278565b928201926001015b8181101561364b576136438461ffff8760301c16613278565b928201926001015b8181101561366b576136638461ffff878a1c16613278565b928201926001015b8181101561368c576136848461ffff8760501c16613278565b928201926001015b818110156136ac576136a48461ffff87891c16613278565b928201926001015b818110156136cd576136c58461ffff8760701c16613278565b928201926001015b818110156136ee576136e68461ffff8760801c16613278565b928201926001015b8181101561370f576137078461ffff8760901c16613278565b928201926001015b81811015613730576137288461ffff8760a01c16613278565b928201926001015b81811015613751576137498461ffff8760b01c16613278565b928201926001015b818110156137725761376a8461ffff8760c01c16613278565b928201926001015b818110156137935761378b8461ffff8760d01c16613278565b928201926001015b818110156137b4576137ac8461ffff8760e01c16613278565b928201926001015b818110156137ce576137c9848660f01c613278565b928201925b50919998505050505050505050565b600060408201604083528085516137f4818461388c565b915081925060208082028301818901865b8481101561382f57868303865261381d838351613131565b95840195925090830190600101613805565b50508681038288015280945087519350613849848261388c565b9450508087019150845b838110156138745761386685845161316c565b945091810191600101613853565b5092979650505050505050565b901515815260200190565b90815260200190565b6001600160a01b0393841681526020810192909252909116604082015260600190565b60006020825282518060208401526138d78160408501602087016143c3565b601f01601f19169190910160400192915050565b60208082526015908201527434b73b30b634b2103932b9b2b93b32903a37b5b2b760591b604082015260600190565b60208082526010908201526f21b0b73737ba1039b2b636102ba1272160811b604082015260600190565b60208082526022908201527f456e756d657261626c655365743a20696e646578206f7574206f6620626f756e604082015261647360f01b606082015260800190565b60208082526026908201527f54696d656c6f636b436f6e74726f6c6c65723a206d697373696e6720646570656040820152656e64656e637960d01b606082015260800190565b6020808252602f908201527f416363657373436f6e74726f6c3a2073656e646572206d75737420626520616e60408201526e0818591b5a5b881d1bc819dc985b9d608a1b606082015260800190565b60208082526023908201527f54696d656c6f636b436f6e74726f6c6c65723a206c656e677468206d69736d616040820152620e8c6d60eb1b606082015260800190565b6020808252602e908201527f54696d656c6f636b436f6e74726f6c6c65723a2073656e64657220726571756960408201526d3932b9903832b936b4b9b9b4b7b760911b606082015260800190565b6020808252601b908201527f536166654d6174683a206164646974696f6e206f766572666c6f770000000000604082015260600190565b6020808252600e908201526d1a5b9d985b1a5908185b5bdd5b9d60921b604082015260600190565b6020808252601e908201527f536166654d6174683a207375627472616374696f6e206f766572666c6f770000604082015260600190565b60208082526012908201527126bab9ba1032b732103bb4ba34102ba1272160711b604082015260600190565b60208082526026908201527f416464726573733a20696e73756666696369656e742062616c616e636520666f6040820152651c8818d85b1b60d21b606082015260800190565b6020808252601a908201527f536166654d6174683a206469766973696f6e206279207a65726f000000000000604082015260600190565b60208082526030908201527f416363657373436f6e74726f6c3a2073656e646572206d75737420626520616e60408201526f2061646d696e20746f207265766f6b6560801b606082015260800190565b602080825260159082015274616d6f756e74206578636565642062616c616e636560581b604082015260600190565b60208082526026908201527f54696d656c6f636b436f6e74726f6c6c65723a20696e73756666696369656e746040820152652064656c617960d01b606082015260800190565b60208082526026908201527f54696d656c6f636b436f6e74726f6c6c65723a206172726179732064696666206040820152650d8cadccee8d60d31b606082015260800190565b6020808252602b908201527f7374617274546f6b656e206d757374206e6f74206265207468652073616d652060408201526a185cc81d1bdad95b915b9960aa1b606082015260800190565b60208082526026908201527f6475706c6963617465207265736572766520746f6b656e206973206e6f7420616040820152651b1b1bddd95960d21b606082015260800190565b6020808252601a908201527f616d6f756e74206d757374206265206d6f7265207468616e2030000000000000604082015260600190565b60208082526021908201527f536166654d6174683a206d756c7469706c69636174696f6e206f766572666c6f6040820152607760f81b606082015260800190565b60208082526017908201527f6e6f742062656e65666963696172792061646472657373000000000000000000604082015260600190565b60208082526038908201527f54696d656c6f636b436f6e74726f6c6c65723a20726577617264466163746f7260408201527f73546f74616c206d757374206265206d61782031303030300000000000000000606082015260800190565b60208082526021908201527f6f6e6c792063616e20636f6e7665727420746f207265736572766520746f6b656040820152603760f91b606082015260800190565b6020808252602f908201527f54696d656c6f636b436f6e74726f6c6c65723a206f7065726174696f6e20616c60408201526e1c9958591e481cd8da19591d5b1959608a1b606082015260800190565b6020808252601190820152703737ba103932b9b2b93b32903a37b5b2b760791b604082015260600190565b6020808252601590820152745f70617468206c656e67746820746f6f206c6f6e6760581b604082015260600190565b6020808252602a908201527f54696d656c6f636b436f6e74726f6c6c65723a206f7065726174696f6e206973604082015269206e6f7420726561647960b01b606082015260800190565b60208082526025908201527f7377617020616e6420616d6f756e74206861766520646966666572656e74206c6040820152640cadccee8d60db1b606082015260800190565b6020808252601d908201527f416464726573733a2063616c6c20746f206e6f6e2d636f6e7472616374000000604082015260600190565b60208082526031908201527f54696d656c6f636b436f6e74726f6c6c65723a206f7065726174696f6e2063616040820152701b9b9bdd0818994818d85b98d95b1b1959607a1b606082015260800190565b6020808252602a908201527f5361666545524332303a204552433230206f7065726174696f6e20646964206e6040820152691bdd081cdd58d8d9595960b21b606082015260800190565b602080825260139082015272696e76616c69642062656e656669636961727960681b604082015260600190565b6020808252601f908201527f5265656e7472616e637947756172643a207265656e7472616e742063616c6c00604082015260600190565b60208082526036908201527f5361666545524332303a20617070726f76652066726f6d206e6f6e2d7a65726f60408201527520746f206e6f6e2d7a65726f20616c6c6f77616e636560501b606082015260800190565b6020808252602b908201527f54696d656c6f636b436f6e74726f6c6c65723a2063616c6c6572206d7573742060408201526a62652074696d656c6f636b60a81b606082015260800190565b6020808252602f908201527f416363657373436f6e74726f6c3a2063616e206f6e6c792072656e6f756e636560408201526e103937b632b9903337b91039b2b63360891b606082015260800190565b60208082526033908201527f54696d656c6f636b436f6e74726f6c6c65723a20756e6465726c79696e6720746040820152721c985b9cd858dd1a5bdb881c995d995c9d1959606a1b606082015260800190565b6020808252601d908201527f74782e6f726967696e20213d2064657657616c6c657441646472657373000000604082015260600190565b61ffff91909116815260200190565b60008382526040602083015261279c6040830184613181565b918252602082015260400190565b600086825285602083015260a0604083015261431160a0830186613181565b6001600160a01b0394909416606083015250608001529392505050565b6000808335601e19843603018112614344578283fd5b8301803591506001600160401b0382111561435d578283fd5b602001915036819003821315612a5d57600080fd5b6040518181016001600160401b038111828210171561439057600080fd5b604052919050565b60006001600160401b038211156143ad578081fd5b5060209081020190565b60009081526020902090565b60005b838110156143de5781810151838201526020016143c6565b838111156124a45750506000910152565b6001600160a01b038116811461440457600080fd5b5056feb09aa5aeb3702cfd50b6b62bc4532604938f21248a27a1d5ca736082b6819cc1d8aa0f3194971a2a116679f7c2090f6939c8d4e01a2a8d7e41d55e5351469e63a26469706673582212203b361a2024e1e710f8773ab30bacd398ca4c20b0fb2e7d301e86561f2080691364736f6c634300060c00335f58e3a2316349923ce3780f8d587db2d72378aed66a8261c916544fa6846ca5b09aa5aeb3702cfd50b6b62bc4532604938f21248a27a1d5ca736082b6819cc1d8aa0f3194971a2a116679f7c2090f6939c8d4e01a2a8d7e41d55e5351469e63",
  "immutableReferences": {},
  "source": "// SPDX-License-Identifier: MIT\npragma solidity 0.6.12;\n\npragma experimental ABIEncoderV2;\n\nimport \"@openzeppelin/contracts/token/ERC20/IERC20.sol\";\nimport \"@openzeppelin/contracts/token/ERC20/SafeERC20.sol\";\nimport \"@openzeppelin/contracts/math/SafeMath.sol\";\nimport \"@openzeppelin/contracts/utils/ReentrancyGuard.sol\";\nimport \"@openzeppelin/contracts/access/AccessControl.sol\";\nimport \"./interfaces/IPancakeRouter01.sol\";\nimport \"./interfaces/IPancakeRouter02.sol\";\nimport \"./interfaces/IWBNB.sol\";\n\n/**\n * @dev Contract module which acts as a timelocked controller. When set as the\n * owner of an `Ownable` smart contract, it enforces a timelock on all\n * `onlyOwner` maintenance operations. This gives time for users of the\n * controlled contract to exit before a potentially dangerous maintenance\n * operation is applied.\n *\n * By default, this contract is self administered, meaning administration tasks\n * have to go through the timelock process. The proposer (resp executor) role\n * is in charge of proposing (resp executing) operations. A common use case is\n * to position this {TimelockController} as the owner of a smart contract, with\n * a multisig or a DAO as the sole proposer.\n *\n * _Available since v3.3._\n */\n\ncontract TimelockTreasury is\n    AccessControl,\n    ReentrancyGuard\n{\n    using SafeMath for uint256;\n    using SafeERC20 for IERC20;\n\n    bytes32 public constant TIMELOCK_ADMIN_ROLE =\n        keccak256(\"TIMELOCK_ADMIN_ROLE\");\n    bytes32 public constant PROPOSER_ROLE = keccak256(\"PROPOSER_ROLE\");\n    bytes32 public constant EXECUTOR_ROLE = keccak256(\"EXECUTOR_ROLE\");\n    uint256 internal constant _DONE_TIMESTAMP = uint256(1);\n\n    mapping(bytes32 => uint256) private _timestamps;\n    uint256 public minDelay; // in seconds\n    uint256 public minDelayReduced; // in seconds\n\n    address public wbnbAddress;\n    address payable public devWalletAddress;\n\n    address[] public beneficiaryAddresses;\n    uint16[] public beneficiaryRewardFactors;\n    IERC20[] public reserveTokens;\n\n    /**\n     * @dev Emitted when a call is scheduled as part of operation `id`.\n     */\n    event CallScheduled(\n        bytes32 indexed id,\n        uint256 indexed index,\n        address target,\n        uint256 value,\n        bytes data,\n        bytes32 predecessor,\n        uint256 delay\n    );\n\n    /**\n     * @dev Emitted when a call is scheduled as part of operation `id`.\n     */\n    event SetScheduled(\n        bytes32 indexed id,\n        uint256 indexed index,\n        address indexed farmAddress,\n        uint256 pid,\n        uint256 allocPoint,\n        uint256 harvestInterval,\n        uint256 harvestFeeInterval,\n        uint16 harvestFee,\n        bool withUpdate,\n        bytes32 predecessor,\n        uint256 delay\n    );\n\n    /**\n     * @dev Emitted when a call is performed as part of operation `id`.\n     */\n    event CallExecuted(\n        bytes32 indexed id,\n        uint256 indexed index,\n        address target,\n        uint256 value,\n        bytes data\n    );\n\n    /**\n     * @dev Emitted when operation `id` is cancelled.\n     */\n    event Cancelled(bytes32 indexed id);\n\n    /**\n     * @dev Emitted when the minimum delay for future operations is modified.\n     */\n    event MinDelayChange(uint256 oldDuration, uint256 newDuration);\n\n    event MinDelayReducedChange(uint256 oldDuration, uint256 newDuration);\n\n    event DistributeRewards(uint256 amount);\n    event DistributeReserve(IERC20 token, uint256 amount, address to);\n    event SetBeneficiaries(\n        address[] beneficiaryAddresses,\n        uint16[] beneficiaryRewardFactors\n    );\n    event SwapToReserves(Swap[] swaps, uint256[] _amounts);\n    event BeneficiaryRemoved(address beneficiaryAddress);\n    event ReserveTokenAdded(IERC20 token);\n    event ReserveTokenRemoved(IERC20 token);\n\n    struct Swap {\n        address router;\n        address[] path;\n        uint256 slippage;\n    }\n\n    /**\n     * @dev Initializes the contract with a given `minDelay`.\n     */\n    constructor(\n        address _wbnbAddress,\n        address payable _devWalletAddress,\n        uint256 _minDelay,\n        uint256 _minDelayReduced // address[] memory proposers, address[] memory executors\n    ) public {\n        wbnbAddress = _wbnbAddress;\n        devWalletAddress = _devWalletAddress;\n        minDelay = _minDelay;\n        minDelayReduced = _minDelayReduced;\n\n        _setRoleAdmin(TIMELOCK_ADMIN_ROLE, TIMELOCK_ADMIN_ROLE);\n        _setRoleAdmin(PROPOSER_ROLE, TIMELOCK_ADMIN_ROLE);\n        _setRoleAdmin(EXECUTOR_ROLE, TIMELOCK_ADMIN_ROLE);\n\n        // deployer + self administration\n        _setupRole(TIMELOCK_ADMIN_ROLE, _msgSender());\n        _setupRole(TIMELOCK_ADMIN_ROLE, address(this));\n\n        // register proposers\n        _setupRole(PROPOSER_ROLE, devWalletAddress);\n\n        // // register executors\n        _setupRole(EXECUTOR_ROLE, devWalletAddress);\n\n        emit MinDelayChange(0, minDelay);\n    }\n\n    /**\n     * @dev Modifier to make a function callable only by a certain role. In\n     * addition to checking the sender's role, `address(0)` 's role is also\n     * considered. Granting a role to `address(0)` is equivalent to enabling\n     * this role for everyone.\n     */\n    modifier onlyRole(bytes32 role) {\n        require(\n            hasRole(role, _msgSender()) || hasRole(role, address(0)),\n            \"TimelockController: sender requires permission\"\n        );\n        _;\n    }\n\n    /**\n     * @dev Contract might receive/hold ETH as part of the maintenance process.\n     */\n    receive() external payable {}\n\n    /**\n     * @dev Returns whether an operation is pending or not.\n     */\n    function isOperationPending(bytes32 id) public view returns (bool pending) {\n        return _timestamps[id] > _DONE_TIMESTAMP;\n    }\n\n    /**\n     * @dev Returns whether an operation is ready or not.\n     */\n    function isOperationReady(bytes32 id) public view returns (bool ready) {\n        // solhint-disable-next-line not-rely-on-time\n        return\n            _timestamps[id] > _DONE_TIMESTAMP &&\n            _timestamps[id] <= block.timestamp;\n    }\n\n    /**\n     * @dev Returns whether an operation is done or not.\n     */\n    function isOperationDone(bytes32 id) public view returns (bool done) {\n        return _timestamps[id] == _DONE_TIMESTAMP;\n    }\n\n    /**\n     * @dev Returns the timestamp at with an operation becomes ready (0 for\n     * unset operations, 1 for done operations).\n     */\n    function getTimestamp(bytes32 id) public view returns (uint256 timestamp) {\n        return _timestamps[id];\n    }\n\n    /**\n     * @dev Returns the minimum delay for an operation to become valid.\n     *\n     * This value can be changed by executing an operation that calls `updateDelay`.\n     */\n    function getMinDelay() public view returns (uint256 duration) {\n        return minDelay;\n    }\n\n    /**\n     * @dev Returns the identifier of an operation containing a single\n     * transaction.\n     */\n    function hashOperation(\n        address target,\n        uint256 value,\n        bytes calldata data,\n        bytes32 predecessor,\n        bytes32 salt\n    ) public pure returns (bytes32 hash) {\n        return keccak256(abi.encode(target, value, data, predecessor, salt));\n    }\n\n    /**\n     * @dev Returns the identifier of an operation containing a batch of\n     * transactions.\n     */\n    function hashOperationBatch(\n        address[] calldata targets,\n        uint256[] calldata values,\n        bytes[] calldata datas,\n        bytes32 predecessor,\n        bytes32 salt\n    ) public pure returns (bytes32 hash) {\n        return keccak256(abi.encode(targets, values, datas, predecessor, salt));\n    }\n\n    /**\n     * @dev Schedule an operation containing a single transaction.\n     *\n     * Emits a {CallScheduled} event.\n     *\n     * Requirements:\n     *\n     * - the caller must have the 'proposer' role.\n     */\n    function schedule(\n        address target,\n        uint256 value,\n        bytes calldata data,\n        bytes32 predecessor,\n        bytes32 salt,\n        uint256 delay\n    ) public virtual onlyRole(PROPOSER_ROLE) {\n        bytes32 id = hashOperation(target, value, data, predecessor, salt);\n        _schedule(id, delay);\n        emit CallScheduled(id, 0, target, value, data, predecessor, delay);\n    }\n\n    /**\n     * @dev Schedule an operation containing a batch of transactions.\n     *\n     * Emits one {CallScheduled} event per transaction in the batch.\n     *\n     * Requirements:\n     *\n     * - the caller must have the 'proposer' role.\n     */\n    function scheduleBatch(\n        address[] calldata targets,\n        uint256[] calldata values,\n        bytes[] calldata datas,\n        bytes32 predecessor,\n        bytes32 salt,\n        uint256 delay\n    ) public virtual onlyRole(PROPOSER_ROLE) {\n        require(\n            targets.length == values.length,\n            \"TimelockController: length mismatch\"\n        );\n        require(\n            targets.length == datas.length,\n            \"TimelockController: length mismatch\"\n        );\n\n        bytes32 id =\n            hashOperationBatch(targets, values, datas, predecessor, salt);\n        _schedule(id, delay);\n        for (uint256 i = 0; i < targets.length; ++i) {\n            emit CallScheduled(\n                id,\n                i,\n                targets[i],\n                values[i],\n                datas[i],\n                predecessor,\n                delay\n            );\n        }\n    }\n\n    /**\n     * @dev Schedule an operation that is to becomes valid after a given delay.\n     */\n    function _schedule(bytes32 id, uint256 delay) private {\n        require(\n            _timestamps[id] == 0,\n            \"TimelockController: operation already scheduled\"\n        );\n        require(delay >= minDelay, \"TimelockController: insufficient delay\");\n        // solhint-disable-next-line not-rely-on-time\n        _timestamps[id] = SafeMath.add(block.timestamp, delay);\n    }\n\n    /**\n     * @dev Cancel an operation.\n     *\n     * Requirements:\n     *\n     * - the caller must have the 'proposer' role.\n     */\n    function cancel(bytes32 id) public virtual onlyRole(PROPOSER_ROLE) {\n        require(\n            isOperationPending(id),\n            \"TimelockController: operation cannot be cancelled\"\n        );\n        delete _timestamps[id];\n\n        emit Cancelled(id);\n    }\n\n    /**\n     * @dev Execute an (ready) operation containing a single transaction.\n     *\n     * Emits a {CallExecuted} event.\n     *\n     * Requirements:\n     *\n     * - the caller must have the 'executor' role.\n     */\n    function execute(\n        address target,\n        uint256 value,\n        bytes calldata data,\n        bytes32 predecessor,\n        bytes32 salt\n    ) public payable virtual onlyRole(EXECUTOR_ROLE) nonReentrant {\n        bytes32 id = hashOperation(target, value, data, predecessor, salt);\n        _beforeCall(id, predecessor);\n        _call(id, 0, target, value, data);\n        _afterCall(id);\n    }\n\n    /**\n     * @dev Execute an (ready) operation containing a batch of transactions.\n     *\n     * Emits one {CallExecuted} event per transaction in the batch.\n     *\n     * Requirements:\n     *\n     * - the caller must have the 'executor' role.\n     */\n    function executeBatch(\n        address[] calldata targets,\n        uint256[] calldata values,\n        bytes[] calldata datas,\n        bytes32 predecessor,\n        bytes32 salt\n    ) public payable virtual onlyRole(EXECUTOR_ROLE) nonReentrant {\n        require(\n            targets.length == values.length,\n            \"TimelockController: length mismatch\"\n        );\n        require(\n            targets.length == datas.length,\n            \"TimelockController: length mismatch\"\n        );\n\n        bytes32 id =\n            hashOperationBatch(targets, values, datas, predecessor, salt);\n        _beforeCall(id, predecessor);\n        for (uint256 i = 0; i < targets.length; ++i) {\n            _call(id, i, targets[i], values[i], datas[i]);\n        }\n        _afterCall(id);\n    }\n\n    /**\n     * @dev Checks before execution of an operation's calls.\n     */\n    function _beforeCall(bytes32 _id, bytes32 predecessor) private view {\n        require(\n            isOperationReady(_id),\n            \"TimelockController: operation is not ready\"\n        );\n        require(\n            predecessor == bytes32(0) || isOperationDone(predecessor),\n            \"TimelockController: missing dependency\"\n        );\n    }\n\n    /**\n     * @dev Checks after execution of an operation's calls.\n     */\n    function _afterCall(bytes32 id) private {\n        require(\n            isOperationReady(id),\n            \"TimelockController: operation is not ready\"\n        );\n        _timestamps[id] = _DONE_TIMESTAMP;\n    }\n\n    /**\n     * @dev Execute an operation's call.\n     *\n     * Emits a {CallExecuted} event.\n     */\n    function _call(\n        bytes32 id,\n        uint256 index,\n        address target,\n        uint256 value,\n        bytes calldata data\n    ) private {\n        // solhint-disable-next-line avoid-low-level-calls\n        (bool success, ) = target.call{value: value}(data);\n        require(success, \"TimelockController: underlying transaction reverted\");\n\n        emit CallExecuted(id, index, target, value, data);\n    }\n\n    /**\n     * @dev Changes the minimum timelock duration for future operations.\n     *\n     * Emits a {MinDelayChange} event.\n     *\n     * Requirements:\n     *\n     * - the caller must be the timelock itself. This can only be achieved by scheduling and later executing\n     * an operation where the timelock is the target and the data is the ABI-encoded call to this function.\n     */\n    function updateMinDelay(uint256 newDelay) external virtual {\n        require(\n            msg.sender == address(this),\n            \"TimelockController: caller must be timelock\"\n        );\n        emit MinDelayChange(minDelay, newDelay);\n        minDelay = newDelay;\n    }\n\n    function updateMinDelayReduced(uint256 newDelay) external virtual {\n        require(\n            msg.sender == address(this),\n            \"TimelockController: caller must be timelock\"\n        );\n        emit MinDelayReducedChange(minDelayReduced, newDelay);\n        minDelayReduced = newDelay;\n    }\n\n    function setDevWalletAddress(address payable _devWalletAddress) public {\n        require(\n            msg.sender == address(this),\n            \"TimelockController: caller must be timelock\"\n        );\n        require(tx.origin == devWalletAddress, \"tx.origin != devWalletAddress\");\n        devWalletAddress = _devWalletAddress;\n    }\n\n    function convertTokensToReserve(\n        Swap[] memory _swaps,\n        uint256[] memory _amounts\n    ) public {\n        require(_swaps.length == _amounts.length, \"swap and amount have different length\");\n        for (uint8 i = 0; i < _swaps.length; i++) {\n            Swap memory sw = _swaps[i];\n            uint256 amount = _amounts[i];\n            _convertTokenToReserve(\n                sw.router,\n                amount,\n                sw.path,\n                sw.slippage\n            );\n        }\n        emit SwapToReserves(_swaps, _amounts);\n    }\n\n    function _convertTokenToReserve(\n        address _router,\n        uint256 _amount,\n        address[] memory _path,\n        uint256 _slippage\n    ) internal {\n        address tokenStart = _path[0];\n        address tokenEnd = _path[_path.length.sub(1)];\n        require(tokenEnd != tokenStart, \"startToken must not be the same as tokenEnd\");\n\n        bool isValidReserve = false;\n        for (uint8 i = 0; i < reserveTokens.length; i++) {\n            if (reserveTokens[i] == IERC20(tokenEnd)) {\n                isValidReserve = true;\n                break;\n            }\n        }\n        require(isValidReserve, \"only can convert to reserve token\");\n\n        uint256 balance = IERC20(tokenStart).balanceOf(address(this));\n        require(_amount <= balance, 'amount exceed balance');\n        require(_amount > 0, 'amount must be more than 0');\n\n        IERC20(tokenStart).safeApprove(_router, 0);\n        IERC20(tokenStart).safeIncreaseAllowance(_router, _amount);\n        _safeSwap(\n            _router,\n            _amount,\n            _slippage,\n            _path,\n            address(this),\n            block.timestamp.add(600)\n        );\n    }\n\n    function convertTokensToWBNB(\n        Swap[] memory _swaps\n    ) external onlyRole(EXECUTOR_ROLE) {\n        for(uint8 i = 0; i < _swaps.length; i ++) {\n            Swap memory s = _swaps[i];\n            _convertTokenToWBNB(s.router, s.path, s.slippage);\n        }\n    }\n\n    function _convertTokenToWBNB(\n        address _router,\n        address[] memory _path,\n        uint256 _slippage // slippage allowance | 990 = 1% | 950 = 5%\n    ) internal {\n        address tokenStartAddress = _path[0];\n        address tokenEndAddress = _path[_path.length.sub(1)];\n\n        require(_path.length <= 4, \"_path length too long\");\n        require(tokenStartAddress != wbnbAddress, \"Cannot sell WBNB\");\n        require(tokenEndAddress == wbnbAddress, \"Must end with WBNB\");\n\n        uint256 tokenStartAmt =\n            IERC20(tokenStartAddress).balanceOf(address(this));\n        if (tokenStartAmt > 0) {\n            IERC20(tokenStartAddress).safeApprove(_router, 0);\n            IERC20(tokenStartAddress).safeIncreaseAllowance(\n                _router,\n                tokenStartAmt\n            );\n\n            // Swap all tokens to tokens\n            _safeSwap(\n                _router,\n                tokenStartAmt,\n                _slippage,\n                _path,\n                address(this),\n                block.timestamp.add(600)\n            );\n        }\n    }\n\n    function distributeReservesTo(\n        uint256 _amount,\n        IERC20 _reserve,\n        address _beneficiary\n    ) public {\n        require(\n            msg.sender == address(this),\n            \"TimelockController: caller must be timelock\"\n        );\n        bool isBeneficiary = false;\n        for (uint8 i = 0; i < beneficiaryAddresses.length; i++) {\n            if (_beneficiary == beneficiaryAddresses[i]) {\n                isBeneficiary = true;\n                break;\n            }\n        }\n        require(isBeneficiary, \"not beneficiary address\");\n\n        bool isReserve = false;\n        for (uint8 i = 0; i < reserveTokens.length; i++) {\n            if (_reserve == reserveTokens[i]) {\n                isReserve = true;\n                break;\n            }\n        }\n        require(isReserve, \"not reserve token\");\n\n        uint256 balance = IERC20(_reserve).balanceOf(address(this));\n        require(_amount <= balance, \"invalid amount\");\n\n        IERC20(_reserve).transfer(_beneficiary, _amount);\n        emit DistributeReserve(_reserve, _amount, _beneficiary);\n    }\n\n    function distributeRewards()\n        public\n    {\n        require(\n            msg.sender == address(this),\n            \"TimelockController: caller must be timelock\"\n        );\n        uint256 rewardsAmt = IERC20(wbnbAddress).balanceOf(address(this));\n        for (uint8 j = 0; j < beneficiaryAddresses.length; j++) {\n            IERC20(wbnbAddress).transfer(\n                beneficiaryAddresses[j],\n                rewardsAmt.mul(beneficiaryRewardFactors[j]).div(10000)\n            );\n        }\n        emit DistributeRewards(rewardsAmt);\n    }\n\n    function removeBeneficiary(\n        address _beneficiary\n    ) public virtual {\n        require(\n            msg.sender == address(this),\n            \"TimelockController: caller must be timelock\"\n        );\n\n        bool isValidBeneficiary = false;\n        uint8 beneficiaryIndex;\n        uint256 beneficiaryCount = beneficiaryAddresses.length;\n        for (uint8 i; i < beneficiaryCount; i++) {\n            if (beneficiaryAddresses[i] == _beneficiary) {\n                beneficiaryIndex = i;\n                isValidBeneficiary = true;\n                break;\n            }\n        }\n        require(isValidBeneficiary, \"invalid beneficiary\");\n\n        address lastBeneficiary = beneficiaryAddresses[beneficiaryCount.sub(1)];\n        uint16 lastRewardFactor = beneficiaryRewardFactors[beneficiaryCount.sub(1)];\n\n        beneficiaryAddresses[beneficiaryIndex] = lastBeneficiary;\n        beneficiaryRewardFactors[beneficiaryIndex] = lastRewardFactor;\n\n        beneficiaryAddresses.pop();\n        beneficiaryRewardFactors.pop();\n        emit BeneficiaryRemoved(_beneficiary);\n    }\n\n    function addReserveToken(\n        IERC20 _reserve\n    ) public {\n        require(\n            msg.sender == address(this),\n            \"TimelockController: caller must be timelock\"\n        );\n\n        bool isDuplicate = false;\n        for (uint8 i; i < reserveTokens.length; i++) {\n            if (reserveTokens[i] == _reserve) {\n                isDuplicate = true;\n                break;\n            }\n        }\n        require(!isDuplicate, \"duplicate reserve token is not allowed\");\n\n        reserveTokens.push(_reserve);\n        emit ReserveTokenAdded(_reserve);\n    }\n\n    function removeReserveToken(\n        IERC20 _reserve\n    ) public {\n        require(\n            msg.sender == address(this),\n            \"TimelockController: caller must be timelock\"\n        );\n\n        bool isValidReserveToken = false;\n        uint8 reserveIndex;\n        uint256 reserveCount = reserveTokens.length;\n        for (uint8 i; i < reserveCount; i++) {\n            if (reserveTokens[i] == _reserve) {\n                reserveIndex = i;\n                isValidReserveToken = true;\n                break;\n            }\n        }\n        require(isValidReserveToken, \"invalid reserve token\");\n\n        IERC20 lastReserve = reserveTokens[reserveCount.sub(1)];\n\n        reserveTokens[reserveIndex] = lastReserve;\n        reserveTokens.pop();\n\n        emit ReserveTokenRemoved(_reserve);\n    }\n\n    function setBeneficiaries(\n        address[] memory _beneficiaryAddresses,\n        uint16[] memory _beneficiaryRewardFactors\n    ) public virtual {\n        require(\n            msg.sender == address(this),\n            \"TimelockController: caller must be timelock\"\n        );\n\n        require(\n            _beneficiaryAddresses.length == _beneficiaryRewardFactors.length,\n            \"TimelockController: arrays diff length\"\n        );\n\n        uint256 rewardFactorsTotal = 0;\n        for (uint8 i = 0; i < _beneficiaryRewardFactors.length; i++) {\n            rewardFactorsTotal = rewardFactorsTotal.add(_beneficiaryRewardFactors[i]);\n        }\n\n        require(\n            rewardFactorsTotal <= 10000,\n            \"TimelockController: rewardFactorsTotal must be max 10000\"\n        );\n\n        beneficiaryAddresses = _beneficiaryAddresses;\n        beneficiaryRewardFactors = _beneficiaryRewardFactors;\n        rewardFactorsTotal = rewardFactorsTotal;\n\n        emit SetBeneficiaries(beneficiaryAddresses, beneficiaryRewardFactors);\n    }\n\n    function _wrapBNB() internal virtual {\n        // BNB -> WBNB\n        uint256 bnbBal = address(this).balance;\n        if (bnbBal > 0) {\n            IWBNB(wbnbAddress).deposit{value: bnbBal}(); // BNB -> WBNB\n        }\n    }\n\n    function _safeSwap(\n        address _uniRouterAddress,\n        uint256 _amountIn,\n        uint256 _slippageFactor,\n        address[] memory _path,\n        address _to,\n        uint256 _deadline\n    ) internal virtual {\n        uint256[] memory amounts =\n            IPancakeRouter02(_uniRouterAddress).getAmountsOut(_amountIn, _path);\n        uint256 amountOut = amounts[amounts.length.sub(1)];\n\n        IPancakeRouter02(_uniRouterAddress)\n            .swapExactTokensForTokensSupportingFeeOnTransferTokens(\n            _amountIn,\n            amountOut.mul(_slippageFactor).div(1000),\n            _path,\n            _to,\n            _deadline\n        );\n    }\n}\n",
  "sourcePath": "/workspaces/beli-farm/src/contracts/TimelockTreasury.sol",
  "compiler": {
    "name": "solc",
    "version": "0.6.12+commit.27d51765.Emscripten.clang"
  },
  "schemaVersion": "3.4.3",
  "updatedAt": "2022-03-02T01:52:05.992Z",
  "networkType": "ethereum",
  "devdoc": {
    "details": "Contract module which acts as a timelocked controller. When set as the owner of an `Ownable` smart contract, it enforces a timelock on all `onlyOwner` maintenance operations. This gives time for users of the controlled contract to exit before a potentially dangerous maintenance operation is applied. By default, this contract is self administered, meaning administration tasks have to go through the timelock process. The proposer (resp executor) role is in charge of proposing (resp executing) operations. A common use case is to position this {TimelockController} as the owner of a smart contract, with a multisig or a DAO as the sole proposer. _Available since v3.3._",
    "events": {
      "CallExecuted(bytes32,uint256,address,uint256,bytes)": {
        "details": "Emitted when a call is performed as part of operation `id`."
      },
      "CallScheduled(bytes32,uint256,address,uint256,bytes,bytes32,uint256)": {
        "details": "Emitted when a call is scheduled as part of operation `id`."
      },
      "Cancelled(bytes32)": {
        "details": "Emitted when operation `id` is cancelled."
      },
      "MinDelayChange(uint256,uint256)": {
        "details": "Emitted when the minimum delay for future operations is modified."
      },
      "SetScheduled(bytes32,uint256,address,uint256,uint256,uint256,uint256,uint16,bool,bytes32,uint256)": {
        "details": "Emitted when a call is scheduled as part of operation `id`."
      }
    },
    "kind": "dev",
    "methods": {
      "cancel(bytes32)": {
        "details": "Cancel an operation. Requirements: - the caller must have the 'proposer' role."
      },
      "constructor": {
        "details": "Initializes the contract with a given `minDelay`."
      },
      "execute(address,uint256,bytes,bytes32,bytes32)": {
        "details": "Execute an (ready) operation containing a single transaction. Emits a {CallExecuted} event. Requirements: - the caller must have the 'executor' role."
      },
      "executeBatch(address[],uint256[],bytes[],bytes32,bytes32)": {
        "details": "Execute an (ready) operation containing a batch of transactions. Emits one {CallExecuted} event per transaction in the batch. Requirements: - the caller must have the 'executor' role."
      },
      "getMinDelay()": {
        "details": "Returns the minimum delay for an operation to become valid. This value can be changed by executing an operation that calls `updateDelay`."
      },
      "getRoleAdmin(bytes32)": {
        "details": "Returns the admin role that controls `role`. See {grantRole} and {revokeRole}. To change a role's admin, use {_setRoleAdmin}."
      },
      "getRoleMember(bytes32,uint256)": {
        "details": "Returns one of the accounts that have `role`. `index` must be a value between 0 and {getRoleMemberCount}, non-inclusive. Role bearers are not sorted in any particular way, and their ordering may change at any point. WARNING: When using {getRoleMember} and {getRoleMemberCount}, make sure you perform all queries on the same block. See the following https://forum.openzeppelin.com/t/iterating-over-elements-on-enumerableset-in-openzeppelin-contracts/2296[forum post] for more information."
      },
      "getRoleMemberCount(bytes32)": {
        "details": "Returns the number of accounts that have `role`. Can be used together with {getRoleMember} to enumerate all bearers of a role."
      },
      "getTimestamp(bytes32)": {
        "details": "Returns the timestamp at with an operation becomes ready (0 for unset operations, 1 for done operations)."
      },
      "grantRole(bytes32,address)": {
        "details": "Grants `role` to `account`. If `account` had not been already granted `role`, emits a {RoleGranted} event. Requirements: - the caller must have ``role``'s admin role."
      },
      "hasRole(bytes32,address)": {
        "details": "Returns `true` if `account` has been granted `role`."
      },
      "hashOperation(address,uint256,bytes,bytes32,bytes32)": {
        "details": "Returns the identifier of an operation containing a single transaction."
      },
      "hashOperationBatch(address[],uint256[],bytes[],bytes32,bytes32)": {
        "details": "Returns the identifier of an operation containing a batch of transactions."
      },
      "isOperationDone(bytes32)": {
        "details": "Returns whether an operation is done or not."
      },
      "isOperationPending(bytes32)": {
        "details": "Returns whether an operation is pending or not."
      },
      "isOperationReady(bytes32)": {
        "details": "Returns whether an operation is ready or not."
      },
      "renounceRole(bytes32,address)": {
        "details": "Revokes `role` from the calling account. Roles are often managed via {grantRole} and {revokeRole}: this function's purpose is to provide a mechanism for accounts to lose their privileges if they are compromised (such as when a trusted device is misplaced). If the calling account had been granted `role`, emits a {RoleRevoked} event. Requirements: - the caller must be `account`."
      },
      "revokeRole(bytes32,address)": {
        "details": "Revokes `role` from `account`. If `account` had been granted `role`, emits a {RoleRevoked} event. Requirements: - the caller must have ``role``'s admin role."
      },
      "schedule(address,uint256,bytes,bytes32,bytes32,uint256)": {
        "details": "Schedule an operation containing a single transaction. Emits a {CallScheduled} event. Requirements: - the caller must have the 'proposer' role."
      },
      "scheduleBatch(address[],uint256[],bytes[],bytes32,bytes32,uint256)": {
        "details": "Schedule an operation containing a batch of transactions. Emits one {CallScheduled} event per transaction in the batch. Requirements: - the caller must have the 'proposer' role."
      },
      "updateMinDelay(uint256)": {
        "details": "Changes the minimum timelock duration for future operations. Emits a {MinDelayChange} event. Requirements: - the caller must be the timelock itself. This can only be achieved by scheduling and later executing an operation where the timelock is the target and the data is the ABI-encoded call to this function."
      }
    },
    "version": 1
  },
  "userdoc": {
    "kind": "user",
    "methods": {},
    "version": 1
  }
}