{
  "contractName": "Referral",
  "abi": [
    {
      "anonymous": false,
      "inputs": [
        {
          "indexed": true,
          "internalType": "address",
          "name": "operator",
          "type": "address"
        },
        {
          "indexed": true,
          "internalType": "bool",
          "name": "status",
          "type": "bool"
        }
      ],
      "name": "OperatorUpdated",
      "type": "event"
    },
    {
      "anonymous": false,
      "inputs": [
        {
          "indexed": true,
          "internalType": "address",
          "name": "previousOwner",
          "type": "address"
        },
        {
          "indexed": true,
          "internalType": "address",
          "name": "newOwner",
          "type": "address"
        }
      ],
      "name": "OwnershipTransferred",
      "type": "event"
    },
    {
      "anonymous": false,
      "inputs": [
        {
          "indexed": true,
          "internalType": "address",
          "name": "referrer",
          "type": "address"
        },
        {
          "indexed": false,
          "internalType": "uint256",
          "name": "commission",
          "type": "uint256"
        }
      ],
      "name": "ReferralCommissionRecorded",
      "type": "event"
    },
    {
      "anonymous": false,
      "inputs": [
        {
          "indexed": true,
          "internalType": "address",
          "name": "user",
          "type": "address"
        },
        {
          "indexed": true,
          "internalType": "address",
          "name": "referrer",
          "type": "address"
        }
      ],
      "name": "ReferralRecorded",
      "type": "event"
    },
    {
      "inputs": [
        {
          "internalType": "address",
          "name": "",
          "type": "address"
        }
      ],
      "name": "operators",
      "outputs": [
        {
          "internalType": "bool",
          "name": "",
          "type": "bool"
        }
      ],
      "stateMutability": "view",
      "type": "function",
      "constant": true
    },
    {
      "inputs": [],
      "name": "owner",
      "outputs": [
        {
          "internalType": "address",
          "name": "",
          "type": "address"
        }
      ],
      "stateMutability": "view",
      "type": "function",
      "constant": true
    },
    {
      "inputs": [
        {
          "internalType": "address",
          "name": "",
          "type": "address"
        }
      ],
      "name": "referralsCount",
      "outputs": [
        {
          "internalType": "uint256",
          "name": "",
          "type": "uint256"
        }
      ],
      "stateMutability": "view",
      "type": "function",
      "constant": true
    },
    {
      "inputs": [
        {
          "internalType": "address",
          "name": "",
          "type": "address"
        }
      ],
      "name": "referrers",
      "outputs": [
        {
          "internalType": "address",
          "name": "",
          "type": "address"
        }
      ],
      "stateMutability": "view",
      "type": "function",
      "constant": true
    },
    {
      "inputs": [],
      "name": "renounceOwnership",
      "outputs": [],
      "stateMutability": "nonpayable",
      "type": "function"
    },
    {
      "inputs": [
        {
          "internalType": "address",
          "name": "",
          "type": "address"
        }
      ],
      "name": "totalReferralCommissions",
      "outputs": [
        {
          "internalType": "uint256",
          "name": "",
          "type": "uint256"
        }
      ],
      "stateMutability": "view",
      "type": "function",
      "constant": true
    },
    {
      "inputs": [
        {
          "internalType": "address",
          "name": "newOwner",
          "type": "address"
        }
      ],
      "name": "transferOwnership",
      "outputs": [],
      "stateMutability": "nonpayable",
      "type": "function"
    },
    {
      "inputs": [
        {
          "internalType": "address",
          "name": "_user",
          "type": "address"
        },
        {
          "internalType": "address",
          "name": "_referrer",
          "type": "address"
        }
      ],
      "name": "recordReferral",
      "outputs": [],
      "stateMutability": "nonpayable",
      "type": "function"
    },
    {
      "inputs": [
        {
          "internalType": "address",
          "name": "_referrer",
          "type": "address"
        },
        {
          "internalType": "uint256",
          "name": "_commission",
          "type": "uint256"
        }
      ],
      "name": "recordReferralCommission",
      "outputs": [],
      "stateMutability": "nonpayable",
      "type": "function"
    },
    {
      "inputs": [
        {
          "internalType": "address",
          "name": "_user",
          "type": "address"
        }
      ],
      "name": "getReferrer",
      "outputs": [
        {
          "internalType": "address",
          "name": "",
          "type": "address"
        }
      ],
      "stateMutability": "view",
      "type": "function",
      "constant": true
    },
    {
      "inputs": [
        {
          "internalType": "address",
          "name": "_operator",
          "type": "address"
        },
        {
          "internalType": "bool",
          "name": "_status",
          "type": "bool"
        }
      ],
      "name": "updateOperator",
      "outputs": [],
      "stateMutability": "nonpayable",
      "type": "function"
    },
    {
      "inputs": [
        {
          "internalType": "contract IERC20",
          "name": "_token",
          "type": "address"
        },
        {
          "internalType": "uint256",
          "name": "_amount",
          "type": "uint256"
        },
        {
          "internalType": "address",
          "name": "_to",
          "type": "address"
        }
      ],
      "name": "drainERC0Token",
      "outputs": [],
      "stateMutability": "nonpayable",
      "type": "function"
    }
  ],
  "bytecode": "0x608060405234801561001057600080fd5b50600061001b61006a565b600080546001600160a01b0319166001600160a01b0383169081178255604051929350917f8be0079c531659141344cd1fd0a4f28419497f9722a3daafe3b4186f6b6457e0908290a35061006e565b3390565b610c818061007d6000396000f3fe608060405234801561001057600080fd5b50600436106100b45760003560e01c80636d44a3b2116100715780636d44a3b2146101f9578063715018a6146102275780638da5cb5b1461022f5780639ecfc6ea14610237578063dc1694b81461025d578063f2fde38b14610289576100b4565b80630c7f7b6b146100b95780631233c21e146100e957806313e7c9d81461011f5780634a3b68cc146101595780634a9fefc71461019b5780636b366c66146101c1575b600080fd5b6100e7600480360360408110156100cf57600080fd5b506001600160a01b03813581169160200135166102af565b005b6100e7600480360360608110156100ff57600080fd5b506001600160a01b038135811691602081013591604090910135166103d0565b6101456004803603602081101561013557600080fd5b50356001600160a01b031661044b565b604080519115158252519081900360200190f35b61017f6004803603602081101561016f57600080fd5b50356001600160a01b0316610460565b604080516001600160a01b039092168252519081900360200190f35b61017f600480360360208110156101b157600080fd5b50356001600160a01b031661047b565b6101e7600480360360208110156101d757600080fd5b50356001600160a01b0316610499565b60408051918252519081900360200190f35b6100e76004803603604081101561020f57600080fd5b506001600160a01b03813516906020013515156104ab565b6100e7610561565b61017f61060d565b6101e76004803603602081101561024d57600080fd5b50356001600160a01b031661061c565b6100e76004803603604081101561027357600080fd5b506001600160a01b03813516906020013561062e565b6100e76004803603602081101561029f57600080fd5b50356001600160a01b031661070a565b3360009081526001602052604090205460ff166102fd5760405162461bcd60e51b8152600401808060200182810382526024815260200180610c286024913960400191505060405180910390fd5b6001600160a01b0382161580159061031d57506001600160a01b03811615155b801561033b5750806001600160a01b0316826001600160a01b031614155b801561035f57506001600160a01b0382811660009081526002602052604090205416155b156103cc576001600160a01b03828116600081815260026020908152604080832080546001600160a01b0319169587169586179055848352600390915280822080546001019055517ff61ccbe316daff56654abed758191f9a4dcac526d43747a50a2d545c0ca64d829190a35b5050565b6103d861080c565b6001600160a01b03166103e961060d565b6001600160a01b031614610432576040805162461bcd60e51b81526020600482018190526024820152600080516020610bde833981519152604482015290519081900360640190fd5b6104466001600160a01b0384168284610810565b505050565b60016020526000908152604090205460ff1681565b6002602052600090815260409020546001600160a01b031681565b6001600160a01b039081166000908152600260205260409020541690565b60036020526000908152604090205481565b6104b361080c565b6001600160a01b03166104c461060d565b6001600160a01b03161461050d576040805162461bcd60e51b81526020600482018190526024820152600080516020610bde833981519152604482015290519081900360640190fd5b6001600160a01b038216600081815260016020526040808220805460ff191685151590811790915590519092917f966c160e1c4dbc7df8d69af4ace01e9297c3cf016397b7914971f2fbfa32672d91a35050565b61056961080c565b6001600160a01b031661057a61060d565b6001600160a01b0316146105c3576040805162461bcd60e51b81526020600482018190526024820152600080516020610bde833981519152604482015290519081900360640190fd5b600080546040516001600160a01b03909116907f8be0079c531659141344cd1fd0a4f28419497f9722a3daafe3b4186f6b6457e0908390a3600080546001600160a01b0319169055565b6000546001600160a01b031690565b60046020526000908152604090205481565b3360009081526001602052604090205460ff1661067c5760405162461bcd60e51b8152600401808060200182810382526024815260200180610c286024913960400191505060405180910390fd5b6001600160a01b03821660008181526004602052604090205490158015906106a45750600082115b15610446576106b38183610862565b6001600160a01b038416600081815260046020908152604091829020939093558051858152905191927f91badd4ef769cf56b7db0b350b95c9fb6d973e6e37d28a51fed219cc7d53184f92918290030190a2505050565b61071261080c565b6001600160a01b031661072361060d565b6001600160a01b03161461076c576040805162461bcd60e51b81526020600482018190526024820152600080516020610bde833981519152604482015290519081900360640190fd5b6001600160a01b0381166107b15760405162461bcd60e51b8152600401808060200182810382526026815260200180610b926026913960400191505060405180910390fd5b600080546040516001600160a01b03808516939216917f8be0079c531659141344cd1fd0a4f28419497f9722a3daafe3b4186f6b6457e091a3600080546001600160a01b0319166001600160a01b0392909216919091179055565b3390565b604080516001600160a01b038416602482015260448082018490528251808303909101815260649091019091526020810180516001600160e01b031663a9059cbb60e01b1790526104469084906108c3565b6000828201838110156108bc576040805162461bcd60e51b815260206004820152601b60248201527f536166654d6174683a206164646974696f6e206f766572666c6f770000000000604482015290519081900360640190fd5b9392505050565b6060610918826040518060400160405280602081526020017f5361666545524332303a206c6f772d6c6576656c2063616c6c206661696c6564815250856001600160a01b03166109749092919063ffffffff16565b8051909150156104465780806020019051602081101561093757600080fd5b50516104465760405162461bcd60e51b815260040180806020018281038252602a815260200180610bfe602a913960400191505060405180910390fd5b6060610983848460008561098b565b949350505050565b6060824710156109cc5760405162461bcd60e51b8152600401808060200182810382526026815260200180610bb86026913960400191505060405180910390fd5b6109d585610ae7565b610a26576040805162461bcd60e51b815260206004820152601d60248201527f416464726573733a2063616c6c20746f206e6f6e2d636f6e7472616374000000604482015290519081900360640190fd5b60006060866001600160a01b031685876040518082805190602001908083835b60208310610a655780518252601f199092019160209182019101610a46565b6001836020036101000a03801982511681845116808217855250505050505090500191505060006040518083038185875af1925050503d8060008114610ac7576040519150601f19603f3d011682016040523d82523d6000602084013e610acc565b606091505b5091509150610adc828286610aed565b979650505050505050565b3b151590565b60608315610afc5750816108bc565b825115610b0c5782518084602001fd5b8160405162461bcd60e51b81526004018080602001828103825283818151815260200191508051906020019080838360005b83811015610b56578181015183820152602001610b3e565b50505050905090810190601f168015610b835780820380516001836020036101000a031916815260200191505b509250505060405180910390fdfe4f776e61626c653a206e6577206f776e657220697320746865207a65726f2061646472657373416464726573733a20696e73756666696369656e742062616c616e636520666f722063616c6c4f776e61626c653a2063616c6c6572206973206e6f7420746865206f776e65725361666545524332303a204552433230206f7065726174696f6e20646964206e6f7420737563636565644f70657261746f723a2063616c6c6572206973206e6f7420746865206f70657261746f72a2646970667358221220e3af7ae088a8fcef1fdcf4190e3da7a765415423d961029bf7673b3d6e78b1a364736f6c634300060c0033",
  "immutableReferences": {},
  "source": "// SPDX-License-Identifier: MIT\npragma solidity 0.6.12;\n\nimport \"@openzeppelin/contracts/access/Ownable.sol\";\nimport \"@openzeppelin/contracts/utils/Address.sol\";\nimport \"@openzeppelin/contracts/token/ERC20/IERC20.sol\";\nimport \"@openzeppelin/contracts/token/ERC20/SafeERC20.sol\";\nimport \"@openzeppelin/contracts/math/SafeMath.sol\";\nimport \"./interfaces/IReferral.sol\";\n\ncontract Referral is IReferral, Ownable {\n    using SafeERC20 for IERC20;\n    using SafeMath for uint256;\n\n    mapping(address => bool) public operators;\n    mapping(address => address) public referrers; // user address => referrer address\n    mapping(address => uint256) public referralsCount; // referrer address => referrals count\n    mapping(address => uint256) public totalReferralCommissions; // referrer address => total referral commissions\n\n    event ReferralRecorded(address indexed user, address indexed referrer);\n    event ReferralCommissionRecorded(address indexed referrer, uint256 commission);\n    event OperatorUpdated(address indexed operator, bool indexed status);\n\n    modifier onlyOperator {\n        require(operators[msg.sender], \"Operator: caller is not the operator\");\n        _;\n    }\n\n    function recordReferral(address _user, address _referrer) public override onlyOperator {\n        if (_user != address(0)\n            && _referrer != address(0)\n            && _user != _referrer\n            && referrers[_user] == address(0)\n        ) {\n            referrers[_user] = _referrer;\n            referralsCount[_referrer] += 1;\n            emit ReferralRecorded(_user, _referrer);\n        }\n    }\n\n    function recordReferralCommission(address _referrer, uint256 _commission) public override onlyOperator {\n        uint256 prevCommissionTotal = totalReferralCommissions[_referrer];\n        if (_referrer != address(0) && _commission > 0) {\n            totalReferralCommissions[_referrer] = prevCommissionTotal.add(_commission);\n            emit ReferralCommissionRecorded(_referrer, _commission);\n        }\n    }\n\n    // Get the referrer address that referred the user\n    function getReferrer(address _user) public override view returns (address) {\n        return referrers[_user];\n    }\n\n    // Update the status of the operator\n    function updateOperator(address _operator, bool _status) external onlyOwner {\n        operators[_operator] = _status;\n        emit OperatorUpdated(_operator, _status);\n    }\n\n    // Owner can drain tokens that are sent here by mistake\n    function drainERC0Token(IERC20 _token, uint256 _amount, address _to) external onlyOwner {\n        _token.safeTransfer(_to, _amount);\n    }\n}",
  "sourcePath": "/workspaces/beli-farm/src/contracts/Referral.sol",
  "compiler": {
    "name": "solc",
    "version": "0.6.12+commit.27d51765.Emscripten.clang"
  },
  "schemaVersion": "3.4.3",
  "updatedAt": "2022-03-02T01:51:47.706Z",
  "networkType": "ethereum",
  "devdoc": {
    "kind": "dev",
    "methods": {
      "owner()": {
        "details": "Returns the address of the current owner."
      },
      "renounceOwnership()": {
        "details": "Leaves the contract without owner. It will not be possible to call `onlyOwner` functions anymore. Can only be called by the current owner. NOTE: Renouncing ownership will leave the contract without an owner, thereby removing any functionality that is only available to the owner."
      },
      "transferOwnership(address)": {
        "details": "Transfers ownership of the contract to a new account (`newOwner`). Can only be called by the current owner."
      }
    },
    "version": 1
  },
  "userdoc": {
    "kind": "user",
    "methods": {},
    "version": 1
  }
}