{
  "contractName": "Multicall",
  "abi": [
    {
      "inputs": [
        {
          "components": [
            {
              "internalType": "address",
              "name": "target",
              "type": "address"
            },
            {
              "internalType": "bytes",
              "name": "callData",
              "type": "bytes"
            }
          ],
          "internalType": "struct Multicall.Call[]",
          "name": "calls",
          "type": "tuple[]"
        },
        {
          "internalType": "bool",
          "name": "strict",
          "type": "bool"
        }
      ],
      "name": "aggregate",
      "outputs": [
        {
          "internalType": "uint256",
          "name": "blockNumber",
          "type": "uint256"
        },
        {
          "components": [
            {
              "internalType": "bool",
              "name": "success",
              "type": "bool"
            },
            {
              "internalType": "bytes",
              "name": "data",
              "type": "bytes"
            }
          ],
          "internalType": "struct Multicall.Return[]",
          "name": "returnData",
          "type": "tuple[]"
        }
      ],
      "stateMutability": "nonpayable",
      "type": "function"
    },
    {
      "inputs": [
        {
          "internalType": "address",
          "name": "addr",
          "type": "address"
        }
      ],
      "name": "getEthBalance",
      "outputs": [
        {
          "internalType": "uint256",
          "name": "balance",
          "type": "uint256"
        }
      ],
      "stateMutability": "view",
      "type": "function",
      "constant": true
    },
    {
      "inputs": [
        {
          "internalType": "uint256",
          "name": "blockNumber",
          "type": "uint256"
        }
      ],
      "name": "getBlockHash",
      "outputs": [
        {
          "internalType": "bytes32",
          "name": "blockHash",
          "type": "bytes32"
        }
      ],
      "stateMutability": "view",
      "type": "function",
      "constant": true
    },
    {
      "inputs": [],
      "name": "getLastBlockHash",
      "outputs": [
        {
          "internalType": "bytes32",
          "name": "blockHash",
          "type": "bytes32"
        }
      ],
      "stateMutability": "view",
      "type": "function",
      "constant": true
    },
    {
      "inputs": [],
      "name": "getCurrentBlockTimestamp",
      "outputs": [
        {
          "internalType": "uint256",
          "name": "timestamp",
          "type": "uint256"
        }
      ],
      "stateMutability": "view",
      "type": "function",
      "constant": true
    },
    {
      "inputs": [],
      "name": "getCurrentBlockDifficulty",
      "outputs": [
        {
          "internalType": "uint256",
          "name": "difficulty",
          "type": "uint256"
        }
      ],
      "stateMutability": "view",
      "type": "function",
      "constant": true
    },
    {
      "inputs": [],
      "name": "getCurrentBlockGasLimit",
      "outputs": [
        {
          "internalType": "uint256",
          "name": "gaslimit",
          "type": "uint256"
        }
      ],
      "stateMutability": "view",
      "type": "function",
      "constant": true
    },
    {
      "inputs": [],
      "name": "getCurrentBlockCoinbase",
      "outputs": [
        {
          "internalType": "address",
          "name": "coinbase",
          "type": "address"
        }
      ],
      "stateMutability": "view",
      "type": "function",
      "constant": true
    }
  ],
  "bytecode": "0x608060405234801561001057600080fd5b50610616806100206000396000f3fe608060405234801561001057600080fd5b50600436106100885760003560e01c806372425d9d1161005b57806372425d9d146100e757806386d516e8146100ef578063a8b0574e146100f7578063ee82ac5e1461010c57610088565b80630f28c97d1461008d57806317352e13146100ab57806327e86d6e146100cc5780634d2301cc146100d4575b600080fd5b61009561011f565b6040516100a291906104b7565b60405180910390f35b6100be6100b936600461037c565b610123565b6040516100a29291906104f5565b610095610286565b6100956100e236600461035a565b61028f565b61009561029c565b6100956102a0565b6100ff6102a4565b6040516100a291906104a3565b61009561011a36600461046f565b6102a8565b4290565b8151439060609067ffffffffffffffff8111801561014057600080fd5b5060405190808252806020026020018201604052801561017a57816020015b6101676102ac565b81526020019060019003908161015f5790505b50905060005b845181101561027e576000606086838151811061019957fe5b6020026020010151600001516001600160a01b03168784815181106101ba57fe5b6020026020010151602001516040516101d39190610487565b6000604051808303816000865af19150503d8060008114610210576040519150601f19603f3d011682016040523d82523d6000602084013e610215565b606091505b5091509150851561024657816102465760405162461bcd60e51b815260040161023d906104c0565b60405180910390fd5b604051806040016040528083151581526020018281525084848151811061026957fe5b60209081029190910101525050600101610180565b509250929050565b60001943014090565b6001600160a01b03163190565b4490565b4590565b4190565b4090565b60408051808201909152600081526060602082015290565b80356001600160a01b03811681146102db57600080fd5b92915050565b803580151581146102db57600080fd5b600082601f830112610301578081fd5b813567ffffffffffffffff811115610317578182fd5b61032a601f8201601f1916602001610589565b915080825283602082850101111561034157600080fd5b8060208401602084013760009082016020015292915050565b60006020828403121561036b578081fd5b61037583836102c4565b9392505050565b6000806040838503121561038e578081fd5b823567ffffffffffffffff808211156103a5578283fd5b818501915085601f8301126103b8578283fd5b8135818111156103c6578384fd5b60206103d58182840201610589565b82815281810190858301875b8581101561044f57813588016040818e03601f1901121561040057898afd5b61040a6040610589565b6104168e8884016102c4565b8152604082013589811115610429578b8cfd5b6104378f89838601016102f1565b828901525085525092840192908401906001016103e1565b50508097505050610462888289016102e1565b9450505050509250929050565b600060208284031215610480578081fd5b5035919050565b600082516104998184602087016105b0565b9190910192915050565b6001600160a01b0391909116815260200190565b90815260200190565b6020808252818101527f4d756c746963616c6c206167677265676174653a2063616c6c206661696c6564604082015260600190565b600060408083018584526020828186015281865180845260609350838701915083838202880101838901875b8381101561057957898303605f190185528151805115158452860151868401899052805189850181905261055a818a8701848b016105b0565b95870195601f01601f1916939093018701925090850190600101610521565b50909a9950505050505050505050565b60405181810167ffffffffffffffff811182821017156105a857600080fd5b604052919050565b60005b838110156105cb5781810151838201526020016105b3565b838111156105da576000848401525b5050505056fea2646970667358221220a99e88b429f01f828376a0e3f13cadd1fe4f2c29afea96bc40987de42dfc91f264736f6c634300060c0033",
  "immutableReferences": {},
  "source": "// SPDX-License-Identifier: MIT\npragma solidity 0.6.12;\npragma experimental ABIEncoderV2;\n\n/// @title Multicall - Aggregate results from multiple read-only function calls\n/// @author Michael Elliot <mike@makerdao.com>\n/// @author Joshua Levine <joshua@makerdao.com>\n/// @author Nick Johnson <arachnid@notdot.net>\n\ncontract Multicall {\n    struct Call {\n        address target;\n        bytes callData;\n    }\n    struct Return {\n      bool success;\n      bytes data;\n    }\n    function aggregate(Call[] memory calls, bool strict) public returns (uint256 blockNumber, Return[] memory returnData) {\n        blockNumber = block.number;\n        returnData = new Return[](calls.length);\n        for(uint256 i = 0; i < calls.length; i++) {\n            (bool success, bytes memory ret) = calls[i].target.call(calls[i].callData);\n            if (strict) {\n              require(success, \"Multicall aggregate: call failed\");\n            }\n            returnData[i] = Return(success, ret);\n        }\n    }\n    // Helper functions\n    function getEthBalance(address addr) public view returns (uint256 balance) {\n        balance = addr.balance;\n    }\n    function getBlockHash(uint256 blockNumber) public view returns (bytes32 blockHash) {\n        blockHash = blockhash(blockNumber);\n    }\n    function getLastBlockHash() public view returns (bytes32 blockHash) {\n        blockHash = blockhash(block.number - 1);\n    }\n    function getCurrentBlockTimestamp() public view returns (uint256 timestamp) {\n        timestamp = block.timestamp;\n    }\n    function getCurrentBlockDifficulty() public view returns (uint256 difficulty) {\n        difficulty = block.difficulty;\n    }\n    function getCurrentBlockGasLimit() public view returns (uint256 gaslimit) {\n        gaslimit = block.gaslimit;\n    }\n    function getCurrentBlockCoinbase() public view returns (address coinbase) {\n        coinbase = block.coinbase;\n    }\n}",
  "sourcePath": "/workspaces/beli-farm/src/contracts/MultiCall.sol",
  "compiler": {
    "name": "solc",
    "version": "0.6.12+commit.27d51765.Emscripten.clang"
  },
  "schemaVersion": "3.4.3",
  "updatedAt": "2022-03-02T01:51:51.738Z",
  "networkType": "ethereum",
  "devdoc": {
    "author": "Michael Elliot <mike@makerdao.com>Joshua Levine <joshua@makerdao.com>Nick Johnson <arachnid@notdot.net>",
    "kind": "dev",
    "methods": {},
    "title": "Multicall - Aggregate results from multiple read-only function calls",
    "version": 1
  },
  "userdoc": {
    "kind": "user",
    "methods": {},
    "version": 1
  }
}